:020000040800F2
:100000001822062049030008EDAA000849930008B9
:10001000E9AA000845210008A1DE00085B030008EA
:10002000000000000000000000000000E1C2000825
:10003000492100080000000051BF000815C3000856
:1000400065030008650300086503000865030008F0
:1000500065030008650300086503000865030008E0
:10006000650300086503000865030008B92200085D
:10007000C122000865030008650300086503000845
:10008000C92200086503000865030008650300082D
:1000900065030008650300086503000865030008A0
:1000A0006503000865030008650300086503000890
:1000B0000000000031260008650300086503000801
:1000C0006503000865030008650300086503000870
:1000D0006503000865030008650300086503000860
:1000E0006503000865030008650300086503000850
:1000F0006503000865030008650300086503000840
:100100006503000881C30008650300086503000853
:10011000650300086503000865030008650300081F
:100120006503000865030008650300088DC1000829
:1001300065030008650300086503000865030008FF
:1001400065030008F1CA000865030008650300089C
:1001500065030008650300086503000865030008DF
:1001600065030008650300086503000865030008CF
:1001700065030008650300086503000865030008BF
:1001800065030008650300086503000865030008AF
:10019000650300086503000865030008650300089F
:1001A000650300086503000865030008650300088F
:1001B00065030008000000006503000865030008EF
:1001C00065030008000000006503000865030008DF
:1001D000650300086503000865030008650300085F
:1001E000650300086503000865030008650300084F
:1001F000000000000000000065030008650300081F
:10020000650300086503000865030008650300082E
:10021000650300086503000865030008650300081E
:10022000650300086503000865030008650300080E
:10023000650300086503000800F002F800F075F897
:1002400014A696E8000CB244B344DA4501D100F09C
:100250006CF8BAE80F000FA696E83000A5EB04058D
:1002600004EB0607AAEB0704A7F101074FEA1515EF
:100270004FEA3414A4F10104AC4201D300F055F864
:1002800013F0010F18BFFB1A43F0010300F001F84F
:10029000DBE7184700D8040020D80400103A24BF38
:1002A00078C878C1FAD8520724BF30C830C144BFDB
:1002B00004680C60704700007047000000230024B1
:1002C00000250026103A28BF78C1FBD8520728BF66
:1002D00030C148BF0B607047672904F09CA76929AB
:1002E00000F00482642900F00182782900F03A824B
:1002F000732901F01E80002070471FB544F076FF7F
:100300009DE8030000F04AFD01F022FB04000020FC
:10031000002144F0B7FC401C60600020002144F044
:10032000C7FCE0601FBD10B510BD01F052FC1146C6
:10033000FFF7E3FF39F088F801F0A6FE03B4FFF7FA
:10034000F2FF03BC10F06EFB0A4880470A480047E2
:10035000FEE7FEE7FEE7FEE7FEE7FEE7FEE7FEE775
:10036000FEE7FEE7FEE7000004480549054A064BA4
:100370007047000035C3000839020008181C062029
:1003800018220620181E0620181E0620704770B579
:10039000064600F0E7FC056806F10B0020F00704B4
:1003A000B4429CBF002070BD2B466A68BAB1106889
:1003B000A04210D304F1080188423CBF5068586045
:1003C00007D35168101941601168091B016058601A
:1003D0001460101D70BD13465268002AE7D12146F3
:1003E000284600F0C7FC0028DED170BD70B5044679
:1003F000051F00F0B7FC0068002C14BF446870BDF6
:10040000002C18BFAC423CBF20466468F8D301689A
:100410000A18AA4218BF456003D12A68054611444C
:10042000016028684119A1421CBF6C6070BD616801
:10043000696021680844286070BD70B50D460646A5
:10044000041F00F08FFC0268BDB1DEB105F10B00A6
:1004500020F00701A9423CBF002070BD23688B42F9
:1004600038BF506813D35A1A082A36D3601840F898
:10047000042B2160FFF7BAFF2FE03046FFF7B6FFED
:10048000002070BD2846BDE87040FFF780BF0028FF
:1004900018BFA0423CBF02464068F8D303EB040CEF
:1004A00084451CD1D0F800C06344994217D8A3EB0F
:1004B000010CBCF1080F0DD3D0F804C06318C3F8C9
:1004C00004C0D4F800C000686044401A186021607D
:1004D000536002E0236040685060201D70BD2846D4
:1004E000FFF755FF050008D031462068021F284657
:1004F00000F038FB201DFFF779FF284670BD53EA56
:10050000020C00F069802DE9F04B4FF00006002B43
:100510001FBFB3FA83F503FA05F424FA05F65E402B
:1005200012BF1643B2FA82F502FA05F4C5F12005AE
:100530001EBF22FA05FC44EA0C04203556EA044C9E
:100540004FEA144418BF641C4FF000084FF0000934
:10055000904271EB030C39D3002919BFB1FA81F72E
:1005600001FA07F6B0FA80F700FA07F6C7F120079C
:100570001EBF20FA07FC46EA0C062037B6FBF4FC47
:10058000A7EB0507103F07F01F0BCBF120062CFA55
:1005900006F60CFA0BFB44BFB3460026202FA4BF7F
:1005A0005E464FF0000B5BEA060C08BF4FF0010BF4
:1005B00019EB0B0948EB0608ABFB027C06FB02CCEF
:1005C0000BFB03CCC01B71EB0C01C1E70B460246D1
:1005D00041464846BDE8F08B13B5084318BF4FF0BD
:1005E000FF300146AFF30080BDE81C40704710B5F6
:1005F000044600F0AFFB0068005DC00602D504F1C0
:10060000200010BD204610BD0FB4044910B503AA48
:10061000029800F093FE10BC5DF814FBBC080020AB
:100620000FB41CB5084B06AA7B4469460090059898
:1006300000F055FE04460020694600F063FE2046A7
:100640001CBC5DF814FB0000D90C000070B504461A
:1006500085690068C10601D5302600E02026C00764
:1006600007D070BDD4E9012130469047206A401C74
:1006700020626D1EF6D570BD70B5044685690078A0
:10068000C00707D170BDD4E9012120209047206A1E
:10069000401C20626D1EF6D570BD70B50C46054637
:1006A000012A05D02878800600D5EA69002302E0F7
:1006B000012305E05B1C934202D2E05C0028F9D1E3
:1006C000A869E618C01AA861286A18442862284652
:1006D000FFF7BCFF04E0D5E9012114F8010B9047B6
:1006E000B442F8D32846FFF7C7FF70BD2DE9F041AB
:1006F0000646002410687529314616A510D0AFF3C0
:100700000080002802DA404213A507E031688A071A
:1007100001D512A502E0490704D511A5012401E085
:10072000AFF3008000210A2206F1240709E0B0FBA4
:10073000F2FCB0FBF2F302FB1C0030307854184698
:10074000491C0028F3D123462A463046BDE8F04133
:1007500000F059BB000000002D0000002B0000003D
:100760002000000070B504460D4621461068AFF326
:1007700000802188090502D50F4A7A4402E00E4A1A
:100780007A440E32002104F1240305E000F00F0644
:100790000009965D5E54491C0028F7D1207800239B
:1007A000000704D5702D02D009B102231132204672
:1007B000BDE8704000F027BB984B04002DE9F05FC6
:1007C000894604464FF0000ADFF874B1FB44C0F8D4
:1007D00020A02046E1688847002874D0252806D04C
:1007E000D4E901219047206A401C2062F1E70026ED
:1007F0005F462046E16888472028054607DB312D03
:1008000005D2781910F8200C08B10643F1E7B007BB
:1008100001D526F00406C4F81CA00027C4F818A0CF
:100820002A2D09D0284644F0DEF938B304EB8708B6
:10083000303DC8F8185019E059F8041B204604EB65
:1008400087029161E1688847012F054618D1E06968
:10085000002820DA26F020061DE0D8F8180000EB6A
:10086000800005EB40003038C8F818002046E168E9
:100870008847054644F0B7F90028EED1012F0AD089
:100880002E2D08D12046E16888477F1C0546022F9F
:1008900046F02006C4DBA069002803DA404246F097
:1008A0000106A061F00701D026F010066C2D0BD0D8
:1008B000682D09D04C2D39D06A2D35D0742D35D006
:1008C0007A2D33D016E038E0E1682F46204688477D
:1008D000B842054609D16C2F26D04FF48060E168FC
:1008E000064320468847054604E06C2F1AD04FF493
:1008F000807006430DB3A5F14100192802D82035B8
:1009000046F400664A462946204626604E46FFF7D2
:10091000E3FC80B101280BD0F61D26F0070000F1A2
:10092000080956E74020E4E78020D8E70020D6E712
:1009300006F104094DE7284652E7206ABDE8F09F1A
:100940006E4B040010B5044603E016F05FF9401C3E
:1009500009D014F8010B05490028F6D1BDE8104074
:100960000A2016F053B94FF0FF3010BDBC0800202C
:10097000401ECAB210F8011F8A4202D00029F9D1E4
:100980000020704730B505460B462A4613F8014B48
:1009900012F8010B08B1A042F8D01CB1002802D017
:1009A0006D1CF1E7284630BD40EA0103024630B530
:1009B0009B0710D14FF0013400E008C208C91D1B8D
:1009C0009D4315EAC41FF8D013F0FF0102F8011B84
:1009D0000DD01B0AF8E711F8013B002B02F8013B90
:1009E00005D011F8013B002B02F8013BF3D130BDDB
:1009F0000022CBB210F8011B994200D1421E0029FF
:100A0000F8D11046704710B5431C02E010F8011BE6
:100A100071B18107FAD14FF0013202C88C1A8C43B0
:100A200014EAC211F9D0C01A0A0603D0C01E10BDC4
:100A3000C01A10BD0A0401D0801E10BD0902FCD0EE
:100A4000401E10BD40EA010370B59B072ED14FF048
:100A50000136042A2AD308C810C99D1B9D43121FC2
:100A600015EAC61517D0D8B2E1B2401A50EA0561AE
:100A700010D198B2A1B2401A50EA05410AD123F030
:100A80007F4024F07F41401A50EA052102D1180E20
:100A9000A0EB146070BDA342DBD018BA21BA884223
:100AA00001D9012070BD4FF0FF3070BD0AB90020A0
:100AB00070BD10F8013B11F8014B63B1A3420AD19C
:100AC000521E08D010F8013B11F8014B1BB1A34294
:100AD00001D1521EEDD1181B70BD032A40F23080A7
:100AE00010F0030C00F0158011F8013BBCF1020F6F
:100AF000624498BF11F801CB00F8013B38BF11F8F0
:100B0000013BA2F1040298BF00F801CB38BF00F806
:100B1000013B11F0030300F02580083AC0F0088083
:100B200051F8043B083A51F804CBA0E80810F5E767
:100B3000121D5CBF51F8043B40F8043BAFF300804A
:100B4000D20724BF11F8013B11F801CB48BF11F8BF
:100B5000012B24BF00F8013B00F801CB48BF00F88F
:100B6000012B704710B5203AC0F00B80B1E8185047
:100B7000A0E81850B1E81850A0E81850203ABFF487
:100B8000F5AF5FEA027C24BFB1E81850A0E8185026
:100B900044BF18C918C0BDE810405FEA827C24BF7A
:100BA00051F8043B40F8043B08BF7047D20728BF08
:100BB00031F8023B48BF11F8012B28BF20F8023B57
:100BC00048BF00F8012B704702F0FF0343EA0322FD
:100BD00042EA024200F00AB802F0FF0343EA0322AD
:100BE00042EA024200F024B84FF000020429C0F0AB
:100BF000128010F0030C00F01B80CCF1040CBCF14F
:100C0000020F18BF00F8012BA8BF20F8022BA1EBA0
:100C10000C0100F00DB85FEAC17C24BF00F8012B85
:100C200000F8012B48BF00F8012B70474FF000027D
:100C300000B5134694469646203922BFA0E80C50D2
:100C4000A0E80C50B1F12001BFF4F7AF090728BFAD
:100C5000A0E80C5048BF0CC05DF804EB890028BF29
:100C600040F8042B08BF704748BF20F8022B11F052
:100C7000804F18BF00F8012B704710B5044610F0E4
:100C8000030F08BF11F0030F40F015804FF0013E35
:100C9000121FC0F20E8051F8043BA3EB0E0C2CEA9D
:100CA000030C1CEACE1C08BF40F8043BF0D0A1F1B5
:100CB000040102F10402521E08DB11F8013B00F8A6
:100CC000013B002BF7D11146FFF78EFF204610BDE8
:100CD00030B44FF0013C50F8042B51F8043BCCFAEF
:100CE00052F4D51A20D1FCB950F8042B51F8043B2A
:100CF000CCFA52F4D51A17D1B4B950F8042B51F8E4
:100D0000043BCCFA52F4D51A0ED16CB950F8042B2E
:100D100051F8043BCCFA52F4D51A05D1002CDAD0A4
:100D200030BC4FF00000704729BAB1FA81F111F0E0
:100D30001801D1F120008440F2D1CA40CB4012F01A
:100D4000FF0213F0FF0330BCD01A704770477047A2
:100D50007047704710B500F0FBFD001D10BD00BFCF
:100D6000253F040000487047E800002070477047A6
:100D70007047704738B504460A4600206946AFF30D
:100D80000080002808BF38BD02460099204600F0C8
:100D9000E7FD012038BD012000F014BFF8B5AFF326
:100DA0000080054600200C460C2000BF0646A8190E
:100DB000A0420DD9324669460020AFF300800700FB
:100DC00008BF00F0FFFE0098A04218BF0546C419F6
:100DD000FFF7C8FF05600746F01D20F00700461921
:100DE000284600F00AF8B44208BFF8BDA21B3146FD
:100DF0003868BDE8F84000F0B3BD002101604160F3
:100E000070470C2070472DE9F0470D4699469246F1
:100E1000044600F124080168880604D5E06921F041
:100E20001001216000E00120A84201DD471B00E025
:100E30000027A1697A1902EB0900081AA06120783D
:100E4000C00602D42046FFF701FC002608E0D4E9E2
:100E500001211AF806009047206A401C761C206287
:100E60004E45F4DB2078C0060AD52046FFF7EEFB9E
:100E700006E0D4E9012130209047206A401C20621E
:100E8000381EA7F10107F4DC07E0D4E9012118F8C6
:100E900005009047206A401C2062281EA5F101052C
:100EA000F3DC2046FFF7E8FB2078000602D502209D
:100EB000BDE8F0870120FBE72DE9FF4F0C461E46F9
:100EC0004FF0FF378BB0D2E90001DDF860800A9067
:100ED0008A46C1F30A5505B93D46002108464FF040
:100EE0000000BAF1000F00F4400005DA00EB8000CA
:100EF0004FF4400101EA50004FEA9059B9F1010F57
:100F000000DDB9460A9850EA4A000ED044F6105067
:100F1000A5F2FF3545432F14B8F1000F1ED07542DE
:100F2000291E1EDDC9F100021CE0B8F1010F4FF0CF
:100F3000000001D0302103E0F24305E02154401CC1
:100F4000B042FBDB30460022002121540B99C1F84E
:100F50000880C1E900200FB0BDE8F08FBD1B6D1CFB
:100F6000DEE74A4600DA694206A800F0B5FD06ABA6
:100F700093E8070003AB83E8070050460A9943F063
:100F8000BBF88DE80700A0F500501F3800900398CB
:100F9000002D0ADD42F21F014A460844002303A93E
:100FA0000390684643F066FB09E0A0F500504A460E
:100FB0001F38002303A90390684643F085FB8DE8A2
:100FC00007000004000C03D04FF0FF30410800E0A0
:100FD0001046B8F1000F03D00022009215461EE023
:100FE000751E05D400F0E9FC303262556D1EF9D54E
:100FF000B3460122084302D000227F1C04E020787F
:10100000302801D100227F1E002A099784D01DE0DC
:10101000112D07DA00F0D1FC303262556D1C50EA18
:101020000102F5D1084302D00098C8B10EE00021BA
:10103000681E05E0235C625C63542254401E491C18
:101040008142F7DBAB46A81B401E0990002004F844
:101050000B000B98099AC0F80880C0E9002B7AE7CA
:1010600011264FF0000857E72DE9F04F8846044657
:10107000D21D22F0070191B0D1E90001CDE90A01AA
:1010800043F06EFC02460B98C00F01D02D2007E004
:101090002068810701D52B2002E0202101EAC00051
:1010A000032A099001D0072A05DB03464146204662
:1010B00000F0D2FC0BE12078800601D5E06900E069
:1010C0000620B8F1650F814606D0B8F1660F18D03A
:1010D000B8F1670F70D131E00020B9F1110F009025
:1010E00001DB112301E009F101030AAA01A90CA8FF
:1010F000FFF7E2FEDDE90C70002609F101058346E9
:1011000047E001204B4600904FF000470AAA01A992
:101110000CA8FFF7D1FEDDE90DB00C995D46002665
:1011200010B909F101000D18B9EB050003D4C0F1A5
:10113000FF3609F10105A5EB09002BE0B9F1010F1C
:1011400001DA4FF001090020B9F1110F0090484673
:1011500001DD112300E003460AAA01A90CA8FFF74C
:10116000ABFEDDE90C704D46002683462078000773
:101170000AD4AB4500DA5D4601A8012D04DD411912
:1011800011F8011C302907D04F4502DA17F1040F7E
:1011900004DA012082460FE06D1EEEE7002F02DC2C
:1011A000ED1B3E4403E0781CA84200DD7D1CB81B0B
:1011B00000F1010A4FF000472078000703D4AA4548
:1011C00001DB4FF0FF3A0021B7F1004F0DF143086A
:1011D0008DF8431024D002202B23002F01DA7F4208
:1011E0002D230A21021EA0F1010000DC5FB197FB54
:1011F000F1FC97FBF1F201FB1C7C17460CF1300C63
:1012000008F801CDEEE7A8F1010003702188090577
:1012100001D5452100E06521A0F1010800F8011C7D
:1012200009980FA9A1EB0807FF1D00B10120411982
:1012300001EBEA70A1693844081A401EA0612078C9
:10124000C00602D42046FFF701FA099828B1D4E974
:1012500001219047206A401C20622078C00622D5D8
:101260002046FFF7F3F91EE0002E04DBB34502DD54
:1012700001A8805D00E03020D4E901219047206A78
:10128000401C2062761CAAF101005FEA000A0AD124
:1012900000F05EFBC0680168405CD4E90121904722
:1012A000206A401C2062281EA5F10105DCDC07E055
:1012B000D4E9012118F8010B9047206A401C2062F4
:1012C000381EA7F10107F3DC2046FFF7D5F903200C
:1012D00011B041E601694A1C02610878704700B507
:1012E0008FB0CDE901310021059105497944CDE95F
:1012F000031011466846FFF761FA0FB000BD000009
:10130000E5FFFFFF0A6802F8010B0A60704710B59D
:10131000436913B1AFF3008001E0FFF7BEF901208C
:1013200010BD127800F124010A7000224A700122D7
:10133000EDE711684FF0FF32E9E70000074B70B5A9
:101340000D467B44FFF7CBFF0446284600F036FCF1
:1013500010B14FF0FF3070BD204670BDC75801007E
:101360002DE9FF4F06468BB00878FF2806D0491CB0
:101370002D2805D000244FF0000908E000200CE0E3
:101380000124F8E709EB8903491C00EB43090878BD
:10139000FF28F7D114B1C9F100008146107800256B
:1013A0002C46AA4629462D2801D02B2804D1521CB0
:1013B0002D2813D0002082468B461078FF280FD0AE
:1013C0004FF0000C0A21521CA5FB017804FB01819F
:1013D00005FB0C11C5194BEB0104EEE70120EAE710
:1013E000002108464FF00000BAF1000F02D000EBD8
:1013F00080004008C0F38157012F01DD4FF0FF3717
:101400000E9955EA040009EB01080BD04FF00209D0
:1014100018F5FA7F16DA4FEACA70002F706008DDFF
:10142000012007E04FEACA70C6E900B00FB0BDE87E
:10143000F08F0020306000F08FFAC0F80090182183
:10144000084616E0B8F5FA7F18DD002F02DAF748F3
:10145000784401E0F6487844D0E90010C6E900106D
:1014600040EACA70706000F077FAC0F8009014216A
:1014700008460FB0BDE8F04F43F0CABE0021084651
:101480004FF00000B8F10001099002DAC7F1000244
:1014900000E03A4601DAC8F1000106A800F01CFBA2
:1014A00006AB93E8070003AB83E8070044F23E0075
:1014B0005BEA04010090584604D144F21E012C4618
:1014C0005D460091210C0904014306D100992404D2
:1014D00044EA15442D041039009104F07F41014382
:1014E00006D10099240244EA15642D0208390091BE
:1014F00004F07041014306D10099240144EA1574B7
:101500002D01091F009104F04041014306D10099CB
:10151000A40044EA9574AD00891E009104F00041D6
:10152000084304D100986D196441401E00904FF0AB
:1015300001033A466846B8F1000FCDE9014503A919
:1015400002DD43F0D6F801E043F0A9F8BAF1000F4C
:1015500004460D4601D084F00044002108464FF0B7
:101560000000099940F2FF77484010F00C0F07D1B6
:1015700024F00040284303D0C4F30A50B84212D1EB
:1015800000F0EAF9C0F80090C4F30A50B8420AD15A
:10159000A8487844D0E90010C6E9001004F00041E2
:1015A0000843706042E7C6E900543FE72DE9FF4F6A
:1015B0001F464FF0000A4FF0FF38454691B0D7E97B
:1015C0000146CDF83CA000F0C3F9C0680168405C5A
:1015D0001090B96912986D1C8847396A814688470E
:1015E0000028F6D1B9F1FF3F0AD0002E24F4D064D0
:1015F00011DDB9F12B0F08D0B9F12D0F0BD102E09D
:10160000404615B013E744F48064B96912986D1C24
:101610008847761E8146600504A901D52D2000E08B
:101620002B20002E01F1010B0DF130088DF8100078
:101630003FDDB9F1690F08D0B9F1490F05D0B9F113
:101640006E0F02D0B9F14E0F1CD13B4601A8009598
:1016500080E85002DDE912126FF0020043F041FE13
:10166000C11CCED10EE0B96912986D1C8847814625
:101670001398761E44F4007405600F98401C002EE9
:101680000F9016DDB9F1300FEDD0B9F1780F02D01F
:10169000B9F1580F0DD10F9801280AD13B46CDE979
:1016A0000054DDE91212001F029643F018FEC11C1F
:1016B000A7D1109989453ED144F0800406E01399E2
:1016C000681CAAF1010A44F400740860B9696D1C31
:1016D0001298761E884730288146F0D02BE010996A
:1016E000894505D1200603D4761E44F0800418E015
:1016F000484643F078FA08B3761E0DF1230293456D
:10170000A9F1300044F4007406D20BF8010B200656
:1017100007D5AAF1010003E0200602D40AF1010076
:101720008246A00502D51399681C0860B969129811
:101730006D1C88478146002ED1DC53E0002E51DD20
:10174000B9F1650F02D0B9F1450F4BD1A00549D5CC
:10175000B9696D1C1298761E24F440748847002ED7
:1017600081460CDD2B2804D0B9F12D0F07D144F4AC
:101770008074B96912986D1C8847761E8146E00511
:1017800001D52D2100E02B2108F8011BCDF80080A8
:1017900021E0761E0DF13901884544F400740CD225
:1017A000A9F1300010F0FF0088F8000002D1009984
:1017B000884509D908F1010806E0E00501D51E4871
:1017C00001E042F20F708246B96912986D1C884799
:1017D000814613980560002E04DD484643F003FA65
:1017E0000028D6D1F96912988847FF2053468BF814
:1017F000000088F8000000200A900B9004AA0CA9B1
:101800000AA8FFF7ADFDA00502D46FF00100F8E6CD
:1018100014F0240F12D0E0071CD13868DDE90A1259
:10182000031D3B600068C0E9001213E068C60400B5
:101830005AC604001EC50400F1D8FFFF0AA9684675
:1018400043F0BEF9E00705D13868009A011D396000
:10185000006802602846D4E6426842B1016811F887
:10186000013B23B1521EC0E9001218467047012106
:10187000C160881E704742685AB1C368016843B9A5
:1018800083688B4205D0491E521CC0E9001200201B
:1018900070474FF0FF3070470FB40B0010B54FF09A
:1018A00000048AB00FA900910E99CC60234C7C44AF
:1018B000234A7A44CDE9064200D004236FF0004267
:1018C000CDE901321F4A7A446B4608920246002055
:1018D00043F003FD0AB010BC5DF814FBF0B50746F9
:1018E0004FF0FF301E4615460C463B4685B06A4613
:1018F0000091CDE9010131460020049004A8FFF7D2
:10190000CBFF04990346601825B109B1024600E0F7
:1019100022462A6000290ED0002B02DD0099814268
:1019200009D03B466A463146001B0094CDE90104CC
:1019300004A8FFF7B1FF05B0F0BD0000A7FFFFFF4F
:10194000C1FFFFFF7B01000000487047E00000205E
:10195000004870470001002000487047E000002068
:10196000034640688C46002818BF88423CBF0346A7
:101970004068F8D318681844884207D00CF1030077
:1019800020F00700001D411A521A0146081D0A6086
:10199000FEF72CBDB2F120030AD5C2F1200301FAF3
:1019A00002F120FA03F341EA030100FA02F0704762
:1019B00000FA03F14FF00000704730B5B0F10A02B1
:1019C00071F100034FEA900E4EEA817EB0EB0E00FB
:1019D00061EB91014FEA101E4EEA017E10EB0E0002
:1019E00041EB11114FEA102E4EEA016E10EB0E0082
:1019F00041EB11214FEA104E4EEA014E10EB0E0062
:101A000041EB1141401841F100014FEAD00040EA9A
:101A100041704FEAD1014FEA810444EA907410EB1F
:101A2000800544EB01046D1944EB0404521BA341EF
:101A30004FF0000348BF0A3200D530BD401C41F1D1
:101A4000000130BD10B50446FFF784F90068005D61
:101A500000F0010010BD00002DE9F0411F460446D2
:101A600003260168072A01F4006004DB08B116A50B
:101A700005E016A503E008B115A500E015A521F0C5
:101A800010002060A069C01EA0610FB1401EA061BF
:101A90002046FEF7DBFD4FB1D4E9012138469047DF
:101AA000206A401C2062C01C206206E0206AFAE71F
:101AB000D4E9012115F8010B9047761EF8D2204693
:101AC000FEF7DAFDBDE8F0814E414E006E616E001A
:101AD000494E4600696E66002DE9F047814616467C
:101AE0008AB0354878440DC88DE80D0032487844F6
:101AF000801C03AC0DC884E80D0041F69B300844FF
:101B0000372190FBF1F290FBF1F5A5F1800501FB87
:101B100012041B3C02D56442012000E00020DFF8E3
:101B200098A080460027FA44AAF1BE0A0EE0E0071A
:101B30000AD03246684607EB470101230AEB8101D0
:101B400042F0C2FD8DE8070064107F1C002CEED12E
:101B5000194F7F44AE3F19E0E80715D007EB04109A
:101B60000DF1180A90E80E008AE80E00C068F042F5
:101B700001D1981908903246012306A903A842F022
:101B8000A3FD03AB83E807006D10641C002DE3D1B7
:101B90004FF0010332466946B8F1000F03A802D0A6
:101BA00042F068FD01E042F08FFDC9E90001C9F88B
:101BB00008200AB0BDE8F087E4380400007B00F09C
:101BC0008000704710B500F06DFABDE8104000F0DD
:101BD00064BA7546FFF7B8FEAE460500694653463F
:101BE00020F00700854618B020B5FEF7BDFBBDE824
:101BF00020404FF000064FF000074FF000084FF074
:101C0000000BAC46ACE8C009ACE8C009ACE8C009C0
:101C1000ACE8C00921F007018D46704710B5FFF709
:101C20009BFE006810BD10B50446FFF795FE0460EA
:101C300010BD00002DE9FF4F1F464FF03C0987B053
:101C40004FF00042DDE9141001F10108DDF858A061
:101C500002EA405003900020059083460546044662
:101C60000490B969461E08988847AAF1010A0290B3
:101C7000BAF1000F3BDD02982E2815D0102100F09C
:101C800039FA00282EDB4FF0010B0599014317D0DC
:101C9000B9F1000F0BDB4A46C117FFF77BFE054386
:101CA0000C43A9F1040905E0012004900BE008B100
:101CB00045F0010501200590049820B9361D02E089
:101CC000049800B1361FB969089808F101088847DF
:101CD000BBF1000FAAF1010A0290C9D00999C1F81D
:101CE0000080C5E70298702808D0502806D0F9690E
:101CF00008988847BBF1000F14D04FE000200290F5
:101D00000120BBF1000F049009D0B969089808F1CF
:101D100001088847AAF10109B9F1000F07DCF96948
:101D2000089888476FF001000BB0BDE8F08F2B28B2
:101D300004D02D280CD14FF0FF300490B9690898D9
:101D400008F101088847A9F10109B9F1000FE6DDA2
:101D5000411CE4D00A2100F0CDF90028DFDB029914
:101D600008F1010801EB810100EB41000290B96923
:101D7000089888470A2100F0BDF9099AA9F10109DC
:101D8000B9F1000FC2F8008001DD0028E7DAF96937
:101D9000089888470499029800FB016655EA0400F8
:101DA00004D004F04041090002D006E0039898E016
:101DB000A40044EA9574AD00B61E04F0004108008A
:101DC00002D16D196441761E159810F0240F03D0CE
:101DD0004FF00B095C4803E04FF028096FF07D00DD
:101DE0008246564507DAAAEB06018944B9F1410F4C
:101DF00001DD4FF0410901200021A9F10102FFF7A7
:101E0000C9FD024628400B462140084301D001216C
:101E100000E00021501E029143F1FF312840214093
:101E2000084301D0012000E000200299834651EAD6
:101E30000B014FD0002108464FF00000039900F439
:101E4000400039B100EB80004FF4400100EBD0704E
:101E500001EA60008015012802DD4FF0FF3000E04C
:101E600013D0401C36D0029860B3BBF1000F0CD1E8
:101E70004A4601200021FFF78DFD284021400843FC
:101E800001D0012000E00020E0B101204A460021FD
:101E9000FFF780FD034640190A4661412D1A8C4127
:101EA00011D3B9F1400F09DD159810F0240F02D0BD
:101EB000AAF1340603E0AAF1170600E0761C00251B
:101EC0004FF0004406E05B1E42F1FF3220EA0305BA
:101ED00021EA0204CAF10100B04206DA1B49039864
:101EE00008430190002000900EE0039AC4F3D32130
:101EF000E80A0A43164940EA44500A433146CDE90C
:101F00000002684642F065FE159810F0240F0BD0D1
:101F10001598C00715D13868DDE90012031D3B6034
:101F20000068C0E900120CE002A8694642F048FED1
:101F30001598C00705D13868029A011D39600068FC
:101F400002604046F0E6000002FCFFFF0000F07F68
:101F50000000F03F2DE9FF4F92461D4685B04FF03F
:101F60000041DDE9124BDDE914727F1E01EA4B509E
:101F7000414940F0FF4940EA0108002122F02000D9
:101F80004928049102D04E2828D04CE03BA00126DD
:101F900007C88DE80700A9690698641C88477F1E5A
:101FA000014606D41DF8060018B121F02001814237
:101FB0000BD0E96906988847032E34D0082E32D01A
:101FC0006FF0010009B0BDE8F08F761C032E01D040
:101FD000082EE0D1601CCAF80000DCE7A969069869
:101FE000641C88477F1E2AD420F02000412826D177
:101FF000A9690698641C88477F1E20D420F0200021
:102000004E281CD1A9690698641C88477F1E48F495
:10201000002849F48009CAF8004001D4282806D0D5
:10202000E969069888475FEACB7012D022E0A96977
:102030000698641C88477F1E01D4002803DAE969EA
:1020400006988847BCE72928F1D1641CCAF80040EB
:10205000E9E71BF0240F07D028680499031D2B60C3
:102060000068C0E9001805E02868021D2A600068C1
:10207000C0F800902046A5E70000F07F494E464991
:102080004E4954590000000010B50446AFF30080DB
:102090002046BDE81040FEF751B9002801D00EF0EF
:1020A000C1BC704710B5012805D0002103A000F085
:1020B0002FF8012010BD09A1F8E70000534947524D
:1020C000544D454D3A204F7574206F662068656108
:1020D00070206D656D6F7279000000003A204865D0
:1020E0006170206D656D6F727920636F72727570AB
:1020F000746564003A2800D2303820F02002412A6A
:1021000001D3A2F13700884201D34FF0FF3070476E
:1021100070B505460C460A2000E06D1C0EF084FCEC
:1021200035B128780028F8D102E0641C0EF07CFC60
:1021300014B120780028F8D1BDE870400A200EF0D4
:1021400073BC0000FEE700007047000070B5ADF5FD
:10215000806D002866D07B21FEF70AFC80B17D21CE
:102160000446FEF745FCA8B1001B451CB5F5806F81
:102170001AD34CA0FEF7E6FB0DF5806D70BD00BFD5
:102180004DF26340C0F604000DF5806DBDE870406F
:10219000FEF7D8BB4DF27840C0F604000DF5806D17
:1021A000BDE87040FEF7CEBB6E46304621462A465B
:1021B000FEF793FC0020705530460FF0F1FC08B399
:1021C0001AA104460FF09CFCD0B105460FF0DEFCCE
:1021D000B0B12D7D012D1FD840F6000085F0010221
:1021E000C4F202204FF4005101F0CAF816A017A162
:1021F000002D08BF014616A0FEF706FA0FE000BF4B
:1022000019A00AE00FF074FC60B101461FA0FEF7B0
:10221000FBF90DF5806D70BD06A0FEF793FB20461F
:102220000FF036FC0DF5806D70BD00BF4C4544319C
:10223000000000004C4544E580BCE8B685E587BA5F
:10224000E88C83E59BB40D004F4646004F4E0000DE
:10225000E8A7A3E69E90E68890E58A9F3A204C4541
:1022600044313D25730D0A004A534F4EE5AD97E6C4
:10227000AEB5E7BCBAE5A4B1E68896E7B1BBE59E8A
:102280008BE99499E8AFAF0D000000004A534F4E20
:10229000E8A7A3E69E90E99499E8AFAF3A202573AA
:1022A0000D0A00004A534F4EE695B0E68DAEE8BFEA
:1022B00087E995BF0D000000012000F003BF00007A
:1022C000022000F0FFBE0000202000F0FBBE000056
:1022D000EFF3108072B600BFFEE7000040F200404E
:1022E000C4F202200421012201F04AB840F2004069
:1022F000C4F202200421002201F042B82DE9F0418D
:1023000040F20048C4F202280D460646404601212C
:10231000002201F035F840461021002201F030F88B
:1023200040461021012201F02BF8404610210022E6
:1023300001F026F840460121012201F021F8404633
:102340001021012201F01CF840460421002201F076
:1023500017F8002D43D0741E08F580664046102102
:10236000012201F00DF83046102101F003F8074674
:102370003046202100F0FEFF47EA4007304640216A
:1023800000F0F8FF47EA80073046802100F0F2FFB6
:1023900047EAC00730464FF4807100F0EBFF47EA90
:1023A000001730464FF4007100F0E4FF47EA401791
:1023B00030464FF4806100F0DDFF47EA8017304679
:1023C0004FF4006100F0D6FF47EAC010102104F876
:1023D000010F4046002200F0D3FF013DBED1404630
:1023E00004210122BDE8F04100F0CABF10B540F25F
:1023F0000044C4F2022420460221002200F0C0FF63
:10240000012040F09FFB20460221012200F0B8FF8E
:102410000120BDE8104040F095BB000010B500243D
:10242000C4F2022420464FF40061002200F0A8FF0D
:102430000A2000F0F3FD20464FF40061012200F075
:102440009FFF6420BDE8104000F0E8BD40F2C000EE
:10245000C2F2000001218173704700002DE9F04FA6
:1024600085B046F2D834C2F20204022764260DF188
:1024700009022046702101238DF80970009601F0B1
:10248000F7F8012000F0CAFD02AA204671210123BD
:10249000009601F01DF89DF8080040F2C005C2F258
:1024A0000005287008B9AF702F7246F2D834C2F216
:1024B00002044FF0050B0DF10B02204670210123A1
:1024C0008DF80BB0009601F0D3F8012000F0A6FDC6
:1024D0000DF10A02204671210123009600F0F8FF59
:1024E0009DF80AA002354FEA1A1000EB40000DF1EA
:1024F0000D0215F8101005EB4009023918BF012133
:1025000005F8101003208DF80D00204670210123DE
:10251000009601F0ADF8012000F080FD03AA2046EE
:1025200071210123009600F0D3FF04209DF80C8058
:102530008DF80F000DF10F02204670210123009647
:1025400001F096F8012000F069FD0DF10E02204621
:1025500071210123009600F0BBFF9DF80E0008F0EA
:102560000F0140EA01200DF11102A9F802002046F6
:10257000702101238DF811B0009601F079F8012047
:1025800000F04CFD04AA204671210123009600F0C2
:102590009FFF06209DF810708DF813000DF11302B7
:1025A0002046702101234FF00208009601F060F8E8
:1025B000012000F033FD0DF11202204671210123AC
:1025C000009600F085FF01229DF8120022EA1A12FF
:1025D00007F00F0140EA012042EA4201A9F8040095
:1025E00005F8118005B0BDE8F08F000010B540F28D
:1025F000C004C2F20004A07B002808BF10BDFFF792
:102600002DFFA078012804D1A188E28802A0FDF75F
:10261000FBFF0020A07310BD746F75636820646FAA
:10262000776E20782025642020792025640D0A000B
:1026300046F26030C2F2020000F0F0B8002804BF99
:102640000120704780B5D0F874E0BEF1000F54D07F
:1026500090F8541002680129D2F814C004D002295D
:1026600046D11CF4803143D090F85410012935D163
:1026700090F84C1001294FF0020134D0012380F86A
:102680004C3080F854108EF80C1000218165CEF883
:102690001010516941F4BA415161416E19B151694B
:1026A00041F400715161006F18B1506940F400505D
:1026B0005061DEF800000023016ACFF601034908EB
:1026C00061F3596361F39A634FF6FF7120EA0101E8
:1026D00011604FF6FC7108401844D0675069002122
:1026E00040F001005061BDE880400846704700BFDF
:1026F00040218165002180F84C100121BDE8804017
:1027000008467047B0B5044600F040FE002C04BFF8
:102710000120B0BD054694F85400022824D1206859
:10272000416941F004014161052084F8540000BF73
:102730002168086980041FD400F028FE401B062889
:10274000F6D3A06D40F01000A065032084F854007B
:1027500094F8500000064FF0010001D5616F087336
:10276000002184F84C10B0BD2020A065012000217C
:1027700084F84C10B0BD00BF4869012240F002004F
:102780004861042084F854004FF4FE40C86084F887
:10279000542094F8500000064FF00000E0D5636F1D
:1027A0001A738864002184F84C10B0BD80B190F891
:1027B000541002290AD1042180F85410006842F212
:1027C0000402416911434161002070472021816565
:1027D00001207047024600284FF0010008BF7047F3
:1027E000CB0612D5136840F6FF7223EA020203F506
:1027F0007B63C3F3C41301F01101984011295168A0
:1028000014BF21EA00000843506000207047000018
:10281000806D704790F854007047000010B5046850
:102820000C23214604F57B6263F30B01C2F3C4124F
:102830000968D140C90700F0A5802169490544BF56
:1028400061695FEA41514BD42169090544BF61695F
:102850005FEA01514CD42169C90444BF61695FEA50
:10286000C1414DD42169490444BF61695FEA4141D6
:102870004ED42169890544BF61695FEA81514FD413
:102880002169890444BF61695FEA814154D42169A7
:10289000C90544BF61695FEAC15175D4816D0029E2
:1028A00008BF10BD01684A6942F002024A614969E5
:1028B000C9074FF0030108BF012180F8541090F8B8
:1028C0005010090602D5416F01220A73816E002261
:1028D000002980F84C2055D0BDE81040084700BFC3
:1028E0004FF48061E160816D41F001018165ABE7EA
:1028F0004FF40061E160816D41F002018165AAE75A
:102900004FF48051E160816D41F004018165A9E7D8
:102910004FF48041E160816D41F008018165A8E7D5
:102920004FF40071E160426E002AA9D0044690473E
:1029300020462468A4E700BF4FF40051E16090F8FE
:10294000541004292AD1616921F40051616161693F
:1029500041F0020161616169C9074FF0030108BFDD
:10296000012180F8541090F85010090604D5416FE9
:1029700001220A730021A164C16E0022002980F89F
:102980004C20A9D110BD00BF90F85010090611D4F9
:10299000A16CD9B900F1540216E000BF052180F8FE
:1029A0005410026F002A3FF472AF0446904720464D
:1029B00024686CE7E16F49B9A16C39B9012180F84D
:1029C0005410416F01F10C02012111704FF440715C
:1029D000E160016E0022002980F84C203FF45EAFD8
:1029E00004468847204659E7B0B5044600F0CEFCBF
:1029F000002C04BF0120B0BD00210546206884F8EA
:102A00004C10022184F85410416941F006014161E3
:102A100020684169C9070BD000F0B8FC401B0528AD
:102A2000F6D9012003221021A16584F85420B0BDFD
:102A3000216A426904F1100522F443021143416105
:102A4000E36926CD1A4311434F22C5F2020240F238
:102A50004F6C904241EA050EC5F2020C1CDC40F2BC
:102A60004F43C4F20203984232DC40F24F23C4F2D7
:102A70000203984256DC40F24F13C4F2020398421C
:102A800000F394805023C4F20203984200F0E880DF
:102A9000D023C4F20203E1E040F24F43C5F2020347
:102AA00098422DDC40F24F23C5F2020398424BDCE2
:102AB00040F24F13C5F20203984200F38380502383
:102AC000C5F20203984200F0CB80D023C4E000BFDF
:102AD00040F24F63C4F20203984245DC40F24F5388
:102AE000C4F20203984277DC40F25043C4F202037E
:102AF000984200F0B58040F2D043C4F20203ADE04A
:102B0000604543DC40F24F53C5F2020398426FDC4C
:102B100040F25043C5F20203984200F0A18040F217
:102B2000D04399E040F24F33C4F20203984269DC8B
:102B300040F25023C4F20203984200F0918040F228
:102B4000D023C4F2020389E040F24F33C5F20203FE
:102B5000984263DC40F25023C5F20203984200F031
:102B60007F8040F2D02377E040F24F73C4F202033B
:102B700098425DDC40F25063C4F2020398426FD089
:102B800040F2D063C4F2020368E000BF40F24F732A
:102B9000C5F20203984257DC40F25063C5F20203CB
:102BA00098425DD040F2D06356E000BF40F250132F
:102BB000C4F20203984253D040F2D013C4F202038D
:102BC0004CE000BF40F25013C5F20203984247D0D8
:102BD00040F2D01340E000BF40F25053C4F2020371
:102BE00098423DD040F2D053C4F2020336E000BF19
:102BF00040F25053C5F20203984231D040F2D05314
:102C00002AE000BF40F25033C4F20203984227D0BA
:102C100040F2D033C4F2020320E000BF40F2503350
:102C2000C5F2020398421BD040F2D03314E000BF3B
:102C300040F25073C4F20203984211D040F2D073B4
:102C4000C4F202030AE000BF40F2D073C5F20203EF
:102C5000984205D040F25073C5F20203984212D157
:102C6000D4E909354FF07C72E16A02EB05524FF46A
:102C70007C7505EB031302F07C7203F47C73114343
:102C800019434EEA010E016C231D01F0802141EA37
:102C90000E0101640ECB256B01F07F011143B3F5EA
:102CA000007F41EA050225D0B3F5806F40F0EC804B
:102CB00040F2CF71C4F2020188421FDD40F2CF31F1
:102CC000C5F20201884239DC40F2CF11C5F202019F
:102CD000884261DCCF21C5F20201884200F3AA805C
:102CE00040F2D071C4F20201884200F0CB80502142
:102CF000C4E000BF42F40072C6E000BF40F2CF3132
:102D0000C4F2020188422FDD40F2CF51C4F2020129
:102D1000884261DC40F2CF41C4F20201884200F3F4
:102D2000078140F2D031C4F20201884200F0AA804B
:102D300040F25041C4F20201A2E000BF40F2CF5184
:102D4000C5F20201884237DC40F2CF41C5F20201F0
:102D5000884277DC40F2D031C5F20201884200F0AF
:102D6000918040F2504189E040F2CF11C4F202015B
:102D7000884243DD40F2CF21C4F2020188424DDC9B
:102D800040F2D011C4F2020188427BD040F25021BF
:102D9000C4F2020174E000BF40F2CF21C5F202018B
:102DA000884259DC40F2D011C5F20201884269D054
:102DB00040F2502162E000BF40F2CF61C5F2020153
:102DC000884253DC40F2D051C5F20201884259D00A
:102DD00040F2506152E000BF40F2CF61C4F2020104
:102DE000884200F3B18040F2D051C4F2020188421F
:102DF00048D040F25061C4F2020141E05021C4F2D7
:102E0000020188423ED0D021C4F20201884239D06A
:102E100040F25011C4F2020132E000BF40F2D02172
:102E2000C4F2020188422DD040F25031C4F20201B6
:102E300026E000BFD021C5F20201884222D040F234
:102E400050111BE040F2D041C5F20201884219D076
:102E500040F2505112E000BF40F2D021C5F2020111
:102E600088420FD040F2503108E000BF40F250716C
:102E7000C5F20201884205D040F2D061C5F20201DC
:102E800088426DD142F48062416C43F28013C3F6F4
:102E9000C04319401143416400216045816411DC45
:102EA00040F24F71C4F2020188421BDC40F25061D3
:102EB000C4F2020188422DD040F2D061C4F2020176
:102EC00026E000BF40F24F71C5F20201884215DCD6
:102ED00040F25061C5F2020188421BD040F2D0613D
:102EE00014E000BF40F25071C4F20201884211D0D8
:102EF00040F2D071C4F202010AE000BF40F2D0718A
:102F0000C5F20201884205D040F25071C5F20201BB
:102F1000884202D10021416581650021C167606B53
:102F2000012220650020A16584F85420B0BD00BFB7
:102F300040F2D041C4F202018842A3D040F2505185
:102F4000C4F202019CE700BF40F2D061C4F202016A
:102F5000884297D040F25071C4F2020190E700BF5E
:102F600040F2D071C5F20201884208BF42F480628B
:102F70008AE7000000284ED090F84CC0BCF1010F49
:102F800004BF022070474FF0010C80F84CC090F84D
:102F900054C0BCF1010F39D110B54FF0020C80F8CC
:102FA00054C04FF0000CC0F858C0D0F800C0D0F8A2
:102FB00064E0DCF84840BEF1000FC3EA0403CCF83B
:102FC00048304FF4FE43CCF80C30CCF84C10CCF821
:102FD0005020DCF8141041F4BA41CCF8141005D09C
:102FE000DCF8141041F40071CCF81410006F28B113
:102FF000DCF8140040F40050CCF81400DCF81400A5
:1030000040F00100CCF81400002010BD4021816583
:10301000002180F84C10012070470000B0B5044634
:1030200000F0B4F9054640F20800C2F20000007852
:10303000611C18BF044400BF00F0A8F9401BA04267
:10304000FAD3B0BD10B5044640F20040C4F20220ED
:10305000202100F08FF9202C08BF002810D0022C6E
:1030600016D0012C12D140F65030C2F20000007888
:1030700001280BD1FFF7BAF9BDE81040FFF736B9C8
:1030800040F6B800C2F200000121017010BD00BF7F
:1030900040F65030C2F200000078012818BF10BD81
:1030A0000B2000F0EFFCFFF719F940F65130C2F2A7
:1030B00000004FF42071FFF721F90B20BDE810400C
:1030C00000F0F6BCB0B542F20C05C4F20265296806
:1030D0000446014203D020462C6000F00BF86868DB
:1030E000204208BFB0BD20466C60BDE8B040FFF78D
:1030F000A9BF000010B540F20040C4F20220202118
:1031000000F038F958B140F6B804C2F20004207853
:10311000002808BF10BDFFF799F90020207010BDEE
:103120002DE9F04F84B00E680290002E00F01E8151
:10313000DDF808B040F200090BF12000019047F6DD
:103140007F70C0F22F0000EA9B2000234FF0010A9D
:1031500000274FF00008C4F202694FF0000C009005
:1031600011E000BF40F20009C4F202690E680CF1E0
:10317000010C36FA0CF008F1020807F1040703F11C
:10318000080300F0F3800AFA0CF516EA0500EDD00A
:1031900003900298484527D04E6846F01002122A44
:1031A0005ED16FF0030000EA5C02019C07F01C0591
:1031B0000F2054F802E000FA05F608692EEA060628
:1031C00000F00F00A8403043A050DBF800000322BD
:1031D0004E6802FA08F2904306F0030202FA08F27F
:1031E0004FF0010A104346E0D9F800004E6845F25E
:1031F000144206F00106A84306FA0CF6C0F60402D3
:10320000304302EBCC06C9F80000D6F804E06FF0BA
:10321000030052F83CB000EA5E051C205D4400EA61
:103220008E062C6A0F2000FA06F20B2024EA020216
:1032300000FA06F422432A62DBF800204FEA4E042B
:10324000032000FA04F50220AA4300FA04F4224302
:10325000CBF800204E684FF0010A122E10D936E04C
:10326000DBF80000032202FA08F2904306F00302A2
:1032700002FA08F21043E646CBF80000122E26D8D8
:103280000AFA06F010F0061F1ED04FEA4E0903227C
:10329000DBF8080002FA09F5CA68A84302FA09F245
:1032A0001043CBF80800DBF804000AFA0EF2904352
:1032B000320902FA0EF21043032ECBF804003FF459
:1032C00051AFED4309E000BF032E3FF44FAF4FEA8B
:1032D0004E09032000FA09F0C543DBF80C008A68A8
:1032E000284002FA09F21043F200CBF80C007FF5F7
:1032F00039AF42F2000E2CF00300C4F2026E7044AB
:10330000026E03F018060F25B540AA43009D05FA8A
:1033100006F632430266DEF80000039C4A6840EA83
:103320000406D50258BF20EA0406CEF80060DEF895
:103330000400950240EA040658BF20EA0406CEF8CD
:103340000460DEF88400950340EA040658BF20EAD2
:103350000406CEF88460DEF88000D20340EA04065A
:1033600058BF20EA0406CEF88060FBE604B0BDE852
:10337000F08F00000069084018BF0120704700006E
:103380001823002A08BF2823C150704741F2145067
:10339000C2F206000068704790F84120202A03D14D
:1033A00090F84020012A01D102207047242280F8A1
:1033B00041200268136823F001031360136823F4AB
:1033C00080531360136819431160116841F00101C3
:1033D0001160202180F84110002180F84010002069
:1033E0007047000090F84120202A03D190F8402037
:1033F000012A01D102207047242280F8412002686E
:10340000136823F001031360136823F4706343EA25
:1034100001211160116841F001011160202180F843
:103420004110002180F8401000207047002804BFA0
:103430000120704710B590F8411031B9002180F893
:103440004010044600F0E4F92046242180F84110A1
:1034500090E81210C3680A68012B22F001020A608A
:1034600024F070620A618A6822F400428A6003D103
:103470004CF400428A6007E04CF40442022B8A605C
:1034800004BF4FF400624A604A6800F1100442F041
:10349000007242F400424A60CA6822F40042CA60E4
:1034A0001CCC1A4342EA0422C369CA60026A1A4366
:1034B0000A600A6842F001020A6000212022416489
:1034C00080F84120016380F84210002010BD000008
:1034D0002DE9F04782B0044690F84100202803D13E
:1034E00094F84000012803D1022002B0BDE8F08723
:1034F00001200D461746984684F84000FFF746FF26
:10350000216806468A69120425D4222084F84100E5
:10351000102084F84200002060646762A4F82A80CA
:103520006063608D49F6000C40F20008B0F5807FC2
:10353000CFF6004CC0F2FF1820D351F8040F2B46F1
:103540006FF39F2300EA0C0708F51050FF2222E0DA
:1035500088690004D9D5FFF719FF801B21681A2854
:10356000F6D388690004F3D5606C40F020006064F5
:10357000202084F84100012071E000BF628D2846C0
:1035800051F8043F6FF39F20D7B240EA074703EAA0
:103590000C0308F592303B43184308602285608D88
:1035A0000A9F002844D06FF39F254FF0FF090CF5C8
:1035B000806A10E0618D2068218550F8042FC9B21F
:1035C00002EA0A0242EA01414FF000722943114324
:1035D0000160608D60B320463946324605F0DAFF5F
:1035E00060BB2068616A406A0870606A218D0130A2
:1035F0006062481E2085618D01396185618D0029D9
:10360000E7D00004E5D12046802100223B46009609
:1036100005F04CFF90B9608DB0F5807FCAD320686B
:10362000A4F8289050F8041F424601EA0A01CDE7A9
:1036300020463946324606F013F818B1012002B090
:10364000BDE8F08720682021C16142684EF6000382
:10365000CFF600631A404260002084F84110002138
:1036600084F8421084F8401002B0BDE8F0870000F2
:103670002DE9F04782B0044690F84100202803D19C
:1036800094F84000012803D1022002B0BDE8F08781
:1036900001200D461746984684F84000FFF776FE55
:1036A000216806468A69120425D4212084F8410045
:1036B000102084F84200002060646762A4F82A8029
:1036C0006063608D49F6000C40F20008B0F5807F21
:1036D000CFF6004CC0F2FF1820D351F8040F2B4650
:1036E0006FF39F2300EA0C0708F50050FF2222E049
:1036F00088690004D9D5FFF749FE801B21681A2884
:10370000F6D388690004F3D5606C40F02000606453
:10371000202084F84100012071E000BF628D28461E
:1037200051F8043F6FF39F20D7B240EA074703EAFE
:103730000C0308F590303B43184308602285608DE8
:103740000A9F002844D06FF39F254FF0FF090CF526
:10375000806A10E0618D2068218550F8042FC9B27D
:1037600002EA0A0242EA01414FF000722943114382
:103770000160608D60B320463946324605F0AEFFE9
:1037800060BB606A226810F8011B91626062608D04
:1037900001386085208D01382085618D0029E8D0B1
:1037A0000004E6D12046802100223B46009605F029
:1037B0007DFE98B9608DB0F5807FCBD32068A4F8EA
:1037C000289050F8041F424601EA0A01CEE700BFE4
:1037D00020463946324605F043FF18B1012002B0B9
:1037E000BDE8F08720682021C16142684EF60003E1
:1037F000CFF600631A404260002084F84110002197
:1038000084F8421084F8401002B0BDE8F087000050
:10381000B0B5BAB00446002502A8C8213995CDE953
:103820003755CDE93555FDF701FA206845F6000119
:10383000C4F20001884235D045F20041C4F20001D3
:10384000884261D140200024029002A8039401F034
:1038500095FF002818BFFEF73BFD40F68C45C4F2EB
:103860000265286835A940F002002860286800F049
:10387000020001900198C02035901220CDE9360455
:103880000420399040F20040C4F202203894FFF73F
:1038900047FC286940F400102861286900F40010F2
:1038A00030E000BF8020029002A8039501F066FF7F
:1038B000002818BFFEF70CFD40F68C44C4F20264E9
:1038C000206835A940F002002060206800F0020066
:1038D000019001984FF4C04035901220369001209D
:1038E0003790002038900420399040F20040C4F214
:1038F0000220FFF715FC206940F480002061206958
:1039000000F48000019001983AB0B0BD40F200414F
:10391000C4F203010A68D2071CBF012070470A687D
:1039200022F00402104308600020704740F200417A
:10393000C4F20301086840F0010200200A607047E9
:1039400040F2080041F21451C2F20000C2F2060136
:1039500000780A68104408607047000080B542F2A1
:103960000000C4F20200016841F48071016003208C
:1039700000F0DCF802F002FC40F62041C4F20261E3
:10398000096845F2FC3201F00F01C0F60402515CF7
:10399000C84040F26401C2F2000108600F2000F04C
:1039A00009F800281CBF012080BD00F055F8002058
:1039B00080BD0000B0B588B040F69C41C4F2026101
:1039C0000A68044642F010020A60096802A801F081
:1039D00010010291029901A902F034FB02F06EFB82
:1039E0004DF68361C4F21B31A0FB01014FF0FF30A3
:1039F00000EB914146F2B85041F20003C2F20200DE
:103A000040F2E732C4F200030025C0E90031C0E90A
:103A10000252056104F024F90546B0B946F2B850E7
:103A2000C2F2020004F050F9054670B90F2C0BD811
:103A3000312021460022002500F04CF840F20C0015
:103A4000C2F20000046000E00125312000F030F8EF
:103A5000284608B0B0BD000081B040F69440C4F2E2
:103A600002600168002241F00401016000680F213A
:103A700000F00400009000986FF0010001B000F029
:103A800029B80000002848BF70471C2200F01F0121
:103A900002EAD000012202FA01F14EF28012CEF2C7
:103AA00000028150BFF34F8FBFF36F8F704700004C
:103AB000002848BF70471C2200F01F0102EAD00016
:103AC000012202FA01F14EF20012CEF20002815000
:103AD0007047000010B54EF60C5CCEF2000CDCF81E
:103AE0000030C3F3022E8EF00704042C28BF0424F8
:103AF000BEF103034FF0FF3E38BF00230EFA04F47B
:103B0000A14399400EFA03F39A43114300F00F02C8
:103B100000F160430901043A03F56443624400285C
:103B200048BF02F10C03197010BD00004EF60C5195
:103B3000CEF200010A684FF6FF031A4060F30A2232
:103B400042F0806040F0FD70086070472DE9F04F52
:103B50008DB0D0F800C0002244F20400CDE901226B
:103B6000CDE90322C4F20C200592026840F2010E56
:103B700002F00303012B04BF0123019302F0300381
:103B8000102B04BF0123029302F44073B3F5807F2E
:103B900004BF0123039302F4A023B3F5803FC0F2D6
:103BA000001E05D19303734658BF4FF001130493D1
:103BB00002F0A063B3F1807F05D19201724658BF35
:103BC0004FF0011205924268022502F00303012B17
:103BD00004BF0223019302F03003102B04BF022321
:103BE000029302F44073B3F5807F04BF0223039372
:103BF00002F4A023B3F5803FC0F2010505D1930381
:103C00002B4648BF0EF10103049302F0A063B3F109
:103C1000807F05D192012A4648BF0EF1010205922C
:103C200000240B94CDE90944CDE9074450F8042C55
:103C30000368D2074FF4007204BF40F22222C0F2A0
:103C40000442DF0705D083EA0207BF075CBF0124F7
:103C50000794DF0602D44FF0000809E083EA020768
:103C6000BF065ABF4FF00108CDF820804FF0000882
:103C700003F44077B7F5407F04BF01270997DF03BE
:103C80000ED583EA02077F030AD4F2469F0358BF8A
:103C90004FF0011ACDF828A0DE0115D504E000BFD1
:103CA0004FF0000ADE010FD583EA020676010BD43D
:103CB000F3469B0158BF4FF0011BCDF82CB0436871
:103CC000DE070CD005E000BF4FF0000B4368DE07B5
:103CD00005D083EA0206B6075CBF02240794DE061D
:103CE00007D583EA0206B6065CBF4FF00208CDF89E
:103CF000208003F44076B6F5407F04BF0226099683
:103D0000DE030AD583EA0206760306D4AA469F0399
:103D100048BF0EF1010ACDF828A0DE0108D55A40AF
:103D2000520105D49A0148BF0EF10105AB460B952F
:103D300041F20047C4F20D273B68BCEB070218BFF5
:103D40000122DB07ACEB070302D1002605E000BF30
:103D50003E6826F001063E60012642F20047C4F2AA
:103D60000D273D68C146ED07B3FA83F502D10096F1
:103D7000B84606E03B68B84623F0010302363B60D4
:103D8000009602EB420301AA02EBC3036D099E6891
:103D900000EB860656F804EC2EF4807746F8047C97
:103DA00050F8047CFF0729D11C68002C5DD000EB83
:103DB000840757F8046C26F0010647F8046C5C6829
:103DC0003CB100EB840757F8046C26F0100647F866
:103DD000046CDC683CB10127A74350F8276026F447
:103DE000803640F827601B69002B3ED0012727EA68
:103DF000030350F8237027F0807734E050F8043C38
:103E000041F20047C4F20D2723F00103BC4540F8FE
:103E1000043C2AD100EB8403B9F1000F53F8047C71
:103E200047F0020743F8047C07D000EB890353F8FE
:103E3000047C47F0200743F8047CBAF1000F08D057
:103E4000012323EA0A0350F8237047F4802740F83F
:103E50002370BBF1000F08D0012323EA0B0350F8B5
:103E6000237047F0806740F8237005EB450302EBB1
:103E7000C30452F83320D1E900366568934213D168
:103E8000AE422B461FD1CB68E768BB421AD10B6903
:103E90002769BB42334616D150F8042C42F0010288
:103EA00040F8042C3FE000BFAE4233460BD08B6895
:103EB000A768BB4204D0CB68E768BB4240F01A81D8
:103EC0002B4600E0334600EB820252F8047C27F0D8
:103ED000010742F8047C3BB100EB830252F8043C3A
:103EE00023F0100342F8043CD4E9023200EB8303D0
:103EF00053F8047C27F4807743F8047C42B1012313
:103F000023EA020250F8223023F4803340F82230B2
:103F1000226942B1012323EA020250F8223023F041
:103F2000807340F822308A6841F2004500EB82023B
:103F30004FF4807752F8043CC4F20D2523F440730B
:103F4000AC4518BF4FF440773B4442F8043C4A6903
:103F5000531EFF2B11D850F8047CC7F30747BB4210
:103F60000BD9002750F8043CCFF6FF7707EB02424D
:103F700023F47F031A4340F8042C50F8043C0A68E9
:103F8000DB07A2F1010250F82270009E27F0030324
:103F900028D10127AC4518BF03273B4340F8223006
:103FA0004A6862B100EB8202102752F8043CAC452B
:103FB00018BF302723F020033B4342F8043CCA6873
:103FC000D30327D4B2B3012323EA020250F82230EC
:103FD0004FF0807723F0E063AC4518BF4FF0A06747
:103FE00025E000BF43F0010340F822304A6842B1A7
:103FF00000EB8202012752F8043C67F3051342F8F4
:10400000043CCA68D30329D4AAB34FF080736FF07D
:10401000E06427E0012323EA020250F822304FF443
:10402000803723F4E023AC4518BF4FF4A0273B446E
:1040300040F822300969CA032AD4002942D001225B
:1040400022EA010150F821204FF0407322F0E06293
:10405000AC4518BF4FF0E06327E000BF4FF480335A
:104060006FF4E024012727EA020250F8227027406B
:104070003B4340F822300969CA0319D411B3012225
:1040800022EA010150F82120032363F31A6217E0AA
:10409000012222EA010150F821204FF4403322F49A
:1040A000E022AC4518BF4FF4E0231A4408E000BFFB
:1040B000012222EA010150F82120032363F3124276
:1040C00040F82120F00705D1B00709D400200DB039
:1040D000BDE8F08F286840F001002860B007F5D5F2
:1040E000D8F8000040F00100C8F8000000200DB032
:1040F000BDE8F08F0B692769BB422B467FF413AFF5
:10410000E1E60000F0B581B00446FFF73FF9216D0C
:1041100011F00C0F4ED005462068016849074FD4B6
:10412000002021680A6A92065AD5086840F0020009
:104130000860A66D086A800710D4002E54D0701C49
:1041400031D1086A800709D4086A80075CBF086A11
:104150005FEA807002D4086A8007F2D502264E62B8
:10416000A76D086A80065AD5781C4ED06FB900BF7B
:10417000FFF70CF92068016A890639D4006A8006C5
:10418000F6D44CE0006A800649D5FFF7FFF8411BE2
:104190002068B942F6D9016A8906F3D528E000BF44
:1041A000086A8007DAD4FFF7F1F8401B2168B042B3
:1041B000F6D91CE010206065012001B0F0BD00BF01
:1041C000016821F004010160E06CFEF79BFA002811
:1041D0001ABF04216165002021680A6A9206A4D4EE
:1041E0000221216501B0F0BDFFF7D0F82168086A0F
:1041F0004FF400702065606D40F0010060650120A3
:1042000001B0F0BD086A800609D5086A800606D5A7
:10421000086A800644BF086A5FEA8060F2D42665B7
:10422000002001B0F0BD0000F0B581B015460F468A
:104230000446FFF7ABF8216D0646242912D0142955
:1042400006D0022909D1E068B0F1806F05D00EE0F8
:10425000386820F00100022809D010206065012094
:1042600001B0F0BD386840F002000328F5D12068A5
:10427000016A89062DD5691C21D065B9FFF786F83A
:104280002068016A89060FD4006A8006F6D420E00F
:10429000006A80061DD5FFF779F8811B2068A942C6
:1042A000F6D9016A8906F3D54FF400702065606D78
:1042B00040F00100D2E700BF016A890609D5016A12
:1042C000890606D5016A890644BF016A5FEA8161F1
:1042D000F2D4002060652046394606F009FC18B18A
:1042E000012001B0F0BD00BFB86B48B138680228AA
:1042F00032D0012828D090B3002001B0F0BD00BF1B
:104300002168086A80070FD4A5B3681C15D1086A14
:10431000800709D4086A80075CBF086A5FEA80707A
:1043200002D4086A8007F2D5002002224A6201B056
:10433000F0BD00BF086A8007F6D4FFF727F8801B9E
:104340002168A842F6D918E0206D242807D014204F
:104350002065002001B0F0BD206D142804D1042098
:104360002065002001B0F0BD24202065002001B0B0
:10437000F0BD00BFFFF70AF82168086A4FF400702B
:104380002065606D40F001006065012002224A62F4
:1043900001B0F0BDB0B5026804469068082340F053
:1043A0000200906041F20040C4F20D2082424FF2C0
:1043B0000000C4F20C20236507D042F20043C4F28F
:1043C0000D239A420AD100F58060026842F0010292
:1043D000026006F04FF8002501E000BF01252046ED
:1043E000FFF790FE2168886820F0020228468A6064
:1043F000B0BD0000F0B581B00446FEF7C7FF002C49
:1044000000F08980054600206065216D11B101B082
:10441000F0BD00BF204600F0DFF841F28830A06513
:104420002068D4E903C2636986684CF2F401CFF6D0
:10443000E00131400026CFF6FF7606EB02426FF036
:10444000FF0E666B41EA0C010EEB03231143E76993
:104450003143194339438160C168226A21F4E02164
:104460001143C160216BA26B42EA01410161E16B22
:1044700041610168626821F47C510EEB0222114314
:104480000160016A89062FD4C168D4E9097621F058
:10449000FF01013F3943A268A369C1600168022B93
:1044A00021F0400141EA02010160D0F80811E26AFE
:1044B00021F0A04141EA060141EA0201C0F80811D9
:1044C000016841F00101016003D1816841F00201FE
:1044D0008160E068B0F1806F14BF02200120206588
:1044E000002001B0F0BD00BF41F2893603E000BFFB
:1044F000016A8906C8D5FEF749FF411B2068B14211
:10450000F6D3016A8906F3D54FF400702065606D1B
:1045100040F001006065012001B0F0BDF0B581B050
:104520000D460446FEF732FF216D042928D10646C8
:104530002068A76D016A890635D5791C29D067B92D
:10454000FEF724FF2068016A89060FD4016A8906F4
:10455000F6D428E0016A890625D5FEF717FF811BEE
:104560002068B942F6D9016A8906F3D54FF4007084
:104570002065606D40F001006065012001B0F0BD74
:1045800010206065012001B0F0BD00BF016A8906FE
:1045900009D5016A890606D5016A890644BF016A00
:1045A0005FEA8161F2D4882121652968082908D150
:1045B0006A68C0F8302110224262026842F4801218
:1045C0000260026822F00802114341F0405101608C
:1045D000002001B0F0BD00002DE9F043B9B0044661
:1045E00002A800250830C0213895CDE93655CDE91F
:1045F0003455FCF71BFB206841F20041C4F20D2149
:10460000884203D039B0BDE8F08300BF4FF080602E
:10461000029002A8039501F0B1F8002818BFFDF739
:1046200057FE40F68C40C4F20260016840F6000478
:1046300041F4001101600168C4F2022401F4001188
:1046400001910199416834AD41F010014160416828
:104650004FF0020801F010010191019901684FF03B
:10466000000941F0040101600168032601F0040122
:1046700001910199016841F001010160006829463A
:1046800000F0010001900198012034902046CDF8FF
:10469000D480CDF8D890CDE93766FEF741FD0E20E5
:1046A00034A981E801030A2720462946379638971E
:1046B000FEF736FD0C2034A981E80103A4F5006063
:1046C0002946CDE93767FEF72BFD39B0BDE8F08309
:1046D0002DE9F04381B015460F460446FEF756FE1D
:1046E0002668B16CD6F81021C7B18046206D042829
:1046F0001AD1306C01230130A064A06C606427647F
:10470000306863F31D703060E068B0F1806F11D1E4
:10471000B16415F1010918D154E000BF08206065AB
:10472000012001B0BDE8F08310206065012001B0D8
:10473000BDE8F083D6F8000110F4E06F0CBFC6F8B6
:104740001021B16415F101093CD0002D65D100BFE5
:104750002068006A10F0060F70D096F8500038708C
:10476000206CA16C471C481E2764A064A06C002824
:10477000EED12068016A890711D4002D5ED0B9F10D
:10478000000F34D1016A890709D4016A89075CBF27
:10479000016A5FEA817102D4016A8907F2D50221B8
:1047A00041622165002001B0BDE8F08396F8500019
:1047B0003870206CA16C471C481E2764A064A06C54
:1047C0000028D6D02068016A11F0060FEED1016AE8
:1047D00011F0060FEAD1016A11F0060FE6D1016A65
:1047E00011F0060FEFD0E1E7016A8907D7D4FEF791
:1047F000CDFDA0EB08012068A942F5D921E000BF5A
:10480000276C96F850003870206CA16C471C481E2D
:104810002764A064A06C0028ABD02068006A10F068
:10482000060FEED1FEF7B2FDA0EB08012068A94209
:1048300007D8006A10F0060FF4D0E1E7FEF7A6FDF6
:104840002068006A4FF400702065606D40F0010040
:104850006065012001B0BDE8F083000040F60C0C5B
:10486000C4F2026CDCF8302002F4403282420BD1F8
:10487000B0F1011F68D3DCF8000040F48020CCF8D0
:1048800000000020704700BFDCF80020B0F5803F3A
:1048900022F4E02242EA000240F2640088BF42F4BF
:1048A0008022CCF80020C2F20000006841F2597268
:1048B000CDF2B712A0FB0202900B0346DCF8001009
:1048C000B3F1FF3218BF012209041ED4591C1CD0B9
:1048D000DCF80010002B1A4618BF0122090414D47A
:1048E0009BB1DCF800105A1E18BF012209040CD439
:1048F000012B0AD0DCF800109A1E18BF012209040F
:1049000003D4022BA3F10403D8D112B3DCF8301086
:10491000421C090416D4AAB1DCF83010090412D4E0
:1049200088B1DCF83010090410D401280ED0DCF86E
:104930003010021F090402D402281046E6D1901C50
:1049400010B906E0104620B1002070470138002859
:10495000FAD103207047000040F62C00C4F2026038
:10496000016841F0010101607047000040F63C0021
:10497000C4F20260006800F440307047B0B540F601
:10498000284EC4F2026EDEF80C50DEF80030DEF87D
:104990000010DEF80020DEF81040D206E40804EA39
:1049A000E272C1F303216FF35F3200EE102A03F0CD
:1049B0000303B8EE400A6FF35F25012B01F1010CF0
:1049C00066D0032B18BF022B62D101EE10CADEF8AD
:1049D0000C10B8EE411A9FED4D2A6FF35F2182EE65
:1049E000011A02EE101A9FED4A3AB8EE422A20EE62
:1049F000030A30EE020AB7EE002A30EE022ADEF891
:104A0000001021EE020AC90371D5DEF80C10B7EED2
:104A1000002AC1F3462101EE101AB8EE411A31EE18
:104A2000021A80EE011ABCEEC11A11EE102A0260C1
:104A3000DEF80010890360D5DEF80C10B7EE002A0E
:104A4000C1F3064101EE101AB8EE411A31EE021A16
:104A500080EE011ABCEEC11A11EE102A4260DEF897
:104A6000001049034FD5DEF80C10B7EE002AC1F351
:104A7000066101EE101AB8EE411A31EE021A80EE0C
:104A8000010ABCEEC00A10EE101A8160B0BD00BF72
:104A90005EF8201C090203D4DEF8CC100B0401E000
:104AA0005EF8203C45F29442190FC0F6040202EB76
:104AB000810102EE10CA91ED001AB8EE422AB8EE5A
:104AC000411A9FED133A81EE022A01EE105A20EEB0
:104AD000030AB8EE411A30EE010AB7EE001A30EEC2
:104AE000011ADEF8001021EE020AC9038DD400225B
:104AF0000260DEF8001089039ED400224260DEF8D6
:104B000000104903AFD400218160B0BD0024744B74
:104B100000000039B0B540F62C4EC4F2026EDEF84B
:104B20001050DEF80030DEF80010DEF80020DEF86D
:104B30001440D206E40804EAE272C1F303216FF3E1
:104B40005F3200EE102A03F00303B8EE400A6FF361
:104B50005F25012B01F1010C66D0032B18BF022B3E
:104B600062D101EE10CADEF81010B8EE411A9FEDC6
:104B70004D2A6FF35F2182EE011A02EE101A9FEDAB
:104B80004A3AB8EE422A20EE030A30EE020AB7EEA5
:104B9000002A30EE022ADEF8001021EE020AC903D4
:104BA00071D5DEF81010B7EE002AC1F3462101EEF0
:104BB000101AB8EE411A31EE021A80EE011ABCEE5C
:104BC000C11A11EE102A0260DEF80010890360D5C8
:104BD000DEF81010B7EE002AC1F3064101EE101AFC
:104BE000B8EE411A31EE021A80EE011ABCEEC11A7B
:104BF00011EE102A4260DEF8001049034FD5DEF8AE
:104C00001010B7EE002AC1F3066101EE101AB8EEDB
:104C1000411A31EE021A80EE010ABCEEC00A10EE13
:104C2000101A8160B0BD00BF5EF8241C090203D4D5
:104C3000DEF8C8100B0401E05EF8243C45F2944213
:104C4000190FC0F6040202EB810102EE10CA91EDC9
:104C5000001AB8EE422AB8EE411A9FED133A81EEDF
:104C6000022A01EE105A20EE030AB8EE411A30EE85
:104C7000010AB7EE001A30EE011ADEF8001021EE3C
:104C8000020AC9038DD400220260DEF800108903F5
:104C90009ED400224260DEF800104903AFD4002108
:104CA0008160B0BD0024744B00000039B0B540F6FF
:104CB000304EC4F2026EDEF81450DEF80030DEF83A
:104CC0000010DEF80020DEF81840D206E40804EAFE
:104CD000E272C1F303216FF35F3200EE102A03F09A
:104CE0000303B8EE400A6FF35F25012B01F1010CBD
:104CF00066D0032B18BF022B62D101EE10CADEF87A
:104D00001410B8EE411A9FED4D2A6FF35F2182EE29
:104D1000011A02EE101A9FED4A3AB8EE422A20EE2E
:104D2000030A30EE020AB7EE002A30EE022ADEF85D
:104D3000001021EE020AC90371D5DEF81410B7EE97
:104D4000002AC1F3462101EE101AB8EE411A31EEE5
:104D5000021A80EE011ABCEEC11A11EE102A02608E
:104D6000DEF80010890360D5DEF81410B7EE002AD3
:104D7000C1F3064101EE101AB8EE411A31EE021AE3
:104D800080EE011ABCEEC11A11EE102A4260DEF864
:104D9000001049034FD5DEF81410B7EE002AC1F316
:104DA000066101EE101AB8EE411A31EE021A80EED9
:104DB000010ABCEEC00A10EE101A8160B0BD00BF3F
:104DC0005EF8281C090203D4DEF8C4100B0401E0CD
:104DD0005EF8283C45F29442190FC0F6040202EB3B
:104DE000810102EE10CA91ED001AB8EE422AB8EE27
:104DF000411A9FED133A81EE022A01EE105A20EE7D
:104E0000030AB8EE411A30EE010AB7EE001A30EE8E
:104E1000011ADEF8001021EE020AC9038DD4002227
:104E20000260DEF8001089039ED400224260DEF8A2
:104E300000104903AFD400218160B0BD0024744B41
:104E40000000003980B584B0024643F6FF730020AD
:104E50009B1A70EB010345DA4FF6FF73C0F21F0394
:104E60009B1A70EB010380F2DF806FF07E439B1A88
:104E70004FF0000C7CEB0103C0F21A814FF6FF7378
:104E8000C0F27F039B1A7CEB0103C0F2BB8182F46A
:104E900000130B4300F0588382F48002114340F06A
:104EA0003E8440F60041C4F20261D1F8E00000F413
:104EB0004040B0F5804F00F08B83002800F0258340
:104EC0000A68B0F5004F03D112F4806240F0058407
:104ED0000A68B0F5404F4FF0000000F0EC8300F09E
:104EE0001EBC00BFD2F17F0370EB0103C0F26880EB
:104EF000013A61F10001D2F13F034FF0000373EB7F
:104F00000101C0F00C84DFE812F0410023020A0422
:104F100009020A040A040A04EF010A040A040A0442
:104F20000A040A040A040A04B3010A040A040A046B
:104F30000A040A040A040A040A040A040A040A0401
:104F40000A040A040A040A043D020A040A040A04C0
:104F50000A040A040A040A040A040A040A040A04E1
:104F60000A040A040A040A040A040A040A040A04D1
:104F70000A040A040A040A040A040A040A040A04C1
:104F80000A040A040A040A04CF0100BF40F60040E4
:104F9000C4F20260D0F8E01001F00301012900F032
:104FA0001783002900F00E830268022903D112F44E
:104FB000806240F09283D0F8F000032900F0D6BB65
:104FC00040F2FF339B1A4FF0000C7CEB010380F2A0
:104FD0008F8040F6FF739B1A7CEB0103C0F2DC80EC
:104FE00082F480630B4300F0F18182F4006211438C
:104FF00040F0958340F60040C4F20260D0F8E8101B
:1050000011F4407100F0EA82D0F8F020B1F5807F11
:1050100003D112F0006240F0ED810268B1F5007F2B
:1050200000F039813BE100BF4FF6FF73C0F201038E
:105030009B1A4FF0000C7CEB010380F289804FF645
:10504000FF73C0F207039B1A7CEB0103C0F2C2801E
:1050500082F400330B4300F0F38182F48022114389
:1050600040F05D8340F60040C4F20260D0F8F010DA
:10507000D0F8F02001F44071920703D5B1F5807F9C
:1050800000F0F280D0F8F020120103D5B1F5007FD6
:1050900000F0B0810068B1F5407F00F400324FF0BD
:1050A000000004BF4AF22010C0F2070034E300BF42
:1050B0006FF078439B1A7CEB0103C0F2BB8082F057
:1050C00000730B4300F0608282F08062114340F075
:1050D000268340F60040C4F20260D0F8E410C1F329
:1050E0000151DFE811F075027B029A02A10200BFB4
:1050F00082F080030B4300F0F98182F480730B434C
:1051000000F0CE8182F40072114340F0088340F633
:105110000040C4F20260D0F8E81011F4406100F0E1
:10512000AD82D0F8F020B1F5806F03D112F00062AB
:1051300040F060810268B1F5006F03D112F4806223
:1051400040F0CB82D0F8F000B1F5406F0EE300BF25
:1051500082F480430B4300F0DD8182F400430B4373
:1051600000F0AA8182F48032114340F0D88240F6E8
:105170000041C4F20261D1F8E40000F00702042A01
:1051800000F27F824BF68030DFE812F0AA01F801CE
:105190006E01C902560200BF82F480530B4300F037
:1051A000338182F40052114340F0B98240F600414D
:1051B000C4F20261D1F8E400C0F34212042A00F202
:1051C00060824BF68030DFE812F04702B901D90166
:1051D000AA025F0282F400230B4300F04B8182F4A9
:1051E0008012114340F09B8240F60040C4F20260FE
:1051F000D0F8E010C1F38161DFE811F0B6011602CA
:105200000F02F00182F400030B4300F0CF8182F023
:105210008072114340F0838240F60040C4F2026085
:10522000D0F8E010C1F30141DFE811F06F01D201C5
:10523000E201D80182F000630B4300F0DB8182F0D1
:105240008052114340F06B8240F60041C4F202618B
:10525000D1F8E800D1F8F020920700F4004240F1C4
:105260000182002A40F0FE814FF4004004B080BD6E
:1052700040F60040C4F20260D0F8E01001F4407142
:10528000B1F5807F00F0A481002900F03E81026822
:10529000B1F5007F03D112F4806240F01E82D0F895
:1052A000F000B1F5407F61E240F60041C4F20261D6
:1052B000D1F8E00000F44060B0F5806F00F0888124
:1052C000002800F022810A68B0F5006F03D112F4C3
:1052D000806240F002820A68B0F5406F4FF0000033
:1052E00000F0E9811BE200BF40F60040C4F202601A
:1052F000D0F8E01001F0C001402900F069810029D8
:1053000000F003810268802903D112F4806240F02A
:10531000E481D0F8F000C02928E200BF40F6004048
:10532000C4F20260D0F8E01001F03001102900F062
:105330004F81002900F0E9800268202903D112F48E
:10534000806240F0CA81D0F8F00030290EE200BF40
:1053500040F60040C4F20260D0F8E01001F00C0109
:10536000042900F03581002900F0CF800268082967
:1053700003D112F4806240F0B081D0F8F0000C2923
:10538000F4E100BF40F60041C4F20261D1F8E80048
:1053900000F00700012800F01B81002800F00081C8
:1053A0000A68022803D112F4806240F09681D1F895
:1053B000F020032803D112F002027FF455AF0A68EF
:1053C00004284FF0000000F07681A8E140F600408C
:1053D000C4F20260D0F8E01011F4402100F0958092
:1053E000D0F8F020B1F5802F40F0708112F000620B
:1053F00000F06C81D0F8F000C0004FF0FA0058BF08
:105400004FF4FA4004B080BD40F60041C4F202619E
:10541000D1F8E4000A6800F40060520502D50028C3
:1054200000F05B81096800281CBF41F20020C0F237
:105430007A0001F48061002908BF084604B080BDED
:1054400040F60041C4F20261D1F8E800C0F3024224
:10545000042A00F216814BF68030DFE812F041009A
:105460008F0005006001ED0001A8FFF71FFC029806
:1054700004B080BD40F60040C4F20260D0F8E410F1
:10548000026801F44051920440F1DA80002940F0B2
:10549000D78046F60040C0F2DC2004B080BD00BFDB
:1054A00040F60040C4F20260D0F8E810C1F3811168
:1054B000DFE801F0768E9E9440F60041C4F202616E
:1054C000D1F8E800C0F30232052A00F23181DFE8AA
:1054D00012F007007F0029012F012F01B30000BF48
:1054E00004B0BDE8804000F0D3BD00BF40F60041ED
:1054F000C4F20261D1F8E00000F44050B0F5805FE2
:1055000000F06680002840F0C98004B0BDE880400B
:1055100000F0D4BD40F60041C4F20261D1F8E400CD
:10552000C0F30222042A00F2AC804BF68030DFE8A0
:1055300012F0930005002500F600AB0001A8FFF76C
:10554000B5FB019804B080BD40F60040C4F2026093
:10555000D0F8E410490411D4D0F8E010C1F381610F
:10556000DFE801F002625B3C006846F6004180041F
:10557000C0F2DC2101EAE07004B080BD01A8FFF7B1
:10558000FDF9019804B080BD40F60040C4F202600D
:10559000D0F8E810C1F3C101DFE801F0021A2A20B7
:1055A00004B0BDE8804000F0C9BD00BF40F6004037
:1055B000C4F20260D0F8E010C1F30151DFE801F05D
:1055C0000208180E04B0BDE8804000F097BD00BF8F
:1055D00004B0BDE8804000F0D1BD00BF016889067D
:1055E0004FD58168090225D4D0F8F4006BE000BFE4
:1055F00000684AE040F60040C4F20260D0F8E010D3
:105600000068800301F0407001D5002865D0B0F13A
:10561000007F21D0B0F1807F33D101A8FFF7AEF930
:10562000029804B080BD00BF01A8FFF773FA02988A
:1056300004B080BD806858E0086880063ED420E051
:10564000026892045CD5B1F5805F59D143F20060E5
:10565000C0F26E1004B080BD01A8FFF75BFA01989C
:1056600004B080BDD1F8F00000014FF0000056D525
:10567000002A54D0D1F8F000BEE600BF01688906C8
:10568000AFD4002004B080BD086842F2004140055C
:10569000C0F2F40101EAE07004B080BD0A68B0F520
:1056A000005F02D112F4806217D10A68B0F5405F42
:1056B0004FF0000033D112F0200230D08868000291
:1056C00012D4D1F8F40000040FE000BF0268B1F575
:1056D000002F47D112F4806244D042F20040C0F261
:1056E000F40004B080BD00BF8868C0F3036045F2D9
:1056F0009441C0F6040151F8200004B080BD00BF01
:105700000068B1F5005F00F480624FF0000004BF54
:1057100042F20040C0F2F400002A08BF104604B074
:1057200080BD00BF01A8FFF7F5F9039804B080BD64
:1057300000F4E0420B6842F20040B2F5405FC0F274
:10574000F40002D113F40033E9D1096811F4806147
:1057500018BF0146B2F5804F18BF0021084604B0BB
:1057600080BD00BFD0F8F000B1F5402F00F002027C
:105770004FF0000008BF900304B080BD2DE9F04F4A
:1057800081B00446006840F6E046C107C4F20266F4
:105790001ED1810724D441072AD4010730D4C10681
:1057A00036D481063CD4410642D4010648D4C10512
:1057B0004ED4410254D481055AD4410560D4010528
:1057C00066D440F628488004C4F202686DD494E0A0
:1057D0003168226D21F00301114331608107DAD570
:1057E0003168626D21F00C01114331604107D4D55D
:1057F0003168A26D21F03001114331600107CED52F
:105800003168E26D21F0C00111433160C106C8D595
:105810003168226E21F44071114331608106C2D596
:10582000B168626E21F007011143B1604106BCD539
:105830003168A26E21F44061114331600106B6D592
:105840003168E26E21F4405111433160C105B0D599
:10585000B168226F21F0C0011143B1604102AAD5A5
:105860003168626F21F44041114331608105A4D554
:10587000B168A26F21F440611143B16041059ED52A
:105880003168E26F21F4402111433160010598D560
:10589000B168D4F8802021F440711143B16040F622
:1058A00028488004C4F2026827D5D4F890004FEA53
:1058B0007011042928D8DFE801F003130B1B1B002B
:1058C00004F1080006F06EFB0546B8B90EE000BF13
:1058D000D8F8001041F48031C8F8001008E000BF8B
:1058E00004F12C0006F0D8FB054638B9D4F8900036
:1058F000716821F0E001084370600025607840067F
:1059000006D4284629E000BF012560784006F8D576
:10591000D4F894004FEA3021042939D82846DFE82A
:1059200001F0032F0B12120004F1080006F03AFBFD
:10593000074698B909E000BFD8F8000040F480306D
:10594000C8F800002846074640B97068D4F894109B
:1059500020F4E0600843706000202F46617809065B
:1059600029D5D4F8A8104FEA3131052900F2D281A7
:10597000022911D00546B0B1A178C9071FD13BE07B
:1059800004F12C0006F088FB00280746E6D1DCE78E
:1059900001200127E2E700BF04F1080006F002FB46
:1059A00000280546E8D1B068D4F8A81020F4E040FB
:1059B0000843B06000203D46A178C9071CD0D4F848
:1059C0008810042900F29E81DFE811F00C00060027
:1059D00088010C000C0000BFD8F8001041F48031A1
:1059E000C8F80010074640B97068D4F8881020F055
:1059F00007000843706000202F46A17889071DD555
:105A0000D4F88C104FEA3141042900F27F81DFE89D
:105A100011F00B0005006F010B000B00D8F800100F
:105A200041F48031C8F80010824640B9B068D4F81B
:105A30008C1020F4E0200843B0600020BA46A17822
:105A4000490701D4574659E0834656F84C0C5FEAA3
:105A500040790BD456F84C0C40F0040046F84C0C3E
:105A600056F84C0C00F00400009000984FF60047E8
:105A7000CFF6FF7758F8070040F0010048F807001C
:105A8000FDF784FC054600BF58F80700C00707D1A2
:105A9000FDF77CFC401B0228F6D90320032724E0F5
:105AA0005846BBF1000F5F461FD1306910F44070BB
:105AB00012D0D4F8C01088420BD03069316920F47C
:105AC000407041F480313161316921F480313161BC
:105AD0003061C00740F026813069D4F8C01020F44E
