:020000040800F2
:100000009018082049030008ADBB0008EDA30008C4
:10001000A9BB00081121000881E700085B03000864
:10002000000000000000000000000000C1CB00083C
:10003000A52300080000000031C80008F5CB000827
:1000400065030008650300086503000865030008F0
:1000500065030008650300086503000865030008E0
:1000600065030008650300086503000865030008D0
:1000700065030008650300086503000865030008C0
:1000800065030008650300086503000865030008B0
:1000900065030008650300086503000865030008A0
:1000A0006503000865030008650300086503000890
:1000B000000000002527000831270008650300081C
:1000C0006503000865030008650300086503000870
:1000D0006503000865030008650300086503000860
:1000E0006503000865030008650300086503000850
:1000F0006503000865030008650300086503000840
:100100006503000861CC000865030008650300086A
:10011000650300086503000865030008650300081F
:100120006503000865030008650300086DCA000840
:1001300065030008650300086503000865030008FF
:1001400065030008D1D300086503000865030008B3
:1001500065030008650300086503000865030008DF
:1001600065030008650300086503000865030008CF
:1001700065030008650300086503000865030008BF
:1001800065030008650300086503000865030008AF
:10019000650300086503000865030008650300089F
:1001A000650300086503000865030008650300088F
:1001B00065030008000000006503000865030008EF
:1001C00065030008000000006503000865030008DF
:1001D000650300086503000865030008650300085F
:1001E000650300086503000865030008650300084F
:1001F000000000000000000065030008650300081F
:10020000650300086503000865030008650300082E
:10021000650300086503000865030008C5210008A0
:10022000650300086503000865030008650300080E
:10023000650300086503000800F002F800F075F897
:1002400014A696E8000CB244B344DA4501D100F09C
:100250006CF8BAE80F000FA696E83000A5EB04058D
:1002600004EB0607AAEB0704A7F101074FEA1515EF
:100270004FEA3414A4F10104AC4201D300F055F864
:1002800013F0010F18BFFB1A43F0010300F001F84F
:10029000DBE71847F8A9040018AA0400103A24BFA5
:1002A00078C878C1FAD8520724BF30C830C144BFDB
:1002B00004680C60704700007047000000230024B1
:1002C00000250026103A28BF78C1FBD8520728BF66
:1002D00030C148BF0B607047672905F048A66929FF
:1002E00000F0EE81642900F0EB81782900F024828F
:1002F000732901F00580002070471FB545F022FEEC
:100300009DE8030000F036FD01F008FB040000202A
:10031000002145F063FB401C60600020002145F097
:1003200073FBE0601FBD10B510BD01F038FC114635
:10033000FFF7E3FF39F026FC01F08CFE03B4FFF772
:10034000F2FF03BC10F0DEFF0A4880470A4800476E
:10035000FEE7FEE7FEE7FEE7FEE7FEE7FEE7FEE775
:10036000FEE7FEE7FEE7000004480549054A064BA4
:100370007047000015CC00083902000890120820D0
:10038000901808209014082090140820704770B529
:10039000064600F0D3FC056806F10B0020F00704C8
:1003A000B4429CBF002070BD2B466A68BAB1106889
:1003B000A04210D304F1080188423CBF5068586045
:1003C00007D35168101941601168091B016058601A
:1003D0001460101D70BD13465268002AE7D12146F3
:1003E000284600F0B3FC0028DED170BD70B504468D
:1003F000051F00F0A3FC0068002C14BF446870BD0A
:10040000002C18BFAC423CBF20466468F8D301689A
:100410000A18AA4218BF456003D12A68054611444C
:10042000016028684119A1421CBF6C6070BD616801
:10043000696021680844286070BD70B50D460646A5
:10044000041F00F07BFC0268BDB1DEB105F10B00BA
:1004500020F00701A9423CBF002070BD23688B42F9
:1004600038BF506813D35A1A082A36D3601840F898
:10047000042B2160FFF7BAFF2FE03046FFF7B6FFED
:10048000002070BD2846BDE87040FFF780BF0028FF
:1004900018BFA0423CBF02464068F8D303EB040CEF
:1004A00084451CD1D0F800C06344994217D8A3EB0F
:1004B000010CBCF1080F0DD3D0F804C06318C3F8C9
:1004C00004C0D4F800C000686044401A186021607D
:1004D000536002E0236040685060201D70BD2846D4
:1004E000FFF755FF050008D031462068021F284657
:1004F00000F022FB201DFFF779FF284670BD53EA6C
:10050000020C00F069802DE9F04B4FF00006002B43
:100510001FBFB3FA83F503FA05F424FA05F65E402B
:1005200012BF1643B2FA82F502FA05F4C5F12005AE
:100530001EBF22FA05FC44EA0C04203556EA044C9E
:100540004FEA144418BF641C4FF000084FF0000934
:10055000904271EB030C39D3002919BFB1FA81F72E
:1005600001FA07F6B0FA80F700FA07F6C7F120079C
:100570001EBF20FA07FC46EA0C062037B6FBF4FC47
:10058000A7EB0507103F07F01F0BCBF120062CFA55
:1005900006F60CFA0BFB44BFB3460026202FA4BF7F
:1005A0005E464FF0000B5BEA060C08BF4FF0010BF4
:1005B00019EB0B0948EB0608ABFB027C06FB02CCEF
:1005C0000BFB03CCC01B71EB0C01C1E70B460246D1
:1005D00041464846BDE8F08B13B5084318BF4FF0BD
:1005E000FF300146AFF30080BDE81C40704710B5F6
:1005F000044600F09BFB0068005DC00602D504F1D4
:10060000200010BD204610BD0FB4044910B503AA48
:10061000029800F079FE10BC5DF814FBE4A80020FD
:1006200070B5044685690068C10601D5302600E032
:100630002026C00707D070BDD4E90121304690477D
:10064000206A401C20626D1EF6D570BD70B5044650
:1006500085690078C00707D170BDD4E90121202049
:100660009047206A401C20626D1EF6D570BD70B5A3
:100670000C460546012A05D02878800600D5EA698F
:10068000002302E0012305E05B1C934202D2E05C00
:100690000028F9D1A869E618C01AA861286A184488
:1006A00028622846FFF7BCFF04E0D5E9012114F8D1
:1006B000010B9047B442F8D32846FFF7C7FF70BD3F
:1006C0002DE9F0410646002410687529314616A52B
:1006D00010D0AFF30080002802DA404213A507E0F3
:1006E00031688A0701D512A502E0490704D511A592
:1006F000012401E0AFF3008000210A2206F1240763
:1007000009E0B0FBF2FCB0FBF2F302FB1C0030305E
:1007100078541846491C0028F3D123462A4630460F
:10072000BDE8F04100F05BBB000000002D000000C0
:100730002B0000002000000070B504460D46214645
:100740001068AFF300802188090502D50F4A7A446A
:1007500002E00E4A7A440E32002104F1240305E03F
:1007600000F00F060009965D5E54491C0028F7D181
:1007700020780023000704D5702D02D009B1022390
:1007800011322046BDE8704000F029BB1C5904001E
:100790002DE9F05F894604464FF0000ADFF874B196
:1007A000FB44C0F820A02046E1688847002874D0A8
:1007B000252806D0D4E901219047206A401C2062F8
:1007C000F1E700265F462046E16888472028054675
:1007D00007DB312D05D2781910F8200C08B106433B
:1007E000F1E7B00701D526F00406C4F81CA00027E5
:1007F000C4F818A02A2D09D0284645F0A0F838B32F
:1008000004EB8708303DC8F8185019E059F8041B6C
:10081000204604EB87029161E1688847012F054675
:1008200018D1E069002820DA26F020061DE0D8F86B
:10083000180000EB800005EB40003038C8F81800C5
:100840002046E1688847054645F079F80028EED152
:10085000012F0AD02E2D08D12046E16888477F1C41
:100860000546022F46F02006C4DBA069002803DA03
:10087000404246F00106A061F00701D026F01006C4
:100880006C2D0BD0682D09D04C2D39D06A2D35D068
:10089000742D35D07A2D33D016E038E0E1682F463C
:1008A00020468847B842054609D16C2F26D04FF420
:1008B0008060E168064320468847054604E06C2FC7
:1008C0001AD04FF4807006430DB3A5F141001928EA
:1008D00002D8203546F400664A462946204626605E
:1008E0004E46FFF7F9FC80B101280BD0F61D26F02B
:1008F000070000F1080956E74020E4E78020D8E728
:100900000020D6E706F104094DE7284652E7206AA1
:10091000BDE8F09FF258040010B5044603E016F05D
:1009200079FD401C09D014F8010B05490028F6D1C7
:10093000BDE810400A2016F06DBD4FF0FF3010BD2D
:10094000E4A80020401ECAB210F8011F8A4202D05B
:100950000029F9D10020704730B505460B462A46DC
:1009600013F8014B12F8010B08B1A042F8D01CB1EA
:10097000002802D06D1CF1E7284630BD40EA010393
:10098000024630B59B0710D14FF0013400E008C299
:1009900008C91D1B9D4315EAC41FF8D013F0FF01C1
:1009A00002F8011B0DD01B0AF8E711F8013B002BE0
:1009B00002F8013B05D011F8013B002B02F8013B86
:1009C000F3D130BD0022CBB210F8011B994200D107
:1009D000421E0029F8D11046704710B5431C02E0B2
:1009E00010F8011B71B18107FAD14FF0013202C832
:1009F0008C1A8C4314EAC211F9D0C01A0A0603D02B
:100A0000C01E10BDC01A10BD0A0401D0801E10BD4A
:100A10000902FCD0401E10BD40EA010370B59B07DF
:100A20002ED14FF00136042A2AD308C810C99D1BC5
:100A30009D43121F15EAC61517D0D8B2E1B2401A6D
:100A400050EA056110D198B2A1B2401A50EA0541AE
:100A50000AD123F07F4024F07F41401A50EA05215B
:100A600002D1180EA0EB146070BDA342DBD018BAFF
:100A700021BA884201D9012070BD4FF0FF3070BD0E
:100A80000AB9002070BD10F8013B11F8014B63B1A9
:100A9000A3420AD1521E08D010F8013B11F8014BB5
:100AA0001BB1A34201D1521EEDD1181B70BD032A08
:100AB00040F2308010F0030C00F0158011F8013B7B
:100AC000BCF1020F624498BF11F801CB00F8013B62
:100AD00038BF11F8013BA2F1040298BF00F801CB26
:100AE00038BF00F8013B11F0030300F02580083AFD
:100AF000C0F0088051F8043B083A51F804CBA0E854
:100B00000810F5E7121D5CBF51F8043B40F8043BA8
:100B1000AFF30080D20724BF11F8013B11F801CBDD
:100B200048BF11F8012B24BF00F8013B00F801CBAE
:100B300048BF00F8012B704710B5203AC0F00B8079
:100B4000B1E81850A0E81850B1E81850A0E81850C3
:100B5000203ABFF4F5AF5FEA027C24BFB1E8185039
:100B6000A0E8185044BF18C918C0BDE810405FEA9B
:100B7000827C24BF51F8043B40F8043B08BF704717
:100B8000D20728BF31F8023B48BF11F8012B28BF1C
:100B900020F8023B48BF00F8012B704702F0FF032A
:100BA00043EA032242EA024200F00AB802F0FF03DD
:100BB00043EA032242EA024200F024B84FF0000266
:100BC0000429C0F0128010F0030C00F01B80CCF15F
:100BD000040CBCF1020F18BF00F8012BA8BF20F8CD
:100BE000022BA1EB0C0100F00DB85FEAC17C24BF21
:100BF00000F8012B00F8012B48BF00F8012B7047CB
:100C00004FF0000200B5134694469646203922BFA5
:100C1000A0E80C50A0E80C50B1F12001BFF4F7AFF0
:100C2000090728BFA0E80C5048BF0CC05DF804EBD2
:100C3000890028BF40F8042B08BF704748BF20F840
:100C4000022B11F0804F18BF00F8012B704710B530
:100C5000044610F0030F08BF11F0030F40F0158099
:100C60004FF0013E121FC0F20E8051F8043BA3EB7F
:100C70000E0C2CEA030C1CEACE1C08BF40F8043B07
:100C8000F0D0A1F1040102F10402521E08DB11F8B8
:100C9000013B00F8013B002BF7D11146FFF78EFF17
:100CA000204610BD0000000030B44FF0013C50F869
:100CB000042B51F8043BCCFA52F4D51A20D1FCB9DC
:100CC00050F8042B51F8043BCCFA52F4D51A17D142
:100CD000B4B950F8042B51F8043BCCFA52F4D51AAD
:100CE0000ED16CB950F8042B51F8043BCCFA52F4F5
:100CF000D51A05D1002CDAD030BC4FF00000704777
:100D000029BAB1FA81F111F01801D1F12000844023
:100D1000F2D1CA40CB4012F0FF0213F0FF0330BC07
:100D2000D01A7047704770477047704710B500F091
:100D3000F5FD001D10BD00BFA54C04000048704724
:100D4000E0000020704770477047704738B5044690
:100D50000A4600206946AFF30080002808BF38BD6E
:100D600002460099204600F0E1FD012038BD012037
:100D700000F00EBFF8B5AFF30080054600200C462A
:100D80000C2000BF0646A819A0420DD9324669467C
:100D90000020AFF30080070008BF00F0F9FE0098C4
:100DA000A04218BF0546C419FFF7C8FF05600746F3
:100DB000F01D20F007004619284600F00AF8B4425A
:100DC00008BFF8BDA21B31463868BDE8F84000F006
:100DD000ADBD00210160416070470C2070472DE9D6
:100DE000F0470D4699469246044600F124080168F2
:100DF000880604D5E06921F01001216000E001209F
:100E0000A84201DD471B00E00027A1697A1902EB27
:100E10000900081AA0612078C00602D42046FFF716
:100E2000FFFB002608E0D4E901211AF806009047EC
:100E3000206A401C761C20624E45F4DB2078C006F8
:100E40000AD52046FFF7ECFB06E0D4E9012130206B
:100E50009047206A401C2062381EA7F10107F4DC8D
:100E600007E0D4E9012118F805009047206A401CEA
:100E70002062281EA5F10105F3DC2046FFF7E6FB02
:100E80002078000602D50220BDE8F0870120FBE7AC
:100E90002DE9FF4F0C461E464FF0FF378BB0D2E9CD
:100EA0000001DDF860800A908A46C1F30A5505B951
:100EB0003D46002108464FF00000BAF1000F00F453
:100EC000400005DA00EB80004FF4400101EA5000D9
:100ED0004FEA9059B9F1010F00DDB9460A9850EA7E
:100EE0004A000ED044F61050A5F2FF3545432F14AA
:100EF000B8F1000F1ED07542291E1EDDC9F1000297
:100F00001CE0B8F1010F4FF0000001D0302103E0E8
:100F1000F24305E02154401CB042FBDB3046002286
:100F2000002121540B99C1F80880C1E900200FB0BD
:100F3000BDE8F08FBD1B6D1CDEE74A4600DA694252
:100F400006A800F0AFFD06AB93E8070003AB83E80B
:100F5000070050460A9943F07BFF8DE80700A0F593
:100F600000501F3800900398002D0ADD42F21F0147
:100F70004A460844002303A90390684644F026FA31
:100F800009E0A0F500504A461F38002303A903904A
:100F9000684644F045FA8DE807000004000C03D0D1
:100FA0004FF0FF30410800E01046B8F1000F03D0C9
:100FB0000022009215461EE0751E05D400F0E3FCE9
:100FC000303262556D1EF9D5B3460122084302D076
:100FD00000227F1C04E02078302801D100227F1EEF
:100FE000002A099784D01DE0112D07DA00F0CBFC10
:100FF000303262556D1C50EA0102F5D1084302D02F
:101000000098C8B10EE00021681E05E0235C625C18
:1010100063542254401E491C8142F7DBAB46A81B97
:10102000401E0990002004F80B000B98099AC0F8A4
:101030000880C0E9002B7AE711264FF0000857E737
:101040002DE9F04F88460446D21D22F0070191B0E9
:10105000D1E90001CDE90A0144F02EFB02460B98CC
:10106000C00F01D02D2007E02068810701D52B207B
:1010700002E0202101EAC000032A099001D0072ADA
:1010800005DB03464146204600F0CCFC0BE120780E
:10109000800601D5E06900E00620B8F1650F8146C1
:1010A00006D0B8F1660F18D0B8F1670F70D131E0F3
:1010B0000020B9F1110F009001DB112301E009F1CB
:1010C00001030AAA01A90CA8FFF7E2FEDDE90C70F2
:1010D000002609F10105834647E001204B460090B8
:1010E0004FF000470AAA01A90CA8FFF7D1FEDDE9DD
:1010F0000DB00C995D46002610B909F101000D18DC
:10110000B9EB050003D4C0F1FF3609F10105A5EBE9
:1011100009002BE0B9F1010F01DA4FF001090020BD
:10112000B9F1110F0090484601DD112300E003469C
:101130000AAA01A90CA8FFF7ABFEDDE90C704D4629
:1011400000268346207800070AD4AB4500DA5D46C6
:1011500001A8012D04DD411911F8011C302907D027
:101160004F4502DA17F1040F04DA012082460FE03E
:101170006D1EEEE7002F02DCED1B3E4403E0781C01
:10118000A84200DD7D1CB81B00F1010A4FF00047AA
:101190002078000703D4AA4501DB4FF0FF3A002175
:1011A000B7F1004F0DF143088DF8431024D0022011
:1011B0002B23002F01DA7F422D230A21021EA0F1EA
:1011C000010000DC5FB197FBF1FC97FBF1F201FB42
:1011D0001C7C17460CF1300C08F801CDEEE7A8F1A5
:1011E000010003702188090501D5452100E0652132
:1011F000A0F1010800F8011C09980FA9A1EB08074C
:10120000FF1D00B10120411901EBEA70A1693844CA
:10121000081A401EA0612078C00602D42046FFF7BD
:10122000FFF9099828B1D4E901219047206A401CB0
:1012300020622078C00622D52046FFF7F1F91EE093
:10124000002E04DBB34502DD01A8805D00E0302004
:10125000D4E901219047206A401C2062761CAAF143
:1012600001005FEA000A0AD100F058FBC06801687B
:10127000405CD4E901219047206A401C2062281E6E
:10128000A5F10105DCDC07E0D4E9012118F8010B28
:101290009047206A401C2062381EA7F10107F3DC4A
:1012A0002046FFF7D3F9032011B041E601694A1C3B
:1012B00002610878704700B58FB0CDE90131002197
:1012C000059105497944CDE9031011466846FFF7B9
:1012D0005FFA0FB000BD0000E5FFFFFF10B54369E6
:1012E00013B1AFF3008001E0FFF7C1F9012010BD99
:1012F000127800F124010A7000224A700122EDE701
:1013000011684FF0FF32E9E7074B70B50D467B449B
:10131000FFF7D1FF0446284600F036FC10B14FF02D
:10132000FF3070BD204670BD036101002DE9FF4F05
:1013300006468BB00878FF2806D0491C2D2805D01A
:1013400000244FF0000908E000200CE00124F8E739
:1013500009EB8903491C00EB43090878FF28F7D102
:1013600014B1C9F100008146107800252C46AA4628
:1013700029462D2801D02B2804D1521C2D2813D00A
:10138000002082468B461078FF280FD04FF0000CCB
:101390000A21521CA5FB017804FB018105FB0C11FD
:1013A000C5194BEB0104EEE70120EAE700210846EE
:1013B0004FF00000BAF1000F02D000EB80004008AF
:1013C000C0F38157012F01DD4FF0FF370E9955EA29
:1013D000040009EB01080BD04FF0020918F5FA7F61
:1013E00016DA4FEACA70002F706008DD012007E0AE
:1013F0004FEACA70C6E900B00FB0BDE8F08F002018
:10140000306000F08FFAC0F800901821084616E00E
:10141000B8F5FA7F18DD002F02DAF748784401E0CA
:10142000F6487844D0E90010C6E9001040EACA70D6
:10143000706000F077FAC0F80090142108460FB0F1
:10144000BDE8F04F44F090BD002108464FF0000089
:10145000B8F10001099002DAC7F1000200E03A4653
:1014600001DAC8F1000106A800F01CFB06AB93E806
:10147000070003AB83E8070044F23E005BEA040187
:101480000090584604D144F21E012C465D4600915E
:10149000210C0904014306D10099240444EA1544AF
:1014A0002D041039009104F07F41014306D10099C9
:1014B000240244EA15642D020839009104F07041B9
:1014C000014306D10099240144EA15742D01091F36
:1014D000009104F04041014306D10099A40044EA80
:1014E0009574AD00891E009104F00041084304D1B9
:1014F00000986D196441401E00904FF001033A4678
:101500006846B8F1000FCDE9014503A902DD43F0BB
:101510009CFF01E043F06FFFBAF1000F04460D4657
:1015200001D084F00044002108464FF000000999E2
:1015300040F2FF77484010F00C0F07D124F0004034
:10154000284303D0C4F30A50B84212D100F0EAF99C
:10155000C0F80090C4F30A50B8420AD1A8487844B1
:10156000D0E90010C6E9001004F0004108437060A3
:1015700042E7C6E900543FE72DE9FF4F1F464FF011
:10158000000A4FF0FF38454691B0D7E90146CDF843
:101590003CA000F0C3F9C0680168405C1090B969D4
:1015A00012986D1C8847396A814688470028F6D111
:1015B000B9F1FF3F0AD0002E24F4D06411DDB9F157
:1015C0002B0F08D0B9F12D0F0BD102E0404615B01A
:1015D00013E744F48064B96912986D1C8847761E3D
:1015E0008146600504A901D52D2000E02B20002EA6
:1015F00001F1010B0DF130088DF810003FDDB9F15C
:10160000690F08D0B9F1490F05D0B9F16E0F02D0BA
:10161000B9F14E0F1CD13B4601A8009580E850025D
:10162000DDE912126FF0020044F007FDC11CCED1BB
:101630000EE0B96912986D1C884781461398761E92
:1016400044F4007405600F98401C002E0F9016DDC6
:10165000B9F1300FEDD0B9F1780F02D0B9F1580FD0
:101660000DD10F9801280AD13B46CDE90054DDE9A0
:101670001212001F029644F0DEFCC11CA7D1109983
:1016800089453ED144F0800406E01399681CAAF114
:10169000010A44F400740860B9696D1C1298761E42
:1016A000884730288146F0D02BE01099894505D134
:1016B000200603D4761E44F0800418E0484644F027
:1016C0003EF908B3761E0DF123029345A9F13000CF
:1016D00044F4007406D20BF8010B200607D5AAF1DA
:1016E000010003E0200602D40AF101008246A005B1
:1016F00002D51399681C0860B96912986D1C884757
:101700008146002ED1DC53E0002E51DDB9F1650F8A
:1017100002D0B9F1450F4BD1A00549D5B9696D1C6F
:101720001298761E24F440748847002E81460CDD02
:101730002B2804D0B9F12D0F07D144F48074B96976
:1017400012986D1C8847761E8146E00501D52D2133
:1017500000E02B2108F8011BCDF8008021E0761E67
:101760000DF13901884544F400740CD2A9F1300020
:1017700010F0FF0088F8000002D10099884509D9CF
:1017800008F1010806E0E00501D51E4801E042F23B
:101790000F708246B96912986D1C8847814613986C
:1017A0000560002E04DD484644F0C9F80028D6D173
:1017B000F96912988847FF2053468BF8000088F893
:1017C000000000200A900B9004AA0CA90AA8FFF7B9
:1017D000ADFDA00502D46FF00100F8E614F0240F6F
:1017E00012D0E0071CD13868DDE90A12031D3B6006
:1017F0000068C0E9001213E0949804008698040081
:101800004A970400F1D8FFFF0AA9684644F084F81B
:10181000E00705D13868009A011D39600068026050
:101820002846D4E6426842B1016811F8013B23B171
:10183000521EC0E90012184670470121C160881E7F
:10184000704742685AB1C368016843B983688B42E4
:1018500005D0491E521CC0E90012002070474FF00D
:10186000FF3070470FB40B0010B54FF000048AB082
:101870000FA900910E99CC60234C7C44234A7A44F2
:10188000CDE9064200D004236FF00042CDE90132D9
:101890001F4A7A446B4608920246002044F0C9FB76
:1018A0000AB010BC5DF814FBF0B507464FF0FF30EE
:1018B0001E4615460C463B4685B06A460091CDE96A
:1018C000010131460020049004A8FFF7CBFF0499E2
:1018D0000346601825B109B1024600E022462A609D
:1018E00000290ED0002B02DD0099814209D03B4631
:1018F0006A463146001B0094CDE9010404A8FFF7B5
:10190000B1FF05B0F0BD0000A7FFFFFFC1FFFFFF63
:101910007B01000000487047D80000200048704755
:10192000F800002000487047D800002003464068B7
:101930008C46002818BF88423CBF03464068F8D355
:1019400018681844884207D00CF1030020F0070003
:10195000001D411A521A0146081D0A60FEF746BDD5
:10196000B2F120030AD5C2F1200301FA02F120FAF4
:1019700003F341EA030100FA02F0704700FA03F1B1
:101980004FF00000704730B5B0F10A0271F100036A
:101990004FEA900E4EEA817EB0EB0E0061EB9101B2
:1019A0004FEA101E4EEA017E10EB0E0041EB1111C2
:1019B0004FEA102E4EEA016E10EB0E0041EB1121A2
:1019C0004FEA104E4EEA014E10EB0E0041EB114172
:1019D000401841F100014FEAD00040EA41704FEA5F
:1019E000D1014FEA810444EA907410EB800544EB86
:1019F00001046D1944EB0404521BA3414FF0000392
:101A000048BF0A3200D530BD401C41F1000130BD55
:101A100010B50446FFF78AF90068005D00F0010088
:101A200010BD00002DE9F0411F4604460326016861
:101A3000072A01F4006004DB08B116A505E016A52D
:101A400003E008B115A500E015A521F01000206005
:101A5000A069C01EA0610FB1401EA0612046FEF724
:101A6000DFFD4FB1D4E9012138469047206A401C80
:101A70002062C01C206206E0206AFAE7D4E9012156
:101A800015F8010B9047761EF8D22046FEF7DEFDD2
:101A9000BDE8F0814E414E006E616E00494E460039
:101AA000696E66002DE9F047814616468AB03548D2
:101AB00078440DC88DE80D0032487844801C03AC92
:101AC0000DC884E80D0041F69B300844372190FB97
:101AD000F1F290FBF1F5A5F1800501FB12041B3C2E
:101AE00002D56442012000E00020DFF898A0804683
:101AF0000027FA44AAF1BE0A0EE0E0070AD03246F7
:101B0000684607EB470101230AEB810143F088FC9B
:101B10008DE8070064107F1C002CEED1194F7F4424
:101B2000AE3F19E0E80715D007EB04100DF1180AD5
:101B300090E80E008AE80E00C068F04201D19819C2
:101B400008903246012306A903A843F069FC03ABC1
:101B500083E807006D10641C002DE3D14FF00103F2
:101B600032466946B8F1000F03A802D043F02EFCBC
:101B700001E043F055FCC9E90001C9F808200AB0AA
:101B8000BDE8F08770460400007B00F080007047DD
:101B900010B500F06DFABDE8104000F064BA75466B
:101BA000FFF7B8FEAE4605006946534620F0070031
:101BB000854618B020B5FEF7D7FBBDE820404FF0B2
:101BC00000064FF000074FF000084FF0000BAC4646
:101BD000ACE8C009ACE8C009ACE8C009ACE8C00991
:101BE00021F007018D46704710B5FFF79BFE006896
:101BF00010BD10B50446FFF795FE046010BD00004F
:101C00002DE9FF4F1F464FF03C0987B04FF00042CF
:101C1000DDE9141001F10108DDF858A002EA405096
:101C20000390002005908346054604460490B96958
:101C3000461E08988847AAF1010A0290BAF1000FDF
:101C40003BDD02982E2815D0102100F039FA00282B
:101C50002EDB4FF0010B0599014317D0B9F1000FAE
:101C60000BDB4A46C117FFF77BFE05430C43A9F186
:101C7000040905E0012004900BE008B145F00105DE
:101C800001200590049820B9361D02E0049800B1A7
:101C9000361FB969089808F101088847BBF1000FA1
:101CA000AAF1010A0290C9D00999C1F80080C5E7DC
:101CB0000298702808D0502806D0F96908988847FB
:101CC000BBF1000F14D04FE0002002900120BBF1C7
:101CD000000F049009D0B969089808F101088847F5
:101CE000AAF10109B9F1000F07DCF96908988847E2
:101CF0006FF001000BB0BDE8F08F2B2804D02D2829
:101D00000CD14FF0FF300490B969089808F1010830
:101D10008847A9F10109B9F1000FE6DD411CE4D0C3
:101D20000A2100F0CDF90028DFDB029908F1010853
:101D300001EB810100EB41000290B96908988847E6
:101D40000A2100F0BDF9099AA9F10109B9F1000FC2
:101D5000C2F8008001DD0028E7DAF96908988847B1
:101D60000499029800FB016655EA040004D004F0CF
:101D70004041090002D006E0039898E0A40044EA3C
:101D80009574AD00B61E04F00041080002D16D1933
:101D90006441761E159810F0240F03D04FF00B0904
:101DA0005C4803E04FF028096FF07D0082465645FD
:101DB00007DAAAEB06018944B9F1410F01DD4FF0C2
:101DC000410901200021A9F10102FFF7C9FD0246E6
:101DD00028400B462140084301D0012100E00021AA
:101DE000501E029143F1FF3128402140084301D0A9
:101DF000012000E000200299834651EA0B014FD0F8
:101E0000002108464FF00000039900F4400039B16A
:101E100000EB80004FF4400100EBD07001EA60005D
:101E20008015012802DD4FF0FF3000E013D0401C88
:101E300036D0029860B3BBF1000F0CD14A460120A6
:101E40000021FFF78DFD28402140084301D00120EB
:101E500000E00020E0B101204A460021FFF780FDAC
:101E6000034640190A4661412D1A8C4111D3B9F13C
:101E7000400F09DD159810F0240F02D0AAF13406A6
:101E800003E0AAF1170600E0761C00254FF000449D
:101E900006E05B1E42F1FF3220EA030521EA02045C
:101EA000CAF10100B04206DA1B49039808430190C9
:101EB000002000900EE0039AC4F3D321E80A0A43FD
:101EC000164940EA44500A433146CDE900026846CB
:101ED00043F02BFD159810F0240F0BD01598C00778
:101EE00015D13868DDE90012031D3B600068C0E9C8
:101EF00000120CE002A8694643F00EFD1598C007D9
:101F000005D13868029A011D3960006802604046B8
:101F1000F0E6000002FCFFFF0000F07F0000F03F51
:101F20002DE9FF4F92461D4685B04FF00041DDE997
:101F3000124BDDE914727F1E01EA4B50414940F01B
:101F4000FF4940EA0108002122F0200049280491BD
:101F500002D04E2828D04CE03BA0012607C88DE8CF
:101F60000700A9690698641C88477F1E014606D4AD
:101F70001DF8060018B121F0200181420BD0E9695B
:101F800006988847032E34D0082E32D06FF0010017
:101F900009B0BDE8F08F761C032E01D0082EE0D1E9
:101FA000601CCAF80000DCE7A9690698641C884731
:101FB0007F1E2AD420F02000412826D1A969069846
:101FC000641C88477F1E20D420F020004E281CD19E
:101FD000A9690698641C88477F1E48F4002849F4C4
:101FE0008009CAF8004001D4282806D0E96906987B
:101FF00088475FEACB7012D022E0A9690698641C7A
:1020000088477F1E01D4002803DAE96906988847CB
:10201000BCE72928F1D1641CCAF80040E9E71BF0AD
:10202000240F07D028680499031D2B600068C0E9BD
:10203000001805E02868021D2A600068C0F80090BA
:102040002046A5E70000F07F494E46494E495459C5
:102050000000000010B50446AFF300802046BDE844
:102060001040FEF76BB9002801D00FF04BB9704754
:1020700010B5012805D0002103A000F02FF80120A1
:1020800010BD09A1F8E7000053494752544D454D92
:102090003A204F7574206F662068656170206D6509
:1020A0006D6F7279000000003A2048656170206D04
:1020B000656D6F727920636F7272757074656400FC
:1020C0003A2800D2303820F02002412A01D3A2F170
:1020D0003700884201D34FF0FF30704770B5054696
:1020E0000C460A2000E06D1C0FF00EF935B128787F
:1020F0000028F8D102E0641C0FF006F914B1207832
:102100000028F8D1BDE870400A200FF0FDB80000AB
:10211000FEE70000C06D816C896D022908BF00F0E8
:102120000DBB012180F83510C16C41F04001C16444
:1021300000F004BB70B5C06DC16BC9B1D0F838C038
:10214000836CD0E910E1C26B1B684FF6FC75DC6F45
:102150001B682C404FF6FF75866BAB43022E234461
:1021600012D3AEEB0C06023606FB02110FE000BFE5
:102170000168CA6842F00102CA600968890744BF61
:10218000012180F8351070BD826B012A04D11961DC
:10219000816B0139816370BD0268C66B314419617E
:1021A0001168890706D4016C8163D06840F0010092
:1021B000D06070BD012180F83510D06840F001007A
:1021C000D06070BD48F6C810C2F2010000F0ECBA51
:1021D0002DE9F043D2F800C0D0F808E0002953D030
:1021E000BEF1000F4FF0000464D04FF6FC7311EA0B
:1021F00003094FF000074FF0000300F0B5800568B9
:102200004FF6FC732B40BEF1020F4FF0010455D383
:102210004B4553D04FF6FF7425EA040605274FF6C9
:10222000FC7800BF46EA030454F82C50FC1E7445A9
:1022300005EA08054ED24D454CD046EA050353F851
:102240002C30BC1E744503EA08031AD24B4518D043
:1022500046EA030454F82C507C1E744505EA080530
:1022600038D24D4536D046EA050353F82C30774531
:1022700003EA080307F1040402D24B452746D1D1F3
:10228000043C1F462B466FE0BEF1000F1AD00468D5
:102290004FF6FC75BEF1010304EA050716D04FF6B0
:1022A000FF75AC43AEF10205032D03F0030813D212
:1022B00030E000BF0027002356E000BF1F46002388
:1022C00052E000BF00230027002456E00124002331
:1022D00053E000BF2F4647E023F003054FF6FC769E
:1022E00044EA070353F82C30043D03EA060343EAAB
:1022F000040353F82C3003EA060343EA040353F8BB
:102300002C3003EA060344EA030757F82C7007EA67
:102310000607E5D13D46B8F1000F24D044EA050395
:1023200053F82C604FF6FC73B8F1010F06EA030670
:1023300004D1744637462B4616E000BF44EA060532
:1023400055F82C50B8F1020F03EA050304D1744686
:102350001F46334608E000BF1C4354F82C404FF69C
:10236000FC7504EA0507744639B14FF6FC76314036
:102370008F421CBF0120BDE8F0834088946043EA8F
:10238000004147EA00435160D36053F82C1029B153
:102390004FF6FC7300041940084310610020BDE8AB
:1023A000F08300007047000070B5ADF5806D002827
:1023B00060D07B21FEF7C6FA80B17D210446FEF78E
:1023C00001FB98B1001B451CB5F5806F16D340A0EA
:1023D000FEF7A2FA0DF5806D70BD00BF47A00DF5A8
:1023E000806DBDE87040FEF797BA00BF3DA00DF5C7
:1023F000806DBDE87040FEF78FBA00BF6E46304674
:1024000021462A46FEF753FB00207055304610F057
:1024100037F8F8B119A104460FF0E2FF38B30546CA
:1024200010F024F818B32D7D012D1DD840F60000C2
:1024300085F00102C4F202204FF4005101F0EAFEDF
:1024400015A016A1002D08BF014615A0FEF7DCF867
:102450000DE000BF0FF0BCFF60B1014616A0FEF713
:10246000D3F80DF5806D70BD06A0FEF755FA204635
:102470000FF07EFF0DF5806D70BD00BF4C454431FF
:10248000000000004C4544E580BCE8B685E587BA0D
:10249000E88C83E59BB40D004F4646004F4E00008C
:1024A000E8A7A3E69E90E68890E58A9F3A204C45EF
:1024B00044313D25730D0A004A534F4EE8A7A3E669
:1024C0009E90E99499E8AFAF3A2025730D0A000079
:1024D0004A534F4EE695B0E68DAEE8BF87E995BF0B
:1024E0000D0000004A534F4EE6A0BCE5BC8FE4B897
:1024F0008DE5AE8CE695B40D00000000E69CAAE6E2
:1025000089BEE588B04A534F4EE695B0E68DAE0DD4
:1025100000000000EFF3108072B600BFFEE700007D
:1025200010B50024C4F2022420464FF400610022BA
:1025300001F070FE0A2001F02FFD20464FF40061EB
:10254000012201F067FE6420BDE8104001F024BDC7
:102550002DE9F04F85B048F61824C2F20104022795
:1025600064260DF109022046702101238DF80970BF
:10257000009601F0C7FF012001F00EFD02AA2046DF
:1025800071210123009601F0EDFE9DF8080040F254
:10259000B805C2F20005287008B9AF702F7248F66E
:1025A0001824C2F201044FF0050B0DF10B02204676
:1025B000702101238DF80BB0009601F0A3FF0120DC
:1025C00001F0EAFC0DF10A02204671210123009678
:1025D00001F0C8FE9DF80AA002354FEA1A1000EB80
:1025E00040000DF10D0215F8101005EB40090239FD
:1025F00018BF012105F8101003208DF80D002046AA
:1026000070210123009601F07DFF012001F0C4FC40
:1026100003AA204671210123009601F0A3FE0420A5
:102620009DF80C808DF80F000DF10F0220467021EF
:102630000123009601F066FF012001F0ADFC0DF1D1
:102640000E02204671210123009601F08BFE9DF8B9
:102650000E0008F00F0140EA01200DF11102A9F867
:1026600002002046702101238DF811B0009601F080
:1026700049FF012001F090FC04AA204671210123AA
:10268000009601F06FFE06209DF810708DF8130083
:102690000DF113022046702101234FF0020800962D
:1026A00001F030FF012001F077FC0DF1120220460D
:1026B00071210123009601F055FE01229DF81200C0
:1026C00022EA1A1207F00F0140EA012042EA420111
:1026D000A9F8040005F8118005B0BDE8F08F0000EE
:1026E00010B540F2B804C2F20004A07B002808BF75
:1026F00010BDFFF72DFFA078012804D1A188E28842
:1027000002A0FDF781FF0020A07310BD746F7563F8
:102710006820646F776E207820256420207920253A
:10272000640D0A0048F6D800C2F2010001F034B886
:1027300048F65010C2F2010001F02EB801684CF2C8
:102740000002C4F20222914218BF704710B505A1E1
:1027500004460846FEF7E0F82046BDE8104000F0C9
:10276000B3BA00BF44434D49204572726F72436152
:102770006C6C6261636B000010B5044600684CF23B
:102780000001C4F20221884218BF10BD40F2481077
:10279000C2F20000006837F08DFF2068C16821F0A8
:1027A0000101C16010BD000070B50446006842F22E
:1027B00015160569C0F6000669071BD5042141619D
:1027C000E06C40F00200E06484F83510A06CC6664E
:1027D00000F0AAFF70B1A06CC06D816C896D0229F8
:1027E00006D0012180F83510C16C41F04001C16470
:1027F000FFF7A4FFA8071DD521680222A06C4A613B
:10280000E16C41F00101E164042184F83510C666F1
:1028100000F08AFF70B1A06CC06D816C896D0229D7
:1028200006D0012180F83510C16C41F04001C1642F
:10283000FFF784FFE80605D5206810214161204696
:1028400000F070F8280705D520680821416120466E
:1028500000F0D4FAE80708BF70BD21680868800757
:1028600003D5C86820F01E00C860C868012220F0A7
:102870000100C86020464A61BDE87040FFF77CBF98
:10288000002804BF012070472DE9F04F81B090F877
:10289000351019B9044600F047F82046022180F8A7
:1028A0003510D0F818E04FF20705BEF1000F1CBF3D
:1028B0000021416290E80212D0F80C800A68CFF63D
:1028C000E0752A400A60D0E90452D0E90867D0E9EF
:1028D0000A43D0F830A042EA08022A4342EA0C0236
:1028E00032433A432243D1F800B01A4342EA0A0283
:1028F00042EA0B0242EA0E0242EA09020A60B9F118
:10290000100F04BFC2698A61CA6842F01E02CA6021
:1029100000210122C16480F8352001B0BDE8F04FEC
:1029200008467047704700002DE9F04FA3B00546F8
:10293000002440F2000903A86C21CDE92144CDE92F
:102940001F44C4F202291E94FEF75AF9286809F5BB
:102950004041884202D023B0BDE8F08F40F68C4061
:102960000195C4F2026001681EAE41F4805101601D
:1029700001684FF0020A01F4805102910299016846
:10298000012541F00101016001684FF0030B01F0E6
:1029900001010291029901680A2741F004010160D6
:1029A000016801F0040102910299016841F00201FD
:1029B00001600068314600F0020002900298102089
:1029C0001E900A2022904846CDF87CA02095CDF894
:1029D00084B001F0F5FA4020CDE91E0A4FF004085A
:1029E00048463146CDE9205BCDF8888001F0E8FA11
:1029F0004FF41C60229709F50067CDE91E0A38469E
:102A00003146CDE9205B01F0DBFA4FF40070CDE9EF
:102A10001E0A38463146CDE9205BCDF8888001F0AA
:102A2000CFFA4FF47070CDE91E0A0A20229009F502
:102A300080603146CDE9205B01F0C2FA212003908D
:102A4000562040F26416CDE904044FF40020C2F28F
:102A50000006CDE9080A4FF40030CDE90C5506F127
:102A600018050A9003A82946CDE906441494CDE937
:102A70000E44CDE91044129400F0C2F9002818BFAA
:102A8000FFF748FD304600212A4600F0FBFB0028F6
:102A900018BFFFF73FFD40F26410C2F2000000F0E3
:102AA000FFFC002818BFFFF735FD48F65010D02175
:102AB000C2F20100C4F2020101604FF400010022E1
:102AC0008123C0E90E12C0E91022836400F04EFA9F
:102AD000002818BFFFF71EFD48F65015C2F2010589
:102AE00040F26411C2F20001284600F061FC0028A7
:102AF00018BFFFF70FFD019810218564E86528468F
:102B000000F026FE002818BFFFF704FD77200521FE
:102B1000002201F0F5FF772001F0E0FF23B0BDE8CF
:102B2000F08F0000B0B590F834404FF0020C012C4B
:102B300000F0C880012480F8344080F835C0D0F817
:102B400000E0D0F848C0DEF800509B0045F4804516
:102B5000CEF80050DEF8005025F00205CEF8005007
:102B6000DEF800502943CEF8001042F23511C0F6CD
:102B700000010025CCF8601042F21511B5EB134F9F
:102B8000C0F60001CCE91A158563C563C0E910558C
:102B90000ED19CF8501009066CD404460EF12801A1
:102BA000604601F0A5F90028204640F0828072E0DE
:102BB0008463C3634264C16BB1F5803F28D30021B5
:102BC000C36B5B08C363836B5B008363C36BB3F549
:102BD000803F1DD3C36B5B08C363836B5B00836360
:102BE000C36BB3F5803F13D3C36B5B08C363836BC5
:102BF0005B008363C36BB3F5803F09D3C36B5B0892
:102C0000C363836B5B008363C36BB1EB134FD7D19B
:102C1000816B01398163816B01649CF85010090656
:102C200042D5DCF8741000293ED00968E1B3C46BCA
:102C30000D6A0EF12803C5F302258C60CB600A6192
:102C400051F8254084B34FF6FF75A9434FF6FC7544
:102C5000D0F83CE02C402144C1E902E3C36B0446B8
:102C60001A4460460A6100F0A7FC01462046D9B923
:102C700011E000BFDCF87410B1B10968A1B10446DD
:102C80000EF12800C1E9023060460A6100F094FCB0
:102C9000002820460DD101684FF0000C0A6842F070
:102CA00001020A600BE000BF4021C164012180F8ED
:102CB000351040214FF0010CC16480F835C000216F
:102CC00080F834106046B0BD70B590F8341002241E
:102CD00001293CD040F26801C2F20001096844F6C3
:102CE000D352C1F26202A1FB0212012180F834101A
:102CF00080F8354001684FF61845520A0B68CFF648
:102D0000FF7502FB05F223F0010300250B600B6841
:102D1000DB070BD00B68DB071CBF0B685FEAC373D4
:102D200004D0043216D00B68DB07F0D100240A6807
:102D3000064622F480420A60816C084600F0A0FC3E
:102D4000F06CF064012086F8350086F83450204697
:102D500070BD00BFC26C032442F02002C264E6E7EB
:102D600090F83410012904BF0220704780B540F26A
:102D70006801C2F200010B6890F835104FF0000CAA
:102D800002294FF0000125D144F6D351C1F262016E
:102D9000A3FB0113052180F8351001684FF6184296
:102DA0005B0AD1F800E0CFF6FF7203FB02F32EF0CE
:102DB00001020A600A68D2070BD00A68D2071CBF5A
:102DC0000A685FEAC27204D0043309D00A68D207E5
:102DD000F0D1002180F834C0BDE88040084670473B
:102DE000C16C41F02001C164012180F8351003213C
:102DF00080F834C0BDE88040084670477047000046
:102E000000284FF0010218BF002901D11046704779
:102E1000B0B5D0E904C2C369D0F818E01A43C36B57
:102E20001A4342EA0C0242EA0E020A6003789B0649
:102E300016D5D0E909C34FF07C75D0F82CE0846B2F
:102E400005EB03534FF47C7505EB0C1503F07C7315
:102E500044EA0E0405F47C7523432B431A430A60AD
:102E60004268036B40F27F252A401A434A60C368D8
:102E7000B3F5007F05D0B3F5806F04D10578AD06BA
:102E800001D51A434A60436C43B1856C046C05F06C
:102E90003F05224342EA05421A434A60B0F86830CF
:102EA00040F2000C8B600278C0F2FF7C920722D5C2
:102EB000C56C4FF080540CEB054505EA0C052B431F
:102EC0008B60056D04EAD5054FF000542B448B60F0
:102ED000456D04EA95054FF080442B448B60856D69
:102EE00004EA55052B448B60C56DB5F1FF3FDCBF8F
:102EF00003F100438B60036ECB60436E0B6103688C
:102F00009D0703D44FF4A06029E000BF036D0CF1CE
:102F1000C052002B48BF5B426FF35F334B61456D7E
:102F20002C04002D48BF05FB02F422401A434A61DD
:102F3000836D0CF17845002B48BF5B429AB28A61E1
:102F4000C36D1C04002B48BF03FB05F422438A61B8
:102F5000036898074FF4E06058BF4FF4A06018432F
:102F600000220862BDE8B04010467047B0B5044684
:102F700001F056F9002C04BF0120B0BD0021054628
:102F8000206884F84C10022184F85410416941F003
:102F90000601416120684169C9070BD001F040F981
:102FA000401B0528F6D9012003221021A16584F8D1
:102FB0005420B0BDD4E90E124F23C5F2020398424B
:102FC00042EA010240F24F61C5F202011CDC40F20C
:102FD0004F43C4F20203984232DC40F24F23C4F262
:102FE0000203984256DC40F24F13C4F202039842A7
:102FF00000F394805023C4F20203984200F0E8806A
:10300000D023C4F20203E1E040F24F43C5F20203D1
:1030100098422DDC40F24F23C5F2020398424BDC6C
:1030200040F24F13C5F20203984200F3838050230D
:10303000C5F20203984200F0CB80D023C4E000BF69
:1030400040F24F63C4F20203984245DC40F24F5312
:10305000C4F20203984277DC40F25043C4F2020308
:10306000984200F0B58040F2D043C4F20203ADE0D4
:10307000884243DC40F24F53C5F2020398426FDCB2
:1030800040F25043C5F20203984200F0A18040F2A2
:10309000D04399E040F24F33C4F20203984269DC16
:1030A00040F25023C4F20203984200F0918040F2B3
:1030B000D023C4F2020389E040F24F33C5F2020389
:1030C000984263DC40F25023C5F20203984200F0BC
:1030D0007F8040F2D02377E040F24F73C4F20203C6
:1030E00098425DDC40F25063C4F2020398426FD014
:1030F00040F2D063C4F2020368E000BF40F24F73B5
:10310000C5F20203984257DC40F25063C5F2020355
:1031100098425DD040F2D06356E000BF40F25013B9
:10312000C4F20203984253D040F2D013C4F2020317
:103130004CE000BF40F25013C5F20203984247D062
:1031400040F2D01340E000BF40F25053C4F20203FB
:1031500098423DD040F2D053C4F2020336E000BFA3
:1031600040F25053C5F20203984231D040F2D0539E
:103170002AE000BF40F25033C4F20203984227D045
:1031800040F2D033C4F2020320E000BF40F25033DB
:10319000C5F2020398421BD040F2D03314E000BFC6
:1031A00040F25073C4F20203984211D040F2D0733F
:1031B000C4F202030AE000BF40F2D073C5F202037A
:1031C000984205D040F25073C5F20203984201D1F3
:1031D000236C1A434369884223F4430342EA0302FF
:1031E00042614FF000020264636C43648264C26413
:1031F000026511DC40F24F71C4F2020188421BDC0F
:1032000040F25061C4F2020188422DD040F2D061F8
:10321000C4F2020126E000BF40F24F71C5F2020184
:10322000884215DC40F25061C5F2020188421BD091
:1032300040F2D06114E000BF40F25071C4F20201CC
:10324000884211D040F2D071C4F202010AE000BFFE
:1032500040F2D071C5F20201884205D040F25071AF
:10326000C5F20201884202D1002141658165002139
:10327000C167A06C012220650020A16584F854205C
:10328000B0BD000000284FF0010318BF002A01D193
:10329000184670474369012B04D1042101230161C1
:1032A000184670472DE9F04186B0036842EA0107ED
:1032B0000E461F43002908BF1646002B18BF1E46A6
:1032C0007740B7F5803F09D253B193F8206051B1F0
:1032D00091F82070BE4206D028E000BF052126E00C
:1032E00029B191F8206092F82070BE421ED10227C9
:1032F000077300270761176A00247E08CFF60104D0
:1033000066F3596407F0020766F39A6407F105054E
:10331000A3B1E9B1904601AA019506460F46FEF712
:1033200057FFE8B10620306102E000BF04210161CF
:10333000012306B0BDE8F04118467047E1B14FF6F1
:10334000FC731A402243016041F82520022124E049
:103350004FF6FC711940214342F8251002601AE033
:103360000399B268304691420AD1416861B14FF683
:10337000FC721140214305E0026001210DE000BF15
:1033800057F8251048F825104FF6FC7101EA08019E
:10339000214347F825108168013181600023012114
:1033A0000361017306B0BDE8F041184670470000A4
:1033B00000284FF0010218BF002901D110467047C4
:1033C00090F8542090F85430022B18BF052A07D1EA
:1033D00040218165002180F84C100120704700BF1A
:1033E0000A7B022A04D101220A611046704700BFFD
:1033F000026840F24F63C5F202039A4210DC40F2C9
:103400004F73C4F202039A421ADC40F25063C4F2D2
:1034100002039A422CD040F2D063C4F2020325E0AA
:1034200040F24F73C5F202039A4215DC40F250633A
:10343000C5F202039A421BD040F2D06314E000BFF1
:1034400040F25073C4F202039A4211D040F2D0739A
:10345000C4F202030AE000BF40F25073C5F2020357
:103460009A4205D040F2D073C5F202039A420DD1C0
:10347000036D4A68812B03D122B141670020704758
:10348000002AFAD004200861012070470A6892F8E7
:1034900020209207ECD5032008610120704700002E
:1034A000002804BF01207047016839B142684AB161
:1034B0008A4204BF0020704707E000BF022101617B
:1034C000012070474269012A04D1042101610120D1
:1034D000704700BFF0B502220273002202610A6A3F
:1034E00040F2000E5308CFF6010E63F3596E02F05E
:1034F0000202856863F39A6E531D4FF6FC72002D2D
:1035000001EA020C47D0012D02D1654643E000BF1D
:103510004FF6FF726E1EAC1E21EA0202032C06F06B
:10352000030401D265461EE026F003064FF6FC7741
:10353000654600BF154355F82350043E05EA0705CC
:1035400045EA020555F8235005EA070545EA020554
:1035500055F8235005EA070545EA020555F82350BA
:1035600005EA0705E6D1B4B1154355F823504FF6E7
:10357000FC76012C05EA06050DD0154355F82350BD
:10358000022C05EA060506D02A4352F823204FF6FE
:10359000FC7402EA04054FF6FF7221EA02022A4394
:1035A0004EEA0C074160002142F8237001610121BD
:1035B00001730020F0BD0000002804BF0120704707
:1035C00080B5D0F874E0BEF1000F54D090F85410DC
:1035D00002680129D2F814C004D0022946D11CF493
:1035E000803143D090F85410012935D190F84C1017
:1035F00001294FF0020134D0012380F84C3080F8CB
:1036000054108EF80C1000218165CEF8101051690D
:1036100041F4BA415161416E19B1516941F40071EF
:103620005161006F18B1506940F400505061DEF8EC
:1036300000000023016ACFF60103490861F35963D2
:1036400061F39A634FF6FF7120EA010111604FF6B2
:10365000FC7108401844D0675069002140F0010017
:103660005061BDE880400846704700BF4021816539
:10367000002180F84C100121BDE8804008467047C9
:10368000B0B5044600F0CCFD002C04BF0120B0BD55
:10369000054694F85400022824D12068416941F07D
:1036A00004014161052084F8540000BF21680869C5
:1036B00080041FD400F0B4FD401B0628F6D3A06D93
:1036C00040F01000A065032084F8540094F85000E6
:1036D00000064FF0010001D5616F0873002184F8E6
:1036E0004C10B0BD2020A0650120002184F84C10B2
:1036F000B0BD00BF4869012240F0020048610420CB
:1037000084F854004FF4FE40C86084F8542094F8C4
:10371000500000064FF00000E0D5636F1A73886414
:10372000002184F84C10B0BD80B190F854100229EB
:103730000AD1042180F85410006842F20402416961
:1037400011434161002070472021816501207047AD
:10375000024600284FF0010008BF7047CB0612D583
:10376000136840F6FF7223EA020203F57B63C3F39A
:10377000C41301F0110198401129516814BF21EAC6
:10378000000008435060002070470000806D7047C3
:1037900090F854007047000010B504680C232146CF
:1037A00004F57B6263F30B01C2F3C4120968D140D4
:1037B000C90700F0A5802169490544BF61695FEA36
:1037C00041514BD42169090544BF61695FEA015148
:1037D0004CD42169C90444BF61695FEAC1414DD439
:1037E0002169490444BF61695FEA41414ED42169BE
:1037F000890544BF61695FEA81514FD42169890419
:1038000044BF61695FEA814154D42169C90544BF5D
:1038100061695FEAC15175D4816D002908BF10BD8F
:1038200001684A6942F002024A614969C9074FF0DA
:10383000030108BF012180F8541090F850100906C8
:1038400002D5416F01220A73816E0022002980F89F
:103850004C2055D0BDE81040084700BF4FF48061B0
:10386000E160816D41F001018165ABE74FF40061DA
:10387000E160816D41F002018165AAE74FF480515A
:10388000E160816D41F004018165A9E74FF4804159
:10389000E160816D41F008018165A8E74FF4007196
:1038A000E160426E002AA9D0044690472046246871
:1038B000A4E700BF4FF40051E16090F854100429D0
:1038C0002AD1616921F400516161616941F002010D
:1038D00061616169C9074FF0030108BF012180F8E8
:1038E000541090F85010090604D5416F01220A7354
:1038F0000021A164C16E0022002980F84C20A9D1CA
:1039000010BD00BF90F85010090611D4A16CD9B9B0
:1039100000F1540216E000BF052180F85410026F38
:10392000002A3FF472AF04469047204624686CE7B3
:10393000E16F49B9A16C39B9012180F85410416F88
:1039400001F10C02012111704FF44071E160016E30
:103950000022002980F84C203FF45EAF04468847DF
:10396000204659E7B0B5044600F05AFC002C04BFCD
:103970000120B0BD00210546206884F84C100221CA
:1039800084F85410416941F00601416120684169A1
:10399000C9070BD000F044FC401B0528F6D90120D4
:1039A00003221021A16584F85420B0BD216A426928
:1039B00004F1100522F4430211434161E36926CD6D
:1039C0001A4311434F22C5F2020240F24F6C90425B
:1039D00041EA050EC5F2020C1CDC40F24F43C4F272
:1039E0000203984232DC40F24F23C4F202039842B1
:1039F00056DC40F24F13C4F20203984200F3948065
:103A00005023C4F20203984200F0E880D023C4F2AD
:103A10000203E1E040F24F43C5F2020398422DDC7D
:103A200040F24F23C5F2020398424BDC40F24F13A1
:103A3000C5F20203984200F383805023C5F20203CB
:103A4000984200F0CB80D023C4E000BF40F24F6327
:103A5000C4F20203984245DC40F24F53C4F2020321
:103A6000984277DC40F25043C4F20203984200F0DF
:103A7000B58040F2D043C4F20203ADE0604543DCC0
:103A800040F24F53C5F2020398426FDC40F25043BC
:103A9000C5F20203984200F0A18040F2D04399E0C1
:103AA00040F24F33C4F20203984269DC40F25023E3
:103AB000C4F20203984200F0918040F2D023C4F295
:103AC000020389E040F24F33C5F20203984263DCFF
:103AD00040F25023C5F20203984200F07F8040F28A
:103AE000D02377E040F24F73C4F2020398425DDCCA
:103AF00040F25063C4F2020398426FD040F2D063A8
:103B0000C4F2020368E000BF40F24F73C5F2020343
:103B1000984257DC40F25063C5F2020398425DD0F0
:103B200040F2D06356E000BF40F25013C4F20203EB
:103B3000984253D040F2D013C4F202034CE000BFCD
:103B400040F25013C5F20203984247D040F2D0131E
:103B500040E000BF40F25053C4F2020398423DD00F
:103B600040F2D053C4F2020336E000BF40F250539B
:103B7000C5F20203984231D040F2D0532AE000BF90
:103B800040F25033C4F20203984227D040F2D033BF
:103B9000C4F2020320E000BF40F25033C5F202033A
:103BA00098421BD040F2D03314E000BF40F2507373
:103BB000C4F20203984211D040F2D073C4F202035F
:103BC0000AE000BF40F2D073C5F20203984205D06C
:103BD00040F25073C5F20203984212D1D4E909357C
:103BE0004FF07C72E16A02EB05524FF47C7505EBF5
:103BF000031302F07C7203F47C73114319434EEA01
:103C0000010E016C231D01F0802141EA0E010164C7
:103C10000ECB256B01F07F011143B3F5007F41EA24
:103C2000050225D0B3F5806F40F0EC8040F2CF71F3
:103C3000C4F2020188421FDD40F2CF31C5F2020119
:103C4000884239DC40F2CF11C5F20201884261DCC2
:103C5000CF21C5F20201884200F3AA8040F2D07160
:103C6000C4F20201884200F0CB805021C4E000BFC2
:103C700042F40072C6E000BF40F2CF31C4F202014C
:103C800088422FDD40F2CF51C4F20201884261DC4C
:103C900040F2CF41C4F20201884200F3078140F2B2
:103CA000D031C4F20201884200F0AA8040F25041B3
:103CB000C4F20201A2E000BF40F2CF51C5F20201FE
:103CC000884237DC40F2CF41C5F20201884277DCFE
:103CD00040F2D031C5F20201884200F0918040F2FA
:103CE000504189E040F2CF11C4F20201884243DD25
:103CF00040F2CF21C4F2020188424DDC40F2D011E3
:103D0000C4F2020188427BD040F25021C4F2020189
:103D100074E000BF40F2CF21C5F20201884259DCB5
:103D200040F2D011C5F20201884269D040F2502120
:103D300062E000BF40F2CF61C5F20201884253DC6D
:103D400040F2D051C5F20201884259D040F2506190
:103D500052E000BF40F2CF61C4F20201884200F39A
:103D6000B18040F2D051C4F20201884248D040F202
:103D70005061C4F2020141E05021C4F202018842C4
:103D80003ED0D021C4F20201884239D040F2501115
:103D9000C4F2020132E000BF40F2D021C4F20201BD
:103DA00088422DD040F25031C4F2020126E000BF1B
:103DB000D021C5F20201884222D040F250111BE00E
:103DC00040F2D041C5F20201884219D040F2505170
:103DD00012E000BF40F2D021C5F2020188420FD0AC
:103DE00040F2503108E000BF40F25071C5F20201CC
:103DF000884205D040F2D061C5F2020188426DD1FF
:103E000042F48062416C43F28013C3F6C043194010
:103E10001143416400216045816411DC40F24F711F
:103E2000C4F2020188421BDC40F25061C4F202017C
:103E300088422DD040F2D061C4F2020126E000BFDA
:103E400040F24F71C5F20201884215DC40F2506128
:103E5000C5F2020188421BD040F2D06114E000BFDD
:103E600040F25071C4F20201884211D040F2D07188
:103E7000C4F202010AE000BF40F2D071C5F20201B3
:103E8000884205D040F25071C5F20201884202D149
:103E90000021416581650021C167606B01222065B9
:103EA0000020A16584F85420B0BD00BF40F2D0418D
:103EB000C4F202018842A3D040F25051C4F2020180
:103EC0009CE700BF40F2D061C4F20201884297D063
:103ED00040F25071C4F2020190E700BF40F2D0718D
:103EE000C5F20201884208BF42F480628AE70000FE
:103EF00000284ED090F84CC0BCF1010F04BF022046
:103F000070474FF0010C80F84CC090F854C0BCF1E1
:103F1000010F39D110B54FF0020C80F854C04FF0AA
:103F2000000CC0F858C0D0F800C0D0F864E0DCF84D
:103F30004840BEF1000FC3EA0403CCF848304FF408
:103F4000FE43CCF80C30CCF84C10CCF85020DCF808
:103F5000141041F4BA41CCF8141005D0DCF8141058
:103F600041F40071CCF81410006F28B1DCF8140093
:103F700040F40050CCF81400DCF8140040F00100CC
:103F8000CCF81400002010BD40218165002180F88C
:103F90004C10012070470000B0B5044600F040F915
:103FA000054640F20800C2F200000078611C18BF0C
:103FB000044400BF00F034F9401BA042FAD3B0BD66
:103FC0002DE9F04F84B00E680290002E00F01E81A3
:103FD000DDF808B040F200090BF12000019047F62F
:103FE0007F70C0F22F0000EA9B2000234FF0010AEF
:103FF00000274FF00008C4F202694FF0000C009057
:1040000011E000BF40F20009C4F202690E680CF131
:10401000010C36FA0CF008F1020807F1040703F16D
:10402000080300F0F3800AFA0CF516EA0500EDD05B
:1040300003900298484527D04E6846F01002122A95
:104040005ED16FF0030000EA5C02019C07F01C05E2
:104050000F2054F802E000FA05F608692EEA060679
:1040600000F00F00A8403043A050DBF8000003220E
:104070004E6802FA08F2904306F0030202FA08F2D0
:104080004FF0010A104346E0D9F800004E6846F2AE
:104090006C1206F00106A84306FA0CF6C0F60402FC
:1040A000304302EBCC06C9F80000D6F804E06FF00C
:1040B000030052F83CB000EA5E051C205D4400EAB3
:1040C0008E062C6A0F2000FA06F20B2024EA020268
:1040D00000FA06F422432A62DBF800204FEA4E047D
:1040E000032000FA04F50220AA4300FA04F4224354
:1040F000CBF800204E684FF0010A122E10D936E09E
:10410000DBF80000032202FA08F2904306F00302F3
:1041100002FA08F21043E646CBF80000122E26D829
:104120000AFA06F010F0061F1ED04FEA4E090322CD
:10413000DBF8080002FA09F5CA68A84302FA09F296
:104140001043CBF80800DBF804000AFA0EF29043A3
:10415000320902FA0EF21043032ECBF804003FF4AA
:1041600051AFED4309E000BF032E3FF44FAF4FEADC
:104170004E09032000FA09F0C543DBF80C008A68F9
:10418000284002FA09F21043F200CBF80C007FF548
:1041900039AF42F2000E2CF00300C4F2026E7044FC
:1041A000026E03F018060F25B540AA43009D05FADC
:1041B00006F632430266DEF80000039C4A6840EAD5
:1041C0000406D50258BF20EA0406CEF80060DEF8E7
:1041D0000400950240EA040658BF20EA0406CEF81F
:1041E0000460DEF88400950340EA040658BF20EA24
:1041F0000406CEF88460DEF88000D20340EA0406AC
:1042000058BF20EA0406CEF88060FBE604B0BDE8A3
:10421000F08F00001823002A08BF2823C1507047E0
:1042200040F69430C2F208000068704790F84120D0
:10423000202A03D190F84020012A01D102207047A2
:10424000242280F841200268136823F001031360E0
:10425000136823F4805313601368194311601168C5
:1042600041F001011160202180F84110002180F807
:10427000401000207047000090F84120202A03D110
:1042800090F84020012A01D102207047242280F8B2
:1042900041200268136823F001031360136823F4BC
:1042A000706343EA01211160116841F0010111605E
:1042B000202180F84110002180F840100020704734
:1042C000002804BF0120704710B590F8411031B9A3
:1042D000002180F84010044600F0F8FA204624211E
:1042E00080F8411090E81210C3680A68012B22F090
:1042F00001020A6024F070620A618A6822F40042B6
:104300008A6003D14CF400428A6007E04CF4044216
:10431000022B8A6004BF4FF400624A604A6800F1D1
:10432000100442F0007242F400424A60CA6822F46B
:104330000042CA601CCC1A4342EA0422C369CA6024
:10434000026A1A430A600A6842F001020A60002108
:104350002022416480F84120016380F8421000204F
:1043600010BD00002DE9F04782B0044690F84100EE
:10437000202803D194F84000012803D1022002B084
:10438000BDE8F08701200D461746984684F84000A6
:10439000FFF746FF216806468A69120425D42220C9
:1043A00084F84100102084F84200002060646762B5
:1043B000A4F82A806063608D49F6000C40F2000882
:1043C000B0F5807FCFF6004CC0F2FF1820D351F833
:1043D000040F2B466FF39F2300EA0C0708F51050DB
:1043E000FF2222E088690004D9D5FFF719FF801B5E
:1043F00021681A28F6D388690004F3D5606C40F070
:1044000020006064202084F84100012071E000BF9A
:10441000628D284651F8043F6FF39F20D7B240EADF
:10442000074703EA0C0308F592303B431843086042
:104430002285608D0A9F002844D06FF39F254FF09E
:10444000FF090CF5806A10E0618D2068218550F825
:10445000042FC9B202EA0A0242EA01414FF0007297
:10446000294311430160608D60B3204639463246CE
:1044700006F0E2F860BB2068616A406A0870606A12
:10448000218D01306062481E2085618D0139618572
:10449000618D0029E7D00004E5D12046802100226B
:1044A0003B46009606F054F890B9608DB0F5807FD9
:1044B000CAD32068A4F8289050F8041F424601EAA5
:1044C0000A01CDE720463946324606F01BF918B1FD
:1044D000012002B0BDE8F08720682021C161426858
:1044E0004EF60003CFF600631A404260002084F8C5
:1044F0004110002184F8421084F8401002B0BDE859
:10450000F08700002DE9F04782B0044690F84100A2
:10451000202803D194F84000012803D1022002B0E2
:10452000BDE8F08701200D461746984684F8400004
:10453000FFF776FE216806468A69120425D42120F9
:1045400084F84100102084F8420000206064676213
:10455000A4F82A806063608D49F6000C40F20008E0
:10456000B0F5807FCFF6004CC0F2FF1820D351F891
:10457000040F2B466FF39F2300EA0C0708F5005049
:10458000FF2222E088690004D9D5FFF749FE801B8D
:1045900021681A28F6D388690004F3D5606C40F0CE
:1045A00020006064202084F84100012071E000BFF9
:1045B000628D284651F8043F6FF39F20D7B240EA3E
:1045C000074703EA0C0308F590303B4318430860A3
:1045D0002285608D0A9F002844D06FF39F254FF0FD
:1045E000FF090CF5806A10E0618D2068218550F884
:1045F000042FC9B202EA0A0242EA01414FF00072F6
:10460000294311430160608D60B32046394632462C
:1046100006F0B6F860BB606A226810F8011B916270
:104620006062608D01386085208D01382085618D44
:104630000029E8D00004E6D12046802100223B4634
:10464000009605F085FF98B9608DB0F5807FCBD3DB
:104650002068A4F8289050F8041F424601EA0A0195
:10466000CEE700BF20463946324606F04BF818B177
:10467000012002B0BDE8F08720682021C1614268B6
:104680004EF60003CFF600631A404260002084F823
:104690004110002184F8421084F8401002B0BDE8B7
:1046A000F08700002DE9F04F83B0044690F84100F8
:1046B000202807D10C9F4FB10D9E3EB194F84000C9
:1046C00001280BD1022003B0BDE8F08F4FF4007039
:1046D0006064012003B0BDE8F08F00BF01209B465D
:1046E0009246884684F84000FFF79AFD2168054607
:1046F0008A69120449D4222084F8410040204FF0F6
:10470000000984F84200C4F8449067626685C4F8E2
:1047100034906FF39F285FFA8BF04A6849F60006E1
:10472000CFF6004648EA004032400E9B104400F5A8
:104730000050CDF808804860204619462A461F469A
:1047400006F01EF8C0B92068BBF1010F09D04FEA8E
:104750001A218162204639462A4606F011F858B9D6
:1047600020685FFA8AF181622046402100223B46A0
:10477000009505F0EDFE08B384F84090012003B0E9
:10478000BDE8F08F88690004B5D5FFF749FD401BEF
:1047900021681A28F6D388690004F3D5606C40F0CC
:1047A00020006064202084F84100002084F842004A
:1047B00084F84000012003B0BDE8F08F608D40F226
:1047C0000009B0F5807FC0F2FF1909D3206809F510
:1047D000105350F8041F01EA060CFF210AE000BF45
:1047E000618D2068CBB250F8042F324042EA034C6E
:1047F00009F59233029A43EA0C031A434FF0FF0A79
:1048000006F580660260218511E000BF618D206899
:10481000218550F8042FC9B2324042EA01414FF0DD
:104820000072029B114319430160608D90B32046D2
:10483000042100223B46009505F08AFE00287FF403
:1048400048AF2068616A406A0870606A218D013053
:104850006062481E2085618D01396185618D002966
:10486000E3D00004E1D12046802100223B460095A0
:1048700005F06EFE00287FF42CAF608DB0F5807FD0
:10488000C4D32068A4F828A050F8041F4A46314039
:10489000C7E700BF204639462A4605F033FF002807
:1048A0007FF417AF20682021C16142684EF60003F3
:1048B000CFF600631A404260002084F8411084F86B
:1048C000420084F8400003B0BDE8F08FB0B5BAB044
:1048D000044602A800250830C0213995CDE9375596
:1048E000CDE93555FCF78CF9206845F60001C4F296
:1048F0000001884202D03AB0B0BD00BF80200290D3
:1049000002A8039501F050FF002818BFFDF702FE32
:1049100040F68C44C4F20264206835A940F00200DD
:104920002060206800F00200019001984FF4C04020
:1049300035901220369001203790002038900420C6
:10494000399040F20040C4F20220FFF739FB2069A1
:1049500040F480002061206900F4800001900198FB
:104960003AB0B0BD40F20041C4F203010A68D20778
:104970001CBF012070470A6822F00402104308603F
:104980000020704740F20041C4F20301086840F083
:10499000010200200A60704740F2080040F694319E
:1049A000C2F20000C2F2080100780A6810440860F0
:1049B0007047000080B542F20000C4F202000168B6
:1049C00041F480710160032000F0C6F802F0ECFBB6
:1049D00040F62041C4F20261096846F2541201F027
:1049E0000F01C0F60402515CC84040F26801C2F2F7
:1049F000000108600F2000F009F800281CBF01200A
:104A000080BD00F055F8002080BD0000B0B588B032
:104A100040F69C41C4F202610A68044642F010026A
:104A20000A60096802A801F010010291029901A927
:104A300002F01EFB02F058FB4DF68361C4F21B31FD
:104A4000A0FB01014FF0FF3000EB914148F6A4308C
:104A500041F20003C2F2010040F2E732C4F2000367
:104A60000025C0E90031C0E90252056104F010F9E7
:104A70000546B0B948F6A430C2F2010004F03CF992
:104A8000054670B90F2C0BD8312021460022002595
:104A900000F036F840F20C00C2F20000046000E0C2
:104AA0000125312000F01AF8284608B0B0BD0000FA
:104AB00081B040F69440C4F202600168002241F0E7
:104AC0000401016000680F2100F0040000900098CC
:104AD0006FF0010001B000F013B80000002848BFDB
:104AE00070471C2200F01F0102EAD000012202FAE6
:104AF00001F14EF20012CEF2000281507047000028
:104B000010B54EF60C5CCEF2000CDCF80030C3F3AE
:104B1000022E8EF00704042C28BF0424BEF10303E8
:104B20004FF0FF3E38BF00230EFA04F4A143994032
:104B30000EFA03F39A43114300F00F0200F16043B1
:104B40000901043A03F564436244002848BF02F1B6
:104B50000C03197010BD00004EF60C51CEF200018E
:104B60000A684FF6FF031A4060F30A2242F08060A1
:104B700040F0FD70086070472DE9F04F8DB0D0F81F
:104B800000C0002244F20400CDE90122CDE9032255
:104B9000C4F20C200592026840F2010E02F00303F9
:104BA000012B04BF0123019302F03003102B04BF3B
:104BB0000123029302F44073B3F5807F04BF012305
:104BC000039302F4A023B3F5803FC0F2001E05D189
:104BD0009303734658BF4FF00113049302F0A06390
:104BE000B3F1807F05D19201724658BF4FF0011298
:104BF00005924268022502F00303012B04BF022341
:104C0000019302F03003102B04BF0223029302F43D
:104C10004073B3F5807F04BF0223039302F4A02303
:104C2000B3F5803FC0F2010505D193032B4648BF81
:104C30000EF10103049302F0A063B3F1807F05D16C
:104C400092012A4648BF0EF10102059200240B94FE
:104C5000CDE90944CDE9074450F8042C0368D20794
:104C60004FF4007204BF40F22222C0F20442DF0778
:104C700005D083EA0207BF075CBF01240794DF0663
:104C800002D44FF0000809E083EA0207BF065ABFCA
:104C90004FF00108CDF820804FF0000803F4407772
:104CA000B7F5407F04BF01270997DF030ED583EADC
:104CB00002077F030AD4F2469F0358BF4FF0011A40
:104CC000CDF828A0DE0115D504E000BF4FF0000AA2
:104CD000DE010FD583EA020676010BD4F3469B0171
:104CE00058BF4FF0011BCDF82CB04368DE070CD045
:104CF00005E000BF4FF0000B4368DE0705D083EAF4
:104D00000206B6075CBF02240794DE0607D583EAD5
:104D10000206B6065CBF4FF00208CDF8208003F40F
:104D20004076B6F5407F04BF02260996DE030AD519
:104D300083EA0206760306D4AA469F0348BF0EF113
:104D4000010ACDF828A0DE0108D55A40520105D449
:104D50009A0148BF0EF10105AB460B9541F20047A1
:104D6000C4F20D273B68BCEB070218BF0122DB072A
:104D7000ACEB070302D1002605E000BF3E6826F039
:104D800001063E60012642F20047C4F20D273D684D
:104D9000C146ED07B3FA83F502D10096B84606E0A6
:104DA0003B68B84623F0010302363B60009602EBF5
:104DB000420301AA02EBC3036D099E6800EB86065D
:104DC00056F804EC2EF4807746F8047C50F8047C06
:104DD000FF0729D11C68002C5DD000EB840757F831
:104DE000046C26F0010647F8046C5C683CB100EBEB
:104DF000840757F8046C26F0100647F8046CDC684A
:104E00003CB10127A74350F8276026F4803640F8CC
:104E100027601B69002B3ED0012727EA030350F8C7
:104E2000237027F0807734E050F8043C41F20047CB
:104E3000C4F20D2723F00103BC4540F8043C2AD1FD
:104E400000EB8403B9F1000F53F8047C47F002072C
:104E500043F8047C07D000EB890353F8047C47F047
:104E6000200743F8047CBAF1000F08D0012323EA9D
:104E70000A0350F8237047F4802740F82370BBF1F1
:104E8000000F08D0012323EA0B0350F8237047F0EA
:104E9000806740F8237005EB450302EBC30452F82A
:104EA0003320D1E900366568934213D1AE422B46D8
:104EB0001FD1CB68E768BB421AD10B692769BB4297
:104EC000334616D150F8042C42F0010240F8042C6D
:104ED0003FE000BFAE4233460BD08B68A768BB42B1
:104EE00004D0CB68E768BB4240F01A812B4600E053
:104EF000334600EB820252F8047C27F0010742F8A7
:104F0000047C3BB100EB830252F8043C23F0100315
:104F100042F8043CD4E9023200EB830353F8047CEA
:104F200027F4807743F8047C42B1012323EA02028C
:104F300050F8223023F4803340F82230226942B105
:104F4000012323EA020250F8223023F0807340F854
:104F500022308A6841F2004500EB82024FF48077EC
:104F600052F8043CC4F20D2523F44073AC4518BF3D
:104F70004FF440773B4442F8043C4A69531EFF2BF0
:104F800011D850F8047CC7F30747BB420BD9002760
:104F900050F8043CCFF6FF7707EB024223F47F037F
:104FA0001A4340F8042C50F8043C0A68DB07A2F1CD
:104FB000010250F82270009E27F0030328D1012738
:104FC000AC4518BF03273B4340F822304A6862B122
:104FD00000EB8202102752F8043CAC4518BF302782
:104FE00023F020033B4342F8043CCA68D30327D490
:104FF000B2B3012323EA020250F822304FF0807747
:1050000023F0E063AC4518BF4FF0A06725E000BF78
:1050100043F0010340F822304A6842B100EB8202BB
:10502000012752F8043C67F3051342F8043CCA68B0
:10503000D30329D4AAB34FF080736FF0E06427E064
:10504000012323EA020250F822304FF4803723F480
:10505000E023AC4518BF4FF4A0273B4440F8223072
:105060000969CA032AD4002942D0012222EA010197
:1050700050F821204FF0407322F0E062AC4518BF99
:105080004FF0E06327E000BF4FF480336FF4E0247B
:10509000012727EA020250F8227027403B4340F8DC
:1050A00022300969CA0319D411B3012222EA01018D
:1050B00050F82120032363F31A6217E0012222EA49
:1050C000010150F821204FF4403322F4E022AC4596
:1050D00018BF4FF4E0231A4408E000BF012222EA7F
:1050E000010150F82120032363F3124240F82120EC
:1050F000F00705D1B00709D400200DB0BDE8F08F4E
:10510000286840F001002860B007F5D5D8F8000005
:1051100040F00100C8F8000000200DB0BDE8F08F9D
:105120000B692769BB422B467FF413AFE1E6000011
:10513000F0B581B00446FFF773F8216D11F00C0F44
:105140004ED005462068016849074FD400202168E9
:105150000A6A92065AD5086840F002000860A66DF7
:10516000086A800710D4002E54D0701C31D1086A10
:10517000800709D4086A80075CBF086A5FEA80700C
:1051800002D4086A8007F2D502264E62A76D086A2B
:1051900080065AD5781C4ED06FB900BFFFF740F893
:1051A0002068016A890639D4006A8006F6D44CE08A
:1051B000006A800649D5FFF733F8411B2068B942E1
:1051C000F6D9016A8906F3D528E000BF086A80078E
:1051D000DAD4FFF725F8401B2168B042F6D91CE06D
:1051E00010206065012001B0F0BD00BF016821F012
:1051F00004010160E06CFEF743FA00281ABF0421A5
:105200006165002021680A6A9206A4D40221216502
:1052100001B0F0BDFFF704F82168086A4FF4007090
:105220002065606D40F001006065012001B0F0BDB7
:10523000086A800609D5086A800606D5086A8006CD
:1052400044BF086A5FEA8060F2D42665002001B09E
:10525000F0BD0000F0B581B015460F460446FEF7DC
:10526000DFFF216D0646242912D0142906D0022919
:1052700009D1E068B0F1806F05D00EE0386820F009
:105280000100022809D010206065012001B0F0BDA6
:10529000386840F002000328F5D12068016A8906C9
:1052A0002DD5691C21D065B9FEF7BAFF2068016AC7
:1052B00089060FD4006A8006F6D420E0006A8006D2
:1052C0001DD5FEF7ADFF811B2068A942F6D9016A02
:1052D0008906F3D54FF400702065606D40F0010041
:1052E000D2E700BF016A890609D5016A890606D599
:1052F000016A890644BF016A5FEA8161F2D4002035
:1053000060652046394606F053FC18B1012001B013
:10531000F0BD00BFB86B48B13868022832D0012810
:1053200028D090B3002001B0F0BD00BF2168086A0A
:1053300080070FD4A5B3681C15D1086A800709D46B
:10534000086A80075CBF086A5FEA807002D4086A56
:105350008007F2D5002002224A6201B0F0BD00BFF2
:10536000086A8007F6D4FEF75BFF801B2168A8421D
:10537000F6D918E0206D242807D0142020650020DD
:1053800001B0F0BD206D142804D104202065002058
:1053900001B0F0BD24202065002001B0F0BD00BFA9
:1053A000FEF73EFF2168086A4FF400702065606DCB
:1053B00040F001006065012002224A6201B0F0BDA8
:1053C000B0B5026804469068082340F0020090607F
:1053D00041F20040C4F20D2082424FF20000C4F2BC
:1053E0000C20236507D042F20043C4F20D239A42F9
:1053F0000AD100F58060026842F00102026006F006
:1054000089F8002501E000BF01252046FFF790FE46
:105410002168886820F0020228468A60B0BD00003A
:10542000F0B581B00446FEF7FBFE002C00F0898049
:10543000054600206065216D11B101B0F0BD00BFCF
:10544000204600F0DFF841F28830A0652068D4E9FA
:1054500003C2636986684CF2F401CFF6E001314083
:105460000026CFF6FF7606EB02426FF0FF0E666B6A
:1054700041EA0C010EEB03231143E7693143194361
:1054800039438160C168226A21F4E0211143C1607F
:10549000216BA26B42EA01410161E16B416101684C
:1054A000626821F47C510EEB022211430160016A13
:1054B00089062FD4C168D4E9097621F0FF01013FA4
:1054C0003943A268A369C1600168022B21F0400141
:1054D00041EA02010160D0F80811E26A21F0A0411E
:1054E00041EA060141EA0201C0F80811016841F0F1
:1054F0000101016003D1816841F002018160E0682F
:10550000B0F1806F14BF022001202065002001B09F
:10551000F0BD00BF41F2893603E000BF016A890691
:10552000C8D5FEF77DFE411B2068B142F6D3016A63
:105530008906F3D54FF400702065606D40F00100DE
:105540006065012001B0F0BDF0B581B00D460446A4
:10555000FEF766FE216D042928D106462068A76D56
:10556000016A890635D5791C29D067B9FEF758FE3E
:105570002068016A89060FD4016A8906F6D428E0FA
:10558000016A890625D5FEF74BFE811B2068B942CA
:10559000F6D9016A8906F3D54FF400702065606D75
:1055A00040F001006065012001B0F0BD1020606591
:1055B000012001B0F0BD00BF016A890609D5016A6A
:1055C000890606D5016A890644BF016A5FEA8161DE
:1055D000F2D4882121652968082908D16A68C0F8B1
:1055E000302110224262026842F480120260026896
:1055F00022F00802114341F040510160002001B047
:10560000F0BD00002DE9F043B9B0044602A8002522
:105610000830C0213895CDE93655CDE93455FBF732
:10562000EFFA206841F20041C4F20D21884203D014
:1056300039B0BDE8F08300BF4FF08060029002A84F
:10564000039501F0B1F8002818BFFCF763FF40F69E
:105650008C40C4F20260016840F6000441F400117D
:1056600001600168C4F2022401F400110191019962
:10567000416834AD41F01001416041684FF00208CB
:1056800001F010010191019901684FF0000941F00A
:10569000040101600168032601F0040101910199F0
:1056A000016841F0010101600068294600F0010035
:1056B00001900198012034902046CDF8D480CDF897
:1056C000D890CDE93766FEF77BFC0E2034A981E83F
:1056D00001030A272046294637963897FEF770FCC3
:1056E0000C2034A981E80103A4F500602946CDE926
:1056F0003767FEF765FC39B0BDE8F0832DE9F0436C
:1057000081B015460F460446FEF78AFD2668B16C47
:10571000D6F81021C7B18046206D04281AD1306C0C
:1057200001230130A064A06C60642764306863F3D7
:105730001D703060E068B0F1806F11D1B16415F177
:10574000010918D154E000BF08206065012001B0B4
:10575000BDE8F08310206065012001B0BDE8F08352
:10576000D6F8000110F4E06F0CBFC6F81021B16448
:1057700015F101093CD0002D65D100BF2068006AF9
:1057800010F0060F70D096F850003870206CA16CA5
:10579000471C481E2764A064A06C0028EED1206836
:1057A000016A890711D4002D5ED0B9F1000F34D100
:1057B000016A890709D4016A89075CBF016A5FEA47
:1057C000817102D4016A8907F2D502214162216503
:1057D000002001B0BDE8F08396F850003870206CCE
:1057E000A16C471C481E2764A064A06C0028D6D07A
:1057F0002068016A11F0060FEED1016A11F0060F60
:10580000EAD1016A11F0060FE6D1016A11F0060F24
:10581000EFD0E1E7016A8907D7D4FEF701FDA0EBDD
:1058200008012068A942F5D921E000BF276C96F84D
:1058300050003870206CA16C471C481E2764A0647F
:10584000A06C0028ABD02068006A10F0060FEED1E3
:10585000FEF7E6FCA0EB08012068A94207D8006A21
:1058600010F0060FF4D0E1E7FEF7DAFC2068006ADA
:105870004FF400702065606D40F00100606501200C
:1058800001B0BDE8F083000040F60C0CC4F2026CDD
:10589000DCF8302002F4403282420BD1B0F1011F1B
:1058A00068D3DCF8000040F48020CCF80000002031
:1058B000704700BFDCF80020B0F5803F22F4E02202
:1058C00042EA000240F2680088BF42F48022CCF82D
:1058D0000020C2F20000006841F25972CDF2B71206
:1058E000A0FB0202900B0346DCF80010B3F1FF327C
:1058F00018BF012209041ED4591C1CD0DCF800106A
:10590000002B1A4618BF0122090414D49BB1DCF8FD
:1059100000105A1E18BF012209040CD4012B0AD012
:10592000DCF800109A1E18BF0122090403D4022BD0
:10593000A3F10403D8D112B3DCF83010421C0904DF
:1059400016D4AAB1DCF83010090412D488B1DCF8FE
:105950003010090410D401280ED0DCF83010021FDA
:10596000090402D402281046E6D1901C10B906E0C2
:10597000104620B10020704701380028FAD10320DA
:105980007047000040F62C00C4F20260016841F04C
:10599000010101607047000040F63C00C4F2026063
:1059A000006800F440307047B0B540F6284EC4F2AD
:1059B000026EDEF80C50DEF80030DEF80010DEF883
:1059C0000020DEF81040D206E40804EAE272C1F3D7
:1059D00003216FF35F3200EE102A03F00303B8EEE9
:1059E000400A6FF35F25012B01F1010C66D0032BF8
:1059F00018BF022B62D101EE10CADEF80C10B8EE0F
:105A0000411A9FED4D2A6FF35F2182EE011A02EEDB
:105A1000101A9FED4A3AB8EE422A20EE030A30EE01
:105A2000020AB7EE002A30EE022ADEF8001021EE5C
:105A3000020AC90371D5DEF80C10B7EE002AC1F3D3
:105A4000462101EE101AB8EE411A31EE021A80EE2C
:105A5000011ABCEEC11A11EE102A0260DEF8001025
:105A6000890360D5DEF80C10B7EE002AC1F30641B9
:105A700001EE101AB8EE411A31EE021A80EE011A48
:105A8000BCEEC11A11EE102A4260DEF80010490384
:105A90004FD5DEF80C10B7EE002AC1F3066101EE17
:105AA000101AB8EE411A31EE021A80EE010ABCEE6D
:105AB000C00A10EE101A8160B0BD00BF5EF8201C55
:105AC000090203D4DEF8CC100B0401E05EF8203CA0
:105AD00046F2EC12190FC0F6040202EB810102EE4D
