:020000040800F2
:100000004893072055030008DDD100082DB90008EA
:10001000D9D10008D521000889000108670300082C
:1000200000000000000000000000000091E2000855
:10003000692400080000000001DF0008C5E2000894
:1000400071030008710300087103000871030008C0
:1000500071030008710300087103000871030008B0
:1000600071030008710300087103000871030008A0
:100070007103000871030008710300087103000890
:100080007103000871030008710300087103000880
:100090007103000871030008710300087103000870
:1000A0007103000871030008710300087103000860
:1000B00000000000BD2B0008C92B000871030008D8
:1000C0007103000871030008710300087103000840
:1000D0007103000871030008710300087103000830
:1000E0007103000871030008710300087103000820
:1000F0007103000871030008710300087103000810
:100100007103000831E3000871030008710300085F
:1001100071030008710300087103000871030008EF
:100120007103000871030008710300083DE1000835
:1001300071030008710300087103000871030008CF
:1001400071030008A1EA00087103000871030008A8
:1001500071030008710300087103000871030008AF
:10016000710300087103000871030008710300089F
:10017000710300087103000871030008710300088F
:10018000710300087103000871030008710300087F
:10019000710300087103000871030008710300086F
:1001A000710300087103000871030008710300085F
:1001B00071030008000000007103000871030008CB
:1001C00071030008000000007103000871030008BB
:1001D000710300087103000871030008710300082F
:1001E000710300087103000871030008710300081F
:1001F0000000000000000000710300087103000807
:1002000071030008710300087103000871030008FE
:1002100071030008710300087103000889220008B7
:1002200071030008710300087103000871030008DE
:10023000710300087103000800F002F800F07BF879
:1002400014A696E8000CB244B344DA4501D100F09C
:1002500072F8BAE80F000FA696E83000A5EB040587
:1002600004EB0607AAEB0704A7F101074FEA1515EF
:100270004FEA3414A4F10104AC4201D300F05BF85E
:1002800013F0010F18BFFB1A43F0010300F001F84F
:10029000DBE71847F804050018050500103A24BFED
:1002A00078C878C1FAD8520724BF30C830C144BFDB
:1002B00004680C60704700007047000000230024B1
:1002C00000250026103A28BF78C1FBD8520728BF66
:1002D00030C148BF0B60704766290AF04CA66729F9
:1002E0000AF049A6692900F00782642900F0048217
:1002F000752900F00182782900F03A82732901F013
:100300006080002070471FB54AF020FE9DE8030082
:1003100000F08CFD01F064FB0400002000214AF095
:1003200061FB401C6060002000214AF071FBE0602E
:100330001FBD10B510BD01F094FC1146FFF7E3FF9F
:100340003EF06AFA01F0E8FE03B4FFF7F2FF03BCE7
:1003500012F05CFC0A4880470A480047FEE7FEE7C7
:10036000FEE7FEE7FEE7FEE7FEE7FEE7FEE7FEE765
:10037000FEE7000004480549054A064B70470000A7
:10038000E5E2000839020008488D0720489307205D
:10039000488F0720488F0720704770B5064600F049
:1003A00029FD056806F10B0020F00704B4429CBF4C
:1003B000002070BD2B466A68BAB11068A04210D305
:1003C00004F1080188423CBF5068586007D3516867
:1003D000101941601168091B016058601460101DFC
:1003E00070BD13465268002AE7D12146284600F026
:1003F00009FD0028DED170BD70B50446051F00F070
:10040000F9FC0068002C14BF446870BD002C18BFB4
:10041000AC423CBF20466468F8D301680A18AA427F
:1004200018BF456003D12A68054611440160286859
:100430004119A1421CBF6C6070BD61686960216890
:100440000844286070BD70B50D460646041F00F0D4
:10045000D1FC0268BDB1DEB105F10B0020F007014F
:10046000A9423CBF002070BD23688B4238BF506852
:1004700013D35A1A082A36D3601840F8042B216087
:10048000FFF7BAFF2FE03046FFF7B6FF002070BD40
:100490002846BDE87040FFF780BF002818BFA04283
:1004A0003CBF02464068F8D303EB040C84451CD1E2
:1004B000D0F800C06344994217D8A3EB010CBCF1FB
:1004C000080F0DD3D0F804C06318C3F804C0D4F8E3
:1004D00000C000686044401A18602160536002E068
:1004E000236040685060201D70BD2846FFF755FF0F
:1004F000050008D031462068021F284600F079FB2D
:10050000201DFFF779FF284670BD53EA020C00F06A
:1005100069802DE9F04B4FF00006002B1FBFB3FAA6
:1005200083F503FA05F424FA05F65E4012BF16437C
:10053000B2FA82F502FA05F4C5F120051EBF22FACF
:1005400005FC44EA0C04203556EA044C4FEA1444F6
:1005500018BF641C4FF000084FF00009904271EB87
:10056000030C39D3002919BFB1FA81F701FA07F654
:10057000B0FA80F700FA07F6C7F120071EBF20FA8D
:1005800007FC46EA0C062037B6FBF4FCA7EB050790
:10059000103F07F01F0BCBF120062CFA06F60CFAE1
:1005A0000BFB44BFB3460026202FA4BF5E464FF08E
:1005B000000B5BEA060C08BF4FF0010B19EB0B09AF
:1005C00048EB0608ABFB027C06FB02CC0BFB03CC22
:1005D000C01B71EB0C01C1E70B4602464146484681
:1005E000BDE8F08B13B5084318BF4FF0FF3001464C
:1005F000AFF30080BDE81C40704710B5044600F022
:10060000F1FB0068005DC00602D504F1200010BDBA
:10061000204610BD0FB4044910B503AA029800F09B
:10062000D5FE10BC5DF814FB002900200FB41CB5EA
:10063000084B06AA7B4469460090059800F097FE97
:1006400004460020694600F0A5FE20461CBC5DF86B
:1006500014FB00005D0D000070B50446856900685C
:10066000C10601D5302600E02026C00707D070BDA6
:10067000D4E9012130469047206A401C20626D1E5B
:10068000F6D570BD70B5044685690078C00707D1FE
:1006900070BDD4E9012120209047206A401C2062CF
:1006A0006D1EF6D570BD70B50C460546012A05D005
:1006B0002878800600D5EA69002302E0012305E0DE
:1006C0005B1C934202D2E05C0028F9D1A869E618CD
:1006D000C01AA861286A184428622846FFF7BCFFA0
:1006E00004E0D5E9012114F8010B9047B442F8D396
:1006F0002846FFF7C7FF70BD2DE9F04106460024EC
:1007000010687529314616A510D0AFF30080002877
:1007100002DA404213A507E031688A0701D512A525
:1007200002E0490704D511A5012401E0AFF30080E0
:1007300000210A2206F1240709E0B0FBF2FCB0FB1D
:10074000F2F302FB1C00303078541846491C002894
:10075000F3D123462A463046BDE8F04100F09BBB6A
:10076000000000002D0000002B0000002000000011
:1007700070B504460D4621461068AFF3008021880D
:10078000090502D50F4A7A4402E00E4A7A440E3235
:10079000002104F1240305E000F00F060009965D36
:1007A0005E54491C0028F7D120780023000704D5A7
:1007B000702D02D009B1022311322046BDE87040ED
:1007C00000F069BBECA804002DE9F05F89460446FF
:1007D0004FF0000ADFF874B1FB44C0F820A02046B7
:1007E000E1688847002874D0252806D0D4E9012183
:1007F0009047206A401C2062F1E700265F462046B1
:10080000E16888472028054607DB312D05D2781995
:1008100010F8200C08B10643F1E7B00701D526F027
:100820000406C4F81CA00027C4F818A02A2D09D07B
:1008300028464AF088F838B304EB8708303DC8F8FA
:10084000185019E059F8041B204604EB8702916107
:10085000E1688847012F054618D1E069002820DAB1
:1008600026F020061DE0D8F8180000EB800005EB0C
:1008700040003038C8F818002046E168884705462F
:100880004AF061F80028EED1012F0AD02E2D08D1B0
:100890002046E16888477F1C0546022F46F0200667
:1008A000C4DBA069002803DA404246F00106A061DB
:1008B000F00701D026F010066C2D0BD0682D09D062
:1008C0004C2D39D06A2D35D0742D35D07A2D33D0BA
:1008D00016E038E0E1682F4620468847B8420546D2
:1008E00009D16C2F26D04FF48060E1680643204682
:1008F0008847054604E06C2F1AD04FF480700643F9
:100900000DB3A5F14100192802D8203546F4006640
:100910004A462946204626604E46FFF7DDFC80B158
:1009200001280BD0F61D26F0070000F1080956E754
:100930004020E4E78020D8E70020D6E706F104094C
:100940004DE7284652E7206ABDE8F09FC2A80400A0
:1009500010B5044603E018F0C5FF401C09D014F898
:10096000010B05490028F6D1BDE810400A2018F017
:10097000B9BF4FF0FF3010BD00290020401ECAB2A1
:1009800010F8011F8A4202D00029F9D100207047D7
:1009900030B505460B462A4613F8014B12F8010BF9
:1009A00008B1A042F8D01CB1002802D06D1CF1E7BC
:1009B000284630BD40EA010310B59B070FD1042A39
:1009C0000DD310C808C9121F9C42F8D020BA19BA1A
:1009D000884201D9012010BD4FF0FF3010BD1AB17F
:1009E000D30703D0521C07E0002010BD10F8013BD4
:1009F00011F8014B1B1B07D110F8013B11F8014BFB
:100A00001B1B01D1921EF1D1184610BD40EA010313
:100A1000024630B59B0710D14FF0013400E008C208
:100A200008C91D1B9D4315EAC41FF8D013F0FF0130
:100A300002F8011B0DD01B0AF8E711F8013B002B4F
:100A400002F8013B05D011F8013B002B02F8013BF5
:100A5000F3D130BD2DE9F0410E460546002400E0FB
:100A6000641C285DFFF7C9FD0746305DFFF7C5FD33
:100A7000381A02D1295D0029F2D1BDE8F0810022A7
:100A8000CBB210F8011B994200D1421E0029F8D1C7
:100A90001046704710B5431C02E010F8011B71B1FD
:100AA0008107FAD14FF0013202C88C1A8C4314EA44
:100AB000C211F9D0C01A0A0603D0C01E10BDC01A58
:100AC00010BD0A0401D0801E10BD0902FCD0401EDA
:100AD00010BD40EA010370B59B072ED14FF00136DF
:100AE000042A2AD308C810C99D1B9D43121F15EA6A
:100AF000C61517D0D8B2E1B2401A50EA056110D13C
:100B000098B2A1B2401A50EA05410AD123F07F40C1
:100B100024F07F41401A50EA052102D1180EA0EBC3
:100B2000146070BDA342DBD018BA21BA884201D943
:100B3000012070BD4FF0FF3070BD0AB9002070BDBC
:100B400010F8013B11F8014B63B1A3420AD1521EC8
:100B500008D010F8013B11F8014B1BB1A34201D1A1
:100B6000521EEDD1181B70BD032A40F2308010F0E8
:100B7000030C00F0158011F8013BBCF1020F624438
:100B800098BF11F801CB00F8013B38BF11F8013BC9
:100B9000A2F1040298BF00F801CB38BF00F8013B76
:100BA00011F0030300F02580083AC0F0088051F8E6
:100BB000043B083A51F804CBA0E80810F5E7121DF1
:100BC0005CBF51F8043B40F8043BAFF30080D20710
:100BD00024BF11F8013B11F801CB48BF11F8012BDC
:100BE00024BF00F8013B00F801CB48BF00F8012BFF
:100BF000704710B5203AC0F00B80B1E81850A0E85B
:100C00001850B1E81850A0E81850203ABFF4F5AFDA
:100C10005FEA027C24BFB1E81850A0E8185044BF36
:100C200018C918C0BDE810405FEA827C24BF51F8A3
:100C3000043B40F8043B08BF7047D20728BF31F897
:100C4000023B48BF11F8012B28BF20F8023B48BFE8
:100C500000F8012B704702F0FF0343EA032242EA47
:100C6000024200F00AB802F0FF0343EA032242EA1C
:100C7000024200F024B84FF000020429C0F01280B4
:100C800010F0030C00F01B80CCF1040CBCF1020F3F
:100C900018BF00F8012BA8BF20F8022BA1EB0C0114
:100CA00000F00DB85FEAC17C24BF00F8012B00F80A
:100CB000012B48BF00F8012B70474FF0000200B530
:100CC000134694469646203922BFA0E80C50A0E86F
:100CD0000C50B1F12001BFF4F7AF090728BFA0E81D
:100CE0000C5048BF0CC05DF804EB890028BF40F8E9
:100CF000042B08BF704748BF20F8022B11F0804F2B
:100D000018BF00F8012B704710B5044610F0030F10
:100D100008BF11F0030F40F015804FF0013E121F85
:100D2000C0F20E8051F8043BA3EB0E0C2CEA030C2E
:100D30001CEACE1C08BF40F8043BF0D0A1F104012E
:100D400002F10402521E08DB11F8013B00F8013BDE
:100D5000002BF7D11146FFF78EFF204610BD000093
:100D600030B44FF0013C50F8042B51F8043BCCFA5E
:100D700052F4D51A20D1FCB950F8042B51F8043B99
:100D8000CCFA52F4D51A17D1B4B950F8042B51F853
:100D9000043BCCFA52F4D51A0ED16CB950F8042B9E
:100DA00051F8043BCCFA52F4D51A05D1002CDAD014
:100DB00030BC4FF00000704729BAB1FA81F111F050
:100DC0001801D1F120008440F2D1CA40CB4012F08A
:100DD000FF0213F0FF0330BCD01A70477047704712
:100DE0007047704710B500F0FBFD001D10BD00BF3F
:100DF000F59B040000487047E800002070477047EA
:100E00007047704738B504460A4600206946AFF37C
:100E10000080002808BF38BD02460099204600F037
:100E2000E7FD012038BD012000F014BFF8B5AFF395
:100E30000080054600200C460C2000BF0646A8197D
:100E4000A0420DD9324669460020AFF3008007006A
:100E500008BF00F0FFFE0098A04218BF0546C41965
:100E6000FFF7C8FF05600746F01D20F00700461990
:100E7000284600F00AF8B44208BFF8BDA21B31466C
:100E80003868BDE8F84000F0B3BD00210160416062
:100E900070470C2070472DE9F0470D469946924661
:100EA000044600F124080168880604D5E06921F0B1
:100EB0001001216000E00120A84201DD471B00E095
:100EC0000027A1697A1902EB0900081AA0612078AD
:100ED000C00602D42046FFF7BFFB002608E0D4E995
:100EE00001211AF806009047206A401C761C2062F7
:100EF0004E45F4DB2078C0060AD52046FFF7ACFB50
:100F000006E0D4E9012130209047206A401C20628D
:100F1000381EA7F10107F4DC07E0D4E9012118F835
:100F200005009047206A401C2062281EA5F101059B
:100F3000F3DC2046FFF7A6FB2078000602D502204E
:100F4000BDE8F0870120FBE72DE9FF4F0C461E4668
:100F50004FF0FF378BB0D2E90001DDF860800A90D6
:100F60008A46C1F30A5505B93D46002108464FF0AF
:100F70000000BAF1000F00F4400005DA00EB800039
:100F80004FF4400101EA50004FEA9059B9F1010FC6
:100F900000DDB9460A9850EA4A000ED044F61050D7
:100FA000A5F2FF3545432F14B8F1000F1ED075424E
:100FB000291E1EDDC9F100021CE0B8F1010F4FF03F
:100FC000000001D0302103E0F24305E02154401C31
:100FD000B042FBDB30460022002121540B99C1F8BE
:100FE0000880C1E900200FB0BDE8F08FBD1B6D1C6B
:100FF000DEE74A4600DA694206A800F0B5FD06AB16
:1010000093E8070003AB83E8070050460A9948F0CD
:1010100023FF8DE80700A0F500501F3800900398CB
:10102000002D0ADD42F21F014A460844002303A9AD
:101030000390684649F0CEF909E0A0F500504A4611
:101040001F38002303A90390684649F0EDF98DE8A5
:1010500007000004000C03D04FF0FF30410800E00F
:101060001046B8F1000F03D00022009215461EE092
:10107000751E05D400F0E9FC303262556D1EF9D5BD
:10108000B3460122084302D000227F1C04E02078EE
:10109000302801D100227F1E002A099784D01DE04C
:1010A000112D07DA00F0D1FC303262556D1C50EA88
:1010B0000102F5D1084302D00098C8B10EE000212A
:1010C000681E05E0235C625C63542254401E491C88
:1010D0008142F7DBAB46A81B401E0990002004F8B4
:1010E0000B000B98099AC0F80880C0E9002B7AE73A
:1010F00011264FF0000857E72DE9F04F88460446C7
:10110000D21D22F0070191B0D1E90001CDE90A0119
:1011100049F0D6FA02460B98C00F01D02D2007E007
:101120002068810701D52B2002E0202101EAC000C0
:10113000032A099001D0072A05DB034641462046D1
:1011400000F0D2FC0BE12078800601D5E06900E0D8
:101150000620B8F1650F814606D0B8F1660F18D0A9
:10116000B8F1670F70D131E00020B9F1110F009094
:1011700001DB112301E009F101030AAA01A90CA86E
:10118000FFF7E2FEDDE90C70002609F10105834658
:1011900047E001204B4600904FF000470AAA01A902
:1011A0000CA8FFF7D1FEDDE90DB00C995D460026D5
:1011B00010B909F101000D18B9EB050003D4C0F115
:1011C000FF3609F10105A5EB09002BE0B9F1010F8C
:1011D00001DA4FF001090020B9F1110F00904846E3
:1011E00001DD112300E003460AAA01A90CA8FFF7BC
:1011F000ABFEDDE90C704D460026834620780007E3
:101200000AD4AB4500DA5D4601A8012D04DD411981
:1012100011F8011C302907D04F4502DA17F1040FED
:1012200004DA012082460FE06D1EEEE7002F02DC9B
:10123000ED1B3E4403E0781CA84200DD7D1CB81B7A
:1012400000F1010A4FF000472078000703D4AA45B7
:1012500001DB4FF0FF3A0021B7F1004F0DF14308D9
:101260008DF8431024D002202B23002F01DA7F4277
:101270002D230A21021EA0F1010000DC5FB197FBC3
:10128000F1FC97FBF1F201FB1C7C17460CF1300CD2
:1012900008F801CDEEE7A8F10100037021880905E7
:1012A00001D5452100E06521A0F1010800F8011CED
:1012B00009980FA9A1EB0807FF1D00B101204119F2
:1012C00001EBEA70A1693844081A401EA061207839
:1012D000C00602D42046FFF7BFF9099828B1D4E927
:1012E00001219047206A401C20622078C00622D548
:1012F0002046FFF7B1F91EE0002E04DBB34502DD06
:1013000001A8805D00E03020D4E901219047206AE7
:10131000401C2062761CAAF101005FEA000A0AD193
:1013200000F05EFBC0680168405CD4E90121904791
:10133000206A401C2062281EA5F10105DCDC07E0C4
:10134000D4E9012118F8010B9047206A401C206263
:10135000381EA7F10107F3DC2046FFF793F90320BD
:1013600011B041E601694A1C02610878704700B576
:101370008FB0CDE901310021059105497944CDE9CE
:10138000031011466846FFF71FFA0FB000BD0000BA
:10139000E5FFFFFF0A6802F8010B0A60704710B50D
:1013A000436913B1AFF3008001E0FFF77CF901203E
:1013B00010BD127800F124010A7000224A70012247
:1013C000EDE711684FF0FF32E9E70000074B70B519
:1013D0000D467B44FFF7CBFF0446284600F036FC61
:1013E00010B14FF0FF3070BD204670BD0F85010079
:1013F0002DE9FF4F06468BB00878FF2806D0491C20
:101400002D2805D000244FF0000908E000200CE052
:101410000124F8E709EB8903491C00EB430908782C
:10142000FF28F7D114B1C9F10000814610780025DA
:101430002C46AA4629462D2801D02B2804D1521C1F
:101440002D2813D0002082468B461078FF280FD01D
:101450004FF0000C0A21521CA5FB017804FB01810E
:1014600005FB0C11C5194BEB0104EEE70120EAE77F
:10147000002108464FF00000BAF1000F02D000EB47
:1014800080004008C0F38157012F01DD4FF0FF3786
:101490000E9955EA040009EB01080BD04FF0020940
:1014A00018F5FA7F16DA4FEACA70002F706008DD6F
:1014B000012007E04FEACA70C6E900B00FB0BDE8EE
:1014C000F08F0020306000F08FFAC0F800901821F3
:1014D000084616E0B8F5FA7F18DD002F02DAF74863
:1014E000784401E0F6487844D0E90010C6E90010DD
:1014F00040EACA70706000F077FAC0F800901421DA
:1015000008460FB0BDE8F04F49F032BD0021084653
:101510004FF00000B8F10001099002DAC7F10002B3
:1015200000E03A4601DAC8F1000106A800F01CFB11
:1015300006AB93E8070003AB83E8070044F23E00E4
:101540005BEA04010090584604D144F21E012C4687
:101550005D460091210C0904014306D10099240441
:1015600044EA15442D041039009104F07F410143F1
:1015700006D10099240244EA15642D02083900912D
:1015800004F07041014306D10099240144EA157426
:101590002D01091F009104F04041014306D100993B
:1015A000A40044EA9574AD00891E009104F0004146
:1015B000084304D100986D196441401E00904FF01B
:1015C00001033A466846B8F1000FCDE9014503A989
:1015D00002DD48F03EFF01E048F011FFBAF1000FD4
:1015E00004460D4601D084F00044002108464FF027
:1015F0000000099940F2FF77484010F00C0F07D126
:1016000024F00040284303D0C4F30A50B84212D15A
:1016100000F0EAF9C0F80090C4F30A50B8420AD1C9
:10162000A8487844D0E90010C6E9001004F0004151
:101630000843706042E7C6E900543FE72DE9FF4FD9
:101640001F464FF0000A4FF0FF38454691B0D7E9EA
:101650000146CDF83CA000F0C3F9C0680168405CC9
:101660001090B96912986D1C8847396A814688477D
:101670000028F6D1B9F1FF3F0AD0002E24F4D0643F
:1016800011DDB9F12B0F08D0B9F12D0F0BD102E00C
:10169000404615B013E744F48064B96912986D1C94
:1016A0008847761E8146600504A901D52D2000E0FB
:1016B0002B20002E01F1010B0DF130088DF81000E8
:1016C0003FDDB9F1690F08D0B9F1490F05D0B9F183
:1016D0006E0F02D0B9F14E0F1CD13B4601A8009508
:1016E00080E85002DDE912126FF0020049F0A9FC17
:1016F000C11CCED10EE0B96912986D1C8847814695
:101700001398761E44F4007405600F98401C002E58
:101710000F9016DDB9F1300FEDD0B9F1780F02D08E
:10172000B9F1580F0DD10F9801280AD13B46CDE9E8
:101730000054DDE91212001F029649F080FCC11C22
:10174000A7D1109989453ED144F0800406E0139951
:10175000681CAAF1010A44F400740860B9696D1CA0
:101760001298761E884730288146F0D02BE01099D9
:10177000894505D1200603D4761E44F0800418E084
:10178000484649F0E0F808B3761E0DF12302934570
:10179000A9F1300044F4007406D20BF8010B2006C6
:1017A00007D5AAF1010003E0200602D40AF10100E6
:1017B0008246A00502D51399681C0860B969129881
:1017C0006D1C88478146002ED1DC53E0002E51DD90
:1017D000B9F1650F02D0B9F1450F4BD1A00549D53C
:1017E000B9696D1C1298761E24F440748847002E47
:1017F00081460CDD2B2804D0B9F12D0F07D144F41C
:101800008074B96912986D1C8847761E8146E00580
:1018100001D52D2100E02B2108F8011BCDF8008017
:1018200021E0761E0DF13901884544F400740CD294
:10183000A9F1300010F0FF0088F8000002D10099F3
:10184000884509D908F1010806E0E00501D51E48E0
:1018500001E042F20F708246B96912986D1C884708
:10186000814613980560002E04DD484649F06BF868
:101870000028D6D1F96912988847FF2053468BF883
:10188000000088F8000000200A900B9004AA0CA920
:101890000AA8FFF7ADFDA00502D46FF00100F8E63D
:1018A00014F0240F12D0E0071CD13868DDE90A12C9
:1018B000031D3B600068C0E9001213E0D0F2040091
:1018C000C2F2040086F10400F1D8FFFF0AA96846BD
:1018D00049F026F8E00705D13868009A011D396003
:1018E000006802602846D4E6426842B1016811F8F7
:1018F000013B23B1521EC0E9001218467047012176
:10190000C160881E704742685AB1C368016843B914
:1019100083688B4205D0491E521CC0E9001200208A
:1019200070474FF0FF3070470FB40B0010B54FF009
:1019300000048AB00FA900910E99CC60234C7C441E
:10194000234A7A44CDE9064200D004236FF00042D6
:10195000CDE901321F4A7A446B46089202460020C4
:1019600049F06BFB0AB010BC5DF814FBF0B50746FC
:101970004FF0FF301E4615460C463B4685B06A4682
:101980000091CDE9010131460020049004A8FFF741
:10199000CBFF04990346601825B109B1024600E067
:1019A00022462A6000290ED0002B02DD00998142D8
:1019B00009D03B466A463146001B0094CDE901043C
:1019C00004A8FFF7B1FF05B0F0BD0000A7FFFFFFBF
:1019D000C1FFFFFF7B01000000487047E0000020CE
:1019E000004870470001002000487047E0000020D8
:1019F000034640688C46002818BF88423CBF034617
:101A00004068F8D318681844884207D00CF10300E6
:101A100020F00700001D411A521A0146081D0A60F5
:101A2000FEF7EABCB2F120030AD5C2F1200301FAA5
:101A300002F120FA03F341EA030100FA02F07047D1
:101A400000FA03F14FF00000704730B5B0F10A0220
:101A500071F100034FEA900E4EEA817EB0EB0E006A
:101A600061EB91014FEA101E4EEA017E10EB0E0071
:101A700041EB11114FEA102E4EEA016E10EB0E00F1
:101A800041EB11214FEA104E4EEA014E10EB0E00D1
:101A900041EB1141401841F100014FEAD00040EA0A
:101AA00041704FEAD1014FEA810444EA907410EB8F
:101AB000800544EB01046D1944EB0404521BA3415F
:101AC0004FF0000348BF0A3200D530BD401C41F141
:101AD000000130BD10B50446FFF784F90068005DD1
:101AE00000F0010010BD00002DE9F0411F46044642
:101AF00003260168072A01F4006004DB08B116A57B
:101B000005E016A503E008B115A500E015A521F034
:101B100010002060A069C01EA0610FB1401EA0612E
:101B20002046FEF799FD4FB1D4E901213846904790
:101B3000206A401C2062C01C206206E0206AFAE78E
:101B4000D4E9012115F8010B9047761EF8D2204602
:101B5000FEF798FDBDE8F0814E414E006E616E00CB
:101B6000494E4600696E66002DE9F04781461646EB
:101B70008AB0354878440DC88DE80D003248784465
:101B8000801C03AC0DC884E80D0041F69B3008446E
:101B9000372190FBF1F290FBF1F5A5F1800501FBF7
:101BA00012041B3C02D56442012000E00020DFF853
:101BB00098A080460027FA44AAF1BE0A0EE0E0078A
:101BC0000AD03246684607EB470101230AEB810140
:101BD00048F02AFC8DE8070064107F1C002CEED131
:101BE000194F7F44AE3F19E0E80715D007EB04100A
:101BF0000DF1180A90E80E008AE80E00C068F04265
:101C000001D1981908903246012306A903A848F08B
:101C10000BFC03AB83E807006D10641C002DE3D1BF
:101C20004FF0010332466946B8F1000F03A802D015
:101C300048F0D0FB01E048F0F7FBC9E90001C9F822
:101C400008200AB0BDE8F087B4950400007B00F0DE
:101C50008000704710B500F06DFABDE8104000F04C
:101C600064BA7546FFF7B8FEAE46050069465346AE
:101C700020F00700854618B020B5FEF77BFBBDE8D5
:101C800020404FF000064FF000074FF000084FF0E3
:101C9000000BAC46ACE8C009ACE8C009ACE8C00930
:101CA000ACE8C00921F007018D46704710B5FFF779
:101CB0009BFE006810BD10B50446FFF795FE04605A
:101CC00010BD00002DE9FF4F1F464FF03C0987B0C3
:101CD0004FF00042DDE9141001F10108DDF858A0D1
:101CE00002EA4050039000200590834605460446D2
:101CF0000490B969461E08988847AAF1010A029023
:101D0000BAF1000F3BDD02982E2815D0102100F00B
:101D100039FA00282EDB4FF0010B0599014317D04B
:101D2000B9F1000F0BDB4A46C117FFF77BFE0543F5
:101D30000C43A9F1040905E0012004900BE008B16F
:101D400045F0010501200590049820B9361D02E0F8
:101D5000049800B1361FB969089808F1010888474E
:101D6000BBF1000FAAF1010A0290C9D00999C1F88C
:101D70000080C5E70298702808D0502806D0F9697D
:101D800008988847BBF1000F14D04FE00020029064
:101D90000120BBF1000F049009D0B969089808F13F
:101DA00001088847AAF10109B9F1000F07DCF969B8
:101DB000089888476FF001000BB0BDE8F08F2B2822
:101DC00004D02D280CD14FF0FF300490B969089849
:101DD00008F101088847A9F10109B9F1000FE6DD12
:101DE000411CE4D00A2100F0CDF90028DFDB029984
:101DF00008F1010801EB810100EB41000290B96993
:101E0000089888470A2100F0BDF9099AA9F101094B
:101E1000B9F1000FC2F8008001DD0028E7DAF969A6
:101E2000089888470499029800FB016655EA040067
:101E300004D004F04041090002D006E0039898E085
:101E4000A40044EA9574AD00B61E04F000410800F9
:101E500002D16D196441761E159810F0240F03D03D
:101E60004FF00B095C4803E04FF028096FF07D004C
:101E70008246564507DAAAEB06018944B9F1410FBB
:101E800001DD4FF0410901200021A9F10102FFF716
:101E9000C9FD024628400B462140084301D00121DC
:101EA00000E00021501E029143F1FF312840214003
:101EB000084301D0012000E000200299834651EA46
:101EC0000B014FD0002108464FF00000039900F4A9
:101ED000400039B100EB80004FF4400100EBD070BE
:101EE00001EA60008015012802DD4FF0FF3000E0BC
:101EF00013D0401C36D0029860B3BBF1000F0CD158
:101F00004A4601200021FFF78DFD2840214008436B
:101F100001D0012000E00020E0B101204A4600216C
:101F2000FFF780FD034640190A4661412D1A8C4196
:101F300011D3B9F1400F09DD159810F0240F02D02C
:101F4000AAF1340603E0AAF1170600E0761C00258A
:101F50004FF0004406E05B1E42F1FF3220EA030529
:101F600021EA0204CAF10100B04206DA1B490398D3
:101F700008430190002000900EE0039AC4F3D3219F
:101F8000E80A0A43164940EA44500A433146CDE97B
:101F90000002684648F0CDFC159810F0240F0BD0D5
:101FA0001598C00715D13868DDE90012031D3B60A4
:101FB0000068C0E900120CE002A8694648F0B0FCD5
:101FC0001598C00705D13868029A011D396000686C
:101FD00002604046F0E6000002FCFFFF0000F07FD8
:101FE0000000F03F2DE9FF4F92461D4685B04FF0AF
:101FF0000041DDE9124BDDE914727F1E01EA4B500E
:10200000414940F0FF4940EA0108002122F0200048
:102010004928049102D04E2828D04CE03BA001264C
:1020200007C88DE80700A9690698641C88477F1EC9
:10203000014606D41DF8060018B121F020018142A6
:102040000BD0E96906988847032E34D0082E32D089
:102050006FF0010009B0BDE8F08F761C032E01D0AF
:10206000082EE0D1601CCAF80000DCE7A9690698D8
:10207000641C88477F1E2AD420F02000412826D1E6
:10208000A9690698641C88477F1E20D420F0200090
:102090004E281CD1A9690698641C88477F1E48F405
:1020A000002849F48009CAF8004001D4282806D045
:1020B000E969069888475FEACB7012D022E0A969E7
:1020C0000698641C88477F1E01D4002803DAE9695A
:1020D00006988847BCE72928F1D1641CCAF800405B
:1020E000E9E71BF0240F07D028680499031D2B6033
:1020F0000068C0E9001805E02868021D2A60006831
:10210000C0F800902046A5E70000F07F494E464900
:102110004E4954590000000010B50446AFF300804A
:102120002046BDE81040FEF70FB9002801D010F09E
:102130006DBD704710B5012805D0002103A000F047
:102140002FF8012010BD09A1F8E7000053494752BC
:10215000544D454D3A204F7574206F662068656177
:1021600070206D656D6F7279000000003A2048653F
:102170006170206D656D6F727920636F727275701A
:10218000746564003A2800D2303820F02002412AD9
:1021900001D3A2F13700884201D34FF0FF307047DE
:1021A00070B505460C460A2000E06D1C10F030FDAD
:1021B00035B128780028F8D102E0641C10F028FD21
:1021C00014B120780028F8D1BDE870400A2010F042
:1021D0001FBD0000FEE70000C06D816C896D022903
:1021E00008BF01F07DBB012180F83510C16C41F0C2
:1021F0004001C16401F074BB70B5C06DC16BC9B161
:10220000D0F838C0836CD0E910E1C26B1B684FF680
:10221000FC75DC6F1B682C404FF6FF75866BAB437B
:10222000022E234412D3AEEB0C06023606FB02113B
:102230000FE000BF0168CA6842F00102CA60096885
:10224000890744BF012180F8351070BD826B012AD7
:1022500004D11961816B0139816370BD0268C66B5D
:10226000314419611168890706D4016C8163D06813
:1022700040F00100D06070BD012180F83510D068B9
:1022800040F00100D06070BD40F27C40C2F201001D
:1022900001F06CBB2DE9F043D2F800C0D0F808E0A3
:1022A000002953D0BEF1000F4FF0000464D04FF668
:1022B000FC7311EA03094FF000074FF0000300F030
:1022C000B58005684FF6FC732B40BEF1020F4FF04E
:1022D000010455D34B4553D04FF6FF7425EA04064D
:1022E00005274FF6FC7800BF46EA030454F82C504B
:1022F000FC1E744505EA08054ED24D454CD046EA11
:10230000050353F82C30BC1E744503EA08031AD2A7
:102310004B4518D046EA030454F82C507C1E7445F3
:1023200005EA080538D24D4536D046EA050353F88C
:102330002C30774503EA080307F1040402D24B4529
:102340002746D1D1043C1F462B466FE0BEF1000F5B
:102350001AD004684FF6FC75BEF1010304EA0507C4
:1023600016D04FF6FF75AC43AEF10205032D03F016
:10237000030813D230E000BF0027002356E000BF5F
:102380001F46002352E000BF00230027002456E030
:102390000124002353E000BF2F4647E023F003054C
:1023A0004FF6FC7644EA070353F82C30043D03EA69
:1023B000060343EA040353F82C3003EA060343EA16
:1023C000040353F82C3003EA060344EA030757F8E2
:1023D0002C7007EA0607E5D13D46B8F1000F24D07E
:1023E00044EA050353F82C604FF6FC73B8F1010F73
:1023F00006EA030604D1744637462B4616E000BFB2
:1024000044EA060555F82C50B8F1020F03EA05031B
:1024100004D174461F46334608E000BF1C4354F8FD
:102420002C404FF6FC7504EA0507744639B14FF6A7
:10243000FC7631408F421CBF0120BDE8F08340880C
:10244000946043EA004147EA00435160D36053F887
:102450002C1029B14FF6FC73000419400843106199
:102460000020BDE8F083000070470000B0B50D46C5
:102470000446426009F03EF8002818BF00F096FAC2
:1024800020462946012209F045F920681021016201
:10249000016841F010010160B0BD0000F0B5ADF27F
:1024A000044D002800F0C9807B21FEF767FA98B13F
:1024B0007D210446FEF7E3FAC0B1001B451CB5F5CB
:1024C000806F1DD340F25300C0F60500FEF740FABE
:1024D0000DF2044DF0BD00BF40F22900C0F605002A
:1024E0000DF2044DBDE8F040FEF732BA40F23E0076
:1024F000C0F605000DF2044DBDE8F040FEF728BA25
:1025000001AE304621462A46FEF72EFB00207055CC
:10251000304611F039FC002800F0928000254EA1D1
:102520000446C4F2022511F0DFFBF8B1064611F0B3
:1025300021FCD8B1306940F2F806C0F605063146F4
:10254000FEF788FAB0FA80F140F2FC074A09C0F6BB
:102550000507002808BF374605F500604FF4005115
:1025600003F0C8F83EA03946FEF754F842A12046D1
:1025700011F0BAFBF0B1064611F0FCFBD0B13069A6
:1025800040F2F806C0F605063146FEF763FAB0FAE7
:1025900080F140F2FC074A09C0F60507002808BF91
:1025A000374628464FF4004103F0A4F834A03946DA
:1025B000FEF730F838A1204611F096FBE8B1064648
:1025C00011F0D8FBC8B1306940F2F806C0F6050634
:1025D0003146FEF73FFAB0FA80F140F2FC074A09B3
:1025E000C0F60507002808BF37462846802103F0BB
:1025F00081F82BA03946FEF70DF82FA1204611F0E7
:1026000073FBB8B1054611F0B5FB98B12D692CA04C
:102610002946FDF7FFFF40F2F801C0F60501284604
:10262000FEF718FA30B940F26810C2F200000068F4
:102630003CF0B0FE204611F01FFB0DF2044DF0BD42
:1026400011F04AFB0028F8D0014624A0FDF7E2FF74
:102650000DF2044DF0BD00BF6C6564310000000058
:10266000E8A7A3E69E90E68890E58A9F3A204C452D
:1026700044313D25730A000062656570000000006A
:10268000E8A7A3E69E90E68890E58A9F3A20424517
:1026900045503D25730A000072656C6179000000A9
:1026A000E8A7A3E69E90E68890E58A9F3A205245E7
:1026B0004C41593D25730A0070686F746F0000002B
:1026C000E8A7A3E69E90E588B070686F746FE5ADEB
:1026D00097E6AEB53A2025730D0A00004A534F4ED7
:1026E000E8A7A3E69E90E99499E8AFAF3A20257356
:1026F0000D0A0000B0B59EB06C460B46024616A10E
:102700002046FDF793FF40F2F445C2F20005B5F80C
:1027100000044FF6B67100F40040A5F8000440F242
:10272000CC70C2F20100C0F6040122460DF090FB0D
:102730004FF4FA7002F0D0FDB5F8000400216FF3F9
:10274000DF30295440F2F230C0F605002946FDF78B
:1027500061FF01201EB0B0BD41542B4D5154545067
:1027600055425241573D302C222573222C25732C83
:10277000312C3000B0B59EB06C46024616A1204602
:10278000FDF754FF40F2F445C2F20005B5F800042D
:102790004FF6B67100F40040A5F8000440F2CC708A
:1027A000C2F20100C0F6040122460DF051FB4FF4C5
:1027B000FA7002F091FDB5F8000400216FF3DF30EC
:1027C000295440F2F230C0F605002946FDF722FFF9
:1027D00001201EB0B0BD00BF41542B4D5154545385
:1027E00055423D302C222573222C31002DE9F04337
:1027F0009FB04FF6F170C0F60400FEF7A9F84FF64F
:10280000BB70C0F60400FEF7A3F840F2F444C2F235
:102810000004B4F8000440F2CC784FF6B67900F426
:102820000040C2F20108C0F6040940F2D402A4F844
:1028300000044046C0F6050249460DF009FB40F68B
:10284000C41002F049FDB4F8000440F2F2376FF30F
:10285000DF300026C0F60507265438462146FDF72E
:10286000D9FE01AD40F28E0136A238A3C0F60501B3
:102870002846FDF7DBFEB4F80004494600F40040AA
:10288000A4F8000440462A460DF0E2FA41F28830EE
:1028900002F022FDB4F8000421466FF3DF30265425
:1028A0003846FDF7B7FE01AD40F2650140F2B633A0
:1028B00029A2C0F605012846C0F605030093FDF7DE
:1028C000B5FEB4F80004494600F40040A4F8000442
:1028D00040462A460DF0BCFA4FF4FA7002F0FCFCB8
:1028E000B4F8000421466FF3DF3026543846FDF774
:1028F00091FE01AD40F2BC011AA2C0F605012846C6
:1029000040F25B73FDF792FEB4F80004494600F410
:102910000040A4F8000440462A460DF099FA4FF40E
:102920007A7002F0D9FCB4F8000421466FF3DF306E
:1029300026543846FDF76EFE0EA0FEF709F81FB0CC
:10294000BDE8F08353554D4D4552000030303030D6
:10295000303030300000000053544D33325535379D
:1029600035000000382E3133342E3138352E3138D1
:10297000360000002A2A2A2A2A2A2A2A2A2A2A2A29
:102980002A2A2A4D515454E6A8A1E5BC8FE9858D29
:10299000E7BDAEE5AE8CE688902A2A2A2A2A2A2AA2
:1029A0002A2A2A2A2A2A2A2A0D000000EFF3108058
:1029B00072B600BFFEE7000010B50024C4F2022486
:1029C00020464FF40061002202F094FE0A2002F03B
:1029D00083FC20464FF40061012202F08BFE64204C
:1029E000BDE8104002F078BC2DE9F04F85B040F210
:1029F000CC44C2F20104022764260DF109022046EC
:102A0000702101238DF80970009602F0F3FF012078
:102A100002F062FC02AA204671210123009602F016
:102A200019FF9DF8080040F2B805C2F200052870B1
:102A300008B9AF702F7240F2CC44C2F201044FF0DB
:102A4000050B0DF10B022046702101238DF80BB010
:102A5000009602F0CFFF012002F03EFC0DF10A02C9
:102A6000204671210123009602F0F4FE9DF80AA091
:102A700002354FEA1A1000EB40000DF10D0215F877
:102A8000101005EB4009023918BF012105F810109C
:102A900003208DF80D00204670210123009602F0DE
:102AA000A9FF012002F018FC03AA2046712101238E
:102AB000009602F0CFFE04209DF80C808DF80F00E8
:102AC0000DF10F02204670210123009602F092FFC3
:102AD000012002F001FC0DF10E02204671210123BC
:102AE000009602F0B7FE9DF80E0008F00F0140EAD4
:102AF00001200DF11102A9F80200204670210123E6
:102B00008DF811B0009602F075FF012002F0E4FB91
:102B100004AA204671210123009602F09BFE0620A4
:102B20009DF810708DF813000DF1130220467021EE
:102B300001234FF00208009602F05CFF012002F032
:102B4000CBFB0DF11202204671210123009602F009
:102B500081FE01229DF8120022EA1A1207F00F01ED
:102B600040EA012042EA4201A9F8040005F8118078
:102B700005B0BDE8F08F000010B540F2B804C2F215
:102B80000004A07B002808BF10BDFFF72DFFA07830
:102B9000012804D1A188E28802A0FDF73BFD0020B6
:102BA000A07310BD746F75636820646F776E2078B2
:102BB0002025642020792025640D0A0040F28C3005
:102BC000C2F2010001F088BF40F20440C2F20100ED
:102BD00001F082BF2DE9F04F83B00022029290F8FD
:102BE0007420012A04D10221084603B0BDE8F08F09
:102BF0000123026880F8743093685B0700F1EA8172
:102C000041F2083BC4F2026BABF542770C68BA4262
:102C100000F0BC8094FAA4F3B3FA83F3270208BF50
:102C2000A30E03F01F030127D66907FA03F333430A
:102C3000D3614B681F25C3F3012703F01F0302EB89
:102C40008707C4F384643E6B9D40AE4304FA03F3EC
:102C500033433B639368976803F0040307F0080766
:102C6000DB1940F004810B688F68C3F340651C02D8
:102C700093FAA3F605EB8504B6FA86F608BFC3F30C
:102C80008466634206EB430302EB850603EB4303D2
:102C9000756907249C40A54307FA03F32B4373612E
:102CA000D1E90473D668042F40F09A80136E176E32
:102CB0000B684FF01E0C93FAA3F40CEA9765B4FA74
:102CC00084F633F07F4EC3F38468344608BF44462D
:102CD000A54210D1176E03F0F84307F0E06747EA0A
:102CE000430313660B68C3F3846893FAA3F423F0D9
:102CF0007F4EB4FA84F6546E546EBEF1000F0CEAA7
:102D00009465374608BF4746BD4210D1576E03F061
:102D1000F84307F0E06747EA430353660B68C3F3E1
:102D2000846893FAA3F723F07F4EB7FA87F6976E7D
:102D3000946EBEF1000F0CEA9464354608BF454618
:102D4000AC4210D1976E03F0F84307F0E06747EA12
:102D5000430393660B68C3F3846893FAA3F423F0E8
:102D60007F4EB4FA84F6D46ED46EBEF1000F08BF65
:102D700046460CEA9467B74279D1D76E03F0F84320
:102D800007F0E06747EA4303D36670E081460191AC
:102D900002F0B6FC019A01464846B1F5805F40F06A
:102DA0002E81146843F6FF71CBF600218C4240F26D
:102DB0000001CDF2207140F38D808C4200F0108133
:102DC0000023CDF220639C4200F00E8144F2000308
:102DD000CBF600239C4208BF01F1EC640FE100BF79
:102DE000062505EA56060D6803FA06FC02F16003A3
:102DF0004FF0784653F8274006EA450604F0E065B0
:102E000046EA0C062E4343F827600F69CE6953F853
:102E1000275025F080752E4343F827608E7E0F697A
:102E2000012E17D14E7E53F82750002E25F0007545
:102E300008BF05F1007543F827500F69012E53F8BC
:102E4000275025F0806508BF05F1806543F82750BD
:102E50000DE000BF53F8276026F0007643F82760A6
:102E60000F6953F8276026F0806643F8276093685F
:102E7000DB0740F05E81CE68D1F800C04FF6FF73EB
:102E8000D2F8C05006F01804C0F20F032CF07F47B0
:102E9000E340BD4303EA0C032B4316F5803FC2F821
:102EA000C03058D137B39CFAACF3B3FA83F35F1C4C
:102EB00007F01E06092E4FEA836C22D80CF18063BE
:102EC00007F01F07012603F0F84306FA07F73B4314
:102ED00023E000BF41F20003CBF200239C4200F04C
:102EE000898042F20003CBF200639C4208BF01F1EB
:102EF000487484E0012303EB9C6707F01E030A2B50
:102F0000DCD30CF1806307F01F07012603F0F843C0
:102F100006FA07F73B4343F00073C3F340651C0216
:102F200093FAA3F605EB8504B6FA86F68F6808BF18
:102F3000C3F38466634206EB430302EB850603EBAF
:102F40004303756907249C40A54307FA03F32B4309
:102F50007361D1F800C0BCF1FF3F00F3EA8048F292
:102F60000007C4F20227BA42ABF5407108BF07F56B
:102F7000427BDBF80040BA4208BF07F1080109684C
:102F8000C90727D10021CCF608618C4504F0E07612
:102F900008BF14F4000100F0A5810021CCF6042143
:102FA0008C4540F0E5810021B1EB166F40F0E081E7
:102FB00041F20001C4F202618A4218BFBA4240F0F5
:102FC000B880DBF8001021F0E071314341F08071EE
:102FD000E9E100BF816F41F0200181670121A9E093
:102FE00001F17F440BE000BF0021CCF6086101F144
:102FF000816404E00121C8F2000101F1807451688C
:1030000003691026022943F01003C8F2000647D1D5
:10301000B34209D10168C4F3846301278E6A07FAB9
:1030200003F326EA03038B621168B1F1FF3F00F35B
:103030008080006848F20002C4F20222904208BF79
:1030400002F5427B4FF6FF70DBF80040CCF6032020
:10305000814200F3CF800120C8F20000814200F0DD
:10306000AB8141F20000CBF20020814240F0B381FD
:10307000DBF8000004F0C07120F0E0700844CBF8E9
:10308000000002F03DFBB0F5805F00F2A481D9F8AA
:103090000000D0F8D01041F00101C0F8D0109AE142
:1030A000B34277D194FAA4F30168B3FA83F326020A
:1030B00008BFA30E03F01F0301268D6A06FA03F36F
:1030C0002B438B62D0F800C09368BC4520D0C4F37A
:1030D0004065210205EB850194FAA4F6B6FA86F65E
:1030E000C1F1000108BFC4F3846606EB41010CEB9B
:1030F000850601EB4101756907248C40A54303FA5D
:1031000001F1294371611368B3F1FF3F11DC19E04C
:103110004FF60C51CFF6FF715BF8016003EA042310
:1031200026EA042633444BF801301368B3F1FF3F1D
:1031300008DD0021002280F87420084603B0BDE8B5
:10314000F08F00BF48F20000C4F202205A468445C6
:1031500008BF00F54272146842F20000CBF2006032
:10316000834204F0E07008BF14F4000154D044F22C
:103170000001CBF600218B4240F086800021B1EBAC
:10318000106F40F08180116821F0E071084340F039
:1031900080702FE1D0F8886001F01F050F23AB404D
:1031A00026EA030394FAA4F6B6FA86FAD0F828C001
:1031B000564634F07F4EC4F3846808BF4646AE409E
:1031C000BCEB910F43EA0601C0F888107FF67AAF96
:1031D000754602F095FAB0F5805F00F2E98001993A
:1031E000002D00F025812003484640F02C81D04678
:1031F00024E100BF0020CCF60420814200F0E280F0
:103200000020CCF60860814240F0E580DBF8000049
:1032100004F0A071DAE000BF116821F0E07108430A
:1032200040F40000106040F26800C2F20000006844
:1032300042F663518009C0F23E51A0FB01016FF0DC
:10324000010000EA511002900298002800F0D3809B
:103250000298013802900298002800F0CC80029871
:10326000013802900298002800F0C58002980138C9
:1032700002900298002800F0BE8002980138029067
:1032800002980028E4D1B6E00121C8F200018B4287
:1032900004F4800608BF002E00F0A680BC4540F074
:1032A000AA8041F20001CBF200218B4208BF002E20
:1032B00040F0A180DBF8001021F0E071084340F4F9
:1032C0008000CBF8000002F01BFAB0F5805F00F23E
:1032D0009280D9F80000D0F8D01041F00101C0F878
:1032E000D01088E041F20001C4F202618A4218BFA6
:1032F000BA427FF41EAFDBF8001042F6635221F0B1
:10330000E071314341F40001CBF8001040F2680154
:10331000C2F200010968C0F23E528909A1FB021203
:103320009109022202EB41010291029900293FF426
:1033300000AF029901390291029900293FF4F9AED8
:10334000029901390291029900293FF4F2AE0299E3
:1033500001390291029900293FF4EBAE029901393B
:103360000291029900294FF00001E2D1E2E600BF8C
:103370000121C8F200018C454FF0000108BF14F490
:1033800080037FF4D7AE41F20001C4F202618A42A9
:1033900018BFBA427FF4CDAEDBF8001021F0E07127
:1033A000314341F48001CBF800100021C2E600BF98
:1033B0000199484647E000BFDBF8000004F0C07107
:1033C00004E000BFDBF8000004F4400120F0E070EE
:1033D0000844CBF8000002F093F9B0F5005F0FD07D
:1033E00000214846A6E600BF116821F0E0710843BD
:1033F00040F48000106002F083F9B0F5005FEFD177
:10340000019800210068CDF2207188424FF0000140
:10341000E7D114F4800048467FF48CAE0168D1F8FF
:10342000D02042F00102C1F8D020002182E600BF86
:1034300004F0E040B0F1984F484604D9A8F10902E1
:10344000012303FA02F400684968224609F002FBEE
:10345000019A484636E60000002804BF0120704764
:103460002DE9F04182B0816F39B9044600F0E4F9EA
:1034700020460021E16784F8741002689168890091
:103480004FF6C071C5F6FF7102D593680B4093608B
:103490009368DB002FD4936801F18051194041F00B
:1034A0008051916040F26801C2F20001096842F661
:1034B00063538909C0F23E53A1FB03139909022308
:1034C00003EB410101910199A9B100BF01990139B3
:1034D0000191019979B1019901390191019951B194
:1034E000019901390191019929B10199013901919C
:1034F00001990029EAD19168C90009D4816F41F08E
:1035000010018167C16F41F00101C167012100E035
:1035100000219368846F03F0040304F010041B1966
:10352000836F2BD123F4817302338367936841F255
:103530000C0EDB07C4F2026E3DD148F2000CC4F25F
:10354000022C624524D041F20004C4F20264A2427B
:1035500040F01C81D0E901C4DEF80030013CA40831
:1035600064F38303CEF80030DEF8FC324FEA9C446B
:1035700064F39543CEF8FC321DE000BF43F0100128
:103580008167012102B0BDE8F0410846704700BFE5
:103590000CF108042468E4070DD10EF53F74624570
:1035A00008BF0CF54274D0F804C0236823F47013EC
:1035B00043EA0C032360AEF10C039A4266D090F804
:1035C0002430476C90F82C6047EA43338768012E1B
:1035D00043EA070343EA064306D1076B0026CFF60A
:1035E000FE7606EB47473B43446B24B1876B04F4FC
:1035F000787637433B43D7684CF21306CFF6F07624
:1036000037403B43D3609368976803F0040307F0A7
:103610000807DB1940F0CB8048F20007C4F202270C
:10362000D71BC66B037F18BF012706FA07F747EAC7
:103630008333D76844F20306B7433B43D360C36880
:103640004BB1176F43F6FF76B7433B431367136FD6
:1036500043F00043136790F854701369012F40F052
:103660009D804FF61E07CFF600473B40D0E9167607
:10367000D0E91854334343EA0743876E2B4323436F
:1036800043EA970343F001038AE000BF90F8242047
:10369000037F540344EA8333D0E90484456C28F063
:1036A0000046B8F1FF3FC8BF4FF40016234390F81F
:1036B0004070002D18BF43F48053334390F82C40E2
:1036C00043EA470C012C0AD1002A00F0AD80826F3A
:1036D00042F020028267C26F42F00102C267426B71
:1036E0002AB1836B02F4E0721A434CEA020CDEF852
:1036F000002048F20D03CFF6DE731A4042EA0C02B6
:10370000CEF80020026A22B1DEF838301A43CEF833
:103710003820C26E22B1DEF838301A43CEF8382095
:1037200090F85420012A09D100F158041CCC856E70
:103730001A4322432A4342F0010200E00022DEF84D
:1037400004304FF60244CFF2FF7423401A43CEF800
:103750000420DEF80820D0E9123422F007021A43D0
:10376000CEF80820DEF80820B8F5001F22F070021D
:1037700042EA0412CEF8082024D0B8F1000F32D16A
:10378000DEF81C2062F00F022BE000BFAEF1040453
:103790002468E4073FF401AF0DE700BF23F0010305
:1037A00013611369076D23F070433B431361036991
:1037B000176B012B27F00F0302BF876A013F3B43C2
:1037C00013631BE0DEF81C20826A1C2303EB8202D9
:1037D000D0F8883002F01C026FF00F0404FA02F2F5
:1037E0001A43CEF81C20DEF800204FF6F373C8F21F
:1037F0003F331A4062450BD10022C267826F01231A
:1038000063F30102826702B0BDE8F04108467047E9
:10381000816F41F0100121F002018167C16F41F019
:103820000101C167ADE600BF4CF4803C426B002A49
:103830007FF457AF5BE7000070B5BAB0054602A849
:10384000002600240830C0213996CDE93766CDE93D
:103850003566C4F20224FDF730FA286804F5004109
:10386000884201D03AB070BD4FF4004002904FF44E
:1038700080402C9002A8039604F024FA002818BF78
:10388000FFF794F840F68C40C4F20260016841F4FE
:1038900080610160016801F4806101910199016812
:1038A00041F001010160006835A900F001000190BC
:1038B0000198022035900320369000203790204652
:1038C00001F0EEFD3AB070BD10B5044600F00EF9FF
:1038D00000210020E16484F8351084F8341010BD14
:1038E00001684CF20002C4F20222914218BF7047F4
:1038F00010B505A104460846FDF72AF82046BDE8A4
:10390000104000F0F1BA00BF44434D4920457272A7
:103910006F7243616C6C6261636B000010B50446AA
:1039200000684CF20001C4F20221884218BF10BDA9
:1039300040F26410C2F2000000683BF02BFD2168E9
:10394000C86820F0010203A0CA60BDE81040FCF77F
:10395000FFBF00BF44434D49204672616D65457607
:10396000656E7443616C6C6261636B0070B5044694
:10397000006842F2D9160569C0F6000669071BD532
:1039800004214161E06C40F00200E06484F83510ED
:10399000A06CC66600F0D8FF70B1A06CC06D816CE1
:1039A000896D022906D0012180F83510C16C41F0E3
:1039B0004001C164FFF794FFA8071DD521680222CA
:1039C000A06C4A61E16C41F00101E164042184F8DA
:1039D0003510C66600F0B8FF70B1A06CC06D816C88
:1039E000896D022906D0012180F83510C16C41F0A3
:1039F0004001C164FFF774FFE80605D52068102177
:103A00004161204600F070F8280705D5206808219C
:103A10004161204600F002FBE80708BF70BD216845
:103A20000868800703D5C86820F01E00C860C86811
:103A3000012220F00100C86020464A61BDE87040C4
:103A4000FFF76CBF002804BF012070472DE9F04F3D
:103A500081B090F8351019B9044600F079F8204685
:103A6000022180F83510D0F818E04FF20705BEF1BA
:103A7000000F1CBF0021416290E80212D0F80C80B8
:103A80000A68CFF6E0752A400A60D0E90452D0E90E
:103A90000867D0E90A43D0F830A042EA08022A4376
:103AA00042EA0C0232433A432243D1F800B01A43AF
:103AB00042EA0A0242EA0B0242EA0E0242EA090222
:103AC0000A60B9F1100F04BFC2698A61CA6842F086
:103AD0001E02CA6000210122C16480F8352001B0B5
:103AE000BDE8F04F0846704770470000B0B540F69B
:103AF00000040546C4F20224006804F538418842F7
:103B000018BFB0BD40F68C40C4F20260016821F4D9
:103B100080510160A4F50060502101F0F1FB2046C6
:103B20004FF43C6101F0ECFBA4F580604FF4707140
:103B300001F0E6FBA86C00F039FF772002F046FAAE
:103B400020464FF480610022BDE8B04001F0D2BDB4
:103B50002DE9F04FA3B00546002440F2000903A868
:103B60006C21CDE92144CDE91F44C4F202291E9401
:103B7000FDF7A3F8286809F54041884202D023B038
:103B8000BDE8F08F40F68C400195C4F202600168F8
:103B90001EAE41F4805101600168022501F480519C
:103BA0000291029901684FF0010A41F001010160A0
:103BB00001684FF0030B01F00101029102990168C5
:103BC0000A2741F004010160016801F0040102913B
:103BD0000299016841F0020101600068314600F07D
:103BE00002000290029810201E900A20229048465F
:103BF0001F95CDF880A0CDF884B001F051FC402095
:103C00001EA981E8210C4FF0040848463146CDF842
:103C1000888001F045FC4FF41C601EA9229709F52D
:103C2000006781E8210C3846314601F039FC4FF439
:103C300000701EA981E8210C38463146CDF88880F5
:103C400001F02EFC4FF470701EA981E8210C0A20AF
:103C5000229009F58060314601F022FC212003907A
:103C6000562040F28016CDE904044FF40020C2F241
:103C70000006CDE90805CDE90CA54FF4805006F10A
:103C80001805129003A82946CDE906440A94149415
:103C9000CDE90E44CDE9104400F0C2F9002818BF68
:103CA000FEF784FE304600212A4600F0FBFB002888
:103CB00018BFFEF77BFE40F28010C2F2000000F059
:103CC000FFFC002818BFFEF771FE40F20440D0212F
:103CD000C2F20100C4F2020101604FF400010022AF
:103CE0008123C0E90E12C0E91022836400F04EFA6D
:103CF000002818BFFEF75AFE40F20445C2F2010543
:103D000040F28011C2F20001284600F061FC002858
:103D100018BFFEF74BFE019810218564E865284620
:103D200000F026FE002818BFFEF740FE7720052190
:103D3000002202F073F9772002F05EF923B0BDE8AB
:103D4000F08F0000B0B590F834404FF0020C012C19
:103D500000F0C880012480F8344080F835C0D0F8E5
:103D600000E0D0F848C0DEF800509B0045F48045E4
:103D7000CEF80050DEF8005025F00205CEF80050D5
:103D8000DEF800502943CEF8001042F2F911C0F6D7
:103D900000010025CCF8601042F2D911B5EB134FA9
:103DA000C0F60001CCE91A158563C563C0E910555A
:103DB0000ED19CF8501009066CD404460EF128016F
:103DC000604601F035FA0028204640F0828072E01B
:103DD0008463C3634264C16BB1F5803F28D3002183
:103DE000C36B5B08C363836B5B008363C36BB3F517
:103DF000803F1DD3C36B5B08C363836B5B0083632E
:103E0000C36BB3F5803F13D3C36B5B08C363836B92
:103E10005B008363C36BB3F5803F09D3C36B5B085F
:103E2000C363836B5B008363C36BB1EB134FD7D169
:103E3000816B01398163816B01649CF85010090624
:103E400042D5DCF8741000293ED00968E1B3C46B98
:103E50000D6A0EF12803C5F302258C60CB600A6160
:103E600051F8254084B34FF6FF75A9434FF6FC7512
:103E7000D0F83CE02C402144C1E902E3C36B044686
:103E80001A4460460A6100F0A7FC01462046D9B9F1
:103E900011E000BFDCF87410B1B10968A1B10446AB
:103EA0000EF12800C1E9023060460A6100F094FC7E
:103EB000002820460DD101684FF0000C0A6842F03E
:103EC00001020A600BE000BF4021C164012180F8BB
:103ED000351040214FF0010CC16480F835C000213D
:103EE00080F834106046B0BD70B590F834100224EC
:103EF00001293CD040F26801C2F20001096844F691
:103F0000D352C1F26202A1FB0212012180F83410E7
:103F100080F8354001684FF61845520A0B68CFF615
:103F2000FF7502FB05F223F0010300250B600B680F
:103F3000DB070BD00B68DB071CBF0B685FEAC373A2
:103F400004D0043216D00B68DB07F0D100240A68D5
:103F5000064622F480420A60816C084600F0A0FC0C
:103F6000F06CF064012086F8350086F83450204665
:103F700070BD00BFC26C032442F02002C264E6E7B9
:103F800090F83410012904BF0220704780B540F238
:103F90006801C2F200010B6890F835104FF0000C78
:103FA00002294FF0000125D144F6D351C1F262013C
:103FB000A3FB0113052180F8351001684FF6184264
:103FC0005B0AD1F800E0CFF6FF7203FB02F32EF09C
:103FD00001020A600A68D2070BD00A68D2071CBF28
:103FE0000A685FEAC27204D0043309D00A68D207B3
:103FF000F0D1002180F834C0BDE880400846704709
:10400000C16C41F02001C164012180F83510032109
:1040100080F834C0BDE88040084670477047000013
:1040200000284FF0010218BF002901D11046704747
:10403000B0B5D0E904C2C369D0F818E01A43C36B25
:104040001A4342EA0C0242EA0E020A6003789B0617
:1040500016D5D0E909C34FF07C75D0F82CE0846BFD
:1040600005EB03534FF47C7505EB0C1503F07C73E3
:1040700044EA0E0405F47C7523432B431A430A607B
:104080004268036B40F27F252A401A434A60C368A6
:10409000B3F5007F05D0B3F5806F04D10578AD0688
:1040A00001D51A434A60436C43B1856C046C05F03A
:1040B0003F05224342EA05421A434A60B0F868309D
:1040C00040F2000C8B600278C0F2FF7C920722D590
:1040D000C56C4FF080540CEB054505EA0C052B43ED
:1040E0008B60056D04EAD5054FF000542B448B60BE
:1040F000456D04EA95054FF080442B448B60856D37
:1041000004EA55052B448B60C56DB5F1FF3FDCBF5C
:1041100003F100438B60036ECB60436E0B61036859
:104120009D0703D44FF4A06029E000BF036D0CF19C
:10413000C052002B48BF5B426FF35F334B61456D4C
:104140002C04002D48BF05FB02F422401A434A61AB
:10415000836D0CF17845002B48BF5B429AB28A61AF
:10416000C36D1C04002B48BF03FB05F422438A6186
:10417000036898074FF4E06058BF4FF4A0601843FD
:1041800000220862BDE8B04010467047B0B5044652
:1041900001F0BEFA002C04BF0120B0BD002105468D
:1041A000206884F84C10022184F85410416941F0D1
:1041B0000601416120684169C9070BD001F0A8FAE6
:1041C000401B0528F6D9012003221021A16584F89F
:1041D0005420B0BDD4E90E124F23C5F20203984219
:1041E00042EA010240F24F61C5F202011CDC40F2DA
:1041F0004F43C4F20203984232DC40F24F23C4F230
:104200000203984256DC40F24F13C4F20203984274
:1042100000F394805023C4F20203984200F0E88037
:10422000D023C4F20203E1E040F24F43C5F202039F
:1042300098422DDC40F24F23C5F2020398424BDC3A
:1042400040F24F13C5F20203984200F383805023DB
:10425000C5F20203984200F0CB80D023C4E000BF37
:1042600040F24F63C4F20203984245DC40F24F53E0
:10427000C4F20203984277DC40F25043C4F20203D6
:10428000984200F0B58040F2D043C4F20203ADE0A2
:10429000884243DC40F24F53C5F2020398426FDC80
:1042A00040F25043C5F20203984200F0A18040F270
:1042B000D04399E040F24F33C4F20203984269DCE4
:1042C00040F25023C4F20203984200F0918040F281
:1042D000D023C4F2020389E040F24F33C5F2020357
:1042E000984263DC40F25023C5F20203984200F08A
:1042F0007F8040F2D02377E040F24F73C4F2020394
:1043000098425DDC40F25063C4F2020398426FD0E1
:1043100040F2D063C4F2020368E000BF40F24F7382
:10432000C5F20203984257DC40F25063C5F2020323
:1043300098425DD040F2D06356E000BF40F2501387
:10434000C4F20203984253D040F2D013C4F20203E5
:104350004CE000BF40F25013C5F20203984247D030
:1043600040F2D01340E000BF40F25053C4F20203C9
:1043700098423DD040F2D053C4F2020336E000BF71
:1043800040F25053C5F20203984231D040F2D0536C
:104390002AE000BF40F25033C4F20203984227D013
:1043A00040F2D033C4F2020320E000BF40F25033A9
:1043B000C5F2020398421BD040F2D03314E000BF94
:1043C00040F25073C4F20203984211D040F2D0730D
:1043D000C4F202030AE000BF40F2D073C5F2020348
:1043E000984205D040F25073C5F20203984201D1C1
:1043F000236C1A434369884223F4430342EA0302CD
:1044000042614FF000020264636C43648264C264E0
:10441000026511DC40F24F71C4F2020188421BDCDC
:1044200040F25061C4F2020188422DD040F2D061C6
:10443000C4F2020126E000BF40F24F71C5F2020152
:10444000884215DC40F25061C5F2020188421BD05F
:1044500040F2D06114E000BF40F25071C4F202019A
:10446000884211D040F2D071C4F202010AE000BFCC
:1044700040F2D071C5F20201884205D040F250717D
:10448000C5F20201884202D1002141658165002107
:10449000C167A06C012220650020A16584F854202A
:1044A000B0BD000000284FF0010318BF002A01D161
:1044B000184670474369012B04D10421012301618F
:1044C000184670472DE9F04186B0036842EA0107BB
:1044D0000E461F43002908BF1646002B18BF1E4674
:1044E0007740B7F5803F09D253B193F8206051B1BE
:1044F00091F82070BE4206D028E000BF052126E0DA
:1045000029B191F8206092F82070BE421ED1022796
:10451000077300270761176A00247E08CFF601049D
:1045200066F3596407F0020766F39A6407F105051C
:10453000A3B1E9B1904601AA019506460F46FDF7E1
:10454000A9FEE8B10620306102E000BF042101614C
:10455000012306B0BDE8F04118467047E1B14FF6BF
:10456000FC731A402243016041F82520022124E017
:104570004FF6FC711940214342F8251002601AE001
:104580000399B268304691420AD1416861B14FF651
:10459000FC721140214305E0026001210DE000BFE3
:1045A00057F8251048F825104FF6FC7101EA08016C
:1045B000214347F8251081680131816000230121E2
:1045C0000361017306B0BDE8F04118467047000072
:1045D00000284FF0010218BF002901D11046704792
:1045E00090F8542090F85430022B18BF052A07D1B8
:1045F00040218165002180F84C100120704700BFE8
:104600000A7B022A04D101220A611046704700BFCA
:10461000026840F24F63C5F202039A4210DC40F296
:104620004F73C4F202039A421ADC40F25063C4F2A0
:1046300002039A422CD040F2D063C4F2020325E078
:1046400040F24F73C5F202039A4215DC40F2506308
:10465000C5F202039A421BD040F2D06314E000BFBF
:1046600040F25073C4F202039A4211D040F2D07368
:10467000C4F202030AE000BF40F25073C5F2020325
:104680009A4205D040F2D073C5F202039A420DD18E
:10469000036D4A68812B03D122B141670020704726
:1046A000002AFAD004200861012070470A6892F8B5
:1046B00020209207ECD503200861012070470000FC
:1046C000002804BF01207047016839B142684AB12F
:1046D0008A4204BF0020704707E000BF0221016149
:1046E000012070474269012A04D10421016101209F
:1046F000704700BFF0B502220273002202610A6A0D
:1047000040F2000E5308CFF6010E63F3596E02F02B
:104710000202856863F39A6E531D4FF6FC72002DFA
:1047200001EA020C47D0012D02D1654643E000BFEB
:104730004FF6FF726E1EAC1E21EA0202032C06F039
:10474000030401D265461EE026F003064FF6FC770F
:10475000654600BF154355F82350043E05EA07059A
:1047600045EA020555F8235005EA070545EA020522
:1047700055F8235005EA070545EA020555F8235088
:1047800005EA0705E6D1B4B1154355F823504FF6B5
:10479000FC76012C05EA06050DD0154355F823508B
:1047A000022C05EA060506D02A4352F823204FF6CC
:1047B000FC7402EA04054FF6FF7221EA02022A4362
:1047C0004EEA0C074160002142F82370016101218B
:1047D00001730020F0BD0000002804BF01207047D5
:1047E00080B5D0F874E0BEF1000F54D090F85410AA
:1047F00002680129D2F814C004D0022946D11CF461
:10480000803143D090F85410012935D190F84C10E4
:1048100001294FF0020134D0012380F84C3080F898
:1048200054108EF80C1000218165CEF810105169DB
:1048300041F4BA415161416E19B1516941F40071BD
:104840005161006F18B1506940F400505061DEF8BA
:1048500000000023016ACFF60103490861F35963A0
:1048600061F39A634FF6FF7120EA010111604FF680
:10487000FC7108401844D0675069002140F00100E5
:104880005061BDE880400846704700BF4021816507
:10489000002180F84C100121BDE880400846704797
:1048A000B0B5044600F034FF002C04BF0120B0BDB9
:1048B000054694F85400022824D12068416941F04B
:1048C00004014161052084F8540000BF2168086993
:1048D00080041FD400F01CFF401B0628F6D3A06DF7
:1048E00040F01000A065032084F8540094F85000B4
:1048F00000064FF0010001D5616F0873002184F8B4
:104900004C10B0BD2020A0650120002184F84C107F
:10491000B0BD00BF4869012240F002004861042098
:1049200084F854004FF4FE40C86084F8542094F892
:10493000500000064FF00000E0D5636F1A738864E2
:10494000002184F84C10B0BD80B190F854100229B9
:104950000AD1042180F85410006842F2040241692F
:10496000114341610020704720218165012070477B
:10497000024600284FF0010008BF7047CB0612D551
:10498000136840F6FF7223EA020203F57B63C3F368
:10499000C41301F0110198401129516814BF21EA94
:1049A00000000843506000207047000070B50446C6
:1049B00000F0AEFE002C04BF012070BD054620684B
:1049C00040F6FF71426920EA010642F006014161AA
:1049D00020684169C9070BD000F09AFE401B0628E9
:1049E000F6D31020A065032084F85400012070BD88
:1049F00040F24F61C5F2020188424FF000010160B0
:104A00004161016441648164C1640165C16711DC75
:104A100040F24F71C4F2020188421BDC40F2506147
:104A2000C4F2020188422DD040F2D061C4F20201EA
:104A300026E000BF40F24F71C5F20201884215DC4A
:104A400040F25061C5F2020188421BD040F2D061B1
:104A500014E000BF40F25071C4F20201884211D04C
:104A600040F2D071C4F202010AE000BF40F2D071FE
:104A7000C5F20201884205D040F25071C5F2020130
:104A8000884202D100214165816500F57B61C1F357
:104A9000C4110122736802FA01F123EA0101716075
:104AA0004FF4FE41C160E16D0020C4E91800C4E983
:104AB0001A0020670029606718BFE0652065A065BF
:104AC00084F8540084F84C0070BD0000806D70477D
:104AD00090F854007047000010B504680C2321467C
:104AE00004F57B6263F30B01C2F3C4120968D14081
:104AF000C90700F0A5802169490544BF61695FEAE3
:104B000041514BD42169090544BF61695FEA0151F4
:104B10004CD42169C90444BF61695FEAC1414DD4E5
:104B20002169490444BF61695FEA41414ED421696A
:104B3000890544BF61695FEA81514FD421698904C5
:104B400044BF61695FEA814154D42169C90544BF0A
:104B500061695FEAC15175D4816D002908BF10BD3C
:104B600001684A6942F002024A614969C9074FF087
:104B7000030108BF012180F8541090F85010090675
:104B800002D5416F01220A73816E0022002980F84C
:104B90004C2055D0BDE81040084700BF4FF480615D
:104BA000E160816D41F001018165ABE74FF4006187
:104BB000E160816D41F002018165AAE74FF4805107
:104BC000E160816D41F004018165A9E74FF4804106
:104BD000E160816D41F008018165A8E74FF4007143
:104BE000E160426E002AA9D004469047204624681E
:104BF000A4E700BF4FF40051E16090F8541004297D
:104C00002AD1616921F400516161616941F00201B9
:104C100061616169C9074FF0030108BF012180F894
:104C2000541090F85010090604D5416F01220A7300
:104C30000021A164C16E0022002980F84C20A9D176
:104C400010BD00BF90F85010090611D4A16CD9B95D
:104C500000F1540216E000BF052180F85410026FE5
:104C6000002A3FF472AF04469047204624686CE760
:104C7000E16F49B9A16C39B9012180F85410416F35
:104C800001F10C02012111704FF44071E160016EDD
:104C90000022002980F84C203FF45EAF044688478C
:104CA000204659E7B0B5044600F032FD002C04BFA1
:104CB0000120B0BD00210546206884F84C10022177
:104CC00084F85410416941F006014161206841694E
:104CD000C9070BD000F01CFD401B0528F6D90120A8
:104CE00003221021A16584F85420B0BD216A4269D5
:104CF00004F1100522F4430211434161E36926CD1A
:104D00001A4311434F22C5F2020240F24F6C904207
:104D100041EA050EC5F2020C1CDC40F24F43C4F21E
:104D20000203984232DC40F24F23C4F2020398425D
:104D300056DC40F24F13C4F20203984200F3948011
:104D40005023C4F20203984200F0E880D023C4F25A
:104D50000203E1E040F24F43C5F2020398422DDC2A
:104D600040F24F23C5F2020398424BDC40F24F134E
:104D7000C5F20203984200F383805023C5F2020378
:104D8000984200F0CB80D023C4E000BF40F24F63D4
:104D9000C4F20203984245DC40F24F53C4F20203CE
:104DA000984277DC40F25043C4F20203984200F08C
:104DB000B58040F2D043C4F20203ADE0604543DC6D
:104DC00040F24F53C5F2020398426FDC40F2504369
:104DD000C5F20203984200F0A18040F2D04399E06E
:104DE00040F24F33C4F20203984269DC40F2502390
:104DF000C4F20203984200F0918040F2D023C4F242
:104E0000020389E040F24F33C5F20203984263DCAB
:104E100040F25023C5F20203984200F07F8040F236
:104E2000D02377E040F24F73C4F2020398425DDC76
:104E300040F25063C4F2020398426FD040F2D06354
:104E4000C4F2020368E000BF40F24F73C5F20203F0
:104E5000984257DC40F25063C5F2020398425DD09D
:104E600040F2D06356E000BF40F25013C4F2020398
:104E7000984253D040F2D013C4F202034CE000BF7A
:104E800040F25013C5F20203984247D040F2D013CB
:104E900040E000BF40F25053C4F2020398423DD0BC
:104EA00040F2D053C4F2020336E000BF40F2505348
:104EB000C5F20203984231D040F2D0532AE000BF3D
:104EC00040F25033C4F20203984227D040F2D0336C
:104ED000C4F2020320E000BF40F25033C5F20203E7
:104EE00098421BD040F2D03314E000BF40F2507320
:104EF000C4F20203984211D040F2D073C4F202030C
:104F00000AE000BF40F2D073C5F20203984205D018
:104F100040F25073C5F20203984212D1D4E9093528
:104F20004FF07C72E16A02EB05524FF47C7505EBA1
:104F3000031302F07C7203F47C73114319434EEAAD
:104F4000010E016C231D01F0802141EA0E01016474
:104F50000ECB256B01F07F011143B3F5007F41EAD1
:104F6000050225D0B3F5806F40F0EC8040F2CF71A0
:104F7000C4F2020188421FDD40F2CF31C5F20201C6
:104F8000884239DC40F2CF11C5F20201884261DC6F
:104F9000CF21C5F20201884200F3AA8040F2D0710D
:104FA000C4F20201884200F0CB805021C4E000BF6F
:104FB00042F40072C6E000BF40F2CF31C4F20201F9
:104FC00088422FDD40F2CF51C4F20201884261DCF9
:104FD00040F2CF41C4F20201884200F3078140F25F
:104FE000D031C4F20201884200F0AA8040F2504160
:104FF000C4F20201A2E000BF40F2CF51C5F20201AB
:10500000884237DC40F2CF41C5F20201884277DCAA
:1050100040F2D031C5F20201884200F0918040F2A6
:10502000504189E040F2CF11C4F20201884243DDD1
:1050300040F2CF21C4F2020188424DDC40F2D0118F
:10504000C4F2020188427BD040F25021C4F2020136
:1050500074E000BF40F2CF21C5F20201884259DC62
:1050600040F2D011C5F20201884269D040F25021CD
:1050700062E000BF40F2CF61C5F20201884253DC1A
:1050800040F2D051C5F20201884259D040F250613D
:1050900052E000BF40F2CF61C4F20201884200F347
:1050A000B18040F2D051C4F20201884248D040F2AF
:1050B0005061C4F2020141E05021C4F20201884271
:1050C0003ED0D021C4F20201884239D040F25011C2
:1050D000C4F2020132E000BF40F2D021C4F202016A
:1050E00088422DD040F25031C4F2020126E000BFC8
:1050F000D021C5F20201884222D040F250111BE0BB
:1051000040F2D041C5F20201884219D040F250511C
:1051100012E000BF40F2D021C5F2020188420FD058
:1051200040F2503108E000BF40F25071C5F2020178
:10513000884205D040F2D061C5F2020188426DD1AB
:1051400042F48062416C43F28013C3F6C0431940BD
:105150001143416400216045816411DC40F24F71CC
:10516000C4F2020188421BDC40F25061C4F2020129
:1051700088422DD040F2D061C4F2020126E000BF87
:1051800040F24F71C5F20201884215DC40F25061D5
:10519000C5F2020188421BD040F2D06114E000BF8A
:1051A00040F25071C4F20201884211D040F2D07135
:1051B000C4F202010AE000BF40F2D071C5F2020160
:1051C000884205D040F25071C5F20201884202D1F6
:1051D0000021416581650021C167606B0122206566
:1051E0000020A16584F85420B0BD00BF40F2D0413A
:1051F000C4F202018842A3D040F25051C4F202012D
:105200009CE700BF40F2D061C4F20201884297D00F
:1052100040F25071C4F2020190E700BF40F2D07139
:10522000C5F20201884208BF42F480628AE70000AA
:1052300000284ED090F84CC0BCF1010F04BF0220F2
:1052400070474FF0010C80F84CC090F854C0BCF18E
:10525000010F39D110B54FF0020C80F854C04FF057
:10526000000CC0F858C0D0F800C0D0F864E0DCF8FA
:105270004840BEF1000FC3EA0403CCF848304FF4B5
:10528000FE43CCF80C30CCF84C10CCF85020DCF8B5
:10529000141041F4BA41CCF8141005D0DCF8141005
:1052A00041F40071CCF81410006F28B1DCF8140040
:1052B00040F40050CCF81400DCF8140040F0010079
:1052C000CCF81400002010BD40218165002180F839
:1052D0004C10012070470000B0B5044600F018FAE9
:1052E000054640F20800C2F200000078611C18BFB9
:1052F000044400BF00F00CFA401BA042FAD3B0BD3A
:10530000002908BF70472DE9F04F84B040F2000B30
:10531000C4F2026B584502917ED047F67F72C0F20C
:105320002F0202EA90224FF0000A019200F12002BF
:1053300000270025012400922DE000BF036803210F
:1053400001FA05F6334303606FF0030101EA5803E5
:10535000009907F01C0C51F803E00F2202FA0CF23E
:105360002EEA0202CA508268B24382604268039900
:1053700022EA01014160C168B143C160029931FA7A
:1053800004F204F1010405F1020507F104070AF132
:10539000080A00F08180A4F10108012202FA08F253
:1053A00012EA010CEBD042F20001C4F20261039256
:1053B00001F1600928F003060AF0180B0F2159F8D3
:1053C000066001FA0BFE019906EA0E0601FA0BF3DC
:1053D0009E42B3D142F20001C4F20261D1F88030A2
:1053E0004FEA980623EA0C03C1F88030D1F88430E4
:1053F00023EA0C03C1F884300B6823EA0C030B602A
:105400004B6823EA0C034B6059F8263023EA0E035D
:1054100049F8263092E700BF4BF2006400204FF0BD
:10542000030E4FF01C084FF00F09C0F604046FF094
:10543000030A03E0013031FA00F22DD021FA00F71F
:10544000FF07F7D004EBC00654F830707668DBF83D
:105450000050012101FA06F39D43CBF8005075007E
:105460003A680EFA05F52A433A600AEA560208EA53
:1054700086063A44D2F820C009FA06F62CEA060657
:105480001662BA68AA43BA607A6802999A437A6047
:10549000FA68AA43FA60CDE704B0BDE8F04F704760
:1054A0002DE9F04F84B00E680290002E00F01E81AE
:1054B000DDF808B040F200090BF12000019047F63A
:1054C0007F70C0F22F0000EA9B2000234FF0010AFA
:1054D00000274FF00008C4F202694FF0000C009062
:1054E00011E000BF40F20009C4F202690E680CF13D
:1054F000010C36FA0CF008F1020807F1040703F179
:10550000080300F0F3800AFA0CF516EA0500EDD066
:1055100003900298484527D04E6846F01002122AA0
:105520005ED16FF0030000EA5C02019C07F01C05ED
:105530000F2054F802E000FA05F608692EEA060684
:1055400000F00F00A8403043A050DBF80000032219
:105550004E6802FA08F2904306F0030202FA08F2DB
:105560004FF0010A104346E0D9F800004E684BF2B4
:10557000006206F00106A84306FA0CF6C0F6040223
:10558000304302EBCC06C9F80000D6F804E06FF017
:10559000030052F83CB000EA5E051C205D4400EABE
:1055A0008E062C6A0F2000FA06F20B2024EA020273
:1055B00000FA06F422432A62DBF800204FEA4E0488
:1055C000032000FA04F50220AA4300FA04F422435F
:1055D000CBF800204E684FF0010A122E10D936E0A9
:1055E000DBF80000032202FA08F2904306F00302FF
:1055F00002FA08F21043E646CBF80000122E26D835
:105600000AFA06F010F0061F1ED04FEA4E090322D8
:10561000DBF8080002FA09F5CA68A84302FA09F2A1
:105620001043CBF80800DBF804000AFA0EF29043AE
:10563000320902FA0EF21043032ECBF804003FF4B5
:1056400051AFED4309E000BF032E3FF44FAF4FEAE7
:105650004E09032000FA09F0C543DBF80C008A6804
:10566000284002FA09F21043F200CBF80C007FF553
:1056700039AF42F2000E2CF00300C4F2026E704407
:10568000026E03F018060F25B540AA43009D05FAE7
:1056900006F632430266DEF80000039C4A6840EAE0
:1056A0000406D50258BF20EA0406CEF80060DEF8F2
:1056B0000400950240EA040658BF20EA0406CEF82A
:1056C0000460DEF88400950340EA040658BF20EA2F
:1056D0000406CEF88460DEF88000D20340EA0406B7
:1056E00058BF20EA0406CEF88060FBE604B0BDE8AF
:1056F000F08F00001823002A08BF2823C1507047EC
:1057000044F20000CEF204000068000C7047000074
:1057100048F24860C2F207000068704790F84120E4
:10572000202A03D190F84020012A01D1022070479D
:10573000242280F841200268136823F001031360DB
:10574000136823F4805313601368194311601168C0
:1057500041F001011160202180F84110002180F802
:10576000401000207047000090F84120202A03D10B
:1057700090F84020012A01D102207047242280F8AD
:1057800041200268136823F001031360136823F4B7
:10579000706343EA01211160116841F00101116059
:1057A000202180F84110002180F84010002070472F
:1057B000002804BF0120704710B590F8411031B99E
:1057C000002180F84010044600F0F8FA2046242119
:1057D00080F8411090E81210C3680A68012B22F08B
:1057E00001020A6024F070620A618A6822F40042B1
:1057F0008A6003D14CF400428A6007E04CF4044212
:10580000022B8A6004BF4FF400624A604A6800F1CC
:10581000100442F0007242F400424A60CA6822F466
:105820000042CA601CCC1A4342EA0422C369CA601F
:10583000026A1A430A600A6842F001020A60002103
:105840002022416480F84120016380F8421000204A
:1058500010BD00002DE9F04782B0044690F84100E9
:10586000202803D194F84000012803D1022002B07F
:10587000BDE8F08701200D461746984684F84000A1
:10588000FFF746FF216806468A69120425D42220C4
:1058900084F84100102084F84200002060646762B0
:1058A000A4F82A806063608D49F6000C40F200087D
:1058B000B0F5807FCFF6004CC0F2FF1820D351F82E
:1058C000040F2B466FF39F2300EA0C0708F51050D6
:1058D000FF2222E088690004D9D5FFF719FF801B59
:1058E00021681A28F6D388690004F3D5606C40F06B
:1058F00020006064202084F84100012071E000BF96
:10590000628D284651F8043F6FF39F20D7B240EADA
:10591000074703EA0C0308F592303B43184308603D
:105920002285608D0A9F002844D06FF39F254FF099
:10593000FF090CF5806A10E0618D2068218550F820
:10594000042FC9B202EA0A0242EA01414FF0007292
:10595000294311430160608D60B3204639463246C9
:1059600006F00AF960BB2068616A406A0870606AE4
:10597000218D01306062481E2085618D013961856D
:10598000618D0029E7D00004E5D120468021002266
:105990003B46009606F07CF890B9608DB0F5807FAC
:1059A000CAD32068A4F8289050F8041F424601EAA0
:1059B0000A01CDE720463946324606F043F918B1D0
:1059C000012002B0BDE8F08720682021C161426853
:1059D0004EF60003CFF600631A404260002084F8C0
:1059E0004110002184F8421084F8401002B0BDE854
:1059F000F08700002DE9F04782B0044690F841009E
:105A0000202803D194F84000012803D1022002B0DD
:105A1000BDE8F08701200D461746984684F84000FF
:105A2000FFF776FE216806468A69120425D42120F4
:105A300084F84100102084F842000020606467620E
:105A4000A4F82A806063608D49F6000C40F20008DB
:105A5000B0F5807FCFF6004CC0F2FF1820D351F88C
:105A6000040F2B466FF39F2300EA0C0708F5005044
:105A7000FF2222E088690004D9D5FFF749FE801B88
:105A800021681A28F6D388690004F3D5606C40F0C9
:105A900020006064202084F84100012071E000BFF4
:105AA000628D284651F8043F6FF39F20D7B240EA39
:105AB000074703EA0C0308F590303B43184308609E
:105AC0002285608D0A9F002844D06FF39F254FF0F8
:105AD000FF090CF5806A10E0618D2068218550F87F
