:020000040800F2
:1000000090CA0A201903000889A300089D8C0008E3
:1000100085A30008FD0B0008F1CB00082B030008A6
:1000200000000000000000000000000031B00008E7
:10003000910E000800000000A1AC000865B00008A7
:1000400035030008350300083503000835030008B0
:1000500035030008350300083503000835030008A0
:100060003503000835030008350300083503000890
:100070003503000835030008350300083503000880
:100080003503000835030008350300083503000870
:100090003503000835030008350300083503000860
:1000A0003503000835030008350300083503000850
:1000B00000000000A5100008B1100008350300087A
:1000C0003503000835030008350300083503000830
:1000D0003503000835030008350300083503000820
:1000E0003503000835030008350300083503000810
:1000F0003503000835030008350300083503000800
:1001000035030008D1B000083503000835030008A6
:1001100035030008350300083503000835030008DF
:10012000350300083503000835030008DDAE00087C
:1001300035030008350300083503000835030008BF
:100140003503000841B800083503000835030008EE
:10015000350300083503000835030008350300089F
:10016000350300083503000835030008350300088F
:10017000350300083503000835030008350300087F
:10018000350300083503000835030008350300086F
:10019000350300083503000835030008350300085F
:1001A000350300083503000835030008350300084F
:1001B000350300080000000035030008350300087F
:1001C000350300080000000035030008350300086F
:1001D000350300083503000835030008350300081F
:1001E000350300083503000835030008350300080F
:1001F000000000000000000035030008350300087F
:1002000035030008350300083503000835030008EE
:10021000350300083503000835030008B10C000859
:1002200035030008350300083503000835030008CE
:10023000350300083503000800F002F800F05DF80F
:1002400014A696E8000CB244B344DA4501D100F09C
:1002500054F8BAE80F000FA696E83000A5EB0405A5
:1002600004EB0607AAEB0704A7F101074FEA1515EF
:100270004FEA3414A4F10104AC4201D300F03DF87C
:1002800013F0010F18BFFB1A43F0010300F001F84F
:10029000DBE7184788670400A8670400103A24BF0A
:1002A00078C878C1FAD8520724BF30C830C144BFDB
:1002B00004680C60704700007047000000230024B1
:1002C00000250026103A28BF78C1FBD8520728BF66
:1002D00030C148BF0B607047642900F01581782950
:1002E00000F04E81732900F03D84002070471FB557
:1002F00041F0C7FE1FBD10B510BD00F051FC114606
:10030000FFF7F5FF37F018FD00F06FFC03B4FFF7BF
:10031000F2FF03BC0FF050FA0A4880470A48004732
:10032000FEE7FEE7FEE7FEE7FEE7FEE7FEE7FEE7A5
:10033000FEE7FEE7FEE7000004480549054A064BD4
:100340007047000085B000083902000890C40A20F8
:1003500090CA0A2090C60A2090C60A20704753EA25
:10036000020C00F069802DE9F04B4FF00006002BE5
:100370001FBFB3FA83F503FA05F424FA05F65E40CD
:1003800012BF1643B2FA82F502FA05F4C5F1200550
:100390001EBF22FA05FC44EA0C04203556EA044C40
:1003A0004FEA144418BF641C4FF000084FF00009D6
:1003B000904271EB030C39D3002919BFB1FA81F7D0
:1003C00001FA07F6B0FA80F700FA07F6C7F120073E
:1003D0001EBF20FA07FC46EA0C062037B6FBF4FCE9
:1003E000A7EB0507103F07F01F0BCBF120062CFAF7
:1003F00006F60CFA0BFB44BFB3460026202FA4BF21
:100400005E464FF0000B5BEA060C08BF4FF0010B95
:1004100019EB0B0948EB0608ABFB027C06FB02CC90
:100420000BFB03CCC01B71EB0C01C1E70B46024672
:1004300041464846BDE8F08B13B5084318BF4FF05E
:10044000FF300146AFF30080BDE81C40704700005C
:100450000FB4044910B503AA029800F087FB10BC42
:100460005DF814FBD008002070B50446856900686B
:10047000C10601D5302600E02026C00707D070BD98
:10048000D4E9012130469047206A401C20626D1E4D
:10049000F6D570BD70B5044685690078C00707D1F0
:1004A00070BDD4E9012120209047206A401C2062C1
:1004B0006D1EF6D570BD70B50C460546012A05D0F7
:1004C0002878800600D5EA69002302E0012305E0D0
:1004D0005B1C934202D2E05C0028F9D1A869E618BF
:1004E000C01AA861286A184428622846FFF7BCFF92
:1004F00004E0D5E9012114F8010B9047B442F8D388
:100500002846FFF7C7FF70BD2DE9F04106460024DD
:1005100010687529314616A510D0AFF30080002869
:1005200002DA404213A507E031688A0701D512A517
:1005300002E0490704D511A5012401E0AFF30080D2
:1005400000210A2206F1240709E0B0FBF2FCB0FB0F
:10055000F2F302FB1C00303078541846491C002886
:10056000F3D123462A463046BDE8F04100F076BA82
:10057000000000002D0000002B0000002000000003
:1005800070B504460D4621461068AFF300802188FF
:10059000090502D50F4A7A4402E00E4A7A440E3227
:1005A000002104F1240305E000F00F060009965D28
:1005B0005E54491C0028F7D120780023000704D599
:1005C000702D02D009B1022311322046BDE87040DF
:1005D00000F044BA021B04002DE9F05F894604468E
:1005E0004FF0000ADFF874B1FB44C0F820A02046A9
:1005F000E1688847002874D0252806D0D4E9012175
:100600009047206A401C2062F1E700265F462046A2
:10061000E16888472028054607DB312D05D2781987
:1006200010F8200C08B10643F1E7B00701D526F019
:100630000406C4F81CA00027C4F818A02A2D09D06D
:10064000284641F017FD38B304EB8708303DC8F861
:10065000185019E059F8041B204604EB87029161F9
:10066000E1688847012F054618D1E069002820DAA3
:1006700026F020061DE0D8F8180000EB800005EBFE
:1006800040003038C8F818002046E1688847054621
:1006900041F0F0FC0028EED1012F0AD02E2D08D118
:1006A0002046E16888477F1C0546022F46F0200659
:1006B000C4DBA069002803DA404246F00106A061CD
:1006C000F00701D026F010066C2D0BD0682D09D054
:1006D0004C2D39D06A2D35D0742D35D07A2D33D0AC
:1006E00016E038E0E1682F4620468847B8420546C4
:1006F00009D16C2F26D04FF48060E1680643204674
:100700008847054604E06C2F1AD04FF480700643EA
:100710000DB3A5F14100192802D8203546F4006632
:100720004A462946204626604E46FFF7D5FD80B151
:1007300001280BD0F61D26F0070000F1080956E746
:100740004020E4E78020D8E70020D6E706F104093E
:100750004DE7284652E7206ABDE8F09FD81A04000A
:1007600010B5044603E014F003FF401C09D014F850
:10077000010B05490028F6D1BDE810400A2014F00D
:10078000F7BE4FF0FF3010BDD008002030B5054651
:100790000B462A4613F8014B12F8010B08B1A04290
:1007A000F8D01CB1002802D06D1CF1E7284630BDFE
:1007B00040EA0103024630B59B0710D14FF00134E7
:1007C00000E008C208C91D1B9D4315EAC41FF8D0EC
:1007D00013F0FF0102F8011B0DD01B0AF8E711F816
:1007E000013B002B02F8013B05D011F8013B002B27
:1007F00002F8013BF3D130BD10B5431C02E010F804
:10080000011B71B18107FAD14FF0013202C88C1A75
:100810008C4314EAC211F9D0C01A0A0603D0C01ED4
:1008200010BDC01A10BD0A0401D0801E10BD0902FF
:10083000FCD0401E10BD032A40F2308010F0030CA3
:1008400000F0158011F8013BBCF1020F624498BF23
:1008500011F801CB00F8013B38BF11F8013BA2F1C0
:10086000040298BF00F801CB38BF00F8013B11F03B
:10087000030300F02580083AC0F0088051F8043BDB
:10088000083A51F804CBA0E80810F5E7121D5CBF48
:1008900051F8043B40F8043BAFF30080D20724BF7B
:1008A00011F8013B11F801CB48BF11F8012B24BF0F
:1008B00000F8013B00F801CB48BF00F8012B70475E
:1008C00010B5203AC0F00B80B1E81850A0E81850DD
:1008D000B1E81850A0E81850203ABFF4F5AF5FEA2D
:1008E000027C24BFB1E81850A0E8185044BF18C9D2
:1008F00018C0BDE810405FEA827C24BF51F8043B79
:1009000040F8043B08BF7047D20728BF31F8023BCC
:1009100048BF11F8012B28BF20F8023B48BF00F860
:10092000012B704702F0FF0343EA032242EA02422E
:1009300000F00AB802F0FF0343EA032242EA02424F
:1009400000F024B84FF000020429C0F0128010F02B
:10095000030C00F01B80CCF1040CBCF1020F18BF9B
:1009600000F8012BA8BF20F8022BA1EB0C0100F02E
:100970000DB85FEAC17C24BF00F8012B00F8012B01
:1009800048BF00F8012B70474FF0000200B5134636
:1009900094469646203922BFA0E80C50A0E80C509F
:1009A000B1F12001BFF4F7AF090728BFA0E80C5050
:1009B00048BF0CC05DF804EB890028BF40F8042B49
:1009C00008BF704748BF20F8022B11F0804F18BFB6
:1009D00000F8012B7047000030B44FF0013C50F894
:1009E000042B51F8043BCCFA52F4D51A20D1FCB9AF
:1009F00050F8042B51F8043BCCFA52F4D51A17D115
:100A0000B4B950F8042B51F8043BCCFA52F4D51A7F
:100A10000ED16CB950F8042B51F8043BCCFA52F4C7
:100A2000D51A05D1002CDAD030BC4FF00000704749
:100A300029BAB1FA81F111F01801D1F120008440F6
:100A4000F2D1CA40CB4012F0FF0213F0FF0330BCDA
:100A5000D01A704770477047704770472DE9F047CC
:100A60000D4699469246044600F12408016888061E
:100A700004D5E06921F01001216000E00120A842C6
:100A800001DD471B00E00027A1697A1902EB09008C
:100A9000081AA0612078C00602D42046FFF7E4FCC3
:100AA000002608E0D4E901211AF806009047206AE0
:100AB000401C761C20624E45F4DB2078C0060AD527
:100AC0002046FFF7D1FC06E0D4E901213020904711
:100AD000206A401C2062381EA7F10107F4DC07E001
:100AE000D4E9012118F805009047206A401C2062D3
:100AF000281EA5F10105F3DC2046FFF7CBFC20788A
:100B0000000602D50220BDE8F0870120FBE70000C7
:100B100001694A1C02610878704700B58FB0CDE9C1
:100B200001310021059105497944CDE903101146B1
:100B30006846FFF751FD0FB000BD0000E5FFFFFF65
:100B400010B5436913B1AFF3008001E0FFF7B3FCC8
:100B5000012010BD127800F124010A7000224A70B1
:100B60000122EDE711684FF0FF32E9E7074B70B55E
:100B70000D467B44FFF7D1FF0446284600F00CF8F1
:100B800010B14FF0FF3070BD204670BDFB49010031
:100B900000487047D8000020007B00F080007047BC
:100BA0007546FFF7F5FFAE4605006946534620F04F
:100BB0000700854618B020B5FFF7BEFBBDE8204012
:100BC0004FF000064FF000074FF000084FF0000B09
:100BD000AC46ACE8C009ACE8C009ACE8C009ACE878
:100BE000C00921F007018D46704710B50446AFF3E8
:100BF00000802046BDE81040FFF788BBFEE70000FC
:100C0000C06D816C896D022908BF00F057BA0121BF
:100C100080F83510C16C41F04001C16400F04EBA5B
:100C200070B5C06DC16BC9B1D0F838C0836CD0E964
:100C300010E1C26B1B684FF6FC75DC6F1B682C4023
:100C40004FF6FF75866BAB43022E234412D3AEEBF7
:100C50000C06023606FB02110FE000BF0168CA68ED
:100C600042F00102CA600968890744BF012180F887
:100C7000351070BD826B012A04D11961816B013975
:100C8000816370BD0268C66B3144196111688907C0
:100C900006D4016C8163D06840F00100D06070BD63
:100CA000012180F83510D06840F00100D06070BD9F
:100CB0004BF65840C2F2040000F046BA2DE9F0436A
:100CC000D2F800C0D0F808E0002953D0BEF1000FE0
:100CD0004FF0000464D04FF6FC7311EA03094FF0A3
:100CE00000074FF0000300F0B58005684FF6FC7375
:100CF0002B40BEF1020F4FF0010455D34B4553D0AA
:100D00004FF6FF7425EA040605274FF6FC7800BF6E
:100D100046EA030454F82C50FC1E744505EA080505
:100D20004ED24D454CD046EA050353F82C30BC1E3C
:100D3000744503EA08031AD24B4518D046EA030467
:100D400054F82C507C1E744505EA080538D24D45F0
:100D500036D046EA050353F82C30774503EA0803FA
:100D600007F1040402D24B452746D1D1043C1F466B
:100D70002B466FE0BEF1000F1AD004684FF6FC75E9
:100D8000BEF1010304EA050716D04FF6FF75AC4328
:100D9000AEF10205032D03F0030813D230E000BFCB
:100DA0000027002356E000BF1F46002352E000BF8B
:100DB00000230027002456E00124002353E000BF55
:100DC0002F4647E023F003054FF6FC7644EA07037D
:100DD00053F82C30043D03EA060343EA040353F8B6
:100DE0002C3003EA060343EA040353F82C3003EAE9
:100DF000060344EA030757F82C7007EA0607E5D113
:100E00003D46B8F1000F24D044EA050353F82C60A6
:100E10004FF6FC73B8F1010F06EA030604D17446DD
:100E200037462B4616E000BF44EA060555F82C501D
:100E3000B8F1020F03EA050304D174461F46334696
:100E400008E000BF1C4354F82C404FF6FC7504EA40
:100E50000507744639B14FF6FC7631408F421CBF0E
:100E60000120BDE8F0834088946043EA004147EAEE
:100E700000435160D36053F82C1029B14FF6FC7336
:100E800000041940084310610020BDE8F083000011
:100E900070470000EFF3108072B600BFFEE700005D
:100EA00010B50024C4F2022420464FF40061002251
:100EB00001F07CFE0A2001F03BFD20464FF400616A
:100EC000012201F073FE6420BDE8104001F030BD46
:100ED0002DE9F04F85B04BF6A844C2F20404022776
:100EE00064260DF109022046702101238DF8097056
:100EF000009601F0D5FF012001F01AFD02AA20465C
:100F000071210123009601F0F9FE9DF8080040F2DE
:100F1000B405C2F20005287008B9AF702F724BF605
:100F2000A844C2F204044FF0050B0DF10B02204659
:100F3000702101238DF80BB0009601F0B1FF012064
:100F400001F0F6FC0DF10A02204671210123009602
:100F500001F0D4FE9DF80AA002354FEA1A1000EB0A
:100F600040000DF10D0215F8101005EB4009023993
:100F700018BF012105F8101003208DF80D00204640
:100F800070210123009601F08BFF012001F0D0FCBD
:100F900003AA204671210123009601F0AFFE042030
:100FA0009DF80C808DF80F000DF10F022046702186
:100FB0000123009601F074FF012001F0B9FC0DF14E
:100FC0000E02204671210123009601F097FE9DF844
:100FD0000E0008F00F0140EA01200DF11102A9F8FE
:100FE00002002046702101238DF811B0009601F017
:100FF00057FF012001F09CFC04AA20467121012327
:10100000009601F07BFE06209DF810708DF813000D
:101010000DF113022046702101234FF002080096C3
:1010200001F03EFF012001F083FC0DF11202204689
:1010300071210123009601F061FE01229DF812004A
:1010400022EA1A1207F00F0140EA012042EA4201A7
:10105000A9F8040005F8118005B0BDE8F08F000084
:1010600010B540F2B404C2F20004A07B002808BF0F
:1010700010BDFFF72DFFA078012804D1A188E288D8
:1010800002A0FFF7E5F90020A07310BD746F75632F
:101090006820646F776E20782025642020792025D1
:1010A000640D0A004BF66830C2F2040001F040B84B
:1010B0004BF6E030C2F2040001F03AB801684CF29D
:1010C0000002C4F20222914218BF704710B505A178
:1010D00004460846FFF744FB2046BDE8104000F0F8
:1010E000BFBA00BF44434D49204572726F724361DD
:1010F0006C6C6261636B000010B5044600684CF2D2
:101100000001C4F20221884218BF10BD40F2401015
:10111000C2F20000006837F0E9FA2168C86820F0E0
:10112000010203A0CA60BDE81040FFF719BB00BF71
:1011300044434D49204672616D654576656E744342
:10114000616C6C6261636B0070B50446006840F6C8
:1011500001460569C0F6000669071BD504214161F7
:10116000E06C40F00200E06484F83510A06CC666C4
:1011700000F0A6FF70B1A06CC06D816C896D022972
:1011800006D0012180F83510C16C41F04001C164E6
:10119000FFF794FFA8071DD521680222A06C4A61C1
:1011A000E16C41F00101E164042184F83510C66668
:1011B00000F086FF70B1A06CC06D816C896D022952
:1011C00006D0012180F83510C16C41F04001C164A6
:1011D000FFF774FFE80605D520681021416120461D
:1011E00000F070F8280705D52068082141612046E5
:1011F00000F0D0FAE80708BF70BD216808688007D2
:1012000003D5C86820F01E00C860C868012220F01D
:101210000100C86020464A61BDE87040FFF76CBF1E
:10122000002804BF012070472DE9F04F81B090F8ED
:10123000351019B9044600F047F82046022180F81D
:101240003510D0F818E04FF20705BEF1000F1CBFB3
:101250000021416290E80212D0F80C800A68CFF6B3
:10126000E0752A400A60D0E90452D0E90867D0E965
:101270000A43D0F830A042EA08022A4342EA0C02AC
:1012800032433A432243D1F800B01A4342EA0A02F9
:1012900042EA0B0242EA0E0242EA09020A60B9F18E
:1012A000100F04BFC2698A61CA6842F01E02CA6098
:1012B00000210122C16480F8352001B0BDE8F04F63
:1012C00008467047704700002DE9F04FA1B08046F6
:1012D0000024002501A86C21CDE91F44CDE91D445F
:1012E000C4F202251C94FFF74FFBD8F8000005F567
:1012F0004041884202D021B0BDE8F08F40F68C40DA
:10130000C4F2026001681CAE41F4805101600168C2
:101310004FF0020901F480510091009901684FF0EB
:10132000010A41F00101016001684FF0030B01F077
:1013300001010091009901680A2741F00401016050
:10134000016801F0040100910099016841F0020177
:1013500001600068314600F0020000900098102003
:101360001C900A2020902846CDF87490CDF878A0E3
:10137000CDF87CB001F0F0FA40201CA981E8010E04
:10138000042020902846314601F0E6FA4FF41C6014
:101390001CA9209705F5006781E8010E3846314603
:1013A00001F0DAFA4FF400701CA981E8010E042064
:1013B00020903846314601F0CFFA4FF470701CA9E6
:1013C00081E8010E0A20209005F58060314601F089
:1013D000C3FA21200190562040F25016CDE90204B4
:1013E0004FF40020C2F20006CDE90609042006F100
:1013F0001805CDE90B0401A82946CDE90444089459
:10140000CDF828A01294CDE90D44CDE90F4400F0A9
:10141000C3F9002818BFFFF73DFD304600212A46DA
:1014200000F0FCFB002818BFFFF734FD40F250101D
:10143000C2F2000000F000FD002818BFFFF72AFDEF
:101440004BF6E030D021C2F20400C4F20201016088
:101450004FF4000100228123C0E90E12C0E91022DE
:10146000836400F04FFA002818BFFFF713FD4BF616
:10147000E035C2F2040540F25011C2F200012846E4
:1014800000F062FC002818BFFFF704FD2846102179
:10149000C8F84850C5F85C8000F026FE002818BF48
:1014A000FFF7F8FC77200521002201F0FBFF7720F1
:1014B00001F0E6FF21B0BDE8F08F0000B0B590F874
:1014C00034404FF0020C012C00F0C880012480F859
:1014D000344080F835C0D0F800E0D0F848C0DEF8DD
:1014E00000509B0045F48045CEF80050DEF80050D7
:1014F00025F00205CEF80050DEF800502943CEF862
:10150000001040F62141C0F600010025CCF8601023
:1015100040F60141B5EB134FC0F60001CCE91A15B6
:101520008563C563C0E910550ED19CF850100906BB
:101530006CD404460EF12801604601F0A5F900289C
:10154000204640F0828072E08463C3634264C16BD2
:10155000B1F5803F28D30021C36B5B08C363836B65
:101560005B008363C36BB3F5803F1DD3C36B5B0824
:10157000C363836B5B008363C36BB3F5803F13D39B
:10158000C36B5B08C363836B5B008363C36BB3F59F
:10159000803F09D3C36B5B08C363836B5B008363CA
:1015A000C36BB1EB134FD7D1816B01398163816B71
:1015B00001649CF85010090642D5DCF8741000292B
:1015C0003ED00968E1B3C46B0D6A0EF12803C5F380
:1015D00002258C60CB600A6151F8254084B34FF638
:1015E000FF75A9434FF6FC75D0F83CE02C40214430
:1015F000C1E902E3C36B04461A4460460A6100F085
:10160000A7FC01462046D9B911E000BFDCF87410F0
:10161000B1B10968A1B104460EF12800C1E9023058
:1016200060460A6100F094FC002820460DD1016854
:101630004FF0000C0A6842F001020A600BE000BFA4
:101640004021C164012180F8351040214FF0010C88
:10165000C16480F835C0002180F834106046B0BD08
:1016600070B590F83410022401293CD040F2680192
:10167000C2F20001096844F6D352C1F26202A1FB32
:101680000212012180F8341080F8354001684FF6CD
:101690001845520A0B68CFF6FF7502FB05F223F0DE
:1016A000010300250B600B68DB070BD00B68DB0721
:1016B0001CBF0B685FEAC37304D0043216D00B68FA
:1016C000DB07F0D100240A68064622F480420A6053
:1016D000816C084600F0A0FCF06CF064012086F8F4
:1016E000350086F83450204670BD00BFC26C03241C
:1016F00042F02002C264E6E790F83410012904BFEA
:101700000220704780B540F26801C2F200010B6808
:1017100090F835104FF0000C02294FF0000125D150
:1017200044F6D351C1F26201A3FB0113052180F8F5
:10173000351001684FF618425B0AD1F800E0CFF689
:10174000FF7203FB02F32EF001020A600A68D2075F
:101750000BD00A68D2071CBF0A685FEAC27204D0C5
:10176000043309D00A68D207F0D1002180F834C0D0
:10177000BDE8804008467047C16C41F02001C1645B
:10178000012180F83510032180F834C0BDE8804085
:10179000084670477047000000284FF0010218BF4C
:1017A000002901D110467047B0B5D0E904C2C36921
:1017B000D0F818E01A43C36B1A4342EA0C0242EA1B
:1017C0000E020A6003789B0616D5D0E909C34FF0D4
:1017D0007C75D0F82CE0846B05EB03534FF47C75DB
:1017E00005EB0C1503F07C7344EA0E0405F47C75DC
:1017F00023432B431A430A604268036B40F27F2560
:101800002A401A434A60C368B3F5007F05D0B3F598
:10181000806F04D10578AD0601D51A434A60436C48
:1018200043B1856C046C05F03F05224342EA054252
:101830001A434A60B0F8683040F2000C8B600278BE
:10184000C0F2FF7C920722D5C56C4FF080540CEBA0
:10185000054505EA0C052B438B60056D04EAD505AB
:101860004FF000542B448B60456D04EA95054FF012
:1018700080442B448B60856D04EA55052B448B60B6
:10188000C56DB5F1FF3FDCBF03F100438B60036E14
:10189000CB60436E0B6103689D0703D44FF4A060D7
:1018A00029E000BF036D0CF1C052002B48BF5B4222
:1018B0006FF35F334B61456D2C04002D48BF05FB72
:1018C00002F422401A434A61836D0CF17845002BE3
:1018D00048BF5B429AB28A61C36D1C04002B48BFAB
:1018E00003FB05F422438A61036898074FF4E06024
:1018F00058BF4FF4A060184300220862BDE8B04012
:1019000010467047B0B5044601F056F9002C04BFEC
:101910000120B0BD00210546206884F84C1002214A
:1019200084F85410416941F0060141612068416921
:10193000C9070BD001F040F9401B0528F6D901205A
:1019400003221021A16584F85420B0BDD4E90E1201
:101950004F23C5F20203984242EA010240F24F616E
:10196000C5F202011CDC40F24F43C4F2020398426C
:1019700032DC40F24F23C4F20203984256DC40F2BC
:101980004F13C4F20203984200F394805023C4F230
:101990000203984200F0E880D023C4F20203E1E0A1
:1019A00040F24F43C5F2020398422DDC40F24F2330
:1019B000C5F2020398424BDC40F24F13C5F202031A
:1019C000984200F383805023C5F20203984200F04E
:1019D000CB80D023C4E000BF40F24F63C4F20203C7
:1019E000984245DC40F24F53C4F20203984277DC40
:1019F00040F25043C4F20203984200F0B58040F236
:101A0000D043C4F20203ADE0884243DC40F24F53BE
:101A1000C5F2020398426FDC40F25043C5F2020364
:101A2000984200F0A18040F2D04399E040F24F3359
:101A3000C4F20203984269DC40F25023C4F202036C
:101A4000984200F0918040F2D023C4F2020389E072
:101A500040F24F33C5F20203984263DC40F2502358
:101A6000C5F20203984200F07F8040F2D02377E075
:101A700040F24F73C4F2020398425DDC40F25063BF
:101A8000C4F2020398426FD040F2D063C4F2020362
:101A900068E000BF40F24F73C5F20203984257DC82
:101AA00040F25063C5F2020398425DD040F2D06329
:101AB00056E000BF40F25013C4F20203984253D0E4
:101AC00040F2D013C4F202034CE000BF40F25013C6
:101AD000C5F20203984247D040F2D01340E000BF65
:101AE00040F25053C4F2020398423DD040F2D0532A
:101AF000C4F2020336E000BF40F25053C5F20203C5
:101B0000984231D040F2D0532AE000BF40F2503327
:101B1000C4F20203984227D040F2D033C4F2020349
:101B200020E000BF40F25033C5F2020398421BD0C0
:101B300040F2D03314E000BF40F25073C4F202030D
:101B4000984211D040F2D073C4F202030AE000BF01
:101B500040F2D073C5F20203984205D040F25073B0
:101B6000C5F20203984201D1236C1A4343698842AB
:101B700023F4430342EA030242614FF0000202648D
:101B8000636C43648264C264026511DC40F24F718D
:101B9000C4F2020188421BDC40F25061C4F202012F
:101BA00088422DD040F2D061C4F2020126E000BF8D
:101BB00040F24F71C5F20201884215DC40F25061DB
:101BC000C5F2020188421BD040F2D06114E000BF90
:101BD00040F25071C4F20201884211D040F2D0713B
:101BE000C4F202010AE000BF40F2D071C5F2020166
:101BF000884205D040F25071C5F20201884202D1FC
:101C00000021416581650021C167A06C012220652A
:101C10000020A16584F85420B0BD000000284FF0DA
:101C2000010318BF002A01D1184670474369012BF0
:101C300004D1042101230161184670472DE9F041C8
:101C400086B0036842EA01070E461F43002908BF19
:101C50001646002B18BF1E467740B7F5803F09D2C5
:101C600053B193F8206051B191F82070BE4206D074
:101C700028E000BF052126E029B191F8206092F804
:101C80002070BE421ED10227077300270761176A22
:101C900000247E08CFF6010466F3596407F00207BA
:101CA00066F39A6407F10505A3B1E9B1904601AA6C
:101CB000019506460F46FFF701F8E8B106203061AE
:101CC00002E000BF04210161012306B0BDE8F0413C
:101CD00018467047E1B14FF6FC731A402243016089
:101CE00041F82520022124E04FF6FC7119402143E0
:101CF00042F8251002601AE00399B268304691421A
:101D00000AD1416861B14FF6FC721140214305E0F0
:101D1000026001210DE000BF57F8251048F825109A
:101D20004FF6FC7101EA0801214347F8251081684C
:101D300001318160002301210361017306B0BDE818
:101D4000F04118467047000000284FF0010218BF0C
:101D5000002901D11046704790F8542090F8543073
:101D6000022B18BF052A07D140218165002180F888
:101D70004C100120704700BF0A7B022A04D10122C7
:101D80000A611046704700BF026840F24F63C5F217
:101D900002039A4210DC40F24F73C4F202039A42EB
:101DA0001ADC40F25063C4F202039A422CD040F293
:101DB000D063C4F2020325E040F24F73C5F2020380
:101DC0009A4215DC40F25063C5F202039A421BD0DE
:101DD00040F2D06314E000BF40F25073C4F202033B
:101DE0009A4211D040F2D073C4F202030AE000BF5D
:101DF00040F25073C5F202039A4205D040F2D0730C
:101E0000C5F202039A420DD1036D4A68812B03D1BA
:101E100022B1416700207047002AFAD004200861EF
:101E2000012070470A6892F820209207ECD5032021
:101E30000861012070470000002804BF012070479E
:101E4000016839B142684AB18A4204BF0020704734
:101E500007E000BF02210161012070474269012AA9
:101E600004D1042101610120704700BFF0B50222B6
:101E70000273002202610A6A40F2000E5308CFF694
:101E8000010E63F3596E02F00202856863F39A6EE5
:101E9000531D4FF6FC72002D01EA020C47D0012DB4
:101EA00002D1654643E000BF4FF6FF726E1EAC1EC6
:101EB00021EA0202032C06F0030401D265461EE06B
:101EC00026F003064FF6FC77654600BF154355F82C
:101ED0002350043E05EA070545EA020555F823505C
:101EE00005EA070545EA020555F8235005EA070506
:101EF00045EA020555F8235005EA0705E6D1B4B1D5
:101F0000154355F823504FF6FC76012C05EA0605DB
:101F10000DD0154355F82350022C05EA060506D0CE
:101F20002A4352F823204FF6FC7402EA04054FF6C8
:101F3000FF7221EA02022A434EEA0C0741600021A7
:101F400042F823700161012101730020F0BD0000FF
:101F5000002804BF0120704780B5D0F874E0BEF1BE
:101F6000000F54D090F8541002680129D2F814C020
:101F700004D0022946D11CF4803143D090F854108B
:101F8000012935D190F84C1001294FF0020134D0CD
:101F9000012380F84C3080F854108EF80C1000218A
:101FA0008165CEF81010516941F4BA415161416E1A
:101FB00019B1516941F400715161006F18B1506954
:101FC00040F400505061DEF800000023016ACFF6B3
:101FD0000103490861F3596361F39A634FF6FF7196
:101FE00020EA010111604FF6FC7108401844D067E7
:101FF0005069002140F001005061BDE88040084672
:10200000704700BF40218165002180F84C100121FC
:10201000BDE8804008467047B0B5044600F0CCFDEE
:10202000002C04BF0120B0BD054694F854000228DE
:1020300024D12068416941F004014161052084F800
:10204000540000BF2168086980041FD400F0B4FD6B
:10205000401B0628F6D3A06D40F01000A0650320B9
:1020600084F8540094F8500000064FF0010001D5A8
:10207000616F0873002184F84C10B0BD2020A0656A
:102080000120002184F84C10B0BD00BF4869012236
:1020900040F002004861042084F854004FF4FE40F0
:1020A000C86084F8542094F8500000064FF00000F7
:1020B000E0D5636F1A738864002184F84C10B0BDBA
:1020C00080B190F8541002290AD1042180F85410EC
:1020D000006842F2040241691143416100207047E7
:1020E0002021816501207047024600284FF0010041
:1020F00008BF7047CB0612D5136840F6FF7223EA7B
:10210000020203F57B63C3F3C41301F0110198408D
:102110001129516814BF21EA0000084350600020D3
:1021200070470000806D704790F8540070470000C1
:1021300010B504680C23214604F57B6263F30B01A0
:10214000C2F3C4120968D140C90700F0A580216913
:10215000490544BF61695FEA41514BD421690905D2
:1021600044BF61695FEA01514CD42169C90444BF8D
:1021700061695FEAC1414DD42169490444BF616985
:102180005FEA41414ED42169890544BF61695FEA34
:1021900081514FD42169890444BF61695FEA81415B
:1021A00054D42169C90544BF61695FEAC15175D43E
:1021B000816D002908BF10BD01684A6942F0020222
:1021C0004A614969C9074FF0030108BF012180F83E
:1021D000541090F85010090602D5416F01220A737D
:1021E000816E0022002980F84C2055D0BDE81040B7
:1021F000084700BF4FF48061E160816D41F001014B
:102200008165ABE74FF40061E160816D41F002014F
:102210008165AAE74FF48051E160816D41F00401CE
:102220008165A9E74FF48041E160816D41F00801CB
:102230008165A8E74FF40071E160426E002AA9D0E1
:102240000446904720462468A4E700BF4FF400519D
:10225000E16090F8541004292AD1616921F40051F9
:102260006161616941F0020161616169C9074FF013
:10227000030108BF012180F8541090F8501009069E
:1022800004D5416F01220A730021A164C16E0022AE
:10229000002980F84C20A9D110BD00BF90F8501043
:1022A000090611D4A16CD9B900F1540216E000BF9F
:1022B000052180F85410026F002A3FF472AF0446E3
:1022C0009047204624686CE7E16F49B9A16C39B9A1
:1022D000012180F85410416F01F10C0201211170AD
:1022E0004FF44071E160016E0022002980F84C201B
:1022F0003FF45EAF04468847204659E7B0B5044630
:1023000000F05AFC002C04BF0120B0BD002105469E
:10231000206884F84C10022184F85410416941F07F
:102320000601416120684169C9070BD000F044FCF7
:10233000401B0528F6D9012003221021A16584F84D
:102340005420B0BD216A426904F1100522F4430211
:1023500011434161E36926CD1A4311434F22C5F26F
:10236000020240F24F6C904241EA050EC5F2020CA7
:102370001CDC40F24F43C4F20203984232DC40F2CC
:102380004F23C4F20203984256DC40F24F13C4F2CA
:102390000203984200F394805023C4F2020398424F
:1023A00000F0E880D023C4F20203E1E040F24F43A2
:1023B000C5F2020398422DDC40F24F23C5F202031E
:1023C00098424BDC40F24F13C5F20203984200F3EF
:1023D00083805023C5F20203984200F0CB80D023C3
:1023E000C4E000BF40F24F63C4F20203984245DCF0
:1023F00040F24F53C4F20203984277DC40F250435C
:10240000C4F20203984200F0B58040F2D043C4F217
:102410000203ADE0604543DC40F24F53C5F20203D6
:1024200098426FDC40F25043C5F20203984200F03C
:10243000A18040F2D04399E040F24F33C4F202034E
:10244000984269DC40F25023C4F20203984200F043
:10245000918040F2D023C4F2020389E040F24F336E
:10246000C5F20203984263DC40F25023C5F2020336
:10247000984200F07F8040F2D02377E040F24F7323
:10248000C4F2020398425DDC40F25063C4F20203DE
:1024900098426FD040F2D063C4F2020368E000BFFC
:1024A00040F24F73C5F20203984257DC40F250638A
:1024B000C5F2020398425DD040F2D06356E000BFFF
:1024C00040F25013C4F20203984253D040F2D013AA
:1024D000C4F202034CE000BF40F25013C5F2020305
:1024E000984247D040F2D01340E000BF40F2505332
:1024F000C4F2020398423DD040F2D053C4F202032A
:1025000036E000BF40F25053C5F20203984231D08A
:1025100040F2D0532AE000BF40F25033C4F202032D
:10252000984227D040F2D033C4F2020320E000BF2B
:1025300040F25033C5F2020398421BD040F2D03330
:1025400014E000BF40F25073C4F20203984211D06D
:1025500040F2D073C4F202030AE000BF40F2D0732D
:10256000C5F20203984205D040F25073C5F202034F
:10257000984212D1D4E909354FF07C72E16A02EB3E
:1025800005524FF47C7505EB031302F07C7203F4E3
:102590007C73114319434EEA010E016C231D01F0B7
:1025A000802141EA0E0101640ECB256B01F07F0111
:1025B0001143B3F5007F41EA050225D0B3F5806FE2
:1025C00040F0EC8040F2CF71C4F2020188421FDD7E
:1025D00040F2CF31C5F20201884239DC40F2CF111E
:1025E000C5F20201884261DCCF21C5F202018842B6
:1025F00000F3AA8040F2D071C4F20201884200F0D8
:10260000CB805021C4E000BF42F40072C6E000BF9E
:1026100040F2CF31C4F2020188422FDD40F2CF51A7
:10262000C4F20201884261DC40F2CF41C4F20201EF
:10263000884200F3078140F2D031C4F2020188429F
:1026400000F0AA8040F25041C4F20201A2E000BFB3
:1026500040F2CF51C5F20201884237DC40F2CF414F
:10266000C5F20201884277DC40F2D031C5F20201A6
:10267000884200F0918040F2504189E040F2CF1151
:10268000C4F20201884243DD40F2CF21C4F20201CC
:1026900088424DDC40F2D011C4F2020188427BD066
:1026A00040F25021C4F2020174E000BF40F2CF2199
:1026B000C5F20201884259DC40F2D011C5F2020194
:1026C000884269D040F2502162E000BF40F2CF6101
:1026D000C5F20201884253DC40F2D051C5F202013A
:1026E000884259D040F2506152E000BF40F2CF61C1
:1026F000C4F20201884200F3B18040F2D051C4F22A
:102700000201884248D040F25061C4F2020141E027
:102710005021C4F2020188423ED0D021C4F202010D
:10272000884239D040F25011C4F2020132E000BFB9
:1027300040F2D021C4F2020188422DD040F2503143
:10274000C4F2020126E000BFD021C5F20201884296
:1027500022D040F250111BE040F2D041C5F20201FC
:10276000884219D040F2505112E000BF40F2D0210F
:10277000C5F2020188420FD040F2503108E000BF9C
:1027800040F25071C5F20201884205D040F2D0619A
:10279000C5F2020188426DD142F48062416C43F27D
:1027A0008013C3F6C04319401143416400216045C2
:1027B000816411DC40F24F71C4F2020188421BDCDB
:1027C00040F25061C4F2020188422DD040F2D06143
:1027D000C4F2020126E000BF40F24F71C5F20201CF
:1027E000884215DC40F25061C5F2020188421BD0DC
:1027F00040F2D06114E000BF40F25071C4F2020117
:10280000884211D040F2D071C4F202010AE000BF48
:1028100040F2D071C5F20201884205D040F25071F9
:10282000C5F20201884202D1002141658165002183
:10283000C167606B012220650020A16584F85420E7
:10284000B0BD00BF40F2D041C4F202018842A3D023
:1028500040F25051C4F202019CE700BF40F2D06147
:10286000C4F20201884297D040F25071C4F20201D2
:1028700090E700BF40F2D071C5F20201884208BF64
:1028800042F480628AE7000000284ED090F84CC0E5
:10289000BCF1010F04BF022070474FF0010C80F81B
:1028A0004CC090F854C0BCF1010F39D110B54FF0B5
:1028B000020C80F854C04FF0000CC0F858C0D0F89B
:1028C00000C0D0F864E0DCF84840BEF1000FC3EA75
:1028D0000403CCF848304FF4FE43CCF80C30CCF86D
:1028E0004C10CCF85020DCF8141041F4BA41CCF86C
:1028F000141005D0DCF8141041F40071CCF8141059
:10290000006F28B1DCF8140040F40050CCF814003B
:10291000DCF8140040F00100CCF81400002010BDD9
:1029200040218165002180F84C1001207047000093
:10293000B0B5044600F040F9054640F20800C2F286
:1029400000000078611C18BF044400BF00F034F997
:10295000401BA042FAD3B0BD2DE9F04F84B00E6801
:102960000290002E00F01E81DDF808B040F2000950
:102970000BF12000019047F67F70C0F22F0000EAB3
:102980009B2000234FF0010A00274FF00008C4F2FB
:1029900002694FF0000C009011E000BF40F2000906
:1029A000C4F202690E680CF1010C36FA0CF008F161
:1029B000020807F1040703F1080300F0F3800AFAA4
:1029C0000CF516EA0500EDD003900298484527D093
:1029D0004E6846F01002122A5ED16FF0030000EA42
:1029E0005C02019C07F01C050F2054F802E000FA7D
:1029F00005F608692EEA060600F00F00A8403043ED
:102A0000A050DBF8000003224E6802FA08F290435F
:102A100006F0030202FA08F24FF0010A104346E002
:102A2000D9F800004E6842F2FC0206F00106A84305
:102A300006FA0CF6C0F60402304302EBCC06C9F8E5
:102A40000000D6F804E06FF0030052F83CB000EA52
:102A50005E051C205D4400EA8E062C6A0F2000FAF9
:102A600006F20B2024EA020200FA06F422432A624C
:102A7000DBF800204FEA4E04032000FA04F50220A0
:102A8000AA4300FA04F42243CBF800204E684FF02A
:102A9000010A122E10D936E0DBF80000032202FAF8
:102AA00008F2904306F0030202FA08F21043E646E9
:102AB000CBF80000122E26D80AFA06F010F0061FF6
:102AC0001ED04FEA4E090322DBF8080002FA09F58E
:102AD000CA68A84302FA09F21043CBF80800DBF8F1
:102AE00004000AFA0EF29043320902FA0EF2104381
:102AF000032ECBF804003FF451AFED4309E000BFD3
:102B0000032E3FF44FAF4FEA4E09032000FA09F0BD
:102B1000C543DBF80C008A68284002FA09F210432A
:102B2000F200CBF80C007FF539AF42F2000E2CF02A
:102B30000300C4F2026E7044026E03F018060F2503
:102B4000B540AA43009D05FA06F632430266DEF858
:102B50000000039C4A6840EA0406D50258BF20EAF8
:102B60000406CEF80060DEF80400950240EA040690
:102B700058BF20EA0406CEF80460DEF8840095030E
:102B800040EA040658BF20EA0406CEF88460DEF866
:102B90008000D20340EA040658BF20EA0406CEF8BB
:102BA0008060FBE604B0BDE8F08F00001823002A27
:102BB00008BF2823C15070474BF69050C2F20A005C
:102BC0000068704790F84120202A03D190F84020F7
:102BD000012A01D102207047242280F84120026896
:102BE000136823F001031360136823F48053136008
:102BF000136819431160116841F00101116020212F
:102C000080F84110002180F840100020704700003B
:102C100090F84120202A03D190F84020012A01D1C8
:102C200002207047242280F841200268136823F0B4
:102C300001031360136823F4706343EA01211160F8
:102C4000116841F001011160202180F8411000213C
:102C500080F8401000207047002804BF0120704712
:102C600010B590F8411031B9002180F840100446A9
:102C700000F0FEFA2046242180F8411090E812105E
:102C8000C3680A68012B22F001020A6024F0706216
:102C90000A618A6822F400428A6003D14CF400423F
:102CA0008A6007E04CF40442022B8A6004BF4FF4B0
:102CB00000624A604A6800F1100442F0007242F477
:102CC00000424A60CA6822F40042CA601CCC1A431F
:102CD00042EA0422C369CA60026A1A430A600A68A7
:102CE00042F001020A6000212022416480F8412064
:102CF000016380F84210002010BD00002DE9F04F64
:102D000081B0044690F84100202803D194F8400097
:102D1000012803D1022001B0BDE8F08F01200D464B
:102D20001746984684F84000FFF746FF216806469C
:102D30008A69120427D4222084F84100102084F8E4
:102D40004200002060646762A4F82A806063608D9E
:102D500049F6000C40F20008B0F5807FCFF6004C39
:102D6000C0F2FF1822D34B682A466FF39F2203EA72
:102D70000C031A43424402F510524A60FF2224E039
:102D800088690004D7D5FFF717FF801B21681A2830
:102D9000F6D388690004F3D5606C40F020006064CD
:102DA000202084F84100012071E000BF628D2B4695
:102DB0006FF39F23D7B2486843EA074300EA0C0049
:102DC000184308F59233184348602285608D0A9FA6
:102DD000002845D06FF39F2505F100794FF0FF0AD9
:102DE0000CF5806B0DE000BF608D21682085C0B2BE
:102DF0004A6849EA004002EA0B0210434860608DCD
:102E000070B320463946324606F06EF870BB206833
:102E1000616A406A0870606A218D01306062481EF4
:102E20002085618D01396185618D0029E7D000041D
:102E3000E5D12046802100223B46009605F0E0FFC8
:102E4000A0B9608DB0F5807FCED32068A4F828A00B
:102E5000416801EA0B01294341EA08014160CEE7DC
:102E600020463946324606F0A5F818B1012001B0D7
:102E7000BDE8F08F20682021C16142684EF6000352
:102E8000CFF600631A404260002084F84110002110
:102E900084F8421084F8401001B0BDE8F08F0000C3
:102EA0002DE9F04F81B0044690F84100202803D16D
:102EB00094F84000012803D1022001B0BDE8F08F52
:102EC00001200D461746984684F84000FFF774FE2F
:102ED000216806468A69120427D4212084F841001B
:102EE000102084F84200002060646762A4F82A8001
:102EF0006063608D49F6000C40F20008B0F5807FF9
:102F0000CFF6004CC0F2FF1822D34B682A466FF36D
:102F10009F2203EA0C031A43424402F500524A601E
:102F2000FF2224E088690004D7D5FFF745FE801B07
:102F300021681A28F6D388690004F3D5606C40F044
:102F400020006064202084F84100012071E000BF6F
:102F5000628D2B466FF39F23D7B2486843EA07433D
:102F600000EA0C00184308F59033184348602285A6
:102F7000608D0A9F002845D06FF39F2505F10079E9
:102F80004FF0FF0A0CF5806B0DE000BF608D2168EB
:102F90002085C0B24A6849EA004002EA0B021043A9
:102FA0004860608D70B320463946324606F040F8DE
:102FB00070BB606A226810F8011B91626062608DCC
:102FC00001386085208D01382085618D0029E8D089
:102FD0000004E6D12046802100223B46009605F001
:102FE0000FFFA8B9608DB0F5807FCFD32068A4F81B
:102FF00028A0416801EA0B01294341EA0801416028
:10300000CFE700BF20463946324605F0D3FF18B15E
:10301000012001B0BDE8F08F20682021C161426825
:103020004EF60003CFF600631A404260002084F899
:103030004110002184F8421084F8401001B0BDE82E
:10304000F08F00002DE9F04F81B0044690F8410068
:10305000202807D10A9F4FB10B9E3EB194F8400043
:1030600001280BD1022001B0BDE8F08F4FF40070B1
:103070006064012001B0BDE8F08F00BF01209A46D6
:1030800090468B4684F84000FFF796FD2168054680
:103090008A6912044BD422200C9A84F84100402003
:1030A0004FF0000984F84200C4F8449067626685D6
:1030B000C4F83490584617466FF39F205FFA8AF29F
:1030C0004B6849F60006CFF60046834640EA0240C8
:1030D00003EA0602104400F50050486020463946D5
:1030E0002A4605F0A5FFC0B92068BAF1010F09D042
:1030F0004FEA18218162204639462A4605F098FF9A
:1031000058B920685FFA88F1816220464021002288
:103110003B46009505F074FE10B384F84090012002
:1031200001B0BDE8F08F00BF88690004B3D5FFF798
:1031300043FD401B21681A28F6D388690004F3D5A3
:10314000606C40F020006064202084F84100002082
:1031500084F8420084F84000012001B0BDE8F08FFF
:10316000608D40F2000ABC46B0F5807FC0F2FF1AC5
:1031700008D320680AF5105350F8041F01EA06022C
:10318000FF2109E0618D2068CBB250F8042F324056
:1031900042EA03420AF592331A4342EA0B020BF168
:1031A00000784FF0FF0906F58066674602602185CA
:1031B0000CE000BF608D21682085C0B24A6848EAF3
:1031C0000040324010434860608DA8B3204604217F
:1031D00000223B46009505F013FE00287FF449AF1E
:1031E0002068616A406A0870606A218D01306062FF
:1031F000481E2085618D01396185618D0029E3D0EC
:103200000004E1D12046802100223B46009505F0D4
:10321000F7FD00287FF42DAF608DB0F5807FC9D316
:103220002068A4F828904168314041EA0B0141EA46
:103230000A014160C8E700BF204639462A4605F02A
:10324000B9FE00287FF415AF20682021C1614268D3
:103250004EF60003CFF600631A404260002084F867
:10326000411084F8420084F8400001B0BDE8F08FBE
:10327000B0B5BAB0044602A800250830C02139957F
:10328000CDE93755CDE93555FDF77EFB206845F68C
:103290000001C4F20001884202D03AB0B0BD00BFC4
:1032A0008020029002A8039501F012FF002818BFA9
:1032B000FDF7F0FD40F68C44C4F20264206835A9A5
:1032C00040F002002060206800F0020001900198A8
:1032D0004FF4C040359012203690012037900020E6
:1032E00038900420399040F20040C4F20220FFF7E9
:1032F00033FB206940F480002061206900F48000E5
:10330000019001983AB0B0BD40F20041C4F203010F
:103310000A68D2071CBF012070470A6822F0040225
:10332000104308600020704740F20041C4F20301DE
:10333000086840F0010200200A60704740F208006F
:103340004BF69051C2F20000C2F20A0100780A68FE
:10335000104408607047000080B542F20000C4F2DB
:103360000200016841F480710160032000F0C6F89A
:1033700002F0AEFB40F62041C4F20261096842F25D
:10338000E40201F00F01C0F60402515CC84040F2B3
:103390006801C2F2000108600F2000F009F800285F
:1033A0001CBF012080BD00F055F8002080BD00004A
:1033B000B0B588B040F69C41C4F202610A68044688
:1033C00042F010020A60096802A801F0100102919F
:1033D000029901A902F0E0FA02F01AFB4DF68361AE
:1033E000C4F21B31A0FB01014FF0FF3000EB914113
:1033F0004BF6346041F20003C2F2040040F2E732BF
:10340000C4F200030025C0E90031C0E902520561A1
:1034100004F0D0F830B94BF63460C2F2040004F086
:10342000FDF838B10546312000F02AF8284608B0EA
:10343000B0BD00BF0F2C0BD8312021460022002543
:1034400000F030F840F20C00C2F200000460EAE73D
:103450000125E8E781B040F69440C4F202600168BB
:10346000002241F00401016000680F2100F0040017
:10347000009000986FF0010001B000F013B8000058
:10348000002848BF70471C2200F01F0102EAD0004C
:10349000012202FA01F14EF20012CEF20002815036
:1034A0007047000010B54EF60C5CCEF2000CDCF854
:1034B0000030C3F3022E8EF00704042C28BF04242E
:1034C000BEF103034FF0FF3E38BF00230EFA04F4B1
:1034D000A14399400EFA03F39A43114300F00F02FF
:1034E00000F160430901043A03F564436244002893
:1034F00048BF02F10C03197010BD00004EF60C51CC
:10350000CEF200010A684FF6FF031A4060F30A2268
:1035100042F0806040F0FD70086070472DE9F04F88
:1035200086B044F2040BC4F20C2BD0F800C0DBF8D8
:10353000000040F2010A00F00302013AB2FA82F2FE
:10354000560900F03002103AB2FA82F2540900F43F
:103550004072A2F58072B2FA82F2C0F2001A8303BE
:103560004FEA521900F4A022534658BF4FF00113FE
:10357000B2F5803F4FF0000818BF434600F0A06747
:103580008001524658BF4FF00112DBF80400B7F13A
:10359000807F4FF0000500F00307059518BF4246F5
:1035A000012F08BF022600F030070296102F08BF37
:1035B000022400F440770AF101080094B7F5807FF7
:1035C00008BF4FF00209444600F4A02786035CBF01
:1035D0000224C0F20104B7F5803F18BF1C460394D3
:1035E000444600F0A06380015CBF0224C0F20104E5
:1035F000B3F1807F5BF8040C18BF14460194DBF82C
:103600000030C0074FF4007404BF40F22224C0F21F
:10361000044483EA0402180920EA521603F44070B5
:10362000DF03A0F5407023EA5207B0FA80F009D515
:10363000550305D49D03554658BF4FF0011500E0D2
:1036400000250595DD0104914946E14607F0010E8C
:1036500006F0010C4FEA501506D5500104D498012C
:1036600058BF4FF0011A01E04FF0000A5F46DBF847
:1036700004B0724684EA0B04A00758BF02225FEA36
:10368000CB7008BF7246A006634658BF02235FEAAC
:10369000CB600BF4407058BF6346B0F5407F08BF65
:1036A00002250226AE465FEACB30C0F2010601D405
:1036B0004D4608E060034D4605D45FEA8B30404636
:1036C00058BF304605905FEACB10894602D4049972
:1036D00008E000BF0499600104D45FEA8B1058BF72
:1036E000B046C24641F2004CC4F20D2CDCF800009A
:1036F000C00701D1002006E0DCF8000020F0010046
:10370000CCF8000001203C4642F200470490C4F28D
:103710000D27009EDDF814B03868C00702D1B84606
:1037200008E000BF3868B84620F00100386004980F
:10373000023004907046654508BF484604EB80009F
:1037400050F8047C27F4807740F8047C54F8040C8B
:10375000C0073BD165451046029F08BF3846002888
:1037600065D004EB8007654557F8040C20F0010B89
:10377000184608BF304647F804BC38B104EB800057
:1037800050F8047C27F0100740F8047CDDF814B0F2
:1037900065455846039F08BF384640B1012727EAD0
:1037A000000054F8207027F4803744F820706545F5
:1037B0005046019F08BF3846C8B3012727EA0000DA
:1037C00054F8207027F080772FE000BF54F8040CE5
:1037D000654520F0010044F8040C28D104EB820078
:1037E00050F8047C47F0020740F8047C3BB104EB3E
:1037F000830050F8047C47F0200740F8047CBBF1BC
:10380000000F08D0012020EA0B0054F8207047F484
:10381000802744F82070BAF1000F08D0012020EA78
:103820000A0054F8207047F0806744F82070029F27
:10383000654508BF1746D1E9002008BF1E46BA42B9
:1038400018D1019BB0422DD1C8686545039A08BFC5
:103850005A46904226D1086965451A4608BF524625
:1038600090421FD154F8040C40F0010044F8040CBD
:103870004DE000BF019BB04214D0886865454A46C0
:1038800008BF724690420DD0C8686545039A08BFCC
:103890005A46904206D0086965451A4608BF524606
:1038A000904234D104EB870050F8042C22F001023E
:1038B00040F8042C3EB104EB860050F8042C22F0B2
:1038C000100240F8042C654508BFF14604EB89005E
:1038D000654550F8042C039E22F4807208BF5E46B2
:1038E00040F8042C3EB10120B04354F8202022F4CB
:1038F000803244F82020654508BF53463BB1012083
:10390000984354F8202022F0807244F820208868E0
:103910004FF4407304EB8000654550F8042C08BF59
:103920004FF4807322F440721A4440F8042C486922
:10393000421EFF2A11D854F8043CC3F307439A42AD
:103940000BD9002354F8042CCFF6FF7303EB00408F
:1039500022F47F02104344F8040C54F8042C086845
:10396000D207A0F1010054F82030474623F00302AB
:1039700028D10323654508BF01231A4344F82020BA
:10398000486860B104EB8000302350F8042C654592
:1039900008BF102322F020021A4340F8042CC86804
:1039A000C20329D4C0B3012222EA000054F8202027
:1039B0004FF0A06322F0E062654508BF4FF08073CE
:1039C00027E000BF42F0010244F82020486840B1DF
:1039D00004EB8000012350F8042C63F3051240F837
:1039E000042CC868C2032BD4C8B33E464FF0807283
:1039F0006FF0E06329E000BF012222EA000054F8E2
:103A000020204FF4A02322F4E022654508BF4FF4A4
:103A100080331A4444F820200869C1032CD40028BC
:103A200044D0012121EA000054F820104FF0E06258
:103A300021F0E061654508BF4FF0407229E000BF0A
:103A40003E464FF480326FF4E023012727EA00005E
:103A500054F820703B401A43374644F82020086948
:103A6000C10319D410B3012121EA000054F8201039
:103A7000032262F31A6117E0012121EA000054F8E1
:103A800020104FF4E02221F4E021654508BF4FF4F7
:103A90004032114408E000BF012121EA000054F83F
:103AA0002010032262F3124144F82010DDF8108048
:103AB0005FEAC87006D15FEA88700CD4002006B0B7
:103AC000BDE8F08FDCF8000040F00100CCF8000009
:103AD0005FEA8870F2D5386840F001003860002055
:103AE00006B0BDE8F08F0000F0B581B00446FFF7E6
:103AF00063F8216D11F00C0F4ED005462068016867
:103B000049074FD4002021680A6A92065AD50868EE
:103B100040F002000860A66D086A800710D4002EED
:103B200054D0701C31D1086A800709D4086A800714
:103B30005CBF086A5FEA807002D4086A8007F2D529
:103B400002264E62A76D086A80065AD5781C4ED0B0
:103B50006FB900BFFFF730F82068016A890639D4D1
:103B6000006A8006F6D44CE0006A800649D5FFF76B
:103B700023F8411B2068B942F6D9016A8906F3D5BA
:103B800028E000BF086A8007DAD4FFF715F8401B69
:103B90002168B042F6D91CE010206065012001B018
:103BA000F0BD00BF016821F004010160E06CFEF788
:103BB00033FA00281ABF04216165002021680A6ACF
:103BC0009206A4D40221216501B0F0BDFEF7F4FFF6
:103BD0002168086A4FF400702065606D40F00100B4
:103BE0006065012001B0F0BD086A800609D5086A49
:103BF000800606D5086A800644BF086A5FEA8060CE
:103C0000F2D42665002001B0F0BD0000F0B581B00F
:103C100015460F460446FEF7CFFF216D06462429C0
:103C200012D0142906D0022909D1E068B0F1806FC2
:103C300005D00EE0386820F00100022809D01020DD
:103C40006065012001B0F0BD386840F00200032833
:103C5000F5D12068016A89062DD5691C21D065B986
:103C6000FEF7AAFF2068016A89060FD4006A800661
:103C7000F6D420E0006A80061DD5FEF79DFF811B6B
:103C80002068A942F6D9016A8906F3D54FF400707D
:103C90002065606D40F00100D2E700BF016A89062F
:103CA00009D5016A890606D5016A890644BF016AF9
:103CB0005FEA8161F2D4002060652046394606F053
:103CC00065FB18B1012001B0F0BD00BFB86B48B171
:103CD0003868022832D0012828D090B3002001B0E3
:103CE000F0BD00BF2168086A80070FD4A5B3681C27
:103CF00015D1086A800709D4086A80075CBF086A82
:103D00005FEA807002D4086A8007F2D500200222A0
:103D10004A6201B0F0BD00BF086A8007F6D4FEF722
:103D20004BFF801B2168A842F6D918E0206D24289B
:103D300007D014202065002001B0F0BD206D1428AC
:103D400004D104202065002001B0F0BD24202065AE
:103D5000002001B0F0BD00BFFEF72EFF2168086A09
:103D60004FF400702065606D40F001006065012037
:103D700002224A6201B0F0BDB0B502680446906804
:103D8000082340F00200906041F20040C4F20D2090
:103D900082424FF20000C4F20C20236507D042F2A9
:103DA0000043C4F20D239A420AD100F580600268F4
:103DB00042F00102026006F003F8002501E000BFB6
:103DC00001252046FFF790FE2168886820F0020256
:103DD00028468A60B0BD0000F0B581B00446FEF709
:103DE000EBFE002C00F08980054600206065216D07
:103DF00011B101B0F0BD00BF204600F0DFF841F284
:103E00008830A0652068D4E903C2636986684CF2F3
:103E1000F401CFF6E00131400026CFF6FF7606EB45
:103E200002426FF0FF0E666B41EA0C010EEB0323BA
:103E30001143E7693143194339438160C168226AFC
:103E400021F4E0211143C160216BA26B42EA0141E0
:103E50000161E16B41610168626821F47C510EEB04
:103E6000022211430160016A89062FD4C168D4E996
:103E7000097621F0FF01013F3943A268A369C160BF
:103E80000168022B21F0400141EA02010160D0F8F3
:103E90000811E26A21F0A04141EA060141EA02016B
:103EA000C0F80811016841F00101016003D1816887
:103EB00041F002018160E068B0F1806F14BF022020
:103EC00001202065002001B0F0BD00BF41F289361D
:103ED00003E000BF016A8906C8D5FEF76DFE411BED
:103EE0002068B142F6D3016A8906F3D54FF4007019
:103EF0002065606D40F001006065012001B0F0BDFB
:103F0000F0B581B00D460446FEF756FE216D04293A
:103F100028D106462068A76D016A890635D5791C27
:103F200029D067B9FEF748FE2068016A89060FD4D8
:103F3000016A8906F6D428E0016A890625D5FEF7CC
:103F40003BFE811B2068B942F6D9016A8906F3D588
:103F50004FF400702065606D40F001006065012045
:103F600001B0F0BD10206065012001B0F0BD00BFC0
:103F7000016A890609D5016A890606D5016A89069A
:103F800044BF016A5FEA8161F2D488212165296812
:103F9000082908D16A68C0F83021102242620268FC
:103FA00042F480120260026822F00802114341F0DC
:103FB00040510160002001B0F0BD00002DE9F04348
:103FC000B9B0044602A800250830C0213895CDE9D3
:103FD0003655CDE93455FCF7D7FC206841F2004155
:103FE000C4F20D21884203D039B0BDE8F08300BF90
:103FF0004FF08060029002A8039501F069F8002854
:1040000018BFFCF747FF40F68C40C4F2026001681D
:1040100040F6000441F4001101600168C4F202247A
:1040200001F4001101910199416834AD41F0100192
:10403000416041684FF0020801F0100101910199BF
:1040400001684FF0000941F0040101600168032696
:1040500001F0040101910199016841F00101016041
:104060000068294600F00100019001980120349079
:104070002046CDF8D480CDF8D890CDE93766FEF74C
:104080006BFC0E2034A981E801030A27204629464B
:1040900037963897FEF760FC0C2034A981E80103BD
:1040A000A4F500602946CDE93767FEF755FC39B025
:1040B000BDE8F0832DE9F04381B015460F46044674
:1040C000FEF77AFD2668B16CD6F81021C7B180469C
:1040D000206D04281AD1306C01230130A064A06C3B
:1040E00060642764306863F31D703060E068B0F18D
:1040F000806F11D1B16415F1010918D154E000BFEE
:1041000008206065012001B0BDE8F08310206065E3
:10411000012001B0BDE8F083D6F8000110F4E06F93
:104120000CBFC6F81021B16415F101093CD0002D77
:1041300065D100BF2068006A10F0060F70D096F8B5
:1041400050003870206CA16C471C481E2764A06486
:10415000A06C0028EED12068016A890711D4002DD7
:104160005ED0B9F1000F34D1016A890709D4016A20
:1041700089075CBF016A5FEA817102D4016A89071D
:10418000F2D5022141622165002001B0BDE8F08333
:1041900096F850003870206CA16C471C481E2764AC
:1041A000A064A06C0028D6D02068016A11F0060F28
:1041B000EED1016A11F0060FEAD1016A11F0060F83
:1041C000E6D1016A11F0060FEFD0E1E7016A890735
:1041D000D7D4FEF7F1FCA0EB08012068A942F5D97D
:1041E00021E000BF276C96F850003870206CA16C5D
:1041F000471C481E2764A064A06C0028ABD0206830
:10420000006A10F0060FEED1FEF7D6FCA0EB080115
:104210002068A94207D8006A10F0060FF4D0E1E741
:10422000FEF7CAFC2068006A4FF400702065606DDC
:1042300040F001006065012001B0BDE8F08300009E
:1042400040F60C0CC4F2026CDCF8302002F4403270
:1042500082420BD1B0F1011F68D3DCF8000040F4BA
:104260008020CCF800000020704700BFDCF8002060
:10427000B0F5803F22F4E02242EA000240F26800FA
:1042800088BF42F48022CCF80020C2F2000000680F
:1042900041F25972CDF2B712A0FB0202900B034615
:1042A000DCF80010B3F1FF3218BF012209041ED45C
:1042B000591C1CD0DCF80010002B1A4618BF012234
:1042C000090414D49BB1DCF800105A1E18BF012257
:1042D00009040CD4012B0AD0DCF800109A1E18BF78
:1042E0000122090403D4022BA3F10403D8D112B391
:1042F000DCF83010421C090416D4AAB1DCF83010E6
:10430000090412D488B1DCF83010090410D4012853
:104310000ED0DCF83010021F090402D40228104627
:10432000E6D1901C10B906E0104620B1002070477D
:1043300001380028FAD103207047000040F62C0015
:10434000C4F20260016841F00101016070470000A1
:1043500040F63C00C4F20260006800F44030704750
:1043600070B540F62846C4F20266F26833683168D8
:1043700034683569E406ED08C1F3032105EAE47504
:1043800001F1010E6FF35F3503F0030300EE105AE5
:104390006FF35F22B8EE400ADFE803F002020C0C74
:1043A00056F8201C090257D4D6F8CC104FEA014C1D
:1043B00054E000BF01EE10EA9FED422AB8EE411A28
:1043C000F16882EE011A6FF35F2102EE101A9FED81
:1043D0003C3AB8EE422A20EE030A30EE020AB7EE6B
:1043E000002A30EE020A21EE000A3168C9035AD5CC
:1043F000F168C1F34621013101EE101AB8EE411AFD
:1044000080EE011ABCEEC11A11EE102A026031686A
:1044100089034DD5F168C1F30641013101EE101A4F
:10442000B8EE411A80EE011ABCEEC11A11EE102A44
:1044300042603168490340D5F168C1F3066101313A
:1044400001EE101AB8EE411A80EE010ABCEEC00A65
:1044500010EE101A816070BD56F820CC42F27C1329
:104460004FEA1C71C0F6040303EB810102EE10EA6F
:1044700091ED001AB8EE422AB8EE411A9FED103ABB
:1044800081EE021A02EE102A20EE030AB8EE422A4A
:1044900030EE020AB7EE002A30EE020A20EE010AE0
:1044A0003168C903A4D40022026031688903B1D401
:1044B0000022426031684903BED40021816070BD92
:1044C000000000390024744B70B540F62C46C4F24D
:1044D000026632693368316834687569E406ED084C
:1044E000C1F3032105EAE47501F1010E6FF35F35B5
:1044F00003F0030300EE105A6FF35F22B8EE400A98
:10450000DFE803F002020C0C56F8241C090257D411
:10451000D6F8C8104FEA014C54E000BF01EE10EA93
:104520009FED422AB8EE411A316982EE011A6FF30B
:104530005F2102EE101A9FED3C3AB8EE422A20EEBF
:10454000030A30EE020AB7EE002A30EE020A21EE2C
:10455000000A3168C9035AD53169C1F346210131D6
:1045600001EE101AB8EE411A80EE011ABCEEC11A23
:1045700011EE102A0260316889034DD53169C1F30B
:104580000641013101EE101AB8EE411A80EE011A0F
:10459000BCEEC11A11EE102A42603168490340D5C1
:1045A0003169C1F30661013101EE101AB8EE411A0A
:1045B00080EE010ABCEEC00A10EE101A816070BDD8
:1045C00056F824CC42F27C134FEA1C71C0F6040367
:1045D00003EB810102EE10EA91ED001AB8EE422AD7
:1045E000B8EE411A9FED103A81EE021A02EE102A3F
:1045F00020EE030AB8EE422A30EE020AB7EE002A95
:1046000030EE020A20EE010A3168C903A4D4002268
:10461000026031688903B1D40022426031684903E5
:10462000BED40021816070BD000000390024744BAD
:1046300070B540F63046C4F202667269336831687C
:104640003468B569E406ED08C1F3032105EAE475B1
:1046500001F1010E6FF35F3503F0030300EE105A12
:104660006FF35F22B8EE400ADFE803F002020C0CA1
:1046700056F8281C090257D4D6F8C4104FEA014C4A
:1046800054E000BF01EE10EA9FED422AB8EE411A55
:10469000716982EE011A6FF35F2102EE101A9FED2D
:1046A0003C3AB8EE422A20EE030A30EE020AB7EE98
:1046B000002A30EE020A21EE000A3168C9035AD5F9
:1046C0007169C1F34621013101EE101AB8EE411AA9
:1046D00080EE011ABCEEC11A11EE102A0260316898
:1046E00089034DD57169C1F30641013101EE101AFC
:1046F000B8EE411A80EE011ABCEEC11A11EE102A72
:1047000042603168490340D57169C1F306610131E6
:1047100001EE101AB8EE411A80EE010ABCEEC00A92
:1047200010EE101A816070BD56F828CC42F27C134E
:104730004FEA1C71C0F6040303EB810102EE10EA9C
:1047400091ED001AB8EE422AB8EE411A9FED103AE8
:1047500081EE021A02EE102A20EE030AB8EE422A77
:1047600030EE020AB7EE002A30EE020A20EE010A0D
:104770003168C903A4D40022026031688903B1D42E
:104780000022426031684903BED40021816070BDBF
:10479000000000390024744B80B584B0024643F613
:1047A000FF7300209B1A70EB010345DA4FF6FF738D
:1047B000C0F21F039B1A70EB010380F2DF806FF0E1
:1047C0007E439B1A4FF0000C7CEB0103C0F21A8170
:1047D0004FF6FF73C0F27F039B1A7CEB0103C0F21C
:1047E000BB8182F400130B4300F0588382F48002F3
:1047F000114340F03E8440F60041C4F20261D1F81A
:10480000E00000F44040B0F5804F00F08B830028BA
:1048100000F025830A68B0F5004F03D112F48062DE
:1048200040F005840A68B0F5404F4FF0000000F0FA
:10483000EC8300F01EBC00BFD2F17F0370EB0103DC
:10484000C0F26880013A61F10001D2F13F034FF0FC
:10485000000373EB0101C0F00C84DFE812F04100AB
:1048600023020A0409020A040A040A04EF010A04E2
:104870000A040A040A040A040A040A04B3010A0422
:104880000A040A040A040A040A040A040A040A04B8
:104890000A040A040A040A040A040A043D020A0477
:1048A0000A040A040A040A040A040A040A040A0498
:1048B0000A040A040A040A040A040A040A040A0488
:1048C0000A040A040A040A040A040A040A040A0478
:1048D0000A040A040A040A040A040A04CF0100BFF5
:1048E00040F60040C4F20260D0F8E01001F003018D
:1048F000012900F01783002900F00E8302680229C5
:1049000003D112F4806240F09283D0F8F0000329C2
:1049100000F0D6BB40F2FF339B1A4FF0000C7CEB4B
:10492000010380F28F8040F6FF739B1A7CEB01033A
:10493000C0F2DC8082F480630B4300F0F18182F4EA
:104940000062114340F0958340F60040C4F20260DB
:10495000D0F8E81011F4407100F0EA82D0F8F020AD
:10496000B1F5807F03D112F0006240F0ED81026862
:10497000B1F5007F00F039813BE100BF4FF6FF73D6
:10498000C0F201039B1A4FF0000C7CEB010380F294
:1049900089804FF6FF73C0F207039B1A7CEB01037B
:1049A000C0F2C28082F400330B4300F0F38182F442
:1049B0008022114340F05D8340F60040C4F2026063
:1049C000D0F8F010D0F8F02001F44071920703D530
:1049D000B1F5807F00F0F280D0F8F020120103D50D
:1049E000B1F5007F00F0B0810068B1F5407F00F4C0
:1049F00000324FF0000004BF4AF22010C0F207005E
:104A000034E300BF6FF078439B1A7CEB0103C0F2E4
:104A1000BB8082F000730B4300F0608282F0806202
:104A2000114340F0268340F60040C4F20260D0F803
:104A3000E410C1F30151DFE811F075027B029A0224
:104A4000A10200BF82F080030B4300F0F98182F4E1
:104A500080730B4300F0CE8182F40072114340F06A
:104A6000088340F60040C4F20260D0F8E81011F468
:104A7000406100F0AD82D0F8F020B1F5806F03D135
:104A800012F0006240F060810268B1F5006F03D15E
:104A900012F4806240F0CB82D0F8F000B1F5406FA4
:104AA0000EE300BF82F480430B4300F0DD8182F40B
:104AB00000430B4300F0AA8182F48032114340F09E
:104AC000D88240F60041C4F20261D1F8E40000F05F
:104AD0000702042A00F27F824BF68030DFE812F0F2
:104AE000AA01F8016E01C902560200BF82F4805388
:104AF0000B4300F0338182F40052114340F0B9823D
:104B000040F60041C4F20261D1F8E400C0F3421261
:104B1000042A00F260824BF68030DFE812F0470290
:104B2000B901D901AA025F0282F400230B4300F00D
:104B30004B8182F48012114340F09B8240F600408A
:104B4000C4F20260D0F8E010C1F38161DFE811F037
:104B5000B60116020F02F00182F400030B4300F0CD
:104B6000CF8182F08072114340F0838240F6004092
:104B7000C4F20260D0F8E010C1F30141DFE811F0A7
:104B80006F01D201E201D80182F000630B4300F013
:104B9000DB8182F08052114340F06B8240F600418D
:104BA000C4F20261D1F8E800D1F8F020920700F4D5
:104BB000004240F10182002A40F0FE814FF40040A3
:104BC00004B080BD40F60040C4F20260D0F8E010AE
:104BD00001F44071B1F5807F00F0A481002900F05C
:104BE0003E810268B1F5007F03D112F4806240F08B
:104BF0001E82D0F8F000B1F5407F61E240F600413E
:104C0000C4F20261D1F8E00000F44060B0F5806FBA
:104C100000F08881002800F022810A68B0F5006F5A
:104C200003D112F4806240F002820A68B0F5406F4E
:104C30004FF0000000F0E9811BE200BF40F60040A9
:104C4000C4F20260D0F8E01001F0C001402900F089
:104C50006981002900F003810268802903D112F4E0
:104C6000806240F0E481D0F8F000C02928E200BF63
:104C700040F60040C4F20260D0F8E01001F03001CC
:104C8000102900F04F81002900F0E98002682029F6
:104C900003D112F4806240F0CA81D0F8F0003029CC
:104CA0000EE200BF40F60040C4F20260D0F8E0100F
:104CB00001F00C01042900F03581002900F0CF80BB
:104CC0000268082903D112F4806240F0B081D0F864
:104CD000F0000C29F4E100BF40F60041C4F202618B
:104CE000D1F8E80000F00700012800F01B8100283F
:104CF00000F000810A68022803D112F4806240F0BB
:104D00009681D1F8F020032803D112F002027FF43B
:104D100055AF0A6804284FF0000000F07681A8E142
:104D200040F60040C4F20260D0F8E01011F44021D7
:104D300000F09580D0F8F020B1F5802F40F0708120
:104D400012F0006200F06C81D0F8F000C0004FF06B
:104D5000FA0058BF4FF4FA4004B080BD40F600415D
:104D6000C4F20261D1F8E4000A6800F40060520560
:104D700002D5002800F05B81096800281CBF41F2C1
:104D80000020C0F27A0001F48061002908BF0846C3
:104D900004B080BD40F60041C4F20261D1F8E800E1
:104DA000C0F30242042A00F216814BF68030DFE89D
:104DB00012F041008F0005006001ED0001A8FFF72F
:104DC00037FC029804B080BD40F60040C4F2026097
:104DD000D0F8E410026801F44051920440F1DA8006
:104DE000002940F0D78046F60040C0F2DC2004B035
:104DF00080BD00BF40F60040C4F20260D0F8E81069
:104E0000C1F38111DFE801F0768E9E9440F60041F7
:104E1000C4F20261D1F8E800C0F30232052A00F2C0
:104E20003181DFE812F007007F0029012F012F01F7
:104E3000B30000BF04B0BDE8804000F0D3BD00BFA8
:104E400040F60041C4F20261D1F8E00000F44050A5
:104E5000B0F5805F00F06680002840F0C98004B0A3
:104E6000BDE8804000F0D4BD40F60041C4F20261CC
:104E7000D1F8E400C0F30222042A00F2AC804BF621
:104E80008030DFE812F0930005002500F600AB004B
:104E900001A8FFF7CDFB019804B080BD40F60040AB
:104EA000C4F20260D0F8E410490411D4D0F8E01044
:104EB000C1F38161DFE801F002625B3C006846F605
:104EC00000418004C0F2DC2101EAE07004B080BD42
:104ED00001A8FFF745FA019804B080BD40F60040F4
:104EE000C4F20260D0F8E810C1F3C101DFE801F0BC
:104EF000021A2A2004B0BDE8804000F0C9BD00BFFE
:104F000040F60040C4F20260D0F8E010C1F3015155
:104F1000DFE801F00208180E04B0BDE8804000F0A0
:104F200097BD00BF04B0BDE8804000F0D1BD00BF18
:104F3000016889064FD58168090225D4D0F8F400AC
:104F40006BE000BF00684AE040F60040C4F2026037
:104F5000D0F8E0100068800301F0407001D500280F
:104F600065D0B0F1007F21D0B0F1807F33D101A8AE
:104F7000FFF7F6F9029804B080BD00BF01A8FFF763
:104F8000A3FA029804B080BD806858E008688006E3
:104F90003ED420E0026892045CD5B1F5805F59D11F
:104FA00043F20060C0F26E1004B080BD01A8FFF7AC
:104FB0008BFA019804B080BDD1F8F00000014FF0E9
:104FC000000056D5002A54D0D1F8F000BEE600BF4C
:104FD00001688906AFD4002004B080BD086842F2A1
:104FE00000414005C0F2F40101EAE07004B080BD68
:104FF0000A68B0F5005F02D112F4806217D10A6826
:10500000B0F5405F4FF0000033D112F0200230D0F5
:105010008868000212D4D1F8F40000040FE000BF49
:105020000268B1F5002F47D112F4806244D042F2F9
:105030000040C0F2F40004B080BD00BF8868C0F337
:10504000036042F27C11C0F6040151F8200004B064
:1050500080BD00BF0068B1F5005F00F480624FF0D2
:10506000000004BF42F20040C0F2F400002A08BF72
:10507000104604B080BD00BF01A8FFF725FA0398D1
:1050800004B080BD00F4E0420B6842F20040B2F58B
:10509000405FC0F2F40002D113F40033E9D1096893
:1050A00011F4806118BF0146B2F5804F18BF00218E
:1050B000084604B080BD00BFD0F8F000B1F5402F25
:1050C00000F002024FF0000008BF900304B080BD62
:1050D0002DE9F04F81B00446006840F6E046C10774
:1050E000C4F202661ED1810724D441072AD40107E5
:1050F00030D4C10636D481063CD4410642D40106E0
:1051000048D4C1054ED4410254D481055AD4410536
:1051100060D4010566D440F628488004C4F20268D1
:105120006DD494E03168226D21F0030111433160A8
:105130008107DAD53168626D21F00C0111433160CD
:105140004107D4D53168A26D21F03001114331609F
:105150000107CED53168E26D21F0C0011143316005
:10516000C106C8D53168226E21F440711143316007
:105170008106C2D5B168626E21F007011143B160AA
:105180004106BCD53168A26E21F440611143316003
:105190000106B6D53168E26E21F440511143316009
:1051A000C105B0D5B168226F21F0C0011143B160D3
:1051B0004102AAD53168626F21F440411143316048
:1051C0008105A4D5B168A26F21F440611143B1609B
:1051D00041059ED53168E26F21F4402111433160D1
:1051E000010598D5B168D4F8802021F440711143AD
:1051F000B16040F628488004C4F2026827D5D4F88C
:1052000090004FEA7011042928D8DFE801F0031359
:105210000B1B1B0004F1080005F06CFD0546B8B936
:105220000EE000BFD8F8001041F48031C8F800103B
:1052300008E000BF04F12C0005F0D6FD054638B9A2
:10524000D4F89000716821F0E001084370600025F7
:105250006078400606D4284629E000BF0125607822
:105260004006F8D5D4F894004FEA3021042939D803
:105270002846DFE801F0032F0B12120004F10800AA
:1052800005F038FD074698B909E000BFD8F80000DE
:1052900040F48030C8F800002846074640B97068DE
:1052A000D4F8941020F4E0600843706000202F468A
:1052B0006178090629D5D4F8A8104FEA31310529BB
:1052C00000F2D281022911D00546B0B1A178C907F8
:1052D0001FD13BE004F12C0005F086FD00280746B5
:1052E000E6D1DCE701200127E2E700BF04F1080076
:1052F00005F000FD00280546E8D1B068D4F8A810F4
:1053000020F4E0400843B06000203D46A178C90782
:105310001CD0D4F88810042900F29E81DFE811F037
:105320000C00060088010C000C0000BFD8F800102B
:1053300041F48031C8F80010074640B97068D4F8CD
:10534000881020F007000843706000202F46A178E5
:1053500089071DD5D4F88C104FEA3141042900F299
:105360007F81DFE811F00B0005006F010B000B00DF
:10537000D8F8001041F48031C8F80010824640B9D6
:10538000B068D4F88C1020F4E0200843B06000200E
:10539000BA46A178490701D4574659E0834656F8E2
:1053A0004C0C5FEA40790BD456F84C0C40F00400EA
:1053B00046F84C0C56F84C0C00F004000090009895
:1053C0004FF60047CFF6FF7758F8070040F001008E
:1053D00048F80700FDF7F0FB054600BF58F8070046
:1053E000C00707D1FDF7E8FB401B0228F6D90320D0
:1053F000032724E05846BBF1000F5F461FD13069F8
:1054000010F4407012D0D4F8C01088420BD030692C
:10541000316920F4407041F480313161316921F407
:10542000803131613061C00740F026813069D4F8A5
:10543000C01020F440700843306100205746B9F195
:10544000000F05D456F84C1C21F0040146F84C1C02
:10545000A178C90618D5D4F8A0104FEAB161032984
:1054600000F2DC80DFE801F00602CE0604F108005D
:1054700005F040FC024640B93068D4F8A01020F096
:1054800040600843306000203A4621680B031FD576
:10549000D4F8983033B1B3F5005F18BFB3F5805F2F
:1054A00040F0C080054668B1CA0414D48A021BD4F7
:1054B0000A022BD4CA0132D48A0139D4490140D41A
:1054C00063E000BF706820F4405018437060002013
:1054D0001546CA04EAD57268D4F89C3022F40062FA
:1054E0001A4372608A02E3D5D4F8A420B2F5804F43
:1054F00005D1D8F8003043F48033C8F80030736821
:1055000023F480431A4372600A02D3D53268D4F878
:10551000B43022F440121A433260CA01CCD532684A
:10552000D4F8B83022F440321A4332608A01C5D52B
:10553000B268D4F8BC3022F018021A43B2604901B4
:1055400023D5D4F8B010B1F5401F0FD0B1F5001F2E
:1055500005D1D8F8001041F40031C8F80010074612
:1055600058B1E178090714D437E000BF04F108000E
:1055700005F0C0FB00280746F3D17068D4F8B010DE
:1055800020F440100843706000202F46E17809079E
:1055900023D5D4F8841059B1B1F1007F10D0B1F106
:1055A000807F29D1D8F8001041F40031C8F80010EC
:1055B00060B1E178C90614D401B0BDE8F08F00BF36
:1055C00004F1080005F096FB0028F2D13068D4F809
:1055D000841020F04070084330603846E178C906F6
:1055E000EAD5B168D4F8AC2021F400411143B16090
:1055F00001B0BDE8F08F00BF0120E178C906DBD51E
:10560000EFE700BFD8F8001041F40031C8F80010EF
:10561000002802467FF439AF2EE700BF01200122A7
:1056200033E700BF01200125CA047FF53FAF52E7F1
:1056300004F12C0005F0D8FB002807467FF487AE64
:105640007CE600BF04F12C0005F0CEFB002882466A
:105650007FF49FAE94E600BF0120012777E600BFEC
:1056600001204FF0010A94E601200125A178C90725
:105670007FF44FAE6AE600BFFDF79EFA054641F2A1
:10568000883B0327306980073FF5D0AEFDF794FAD9
:10569000411B03205945F5D9D1E600002DE9F04F13
:1056A00081B0002800F01C8142F20008C4F2020818
:1056B0000446D8F800000D4600F00F0081420DD9D5
:1056C000D8F8000020F00F002843C8F80000D8F8F0
:1056D000000000F00F00A84240F00281206840F670
:1056E0002049C106C4F202690DD56169D9F80420C8
:1056F00002F07002914206D9D9F8042022F070021B
:105700001143C9F8041001070FD52169D9F8002009
:10571000702303EA1212914207D9D9F8002022F42B
:10572000E06242EA0111C9F8001041070DD5E168B5
:10573000D9F8002002F07002914206D9D9F8002071
:1057400022F070021143C9F8001081070DD5A1683D
:10575000D9F8002002F00F02914206D9D9F80020B2
:1057600022F00F021143C9F80010C00774D120685D
:1057700081070DD5A168D9F8002002F00F029142EF
:1057800006D2D9F8002022F00F021143C9F8001008
:10579000D8F8001001F00F018D420DD2D8F800109A
:1057A00021F00F012943C8F80010D8F8001001F0CB
:1057B0000F01A94240F0948041070DD5E168D9F866
:1057C000002002F07002914206D2D9F8002022F0A7
:1057D00070021143C9F8001001070FD52169D9F8EB
:1057E0000020702303EA1212914207D2D9F8002058
:1057F00022F4E06242EA0111C9F80010C0060DD59A
:105800006069D9F8041001F07001884206D2D9F815
:10581000041021F070010843C9F8040000F058F9A1
:10582000D9F8001042F2E40201F00F01C0F60402C0
:10583000525C40F20C01C2F20001096840F26803B8
:1058400020FA02F2C2F2000308461A6001B0BDE875
:10585000F04FFDF7ADBD00BF606840F61C47C4F2D5
:10586000026798B302282BD0032835D1D9F87400E9
:105870005FEA407A0BD4D9F8740040F00400C9F80C
:105880007400D9F8740000F0040000900098FDF74F
:1058900093F94FF6F03BCFF6FF7B57F80B10490317
:1058A0006AD4BAF1000F05D4D9F8740020F00400CE
:1058B000C9F8740057F81C0C800111D5606813E01A
:1058C00057F81C0C80030BD502200DE057F81C0C78
:1058D000400705D5002007E057F81C1C490503D4F4
:1058E000012001B0BDE8F08F396821F003010843C1
:1058F0003860FDF761F961680646032941F2883A8C
:1059000033D0022923D069B9386810F00C0F3FF466
:105910002EAFFDF751F9801B50454FF00300F3D92E
:10592000DFE700BF386800F00C0004283FF41FAF29
:10593000FDF742F9801B50454FF00300F2D9D0E744
:10594000FDF73AF9801B50454FF00300C9D838687D
:1059500000F00C000828F3D109E700BFFDF72CF98F
:10596000801B50454FF00300BBD8386800F00C0096
:105970000C28F3D1FBE600BF064600BF57F80B002A
:1059800040043FF58EAFFDF717F9801B02284FF05A
:105990000300F3D9A5E700001F22026040F6204271
:1059A000C4F2026252F8043C03F00303436013683C
:1059B00003F00F038360136803F07003C360D2F831
:1059C00000C0702303EA1C130361526802F07002E6
:1059D000426142F20000C4F20200006800F00F00D1
:1059E0000860704780B500F073F840F62041C4F2BB
:1059F0000261096842F2E40201F00F01C0F60402FC
:105A0000515CC84040F26801C2F20001086080BDEC
:105A100080B500F05DF840F62041C4F202610A68EA
:105A200042F2E40302F00F02C0F604039A5CD04095
:105A300040F26802C2F200021060096842F2F40209
:105A4000C1F30211C0F60402515CC84080BD0000E1
:105A500080B500F03DF840F62041C4F202610A68CA
:105A600042F2E40302F00F02C0F604039A5CD04055
:105A700040F26802C2F200021060096842F2F402C9
:105A8000C1F30221C0F60402515CC84080BD000091
:105A900080B500F01DF840F62041C4F202610A68AA
:105AA00042F2E40302F00F02C0F604039A5CD04015
:105AB00040F26802C2F200021060496842F2F40249
:105AC000C1F30211C0F60402515CC84080BD000061
:105AD00040F62841C4F2026151F80C0C10F00C029F
