:020000040800F2
:10000000E09907201903000891940008AD7C0008CE
:100010008D9400080D0C0008C1C700082B030008D0
:1000200000000000000000000000000001AC00081B
:10003000110C00080000000071A8000835AC000891
:1000400035030008350300083503000835030008B0
:1000500035030008350300083503000835030008A0
:10006000350300083503000835030008150C0008A7
:100070001D0C00083503000835030008350300088F
:10008000250C000835030008350300083503000877
:100090003503000835030008350300083503000860
:1000A0003503000835030008350300083503000850
:1000B00000000000810F0008350300083503000828
:1000C0003503000835030008350300083503000830
:1000D0003503000835030008350300083503000820
:1000E0003503000835030008350300083503000810
:1000F0003503000835030008350300083503000800
:1001000035030008A1AC00083503000835030008DA
:1001100035030008350300083503000835030008DF
:10012000350300083503000835030008ADAA0008B0
:1001300035030008350300083503000835030008BF
:100140003503000811B40008350300083503000822
:10015000350300083503000835030008350300089F
:10016000350300083503000835030008350300088F
:10017000350300083503000835030008350300087F
:10018000350300083503000835030008350300086F
:10019000350300083503000835030008350300085F
:1001A000350300083503000835030008350300084F
:1001B000350300080000000035030008350300087F
:1001C000350300080000000035030008350300086F
:1001D000350300083503000835030008350300081F
:1001E000350300083503000835030008350300080F
:1001F000000000000000000035030008350300087F
:1002000035030008350300083503000835030008EE
:1002100035030008350300083503000835030008DE
:1002200035030008350300083503000835030008CE
:10023000350300083503000800F002F800F05DF80F
:1002400014A696E8000CB244B344DA4501D100F09C
:1002500054F8BAE80F000FA696E83000A5EB0405A5
:1002600004EB0607AAEB0704A7F101074FEA1515EF
:100270004FEA3414A4F10104AC4201D300F03DF87C
:1002800013F0010F18BFFB1A43F0010300F001F84F
:10029000DBE71847646B0400846B0400103A24BF4A
:1002A00078C878C1FAD8520724BF30C830C144BFDB
:1002B00004680C60704700007047000000230024B1
:1002C00000250026103A28BF78C1FBD8520728BF66
:1002D00030C148BF0B607047642900F01581782950
:1002E00000F04E81732900F04584002070471FB54F
:1002F00042F085F91FBD10B510BD00F059FC114644
:10030000FFF7F5FF37F038FC00F077FC03B4FFF798
:10031000F2FF03BC0FF016F80A4880470A4800476E
:10032000FEE7FEE7FEE7FEE7FEE7FEE7FEE7FEE7A5
:10033000FEE7FEE7FEE7000004480549054A064BD4
:100340007047000055AC000839020008E093072010
:10035000E0990720E0950720E0950720704753EAD1
:10036000020C00F069802DE9F04B4FF00006002BE5
:100370001FBFB3FA83F503FA05F424FA05F65E40CD
:1003800012BF1643B2FA82F502FA05F4C5F1200550
:100390001EBF22FA05FC44EA0C04203556EA044C40
:1003A0004FEA144418BF641C4FF000084FF00009D6
:1003B000904271EB030C39D3002919BFB1FA81F7D0
:1003C00001FA07F6B0FA80F700FA07F6C7F120073E
:1003D0001EBF20FA07FC46EA0C062037B6FBF4FCE9
:1003E000A7EB0507103F07F01F0BCBF120062CFAF7
:1003F00006F60CFA0BFB44BFB3460026202FA4BF21
:100400005E464FF0000B5BEA060C08BF4FF0010B95
:1004100019EB0B0948EB0608ABFB027C06FB02CC90
:100420000BFB03CCC01B71EB0C01C1E70B46024672
:1004300041464846BDE8F08B13B5084318BF4FF05E
:10044000FF300146AFF30080BDE81C40704700005C
:100450000FB4044910B503AA029800F08FFB10BC3A
:100460005DF814FB9008002070B5044685690068AB
:10047000C10601D5302600E02026C00707D070BD98
:10048000D4E9012130469047206A401C20626D1E4D
:10049000F6D570BD70B5044685690078C00707D1F0
:1004A00070BDD4E9012120209047206A401C2062C1
:1004B0006D1EF6D570BD70B50C460546012A05D0F7
:1004C0002878800600D5EA69002302E0012305E0D0
:1004D0005B1C934202D2E05C0028F9D1A869E618BF
:1004E000C01AA861286A184428622846FFF7BCFF92
:1004F00004E0D5E9012114F8010B9047B442F8D388
:100500002846FFF7C7FF70BD2DE9F04106460024DD
:1005100010687529314616A510D0AFF30080002869
:1005200002DA404213A507E031688A0701D512A517
:1005300002E0490704D511A5012401E0AFF30080D2
:1005400000210A2206F1240709E0B0FBF2FCB0FB0F
:10055000F2F302FB1C00303078541846491C002886
:10056000F3D123462A463046BDE8F04100F07EBA7A
:10057000000000002D0000002B0000002000000003
:1005800070B504460D4621461068AFF300802188FF
:10059000090502D50F4A7A4402E00E4A7A440E3227
:1005A000002104F1240305E000F00F060009965D28
:1005B0005E54491C0028F7D120780023000704D599
:1005C000702D02D009B1022311322046BDE87040DF
:1005D00000F04CBA7E2004002DE9F05F8946044605
:1005E0004FF0000ADFF874B1FB44C0F820A02046A9
:1005F000E1688847002874D0252806D0D4E9012175
:100600009047206A401C2062F1E700265F462046A2
:10061000E16888472028054607DB312D05D2781987
:1006200010F8200C08B10643F1E7B00701D526F019
:100630000406C4F81CA00027C4F818A02A2D09D06D
:10064000284641F0D5FF38B304EB8708303DC8F8A1
:10065000185019E059F8041B204604EB87029161F9
:10066000E1688847012F054618D1E069002820DAA3
:1006700026F020061DE0D8F8180000EB800005EBFE
:1006800040003038C8F818002046E1688847054621
:1006900041F0AEFF0028EED1012F0AD02E2D08D157
:1006A0002046E16888477F1C0546022F46F0200659
:1006B000C4DBA069002803DA404246F00106A061CD
:1006C000F00701D026F010066C2D0BD0682D09D054
:1006D0004C2D39D06A2D35D0742D35D07A2D33D0AC
:1006E00016E038E0E1682F4620468847B8420546C4
:1006F00009D16C2F26D04FF48060E1680643204674
:100700008847054604E06C2F1AD04FF480700643EA
:100710000DB3A5F14100192802D8203546F4006632
:100720004A462946204626604E46FFF7D5FD80B151
:1007300001280BD0F61D26F0070000F1080956E746
:100740004020E4E78020D8E70020D6E706F104093E
:100750004DE7284652E7206ABDE8F09F5420040088
:10076000014914F0C3BC00009008002010B50446F5
:1007700003E014F0BBFC401C09D014F8010B054940
:100780000028F6D1BDE810400A2014F0AFBC4FF0AD
:10079000FF3010BD9008002030B505460B462A46B4
:1007A00013F8014B12F8010B08B1A042F8D01CB1AC
:1007B000002802D06D1CF1E7284630BD40EA010355
:1007C000024630B59B0710D14FF0013400E008C25B
:1007D00008C91D1B9D4315EAC41FF8D013F0FF0183
:1007E00002F8011B0DD01B0AF8E711F8013B002BA2
:1007F00002F8013B05D011F8013B002B02F8013B48
:10080000F3D130BD10B5431C02E010F8011B71B1EB
:100810008107FAD14FF0013202C88C1A8C4314EAD6
:10082000C211F9D0C01A0A0603D0C01E10BDC01AEA
:1008300010BD0A0401D0801E10BD0902FCD0401E6C
:1008400010BD032A40F2308010F0030C00F0158038
:1008500011F8013BBCF1020F624498BF11F801CBC3
:1008600000F8013B38BF11F8013BA2F1040298BF28
:1008700000F801CB38BF00F8013B11F0030300F092
:100880002580083AC0F0088051F8043B083A51F836
:1008900004CBA0E80810F5E7121D5CBF51F8043B3B
:1008A00040F8043BAFF30080D20724BF11F8013BAE
:1008B00011F801CB48BF11F8012B24BF00F8013B10
:1008C00000F801CB48BF00F8012B704710B5203A63
:1008D000C0F00B80B1E81850A0E81850B1E81850EB
:1008E000A0E81850203ABFF4F5AF5FEA027C24BFBD
:1008F000B1E81850A0E8185044BF18C918C0BDE8A6
:1009000010405FEA827C24BF51F8043B40F8043B6E
:1009100008BF7047D20728BF31F8023B48BF11F823
:10092000012B28BF20F8023B48BF00F8012B70477D
:1009300002F0FF0343EA032242EA024200F00AB84F
:1009400002F0FF0343EA032242EA024200F024B825
:100950004FF000020429C0F0128010F0030C00F0E8
:100960001B80CCF1040CBCF1020F18BF00F8012B66
:10097000A8BF20F8022BA1EB0C0100F00DB85FEA34
:10098000C17C24BF00F8012B00F8012B48BF00F800
:10099000012B70474FF0000200B51346944696466F
:1009A000203922BFA0E80C50A0E80C50B1F1200182
:1009B000BFF4F7AF090728BFA0E80C5048BF0CC030
:1009C0005DF804EB890028BF40F8042B08BF70478E
:1009D00048BF20F8022B11F0804F18BF00F8012B00
:1009E000704700000000000030B44FF0013C50F8A8
:1009F000042B51F8043BCCFA52F4D51A20D1FCB99F
:100A000050F8042B51F8043BCCFA52F4D51A17D104
:100A1000B4B950F8042B51F8043BCCFA52F4D51A6F
:100A20000ED16CB950F8042B51F8043BCCFA52F4B7
:100A3000D51A05D1002CDAD030BC4FF00000704739
:100A400029BAB1FA81F111F01801D1F120008440E6
:100A5000F2D1CA40CB4012F0FF0213F0FF0330BCCA
:100A6000D01A704770477047704770472DE9F047BC
:100A70000D4699469246044600F12408016888060E
:100A800004D5E06921F01001216000E00120A842B6
:100A900001DD471B00E00027A1697A1902EB09007C
:100AA000081AA0612078C00602D42046FFF7DCFCBB
:100AB000002608E0D4E901211AF806009047206AD0
:100AC000401C761C20624E45F4DB2078C0060AD517
:100AD0002046FFF7C9FC06E0D4E901213020904709
:100AE000206A401C2062381EA7F10107F4DC07E0F1
:100AF000D4E9012118F805009047206A401C2062C3
:100B0000281EA5F10105F3DC2046FFF7C3FC207881
:100B1000000602D50220BDE8F0870120FBE70000B7
:100B200001694A1C02610878704700B58FB0CDE9B1
:100B300001310021059105497944CDE903101146A1
:100B40006846FFF749FD0FB000BD0000E5FFFFFF5D
:100B500010B5436913B1AFF3008001E0FFF7ABFCC0
:100B6000012010BD127800F124010A7000224A70A1
:100B70000122EDE711684FF0FF32E9E7074B70B54E
:100B80000D467B44FFF7D1FF0446284600F00CF8E1
:100B900010B14FF0FF3070BD204670BD67450100B9
:100BA00000487047D0000020007B00F080007047B4
:100BB0007546FFF7F5FFAE4605006946534620F03F
:100BC0000700854618B020B5FFF7B6FBBDE820400A
:100BD0004FF000064FF000074FF000084FF0000BF9
:100BE000AC46ACE8C009ACE8C009ACE8C009ACE868
:100BF000C00921F007018D46704710B50446AFF3D8
:100C000000802046BDE81040FFF780BBFEE70000F3
:100C100070470000012000F003BF0000022000F038
:100C2000FFBE0000202000F0FBBE0000EFF31080AC
:100C300072B600BFFEE7000040F20040C4F202209E
:100C40000421012201F04EB840F20040C4F202201B
:100C50000421002201F046B82DE9F04140F200489D
:100C6000C4F202280D46064640460121002201F04A
:100C700039F840461021002201F034F84046102196
:100C8000012201F02FF840461021002201F02AF83D
:100C900040460121012201F025F8404610210122A1
:100CA00001F020F840460421002201F01BF8002D3D
:100CB00043D0741E08F5806640461021002201F0E2
:100CC00011F83046102101F007F807463046202180
:100CD00001F002F847EA40073046402100F0FCFFEF
:100CE00047EA80073046802100F0F6FF47EAC00758
:100CF00030464FF4807100F0EFFF47EA00173046AE
:100D00004FF4007100F0E8FF47EA401730464FF417
:100D1000806100F0E1FF47EA801730464FF4006140
:100D200000F0DAFF47EAC010102104F8010F404636
:100D3000012200F0D7FF013DBED14046042101222F
:100D4000BDE8F04100F0CEBF10B540F20044C4F25F
:100D5000022420460221002200F0C4FF2046022186
:100D60000122BDE8104000F0BDBF000010B5002416
:100D7000C4F2022420464FF40061002200F0B2FFCA
:100D80000A2000F0F3FD20464FF40061012200F03C
:100D9000A9FF6420BDE8104000F0E8BD40F2B000BB
:100DA000C2F2000001218173704700002DE9F04F6D
:100DB00085B040F6A434C2F20004022764260DF187
:100DC00009022046702101238DF80970009601F078
:100DD00001F9012000F0CAFD02AA20467121012379
:100DE000009601F027F89DF8080040F2B005C2F225
:100DF0000005287008B9AF702F7240F6A434C2F213
:100E000000044FF0050B0DF10B0220467021012369
:100E10008DF80BB0009601F0DDF8012000F0A6FD82
:100E20000DF10A02204671210123009601F002F81B
:100E30009DF80AA002354FEA1A1000EB40000DF1B0
:100E40000D0215F8101005EB4009023918BF0121F9
:100E500005F8101003208DF80D00204670210123A5
:100E6000009601F0B7F8012000F080FD03AA2046AB
:100E700071210123009600F0DDFF04209DF80C8015
:100E80008DF80F000DF10F0220467021012300960E
:100E900001F0A0F8012000F069FD0DF10E022046DE
:100EA00071210123009600F0C5FF9DF80E0008F0A7
:100EB0000F0140EA01200DF11102A9F802002046BD
:100EC000702101238DF811B0009601F083F8012004
:100ED00000F04CFD04AA204671210123009600F089
:100EE000A9FF06209DF810708DF813000DF1130274
:100EF0002046702101234FF00208009601F06AF8A5
:100F0000012000F033FD0DF1120220467121012372
:100F1000009600F08FFF01229DF8120022EA1A12BB
:100F200007F00F0140EA012042EA4201A9F804005B
:100F300005F8118005B0BDE8F08F000010B540F253
:100F4000B004C2F20004A07B002808BF10BDFFF768
:100F50002DFFA078012804D1A188E28802A0FFF724
:100F600077FA0020A07310BD746F75636820646FFA
:100F7000776E20782025642020792025640D0A00D2
:100F800040F62C30C2F2000000F0F0B8002804BF98
:100F90000120704780B5D0F874E0BEF1000F54D046
:100FA00090F8541002680129D2F814C004D0022924
:100FB00046D11CF4803143D090F85410012935D12A
:100FC00090F84C1001294FF0020134D0012380F831
:100FD0004C3080F854108EF80C1000218165CEF84A
:100FE0001010516941F4BA415161416E19B1516912
:100FF00041F400715161006F18B1506940F4005024
:101000005061DEF800000023016ACFF601034908B1
:1010100061F3596361F39A634FF6FF7120EA0101AE
:1010200011604FF6FC7108401844D06750690021E8
:1010300040F001005061BDE880400846704700BFA5
:1010400040218165002180F84C100121BDE88040DD
:1010500008467047B0B5044600F04AFE002C04BFB5
:101060000120B0BD054694F85400022824D1206820
:10107000416941F004014161052084F8540000BF3A
:101080002168086980041FD400F032FE401B062846
:10109000F6D3A06D40F01000A065032084F8540042
:1010A00094F8500000064FF0010001D5616F0873FD
:1010B000002184F84C10B0BD2020A0650120002143
:1010C00084F84C10B0BD00BF4869012240F0020016
:1010D0004861042084F854004FF4FE40C86084F84E
:1010E000542094F8500000064FF00000E0D5636FE4
:1010F0001A738864002184F84C10B0BD80B190F858
:10110000541002290AD1042180F85410006842F2D8
:10111000040241691143416100207047202181652B
:1011200001207047024600284FF0010008BF7047B9
:10113000CB0612D5136840F6FF7223EA020203F5CC
:101140007B63C3F3C41301F0110198401129516866
:1011500014BF21EA000008435060002070470000DF
:10116000806D704790F854007047000010B5046817
:101170000C23214604F57B6263F30B01C2F3C41216
:101180000968D140C90700F0A5802169490544BF1D
:1011900061695FEA41514BD42169090544BF616926
:1011A0005FEA01514CD42169C90444BF61695FEA17
:1011B000C1414DD42169490444BF61695FEA41419D
:1011C0004ED42169890544BF61695FEA81514FD4DA
:1011D0002169890444BF61695FEA814154D421696E
:1011E000C90544BF61695FEAC15175D4816D0029A9
:1011F00008BF10BD01684A6942F002024A614969AC
:10120000C9074FF0030108BF012180F8541090F87E
:101210005010090602D5416F01220A73816E002227
:10122000002980F84C2055D0BDE81040084700BF89
:101230004FF48061E160816D41F001018165ABE7B0
:101240004FF40061E160816D41F002018165AAE720
:101250004FF48051E160816D41F004018165A9E79F
:101260004FF48041E160816D41F008018165A8E79C
:101270004FF40071E160426E002AA9D00446904705
:1012800020462468A4E700BF4FF40051E16090F8C5
:10129000541004292AD1616921F400516161616906
:1012A00041F0020161616169C9074FF0030108BFA4
:1012B000012180F8541090F85010090604D5416FB0
:1012C00001220A730021A164C16E0022002980F866
:1012D0004C20A9D110BD00BF90F85010090611D4C0
:1012E000A16CD9B900F1540216E000BF052180F8C5
:1012F0005410026F002A3FF472AF04469047204614
:1013000024686CE7E16F49B9A16C39B9012180F813
:101310005410416F01F10C02012111704FF4407122
:10132000E160016E0022002980F84C203FF45EAF9E
:1013300004468847204659E7B0B5044600F0D8FC7B
:10134000002C04BF0120B0BD00210546206884F8B0
:101350004C10022184F85410416941F006014161AA
:1013600020684169C9070BD000F0C2FC401B05286A
:10137000F6D9012003221021A16584F85420B0BDC4
:10138000216A426904F1100522F4430211434161CC
:10139000E36926CD1A4311434F22C5F2020240F2FF
:1013A0004F6C904241EA050EC5F2020C1CDC40F283
:1013B0004F43C4F20203984232DC40F24F23C4F29E
:1013C0000203984256DC40F24F13C4F202039842E3
:1013D00000F394805023C4F20203984200F0E880A6
:1013E000D023C4F20203E1E040F24F43C5F202030E
:1013F00098422DDC40F24F23C5F2020398424BDCA9
:1014000040F24F13C5F20203984200F38380502349
:10141000C5F20203984200F0CB80D023C4E000BFA5
:1014200040F24F63C4F20203984245DC40F24F534E
:10143000C4F20203984277DC40F25043C4F2020344
:10144000984200F0B58040F2D043C4F20203ADE010
:10145000604543DC40F24F53C5F2020398426FDC13
:1014600040F25043C5F20203984200F0A18040F2DE
:10147000D04399E040F24F33C4F20203984269DC52
:1014800040F25023C4F20203984200F0918040F2EF
:10149000D023C4F2020389E040F24F33C5F20203C5
:1014A000984263DC40F25023C5F20203984200F0F8
:1014B0007F8040F2D02377E040F24F73C4F2020302
:1014C00098425DDC40F25063C4F2020398426FD050
:1014D00040F2D063C4F2020368E000BF40F24F73F1
:1014E000C5F20203984257DC40F25063C5F2020392
:1014F00098425DD040F2D06356E000BF40F25013F6
:10150000C4F20203984253D040F2D013C4F2020353
:101510004CE000BF40F25013C5F20203984247D09E
:1015200040F2D01340E000BF40F25053C4F2020337
:1015300098423DD040F2D053C4F2020336E000BFDF
:1015400040F25053C5F20203984231D040F2D053DA
:101550002AE000BF40F25033C4F20203984227D081
:1015600040F2D033C4F2020320E000BF40F2503317
:10157000C5F2020398421BD040F2D03314E000BF02
:1015800040F25073C4F20203984211D040F2D0737B
:10159000C4F202030AE000BF40F2D073C5F20203B6
:1015A000984205D040F25073C5F20203984212D11E
:1015B000D4E909354FF07C72E16A02EB05524FF431
:1015C0007C7505EB031302F07C7203F47C7311430A
:1015D00019434EEA010E016C231D01F0802141EAFE
:1015E0000E0101640ECB256B01F07F011143B3F5B1
:1015F000007F41EA050225D0B3F5806F40F0EC8012
:1016000040F2CF71C4F2020188421FDD40F2CF31B7
:10161000C5F20201884239DC40F2CF11C5F2020165
:10162000884261DCCF21C5F20201884200F3AA8022
:1016300040F2D071C4F20201884200F0CB80502108
:10164000C4E000BF42F40072C6E000BF40F2CF31F8
:10165000C4F2020188422FDD40F2CF51C4F20201F0
:10166000884261DC40F2CF41C4F20201884200F3BB
:10167000078140F2D031C4F20201884200F0AA8012
:1016800040F25041C4F20201A2E000BF40F2CF514B
:10169000C5F20201884237DC40F2CF41C5F20201B7
:1016A000884277DC40F2D031C5F20201884200F076
:1016B000918040F2504189E040F2CF11C4F2020122
:1016C000884243DD40F2CF21C4F2020188424DDC62
:1016D00040F2D011C4F2020188427BD040F2502186
:1016E000C4F2020174E000BF40F2CF21C5F2020152
:1016F000884259DC40F2D011C5F20201884269D01B
:1017000040F2502162E000BF40F2CF61C5F2020119
:10171000884253DC40F2D051C5F20201884259D0D0
:1017200040F2506152E000BF40F2CF61C4F20201CA
:10173000884200F3B18040F2D051C4F202018842E5
:1017400048D040F25061C4F2020141E05021C4F29D
:10175000020188423ED0D021C4F20201884239D031
:1017600040F25011C4F2020132E000BF40F2D02139
:10177000C4F2020188422DD040F25031C4F202017D
:1017800026E000BFD021C5F20201884222D040F2FB
:1017900050111BE040F2D041C5F20201884219D03D
:1017A00040F2505112E000BF40F2D021C5F20201D8
:1017B00088420FD040F2503108E000BF40F2507133
:1017C000C5F20201884205D040F2D061C5F20201A3
:1017D00088426DD142F48062416C43F28013C3F6BB
:1017E000C04319401143416400216045816411DC0C
:1017F00040F24F71C4F2020188421BDC40F250619A
:10180000C4F2020188422DD040F2D061C4F202013C
:1018100026E000BF40F24F71C5F20201884215DC9C
:1018200040F25061C5F2020188421BD040F2D06103
:1018300014E000BF40F25071C4F20201884211D09E
:1018400040F2D071C4F202010AE000BF40F2D07150
:10185000C5F20201884205D040F25071C5F2020182
:10186000884202D10021416581650021C167606B1A
:10187000012220650020A16584F85420B0BD00BF7E
:1018800040F2D041C4F202018842A3D040F250514C
:10189000C4F202019CE700BF40F2D061C4F2020131
:1018A000884297D040F25071C4F2020190E700BF25
:1018B00040F2D071C5F20201884208BF42F4806252
:1018C0008AE7000000284ED090F84CC0BCF1010F10
:1018D00004BF022070474FF0010C80F84CC090F814
:1018E00054C0BCF1010F39D110B54FF0020C80F893
:1018F00054C04FF0000CC0F858C0D0F800C0D0F869
:1019000064E0DCF84840BEF1000FC3EA0403CCF801
:1019100048304FF4FE43CCF80C30CCF84C10CCF8E7
:101920005020DCF8141041F4BA41CCF8141005D062
:10193000DCF8141041F40071CCF81410006F28B1D9
:10194000DCF8140040F40050CCF81400DCF814006B
:1019500040F00100CCF81400002010BD402181654A
:10196000002180F84C10012070470000B0B50446FB
:1019700000F0BEF9054640F20800C2F2000000780F
:10198000611C18BF044400BF00F0B2F9401BA04224
:10199000FAD3B0BD10B5044640F20040C4F20220B4
:1019A000202100F099F9202C08BF002816D0012C26
:1019B00018BF10BD40F23014C2F20004A07801300C
:1019C000A070A078012811D1FFF7BEF9FFF73CF90C
:1019D000A17810A0BDE81040FEF73ABD40F23010EB
:1019E000C2F200000121C17010BD00BFA078022822
:1019F00008D10B2000F0F8FCA17803A0BDE810404E
:101A0000FEF726BD10BD00BF65787469323A2564C3
:101A10000A00000065787469313A25640A00000004
:101A2000B0B542F20C05C4F20265296804460142D1
:101A300003D020462C6000F00BF86868204208BFF5
:101A4000B0BD20466C60BDE8B040FFF7A3BF00000A
:101A5000202818BF704710B540F20040C4F20220A1
:101A6000202100F039F948B140F23014C2F20004EC
:101A7000E07818B1FFF792F90020E070BDE810405F
:101A8000704700002DE9F04F84B00E680290002EE0
:101A900000F01E81DDF808B040F200090BF12000D3
:101AA000019047F67F70C0F22F0000EA9B200023D0
:101AB0004FF0010A00274FF00008C4F202694FF00E
:101AC000000C009011E000BF40F20009C4F202696E
:101AD0000E680CF1010C36FA0CF008F1020807F15F
:101AE000040703F1080300F0F3800AFA0CF516EA84
:101AF0000500EDD003900298484527D04E6846F087
:101B00001002122A5ED16FF0030000EA5C02019C11
:101B100007F01C050F2054F802E000FA05F60869EA
:101B20002EEA060600F00F00A8403043A050DBF874
:101B3000000003224E6802FA08F2904306F0030206
:101B400002FA08F24FF0010A104346E0D9F800000B
:101B50004E6842F2846206F00106A84306FA0CF6CB
:101B6000C0F60402304302EBCC06C9F80000D6F8F8
:101B700004E06FF0030052F83CB000EA5E051C2060
:101B80005D4400EA8E062C6A0F2000FA06F20B2054
:101B900024EA020200FA06F422432A62DBF800205B
:101BA0004FEA4E04032000FA04F50220AA4300FA8B
:101BB00004F42243CBF800204E684FF0010A122EA5
:101BC00010D936E0DBF80000032202FA08F2904355
:101BD00006F0030202FA08F21043E646CBF80000D2
:101BE000122E26D80AFA06F010F0061F1ED04FEA71
:101BF0004E090322DBF8080002FA09F5CA68A84377
:101C000002FA09F21043CBF80800DBF804000AFAE4
:101C10000EF29043320902FA0EF21043032ECBF873
:101C200004003FF451AFED4309E000BF032E3FF441
:101C30004FAF4FEA4E09032000FA09F0C543DBF825
:101C40000C008A68284002FA09F21043F200CBF82F
:101C50000C007FF539AF42F2000E2CF00300C4F205
:101C6000026E7044026E03F018060F25B540AA43B9
:101C7000009D05FA06F632430266DEF80000039C7A
:101C80004A6840EA0406D50258BF20EA0406CEF8A6
:101C90000060DEF80400950240EA040658BF20EA1E
:101CA0000406CEF80460DEF88400950340EA0406DA
:101CB00058BF20EA0406CEF88460DEF88000D20324
:101CC00040EA040658BF20EA0406CEF88060FBE62E
:101CD00004B0BDE8F08F00000069084018BF012083
:101CE000704700001823002A08BF2823C1507047FE
:101CF00048F6E040C2F207000068704790F84120C3
:101D0000202A03D190F84020012A01D102207047F7
:101D1000242280F841200268136823F00103136035
:101D2000136823F48053136013681943116011681A
:101D300041F001011160202180F84110002180F85C
:101D4000401000207047000090F84120202A03D165
:101D500090F84020012A01D102207047242280F807
:101D600041200268136823F001031360136823F411
:101D7000706343EA01211160116841F001011160B3
:101D8000202180F84110002180F840100020704789
:101D9000002804BF0120704710B590F8411031B9F8
:101DA000002180F84010044600F0E4F92046242188
:101DB00080F8411090E81210C3680A68012B22F0E5
:101DC00001020A6024F070620A618A6822F400420B
:101DD0008A6003D14CF400428A6007E04CF404426C
:101DE000022B8A6004BF4FF400624A604A6800F127
:101DF000100442F0007242F400424A60CA6822F4C1
:101E00000042CA601CCC1A4342EA0422C369CA6079
:101E1000026A1A430A600A6842F001020A6000215D
:101E20002022416480F84120016380F842100020A4
:101E300010BD00002DE9F04782B0044690F8410043
:101E4000202803D194F84000012803D1022002B0D9
:101E5000BDE8F08701200D461746984684F84000FB
:101E6000FFF746FF216806468A69120425D422201E
:101E700084F84100102084F842000020606467620A
:101E8000A4F82A806063608D49F6000C40F20008D7
:101E9000B0F5807FCFF6004CC0F2FF1820D351F888
:101EA000040F2B466FF39F2300EA0C0708F5105030
:101EB000FF2222E088690004D9D5FFF719FF801BB3
:101EC00021681A28F6D388690004F3D5606C40F0C5
:101ED00020006064202084F84100012071E000BFF0
:101EE000628D284651F8043F6FF39F20D7B240EA35
:101EF000074703EA0C0308F592303B431843086098
:101F00002285608D0A9F002844D06FF39F254FF0F3
:101F1000FF090CF5806A10E0618D2068218550F87A
:101F2000042FC9B202EA0A0242EA01414FF00072EC
:101F3000294311430160608D60B320463946324623
:101F400005F0DAFF60BB2068616A406A0870606A69
:101F5000218D01306062481E2085618D01396185C7
:101F6000618D0029E7D00004E5D1204680210022C0
:101F70003B46009605F04CFF90B9608DB0F5807F30
:101F8000CAD32068A4F8289050F8041F424601EAFA
:101F90000A01CDE720463946324606F013F818B15B
:101FA000012002B0BDE8F08720682021C1614268AD
:101FB0004EF60003CFF600631A404260002084F81A
:101FC0004110002184F8421084F8401002B0BDE8AE
:101FD000F08700002DE9F04782B0044690F84100F8
:101FE000202803D194F84000012803D1022002B038
:101FF000BDE8F08701200D461746984684F840005A
:10200000FFF776FE216806468A69120425D421204E
:1020100084F84100102084F8420000206064676268
:10202000A4F82A806063608D49F6000C40F2000835
:10203000B0F5807FCFF6004CC0F2FF1820D351F8E6
:10204000040F2B466FF39F2300EA0C0708F500509E
:10205000FF2222E088690004D9D5FFF749FE801BE2
:1020600021681A28F6D388690004F3D5606C40F023
:1020700020006064202084F84100012071E000BF4E
:10208000628D284651F8043F6FF39F20D7B240EA93
:10209000074703EA0C0308F590303B4318430860F8
:1020A0002285608D0A9F002844D06FF39F254FF052
:1020B000FF090CF5806A10E0618D2068218550F8D9
:1020C000042FC9B202EA0A0242EA01414FF000724B
:1020D000294311430160608D60B320463946324682
:1020E00005F0AEFF60BB606A226810F8011B9162C8
:1020F0006062608D01386085208D01382085618D9A
:102100000029E8D00004E6D12046802100223B4689
:10211000009605F07DFE98B9608DB0F5807FCBD339
:102120002068A4F8289050F8041F424601EA0A01EA
:10213000CEE700BF20463946324605F043FF18B1CE
:10214000012002B0BDE8F08720682021C16142680B
:102150004EF60003CFF600631A404260002084F878
:102160004110002184F8421084F8401002B0BDE80C
:10217000F0870000B0B5BAB00446002502A8C82117
:102180003995CDE93755CDE93555FEF703FC206883
:1021900045F60001C4F20001884235D045F2004105
:1021A000C4F20001884261D140200024029002A8BC
:1021B000039401F095FF002818BFFEF737FD40F6A5
:1021C0008C45C4F20265286835A940F002002860F9
:1021D000286800F0020001900198C020359012207C
:1021E000CDE936040420399040F20040C4F20220C8
:1021F0003894FFF747FC286940F4001028612869EB
:1022000000F4001030E000BF8020029002A8039587
:1022100001F066FF002818BFFEF708FD40F68C4469
:10222000C4F20264206835A940F0020020602068F2
:1022300000F00200019001984FF4C0403590122048
:10224000369001203790002038900420399040F2D9
:102250000040C4F20220FFF715FC206940F4800022
:102260002061206900F48000019001983AB0B0BD6F
:1022700040F20041C4F203010A68D2071CBF0120EA
:1022800070470A6822F0040210430860002070477B
:1022900040F20041C4F20301086840F0010200204E
:1022A0000A60704740F2080048F6E041C2F20000C0
:1022B000C2F2070100780A68104408607047000005
:1022C00080B542F20000C4F20200016841F480715E
:1022D0000160032000F0DCF802F002FC40F620412F
:1022E000C4F20261096842F26C6201F00F01C0F6AB
:1022F0000402515CC84040F26401C2F2000108606F
:102300000F2000F009F800281CBF012080BD00F05C
:1023100055F8002080BD0000B0B588B040F69C4163
:10232000C4F202610A68044642F010020A600968B9
:1023300002A801F010010291029901A902F034FBF8
:1023400002F06EFB4DF68361C4F21B31A0FB01016C
:102350004FF0FF3000EB914140F6845041F2000312
:10236000C2F2000040F2E732C4F200030025C0E9E7
:102370000031C0E90252056104F024F90546B0B904
:1023800040F68450C2F2000004F050F9054670B9DE
:102390000F2C0BD8312021460022002500F04CF8EC
:1023A00040F20C00C2F20000046000E00125312080
:1023B00000F030F8284608B0B0BD000081B040F60B
:1023C0009440C4F202600168002241F004010160FF
:1023D00000680F2100F00400009000986FF00100E9
:1023E00001B000F029B80000002848BF70471C2247
:1023F00000F01F0102EAD000012202FA01F14EF2C0
:102400008012CEF200028150BFF34F8FBFF36F8F67
:1024100070470000002848BF70471C2200F01F01D1
:1024200002EAD000012202FA01F14EF20012CEF2CD
:10243000000281507047000010B54EF60C5CCEF2E1
:10244000000CDCF80030C3F3022E8EF00704042CDD
:1024500028BF0424BEF103034FF0FF3E38BF002322
:102460000EFA04F4A14399400EFA03F39A43114380
:1024700000F00F0200F160430901043A03F56443E0
:102480006244002848BF02F10C03197010BD00001F
:102490004EF60C51CEF200010A684FF6FF031A40C7
:1024A00060F30A2242F0806040F0FD7008607047DF
:1024B0002DE9F04F8DB0D0F800C0002244F20400A6
:1024C000CDE90122CDE90322C4F20C200592026875
:1024D00040F2010E02F00303012B04BF012301931C
:1024E00002F03003102B04BF0123029302F4407367
:1024F000B3F5807F04BF0123039302F4A023B3F557
:10250000803FC0F2001E05D19303734658BF4FF0C1
:102510000113049302F0A063B3F1807F05D192010F
:10252000724658BF4FF0011205924268022502F030
:102530000303012B04BF0223019302F03003102B8D
:1025400004BF0223029302F44073B3F5807F04BFFB
:102550000223039302F4A023B3F5803FC0F20105E8
:1025600005D193032B4648BF0EF10103049302F0FB
:10257000A063B3F1807F05D192012A4648BF0EF1D6
:102580000102059200240B94CDE90944CDE90744EA
:1025900050F8042C0368D2074FF4007204BF40F2D5
:1025A0002222C0F20442DF0705D083EA0207BF07F8
:1025B0005CBF01240794DF0602D44FF0000809E055
:1025C00083EA0207BF065ABF4FF00108CDF820800A
:1025D0004FF0000803F44077B7F5407F04BF0127B0
:1025E0000997DF030ED583EA02077F030AD4F24678
:1025F0009F0358BF4FF0011ACDF828A0DE0115D572
:1026000004E000BF4FF0000ADE010FD583EA0206A6
:1026100076010BD4F3469B0158BF4FF0011BCDF858
:102620002CB04368DE070CD005E000BF4FF0000B74
:102630004368DE0705D083EA0206B6075CBF0224C2
:102640000794DE0607D583EA0206B6065CBF4FF0A4
:102650000208CDF8208003F44076B6F5407F04BF31
:1026600002260996DE030AD583EA0206760306D41B
:10267000AA469F0348BF0EF1010ACDF828A0DE014B
:1026800008D55A40520105D49A0148BF0EF1010500
:10269000AB460B9541F20047C4F20D273B68BCEBFB
:1026A000070218BF0122DB07ACEB070302D10026AB
:1026B00005E000BF3E6826F001063E60012642F2BA
:1026C0000047C4F20D273D68C146ED07B3FA83F514
:1026D00002D10096B84606E03B68B84623F00103F5
:1026E00002363B60009602EB420301AA02EBC303F1
:1026F0006D099E6800EB860656F804EC2EF4807790
:1027000046F8047C50F8047CFF0729D11C68002C93
:102710005DD000EB840757F8046C26F0010647F8FB
:10272000046C5C683CB100EB840757F8046C26F03D
:10273000100647F8046CDC683CB10127A74350F849
:10274000276026F4803640F827601B69002B3ED0B6
:10275000012727EA030350F8237027F0807734E03D
:1027600050F8043C41F20047C4F20D2723F0010366
:10277000BC4540F8043C2AD100EB8403B9F1000FBA
:1027800053F8047C47F0020743F8047C07D000EBC1
:10279000890353F8047C47F0200743F8047CBAF11E
:1027A000000F08D0012323EA0A0350F8237047F4EE
:1027B000802740F82370BBF1000F08D0012323EAE3
:1027C0000B0350F8237047F0806740F8237005EB47
:1027D000450302EBC30452F83320D1E900366568A3
:1027E000934213D1AE422B461FD1CB68E768BB4260
:1027F0001AD10B692769BB42334616D150F8042C15
:1028000042F0010240F8042C3FE000BFAE423346E4
:102810000BD08B68A768BB4204D0CB68E768BB428B
:1028200040F01A812B4600E0334600EB820252F85A
:10283000047C27F0010742F8047C3BB100EB8302E3
:1028400052F8043C23F0100342F8043CD4E902326D
:1028500000EB830353F8047C27F4807743F8047C6F
:1028600042B1012323EA020250F8223023F48033DC
:1028700040F82230226942B1012323EA020250F8D3
:10288000223023F0807340F822308A6841F20045FC
:1028900000EB82024FF4807752F8043CC4F20D251D
:1028A00023F44073AC4518BF4FF440773B4442F8E3
:1028B000043C4A69531EFF2B11D850F8047CC7F31F
:1028C0000747BB420BD9002750F8043CCFF6FF77EF
:1028D00007EB024223F47F031A4340F8042C50F81C
:1028E000043C0A68DB07A2F1010250F82270009E46
:1028F00027F0030328D10127AC4518BF03273B432A
:1029000040F822304A6862B100EB8202102752F888
:10291000043CAC4518BF302723F020033B4342F86A
:10292000043CCA68D30327D4B2B3012323EA0202CA
:1029300050F822304FF0807723F0E063AC4518BFA9
:102940004FF0A06725E000BF43F0010340F82230BC
:102950004A6842B100EB8202012752F8043C67F357
:10296000051342F8043CCA68D30329D4AAB34FF034
:1029700080736FF0E06427E0012323EA020250F83D
:1029800022304FF4803723F4E023AC4518BF4FF4D6
:10299000A0273B4440F822300969CA032AD4002901
:1029A00042D0012222EA010150F821204FF0407369
:1029B00022F0E062AC4518BF4FF0E06327E000BFB3
:1029C0004FF480336FF4E024012727EA020250F825
:1029D000227027403B4340F822300969CA0319D4CA
:1029E00011B3012222EA010150F82120032363F3ED
:1029F0001A6217E0012222EA010150F821204FF467
:102A0000403322F4E022AC4518BF4FF4E0231A44CF
:102A100008E000BF012222EA010150F8212003232F
:102A200063F3124240F82120F00705D1B00709D422
:102A300000200DB0BDE8F08F286840F0010028604C
:102A4000B007F5D5D8F8000040F00100C8F8000044
:102A500000200DB0BDE8F08F0B692769BB422B4603
:102A60007FF413AFE1E60000F0B581B00446FFF754
:102A70003FF9216D11F00C0F4ED00546206801681A
:102A800049074FD4002021680A6A92065AD508687F
:102A900040F002000860A66D086A800710D4002E7E
:102AA00054D0701C31D1086A800709D4086A8007A5
:102AB0005CBF086A5FEA807002D4086A8007F2D5BA
:102AC00002264E62A76D086A80065AD5781C4ED041
:102AD0006FB900BFFFF70CF92068016A890639D485
:102AE000006A8006F6D44CE0006A800649D5FFF7FC
:102AF000FFF8411B2068B942F6D9016A8906F3D56F
:102B000028E000BF086A8007DAD4FFF7F1F8401B1D
:102B10002168B042F6D91CE010206065012001B0A8
:102B2000F0BD00BF016821F004010160E06CFEF718
:102B300091FA00281ABF04216165002021680A6A01
:102B40009206A4D40221216501B0F0BDFFF7D0F8B0
:102B50002168086A4FF400702065606D40F0010044
:102B60006065012001B0F0BD086A800609D5086AD9
:102B7000800606D5086A800644BF086A5FEA80605E
:102B8000F2D42665002001B0F0BD0000F0B581B0A0
:102B900015460F460446FFF7ABF8216D064624297B
:102BA00012D0142906D0022909D1E068B0F1806F53
:102BB00005D00EE0386820F00100022809D010206E
:102BC0006065012001B0F0BD386840F002000328C4
:102BD000F5D12068016A89062DD5691C21D065B917
:102BE000FFF786F82068016A89060FD4006A80061C
:102BF000F6D420E0006A80061DD5FFF779F8811B26
:102C00002068A942F6D9016A8906F3D54FF400700D
:102C10002065606D40F00100D2E700BF016A8906BF
:102C200009D5016A890606D5016A890644BF016A89
:102C30005FEA8161F2D4002060652046394606F0E3
:102C400029FC18B1012001B0F0BD00BFB86B48B13C
:102C50003868022832D0012828D090B3002001B073
:102C6000F0BD00BF2168086A80070FD4A5B3681CB7
:102C700015D1086A800709D4086A80075CBF086A12
:102C80005FEA807002D4086A8007F2D50020022231
:102C90004A6201B0F0BD00BF086A8007F6D4FFF7B2
:102CA00027F8801B2168A842F6D918E0206D242857
:102CB00007D014202065002001B0F0BD206D14283D
:102CC00004D104202065002001B0F0BD242020653F
:102CD000002001B0F0BD00BFFFF70AF82168086AC4
:102CE0004FF400702065606D40F0010060650120C8
:102CF00002224A6201B0F0BDB0B502680446906895
:102D0000082340F00200906041F20040C4F20D2020
:102D100082424FF20000C4F20C20236507D042F239
:102D20000043C4F20D239A420AD100F58060026884
:102D300042F00102026006F04FF8002501E000BFFA
:102D400001252046FFF790FE2168886820F00202E6
:102D500028468A60B0BD0000F0B581B00446FEF799
:102D6000C7FF002C00F08980054600206065216DBA
:102D700011B101B0F0BD00BF204600F0DFF841F214
:102D80008830A0652068D4E903C2636986684CF284
:102D9000F401CFF6E00131400026CFF6FF7606EBD6
:102DA00002426FF0FF0E666B41EA0C010EEB03234B
:102DB0001143E7693143194339438160C168226A8D
:102DC00021F4E0211143C160216BA26B42EA014171
:102DD0000161E16B41610168626821F47C510EEB95
:102DE000022211430160016A89062FD4C168D4E927
:102DF000097621F0FF01013F3943A268A369C16050
:102E00000168022B21F0400141EA02010160D0F883
:102E10000811E26A21F0A04141EA060141EA0201FB
:102E2000C0F80811016841F00101016003D1816817
:102E300041F002018160E068B0F1806F14BF0220B0
:102E400001202065002001B0F0BD00BF41F28936AD
:102E500003E000BF016A8906C8D5FEF749FF411BA0
:102E60002068B142F6D3016A8906F3D54FF40070A9
:102E70002065606D40F001006065012001B0F0BD8B
:102E8000F0B581B00D460446FEF732FF216D0429EE
:102E900028D106462068A76D016A890635D5791CB8
:102EA00029D067B9FEF724FF2068016A89060FD48C
:102EB000016A8906F6D428E0016A890625D5FEF75D
:102EC00017FF811B2068B942F6D9016A8906F3D53C
:102ED0004FF400702065606D40F0010060650120D6
:102EE00001B0F0BD10206065012001B0F0BD00BF51
:102EF000016A890609D5016A890606D5016A89062B
:102F000044BF016A5FEA8161F2D4882121652968A2
:102F1000082908D16A68C0F830211022426202688C
:102F200042F480120260026822F00802114341F06C
:102F300040510160002001B0F0BD00002DE9F043D8
:102F4000B9B0044602A800250830C0213895CDE963
:102F50003655CDE93455FDF71DFD206841F200419D
:102F6000C4F20D21884203D039B0BDE8F08300BF20
:102F70004FF08060029002A8039501F0B1F800289C
:102F800018BFFDF753FE40F68C40C4F202600168A2
:102F900040F6000441F4001101600168C4F202240B
:102FA00001F4001101910199416834AD41F0100123
:102FB000416041684FF0020801F010010191019950
:102FC00001684FF0000941F0040101600168032627
:102FD00001F0040101910199016841F001010160D2
:102FE0000068294600F0010001900198012034900A
:102FF0002046CDF8D480CDF8D890CDE93766FEF7DD
:1030000041FD0E2034A981E801030A272046294604
:1030100037963897FEF736FD0C2034A981E8010376
:10302000A4F500602946CDE93767FEF72BFD39B0DE
:10303000BDE8F0832DE9F04381B015460F46044604
:10304000FEF756FE2668B16CD6F81021C7B180464F
:10305000206D04281AD1306C01230130A064A06CCB
:1030600060642764306863F31D703060E068B0F11D
:10307000806F11D1B16415F1010918D154E000BF7E
:1030800008206065012001B0BDE8F0831020606574
:10309000012001B0BDE8F083D6F8000110F4E06F24
:1030A0000CBFC6F81021B16415F101093CD0002D08
:1030B00065D100BF2068006A10F0060F70D096F846
:1030C00050003870206CA16C471C481E2764A06417
:1030D000A06C0028EED12068016A890711D4002D68
:1030E0005ED0B9F1000F34D1016A890709D4016AB1
:1030F00089075CBF016A5FEA817102D4016A8907AE
:10310000F2D5022141622165002001B0BDE8F083C3
:1031100096F850003870206CA16C471C481E27643C
:10312000A064A06C0028D6D02068016A11F0060FB8
:10313000EED1016A11F0060FEAD1016A11F0060F13
:10314000E6D1016A11F0060FEFD0E1E7016A8907C5
:10315000D7D4FEF7CDFDA0EB08012068A942F5D930
:1031600021E000BF276C96F850003870206CA16CED
:10317000471C481E2764A064A06C0028ABD02068C0
:10318000006A10F0060FEED1FEF7B2FDA0EB0801C9
:103190002068A94207D8006A10F0060FF4D0E1E7D2
:1031A000FEF7A6FD2068006A4FF400702065606D90
:1031B00040F001006065012001B0BDE8F08300002F
:1031C00040F60C0CC4F2026CDCF8302002F4403201
:1031D00082420BD1B0F1011F68D3DCF8000040F44B
:1031E0008020CCF800000020704700BFDCF80020F1
:1031F000B0F5803F22F4E02242EA000240F264008F
:1032000088BF42F48022CCF80020C2F2000000689F
:1032100041F25972CDF2B712A0FB0202900B0346A5
:10322000DCF80010B3F1FF3218BF012209041ED4EC
:10323000591C1CD0DCF80010002B1A4618BF0122C4
:10324000090414D49BB1DCF800105A1E18BF0122E7
:1032500009040CD4012B0AD0DCF800109A1E18BF08
:103260000122090403D4022BA3F10403D8D112B321
:10327000DCF83010421C090416D4AAB1DCF8301076
:10328000090412D488B1DCF83010090410D40128E4
:103290000ED0DCF83010021F090402D402281046B8
:1032A000E6D1901C10B906E0104620B1002070470E
:1032B00001380028FAD103207047000040F62C00A6
:1032C000C4F20260016841F0010101607047000032
:1032D00040F63C00C4F20260006800F440307047E1
:1032E000B0B540F6284EC4F2026EDEF80C50DEF89F
:1032F0000030DEF80010DEF80020DEF81040D206C4
:10330000E40804EAE272C1F303216FF35F3200EED6
:10331000102A03F00303B8EE400A6FF35F25012B78
:1033200001F1010C66D0032B18BF022B62D101EE14
:1033300010CADEF80C10B8EE411A9FED4D2A6FF35B
:103340005F2182EE011A02EE101A9FED4A3AB8EEA2
:10335000422A20EE030A30EE020AB7EE002A30EECF
:10336000022ADEF8001021EE020AC90371D5DEF848
:103370000C10B7EE002AC1F3462101EE101AB8EE88
:10338000411A31EE021A80EE011ABCEEC11A11EE9A
:10339000102A0260DEF80010890360D5DEF80C10F8
:1033A000B7EE002AC1F3064101EE101AB8EE411A39
:1033B00031EE021A80EE011ABCEEC11A11EE102A8B
:1033C0004260DEF8001049034FD5DEF80C10B7EE6E
:1033D000002AC1F3066101EE101AB8EE411A31EE6F
:1033E000021A80EE010ABCEEC00A10EE101A8160CB
:1033F000B0BD00BF5EF8201C090203D4DEF8CC107B
:103400000B0401E05EF8203C42F20472190FC0F692
:10341000040202EB810102EE10CA91ED001AB8EE2F
:10342000422AB8EE411A9FED133A81EE022A01EECC
:10343000105A20EE030AB8EE411A30EE010AB7EE38
:10344000001A30EE011ADEF8001021EE020AC9035C
:103450008DD400220260DEF8001089039ED4002281
:103460004260DEF800104903AFD400218160B0BD96
:103470000024744B00000039B0B540F62C4EC4F265
:10348000026EDEF81050DEF80030DEF80010DEF8D4
:103490000020DEF81440D206E40804EAE272C1F328
:1034A00003216FF35F3200EE102A03F00303B8EE3E
:1034B000400A6FF35F25012B01F1010C66D0032B4D
:1034C00018BF022B62D101EE10CADEF81010B8EE60
:1034D000411A9FED4D2A6FF35F2182EE011A02EE31
:1034E000101A9FED4A3AB8EE422A20EE030A30EE57
:1034F000020AB7EE002A30EE022ADEF8001021EEB2
:10350000020AC90371D5DEF81010B7EE002AC1F324
:10351000462101EE101AB8EE411A31EE021A80EE81
:10352000011ABCEEC11A11EE102A0260DEF800107A
:10353000890360D5DEF81010B7EE002AC1F306410A
:1035400001EE101AB8EE411A31EE021A80EE011A9D
:10355000BCEEC11A11EE102A4260DEF800104903D9
:103560004FD5DEF81010B7EE002AC1F3066101EE68
:10357000101AB8EE411A31EE021A80EE010ABCEEC2
:10358000C00A10EE101A8160B0BD00BF5EF8241CA6
:10359000090203D4DEF8C8100B0401E05EF8243CF5
:1035A00042F20472190FC0F6040202EB810102EE2E
:1035B00010CA91ED001AB8EE422AB8EE411A9FEDFA
:1035C000133A81EE022A01EE105A20EE030AB8EEF9
:1035D000411A30EE010AB7EE001A30EE011ADEF899
:1035E000001021EE020AC9038DD400220260DEF829
:1035F000001089039ED400224260DEF800104903C7
:10360000AFD400218160B0BD0024744B00000039AC
:10361000B0B540F6304EC4F2026EDEF81450DEF85B
:103620000030DEF80010DEF80020DEF81840D20688
:10363000E40804EAE272C1F303216FF35F3200EEA3
:10364000102A03F00303B8EE400A6FF35F25012B45
:1036500001F1010C66D0032B18BF022B62D101EEE1
:1036600010CADEF81410B8EE411A9FED4D2A6FF320
:103670005F2182EE011A02EE101A9FED4A3AB8EE6F
:10368000422A20EE030A30EE020AB7EE002A30EE9C
:10369000022ADEF8001021EE020AC90371D5DEF815
:1036A0001410B7EE002AC1F3462101EE101AB8EE4D
:1036B000411A31EE021A80EE011ABCEEC11A11EE67
:1036C000102A0260DEF80010890360D5DEF81410BD
:1036D000B7EE002AC1F3064101EE101AB8EE411A06
:1036E00031EE021A80EE011ABCEEC11A11EE102A58
:1036F0004260DEF8001049034FD5DEF81410B7EE33
:10370000002AC1F3066101EE101AB8EE411A31EE3B
:10371000021A80EE010ABCEEC00A10EE101A816097
:10372000B0BD00BF5EF8281C090203D4DEF8C41047
:103730000B0401E05EF8283C42F20472190FC0F657
:10374000040202EB810102EE10CA91ED001AB8EEFC
:10375000422AB8EE411A9FED133A81EE022A01EE99
:10376000105A20EE030AB8EE411A30EE010AB7EE05
:10377000001A30EE011ADEF8001021EE020AC90329
:103780008DD400220260DEF8001089039ED400224E
:103790004260DEF800104903AFD400218160B0BD63
:1037A0000024744B0000003980B584B0024643F613
:1037B000FF7300209B1A70EB010345DA4FF6FF738D
:1037C000C0F21F039B1A70EB010380F2DF806FF0E1
:1037D0007E439B1A4FF0000C7CEB0103C0F21A8170
:1037E0004FF6FF73C0F27F039B1A7CEB0103C0F21C
:1037F000BB8182F400130B4300F0588382F48002F3
:10380000114340F03E8440F60041C4F20261D1F819
:10381000E00000F44040B0F5804F00F08B830028BA
:1038200000F025830A68B0F5004F03D112F48062DE
:1038300040F005840A68B0F5404F4FF0000000F0FA
:10384000EC8300F01EBC00BFD2F17F0370EB0103DC
:10385000C0F26880013A61F10001D2F13F034FF0FC
:10386000000373EB0101C0F00C84DFE812F04100AB
:1038700023020A0409020A040A040A04EF010A04E2
:103880000A040A040A040A040A040A04B3010A0422
:103890000A040A040A040A040A040A040A040A04B8
:1038A0000A040A040A040A040A040A043D020A0477
:1038B0000A040A040A040A040A040A040A040A0498
:1038C0000A040A040A040A040A040A040A040A0488
:1038D0000A040A040A040A040A040A040A040A0478
:1038E0000A040A040A040A040A040A04CF0100BFF5
:1038F00040F60040C4F20260D0F8E01001F003018D
:10390000012900F01783002900F00E8302680229C4
:1039100003D112F4806240F09283D0F8F0000329C2
:1039200000F0D6BB40F2FF339B1A4FF0000C7CEB4B
:10393000010380F28F8040F6FF739B1A7CEB01033A
:10394000C0F2DC8082F480630B4300F0F18182F4EA
:103950000062114340F0958340F60040C4F20260DB
:10396000D0F8E81011F4407100F0EA82D0F8F020AD
:10397000B1F5807F03D112F0006240F0ED81026862
:10398000B1F5007F00F039813BE100BF4FF6FF73D6
:10399000C0F201039B1A4FF0000C7CEB010380F294
:1039A00089804FF6FF73C0F207039B1A7CEB01037B
:1039B000C0F2C28082F400330B4300F0F38182F442
:1039C0008022114340F05D8340F60040C4F2026063
:1039D000D0F8F010D0F8F02001F44071920703D530
:1039E000B1F5807F00F0F280D0F8F020120103D50D
:1039F000B1F5007F00F0B0810068B1F5407F00F4C0
:103A000000324FF0000004BF4AF22010C0F207005D
:103A100034E300BF6FF078439B1A7CEB0103C0F2E4
:103A2000BB8082F000730B4300F0608282F0806202
:103A3000114340F0268340F60040C4F20260D0F803
:103A4000E410C1F30151DFE811F075027B029A0224
:103A5000A10200BF82F080030B4300F0F98182F4E1
:103A600080730B4300F0CE8182F40072114340F06A
:103A7000088340F60040C4F20260D0F8E81011F468
:103A8000406100F0AD82D0F8F020B1F5806F03D135
:103A900012F0006240F060810268B1F5006F03D15E
:103AA00012F4806240F0CB82D0F8F000B1F5406FA4
:103AB0000EE300BF82F480430B4300F0DD8182F40B
:103AC00000430B4300F0AA8182F48032114340F09E
:103AD000D88240F60041C4F20261D1F8E40000F05F
:103AE0000702042A00F27F824BF68030DFE812F0F2
:103AF000AA01F8016E01C902560200BF82F4805388
:103B00000B4300F0338182F40052114340F0B9823C
:103B100040F60041C4F20261D1F8E400C0F3421261
:103B2000042A00F260824BF68030DFE812F0470290
:103B3000B901D901AA025F0282F400230B4300F00D
:103B40004B8182F48012114340F09B8240F600408A
:103B5000C4F20260D0F8E010C1F38161DFE811F037
:103B6000B60116020F02F00182F400030B4300F0CD
:103B7000CF8182F08072114340F0838240F6004092
:103B8000C4F20260D0F8E010C1F30141DFE811F0A7
:103B90006F01D201E201D80182F000630B4300F013
:103BA000DB8182F08052114340F06B8240F600418D
:103BB000C4F20261D1F8E800D1F8F020920700F4D5
:103BC000004240F10182002A40F0FE814FF40040A3
:103BD00004B080BD40F60040C4F20260D0F8E010AE
:103BE00001F44071B1F5807F00F0A481002900F05C
:103BF0003E810268B1F5007F03D112F4806240F08B
:103C00001E82D0F8F000B1F5407F61E240F600413D
:103C1000C4F20261D1F8E00000F44060B0F5806FBA
:103C200000F08881002800F022810A68B0F5006F5A
:103C300003D112F4806240F002820A68B0F5406F4E
:103C40004FF0000000F0E9811BE200BF40F60040A9
:103C5000C4F20260D0F8E01001F0C001402900F089
:103C60006981002900F003810268802903D112F4E0
:103C7000806240F0E481D0F8F000C02928E200BF63
:103C800040F60040C4F20260D0F8E01001F03001CC
:103C9000102900F04F81002900F0E98002682029F6
:103CA00003D112F4806240F0CA81D0F8F0003029CC
:103CB0000EE200BF40F60040C4F20260D0F8E0100F
:103CC00001F00C01042900F03581002900F0CF80BB
:103CD0000268082903D112F4806240F0B081D0F864
:103CE000F0000C29F4E100BF40F60041C4F202618B
:103CF000D1F8E80000F00700012800F01B8100283F
:103D000000F000810A68022803D112F4806240F0BA
:103D10009681D1F8F020032803D112F002027FF43B
:103D200055AF0A6804284FF0000000F07681A8E142
:103D300040F60040C4F20260D0F8E01011F44021D7
:103D400000F09580D0F8F020B1F5802F40F0708120
:103D500012F0006200F06C81D0F8F000C0004FF06B
:103D6000FA0058BF4FF4FA4004B080BD40F600415D
:103D7000C4F20261D1F8E4000A6800F40060520560
:103D800002D5002800F05B81096800281CBF41F2C1
:103D90000020C0F27A0001F48061002908BF0846C3
:103DA00004B080BD40F60041C4F20261D1F8E800E1
:103DB000C0F30242042A00F216814BF68030DFE89D
:103DC00012F041008F0005006001ED0001A8FFF72F
:103DD0001FFC029804B080BD40F60040C4F20260AF
:103DE000D0F8E410026801F44051920440F1DA8006
:103DF000002940F0D78046F60040C0F2DC2004B035
:103E000080BD00BF40F60040C4F20260D0F8E81068
:103E1000C1F38111DFE801F0768E9E9440F60041F7
:103E2000C4F20261D1F8E800C0F30232052A00F2C0
:103E30003181DFE812F007007F0029012F012F01F7
:103E4000B30000BF04B0BDE8804000F0D3BD00BFA8
:103E500040F60041C4F20261D1F8E00000F44050A5
:103E6000B0F5805F00F06680002840F0C98004B0A3
:103E7000BDE8804000F0D4BD40F60041C4F20261CC
:103E8000D1F8E400C0F30222042A00F2AC804BF621
:103E90008030DFE812F0930005002500F600AB004B
:103EA00001A8FFF7B5FB019804B080BD40F60040C3
:103EB000C4F20260D0F8E410490411D4D0F8E01044
:103EC000C1F38161DFE801F002625B3C006846F605
:103ED00000418004C0F2DC2101EAE07004B080BD42
:103EE00001A8FFF7FDF9019804B080BD40F600403D
:103EF000C4F20260D0F8E810C1F3C101DFE801F0BC
:103F0000021A2A2004B0BDE8804000F0C9BD00BFFD
:103F100040F60040C4F20260D0F8E010C1F3015155
:103F2000DFE801F00208180E04B0BDE8804000F0A0
:103F300097BD00BF04B0BDE8804000F0D1BD00BF18
:103F4000016889064FD58168090225D4D0F8F400AC
:103F50006BE000BF00684AE040F60040C4F2026037
:103F6000D0F8E0100068800301F0407001D500280F
:103F700065D0B0F1007F21D0B0F1807F33D101A8AE
:103F8000FFF7AEF9029804B080BD00BF01A8FFF7AB
:103F900073FA029804B080BD806858E00868800613
:103FA0003ED420E0026892045CD5B1F5805F59D11F
:103FB00043F20060C0F26E1004B080BD01A8FFF7AC
:103FC0005BFA019804B080BDD1F8F00000014FF019
:103FD000000056D5002A54D0D1F8F000BEE600BF4C
:103FE00001688906AFD4002004B080BD086842F2A1
:103FF00000414005C0F2F40101EAE07004B080BD68
:104000000A68B0F5005F02D112F4806217D10A6825
:10401000B0F5405F4FF0000033D112F0200230D0F5
:104020008868000212D4D1F8F40000040FE000BF49
:104030000268B1F5002F47D112F4806244D042F2F9
:104040000040C0F2F40004B080BD00BF8868C0F337
:10405000036042F20471C0F6040151F8200004B07C
:1040600080BD00BF0068B1F5005F00F480624FF0D2
:10407000000004BF42F20040C0F2F400002A08BF72
:10408000104604B080BD00BF01A8FFF7F5F9039802
:1040900004B080BD00F4E0420B6842F20040B2F58B
:1040A000405FC0F2F40002D113F40033E9D1096893
:1040B00011F4806118BF0146B2F5804F18BF00218E
:1040C000084604B080BD00BFD0F8F000B1F5402F25
:1040D00000F002024FF0000008BF900304B080BD62
:1040E0002DE9F04F81B00446006840F6E046C10774
:1040F000C4F202661ED1810724D441072AD40107E5
:1041000030D4C10636D481063CD4410642D40106DF
:1041100048D4C1054ED4410254D481055AD4410536
:1041200060D4010566D440F628488004C4F20268D1
:104130006DD494E03168226D21F0030111433160A8
:104140008107DAD53168626D21F00C0111433160CD
:104150004107D4D53168A26D21F03001114331609F
:104160000107CED53168E26D21F0C0011143316005
:10417000C106C8D53168226E21F440711143316007
:104180008106C2D5B168626E21F007011143B160AA
:104190004106BCD53168A26E21F440611143316003
:1041A0000106B6D53168E26E21F440511143316009
:1041B000C105B0D5B168226F21F0C0011143B160D3
:1041C0004102AAD53168626F21F440411143316048
:1041D0008105A4D5B168A26F21F440611143B1609B
:1041E00041059ED53168E26F21F4402111433160D1
:1041F000010598D5B168D4F8802021F440711143AD
:10420000B16040F628488004C4F2026827D5D4F88B
:1042100090004FEA7011042928D8DFE801F0031359
:104220000B1B1B0004F1080006F04CFB0546B8B957
:104230000EE000BFD8F8001041F48031C8F800103B
:1042400008E000BF04F12C0006F0B6FB054638B9C3
:10425000D4F89000716821F0E001084370600025F7
:104260006078400606D4284629E000BF0125607822
:104270004006F8D5D4F894004FEA3021042939D803
:104280002846DFE801F0032F0B12120004F10800AA
:1042900006F018FB074698B909E000BFD8F80000FF
:1042A00040F48030C8F800002846074640B97068DE
:1042B000D4F8941020F4E0600843706000202F468A
:1042C0006178090629D5D4F8A8104FEA31310529BB
:1042D00000F2D281022911D00546B0B1A178C907F8
:1042E0001FD13BE004F12C0006F066FB00280746D6
:1042F000E6D1DCE701200127E2E700BF04F1080076
:1043000006F0E0FA00280546E8D1B068D4F8A81015
:1043100020F4E0400843B06000203D46A178C90782
:104320001CD0D4F88810042900F29E81DFE811F037
:104330000C00060088010C000C0000BFD8F800102B
:1043400041F48031C8F80010074640B97068D4F8CD
:10435000881020F007000843706000202F46A178E5
:1043600089071DD5D4F88C104FEA3141042900F299
:104370007F81DFE811F00B0005006F010B000B00DF
:10438000D8F8001041F48031C8F80010824640B9D6
:10439000B068D4F88C1020F4E0200843B06000200E
:1043A000BA46A178490701D4574659E0834656F8E2
:1043B0004C0C5FEA40790BD456F84C0C40F00400EA
:1043C00046F84C0C56F84C0C00F004000090009895
:1043D0004FF60047CFF6FF7758F8070040F001008E
:1043E00048F80700FDF784FC054600BF58F80700B1
:1043F000C00707D1FDF77CFC401B0228F6D903203B
:10440000032724E05846BBF1000F5F461FD13069F7
:1044100010F4407012D0D4F8C01088420BD030692C
:10442000316920F4407041F480313161316921F407
:10443000803131613061C00740F026813069D4F8A5
:10444000C01020F440700843306100205746B9F195
:10445000000F05D456F84C1C21F0040146F84C1C02
:10446000A178C90618D5D4F8A0104FEAB161032984
:1044700000F2DC80DFE801F00602CE0604F108005D
:1044800006F020FA024640B93068D4F8A01020F0B7
:1044900040600843306000203A4621680B031FD576
:1044A000D4F8983033B1B3F5005F18BFB3F5805F2F
:1044B00040F0C080054668B1CA0414D48A021BD4F7
:1044C0000A022BD4CA0132D48A0139D4490140D41A
:1044D00063E000BF706820F4405018437060002013
:1044E0001546CA04EAD57268D4F89C3022F40062FA
:1044F0001A4372608A02E3D5D4F8A420B2F5804F43
:1045000005D1D8F8003043F48033C8F80030736820
:1045100023F480431A4372600A02D3D53268D4F878
:10452000B43022F440121A433260CA01CCD532684A
:10453000D4F8B83022F440321A4332608A01C5D52B
:10454000B268D4F8BC3022F018021A43B2604901B4
:1045500023D5D4F8B010B1F5401F0FD0B1F5001F2E
:1045600005D1D8F8001041F40031C8F80010074612
:1045700058B1E178090714D437E000BF04F108000E
:1045800006F0A0F900280746F3D17068D4F8B010FF
:1045900020F440100843706000202F46E17809079E
:1045A00023D5D4F8841059B1B1F1007F10D0B1F106
:1045B000807F29D1D8F8001041F40031C8F80010EC
:1045C00060B1E178C90614D401B0BDE8F08F00BF36
:1045D00004F1080006F076F90028F2D13068D4F82A
:1045E000841020F04070084330603846E178C906F6
:1045F000EAD5B168D4F8AC2021F400411143B16090
:1046000001B0BDE8F08F00BF0120E178C906DBD51D
:10461000EFE700BFD8F8001041F40031C8F80010EF
:10462000002802467FF439AF2EE700BF01200122A7
:1046300033E700BF01200125CA047FF53FAF52E7F1
:1046400004F12C0006F0B8F9002807467FF487AE85
:104650007CE600BF04F12C0006F0AEF9002882468B
:104660007FF49FAE94E600BF0120012777E600BFEC
:1046700001204FF0010A94E601200125A178C90725
:104680007FF44FAE6AE600BFFDF732FB054641F20C
:10469000883B0327306980073FF5D0AEFDF728FB44
:1046A000411B03205945F5D9D1E600002DE9F04F13
:1046B00081B0002800F01C8142F20008C4F2020818
:1046C0000446D8F800000D4600F00F0088420DD2D5
:1046D000D8F8000020F00F002843C8F80000D8F8F0
:1046E000000000F00F00A84240F00281206840F670
:1046F0002049C106C4F202690DD56169D9F80420C8
:1047000002F07002914206D9D9F8042022F070021A
:104710001143C9F8041001070FD52169D9F8002009
:10472000702303EA1212914207D9D9F8002022F42B
:10473000E06242EA0111C9F8001041070DD5E168B5
:10474000D9F8002002F07002914206D9D9F8002071
:1047500022F070021143C9F8001081070DD5A1683D
:10476000D9F8002002F00F02914206D9D9F80020B2
:1047700022F00F021143C9F80010C00774D120685D
:1047800081070DD5A168D9F8002002F00F029142EF
:1047900006D2D9F8002022F00F021143C9F8001008
:1047A000D8F8001001F00F01A9420DD9D8F8001077
:1047B00021F00F012943C8F80010D8F8001001F0CB
:1047C0000F01A94240F0948041070DD5E168D9F866
:1047D000002002F07002914206D2D9F8002022F0A7
:1047E00070021143C9F8001001070FD52169D9F8EB
:1047F0000020702303EA1212914207D2D9F8002058
:1048000022F4E06242EA0111C9F80010C0060DD599
:104810006069D9F8041001F07001884206D2D9F815
:10482000041021F070010843C9F8040000F058F9A1
:10483000D9F8001042F26C6201F00F01C0F60402D8
:10484000525C40F20C01C2F20001096840F26403BC
:1048500020FA02F2C2F2000308461A6001B0BDE875
:10486000F04FFDF759BD00BF606840F61C47C4F229
:10487000026798B302282BD0032835D1D9F87400E9
:104880005FEA407A0BD4D9F8740040F00400C9F80C
:104890007400D9F8740000F0040000900098FDF74F
:1048A00027FA4FF6F03BCFF6FF7B57F80B10490382
:1048B0006AD4BAF1000F05D4D9F8740020F00400CE
:1048C000C9F8740057F81C0C800111D5606813E01A
:1048D00057F81C0C80030BD502200DE057F81C0C78
:1048E000400705D5002007E057F81C1C490503D4F4
:1048F000012001B0BDE8F08F396821F003010843C1
:104900003860FDF7F5F961680646032941F2883AF7
:1049100033D0022923D069B9386810F00C0F3FF466
:104920002EAFFDF7E5F9801B50454FF00300F3D99A
:10493000DFE700BF386800F00C0004283FF41FAF29
:10494000FDF7D6F9801B50454FF00300F2D9D0E7B0
:10495000FDF7CEF9801B50454FF00300C9D83868E9
:1049600000F00C000828F3D109E700BFFDF7C0F9FB
:10497000801B50454FF00300BBD8386800F00C0096
:104980000C28F3D1FBE600BF064600BF57F80B002A
:1049900040043FF58EAFFDF7ABF9801B02284FF0C6
:1049A0000300F3D9A5E700001F22026040F6204271
:1049B000C4F2026252F8043C03F00303436013683C
:1049C00003F00F038360136803F07003C360D2F831
:1049D00000C0702303EA1C130361526802F07002E6
:1049E000426142F20000C4F20200006800F00F00D1
:1049F0000860704780B500F073F840F62041C4F2BB
:104A00000261096842F26C6201F00F01C0F6040213
:104A1000515CC84040F26401C2F20001086080BDF0
:104A200080B500F05DF840F62041C4F202610A68EA
:104A300042F26C6302F00F02C0F604039A5CD040AD
:104A400040F26402C2F200021060096842F27C6225
:104A5000C1F30211C0F60402515CC84080BD0000E1
:104A600080B500F03DF840F62041C4F202610A68CA
:104A700042F26C6302F00F02C0F604039A5CD0406D
:104A800040F26402C2F200021060096842F27C62E5
:104A9000C1F30221C0F60402515CC84080BD000091
:104AA00080B500F01DF840F62041C4F202610A68AA
:104AB00042F26C6302F00F02C0F604039A5CD0402D
:104AC00040F26402C2F200021060496842F27C6265
:104AD000C1F30211C0F60402515CC84080BD000061
:104AE00040F62841C4F2026151F80C0C10F00C029F
:104AF000086815D00C2A04BF00F0030001280FD06D
:104B000051F80C0C9FED350A00F00C00042842F21D
:104B10000040C0F2F4001DD0082A18BF002019E0A0
:104B200051F8200C000205D4D1F8CC00C0F30330BA
:104B300003E000BF51F8200C000F42F20473C0F6EE
:104B4000040353F82000002A00EE100A18BF0020CA
:104B5000B8EE400A0C2A18BF7047D1F800C00A68A6
:104B60000B68C2F303220869013201EE102AC00863
:104B7000B8EE411ADB069FED1B2A00EAE3705FEAFC
:104B80008C7258BFB0EE402A82EE010A6FF35F309C
:104B900001EE100AC868B8EE411A6FF35F2002EE0A
:104BA000100A9FED0F3AB8EE422A21EE031AC868A8
:104BB00031EE021AB7EE002AC0F3066031EE021A97
:104BC000013020EE010A01EE100AB8EE411A80EE23
:104BD000010ABCEEC00A10EE100A70470000000087
:104BE000000000390024744B002804BF01207047E6
:104BF0002DE9F04782B040F6944A0446C4F2026AB6
:104C00005AF8780C5AF86C1C227800F00C07D00681
:104C100001F0030822D42078C0077BD0082F75D07C
:104C20000C2F08BFB8F1030F70D040F60046C4F255
:104C3000026661683068B1F5803F00F0D382B1F55B
:104C4000A81F00F0C782B1F5A02F40F0DD8240F42C
:104C500080203060306820F48010C1E217B30C2F40
:104C600008BFB8F1010F1DD040F60046C4F202663D
:104C7000E1693068002900F0C18140F00100306036
:104C8000FDF736F8054600BF3068400700F1C881DF
:104C9000FDF72EF8401B02284FF00300F4D900F076
:104CA00046BD00BFE069002800F0D48340F600490B
:104CB000C4F20269656AD9F8080000025ABFDAF83E
:104CC00060000004D9F8080000F07040854240F20E
:104CD0006381002F40F02B83DAF80000400700F1D9
:104CE0000B83DAF8000040F00400CAF80000DAF89C
:104CF000000000F0040001900198FEF7E9FADAF8EC
:104D0000001021F00401CAF80010F7E260680028E2
:104D100000F0A083207880072FD5042F20D00C2FFF
:104D200008BFB8F1020F1BD040F60046C4F202667D
:104D3000E1683068002900F0298240F4807030601A
:104D4000FCF7D6FF054600BF306840050CD4FCF7E1
:104D5000CFFF401B02284FF00300F5D900F0E7BC5D
:104D6000E068002800F076835AF8840C216920F46A
:104D7000F81040EA01404AF8840C207840F60047D9
:104D80000007C4F202675DD42078400700F1B280CA
:104D90002078800600F11A812078000600F1548105
:104DA0002078400600F19E81A56B002D45D05AF871
:104DB000780C00F00C000C2840F054825AF86C1C5F
:104DC0005AF8600C012D00F04583E26B01F00303FB
:104DD000934240F03F83226CC1F30323013A934294
:104DE00040F03883626C01F47041914240F03283AC
:104DF000A26C01466FF35F21013A914240F02A8391
:104E0000E16CC0F3462201398A4240F02383216DD0
:104E1000C0F3064201398A4240F01C83616DC0F341
:104E200006600139884240F015835AF85C0CE16D48
:104E3000C0F3CC00884240F09584002002B0BDE869
:104E4000F08700BFDAF800005FEA40780BD4DAF8A8
:104E5000000040F00400CAF80000DAF8000000F09A
:104E60000400019001984FF62846CFF6FF76B85916
:104E7000C00713D1B85940F00100B851FCF738FF12
:104E8000054600BFB859C00708D1FCF731FF401BE9
:104E90000228F7D9032002B0BDE8F0876069DAF88C
:104EA0005C10002800F0E880A06901F08052904278
:104EB00000F0428301F04062B2F1006F00F0CA825C
:104EC000490140F13283DAF85C0020F0A050CAF8C2
:104ED0005C00FCF70DFF0546DAF85C00000140F1CC
:104EE0002383FCF705FF401B05284FF00300F3D98F
:104EF00000F01DBCDAF800005FEA40780BD4DAF865
:104F0000000040F00400CAF80000DAF8000000F0E9
:104F10000400019001984FF62846CFF6FF76B85965
:104F2000C00713D1B85940F00100B851FCF7E0FEBA
:104F3000054600BFB859C00708D1FCF7D9FE401B91
:104F400002284FF00300F5D900F0F1BBA068C107BB
:104F500040F0A880DAF85C10002821F00101CAF8BE
:104F60005C10DAF85C1021F00401CAF85C1040F023
:104F7000A780FCF7BDFE054641F28836DAF85C00F2
:104F8000800740F1A782FCF7B3FE401BB0424FF010
:104F90000300F3D9CBE300BFD9F80800B5F1404FC7
:104FA00040F40000C9F80800D9F8080020F070406B
:104FB00040EA0500C9F80800C0F0AE80D9F80C003E
:104FC000216A20F01F00084300E200BFE16A386850
:104FD000002900F0ED8040F480503860FCF788FE36
:104FE000054600BF386880043FF5D6AEFCF780FE6A
:104FF000401B02284FF00300F4D998E320F0010091
:105000003060FCF775FE0546306840077FF503AE5B
:10501000FCF76EFE401B02284FF00300F4D986E334
:10502000B06840F40000B060B168606A21F070417F
:105030000143B0F1404FB160C0F09880F068216A40
:1050400020F01F00084341E2216B3868002900F07E
:10505000F78040F480403860FCF74AFE054600BF08
:10506000386800043FF59CAEFCF742FE401B022866
:105070004FF00300F4D95AE321F0A050CAF85C00C5
:10508000FCF736FE054600BFDAF85C00000140F18F
:105090006982FCF72DFE401B05284FF00300F3D971
:1050A00045E300BFDAF85C10400705D541F0040085
:1050B000CAF85C00DAF85C1041F00100CAF85C0044
:1050C000FCF716FE054641F2883600BFDAF85C00B0
:1050D000800731D4FCF70CFE401BB0424FF00300B8
:1050E000F4D924E3606B002800F0F280B86840F443
:1050F0000000B860B968D4E9090221F07061B0F12C
:10510000404F41EA0201B960C0F04C81F868216A61
:1051100020F01F000843F7E2B5F1FF3F40F3308174
:10512000D9F80C10206AB5F1804FC0F04B8121F402
:10513000F84141EA802049E1A168DAF85C000906FB
:1051400000F1B28020F0800041F28836CAF85C009D
:10515000DAF85C00000540F1C281FCF7C9FD401B94
:10516000B0424FF00300F3D9E1E200BFB0F1FF3FDE
:1051700040F37C81F268216AB0F1804FC0F0A281D7
:1051800022F4F84040EA8120A0E100BF20F48070C2
:105190003060FCF7ADFD0546306840057FF5EDADAC
:1051A000FCF7A6FD401B02284FF00300F4D9BEE235
:1051B00020F480503860FCF79BFD05463868800479
:1051C0007FF5EAADFCF794FD401B02284FF0030089
:1051D000F4D9ACE240F480203060306840F48010B4
:1051E0003060306840F480303060FCF781FD054667
:1051F000306880033FF58EADFCF77AFD401B6428D4
:105200004FF00300F4D992E220F48030306030682F
:10521000002920F480203060306820F48010306055
:10522000E3D1FCF765FD0546306880037FF572AD7C
:10523000FCF75EFD401B64284FF00300F4D976E2D2
:1052400020F480403860FCF753FD054638680004C0
:105250007FF5A6ADFCF74CFD401B02284FF0030084
:10526000F4D964E2386820F080703860FCF740FDC3
:10527000022D05460CD13868800140F17F81FCF792
:1052800037FD401B02284FF00300F4D94FE200BF66
:105290003868800140F10882FCF72AFD401B022893
:1052A0004FF00300F4D942E240F0800041F288362A
:1052B000CAF85C00DAF85C00000500F11081FCF728
:1052C00017FD401BB0424FF00300F3D92FE200BF9F
:1052D000386820F010003860FCF70AFD054600BF72
:1052E000386880067FF560ADFCF702FD401B0228A0
:1052F0004FF00300F4D91AE2FDF7EAFF20F4803101
:10530000B1F5003F44D10021B5F1805F38BF0121E4
:1053100042F20000C4F20200026822F00F020A44C6
:105320000260006800F00F00884240F09380D9F8D6
:10533000080040F40000C9F80800D9F80810606AB5
:1053400021F070410143B0F1404FC9F8081007D374
:10535000D9F80C00216A20F01F00084392E000BF3A
:10536000B0F1FF3F7ADDD9F80C20216AB0F1804F0F
:10537000C0F0848022F4F84040EA812082E000BF3F
:10538000D9F80C00216A20F4787040EA41101DE041
:105390000021B1EB157F40F0AF80B0F5803F59D1CF
:1053A0000321B5E7B0F1FF3F40F38C81FA68216A31
:1053B000B0F1804FC0F0A48122F4F84040EA81208F
:1053C000A2E100BF21F4782141EAC030002FC9F8E2
:1053D0000C0059D1DAF80000400715D4DAF80000C3
:1053E00040F00400CAF80000DAF8000000F0040001
:1053F00001900198FDF76CFFDAF8001021F004012C
:10540000CAF8001002E000BFFDF762FF20F480310F
:10541000B1F5003F14D10021B5F1805F38BF012103
:1054200042F20000C4F20200026822F00F020A44B5
:105430000260006800F00F00884225D00AE000BF3B
:105440000021B1EB157F63D1B0F5803F02D103217C
:10545000E6E700BF012002B0BDE8F087D9F80C00F4
:10546000216A20F4787040EA41100BE0F068216A6C
:1054700020F4787040EA411028E000BF22F4782040
:1054800040EAC130C9F80C00FFF72AFB5AF8741C37
:1054900042F26C6201F00F01C0F60402515C40F26E
:1054A000640220FA01F140F20C00C2F20000006830
:1054B000C2F200021160FCF72FFF002840F0378194
:1054C000FFF7A9BB22F4782040EAC130F060FFF773
:1054D000A2BB00BFDAF85C00000600F1FB80B8F167
:1054E000000F3FF555ACDAF8000020F00400CAF8D0
:1054F0000000FFF74DBC00BFB5F1005F40F21A811C
:1055000000287FF405AFB5F1405F98BF0121FFE6A9
:10551000B5F1005F40F2188100287FF481AFB5F14A
:10552000405F98BF01217BE7A069DAF85C1021F0A9
:1055300080510843CAF85C00DAF85C0040F08060F3
:10554000CAF85C00FCF7D4FB054600BFDAF85C0043
:10555000000107D4FCF7CCFB401B05284FF00300EB
:10556000F4D9E4E0B8F1000F3FF50EACDAF8000032
:1055700020F00400CAF80000FFF706BCDAF80000CB
:105580005FEA407C0BD4DAF8001041F00401CAF85D
:105590000010DAF8001001F00401019101994FF6B2
:1055A0000C48CFF6FF7857F808E057F808304FF668
:1055B000037623F4802347F808305AF86C3CD4E98A
:1055C0001102B343D4E90F656FF0FF013343184371
:1055D00001EB05214FF47E4308434AF86C0C5AF85E
:1055E000600C0021C8F280010840511EE26C4FF4AB
:1055F000FE0503EB4222236D6FF35F2105EB0343AE
:10560000656D92B24FF0FE4606EB0565084403F463
:10561000FE03104405F0FE45184428444AF8600C87
:105620005AF86C0C20F010004AF86C0CE06DC000C9
:105630004AF85C0C5AF86C0C40F010004AF86C0CFC
:105640005AF86C0CA16D20F00C0008435FEA4E3153
:105650004AF86C0C05D557F8080040F4802047F84C
:105660000800BCF1000F05D4DAF8000020F00400B7
:10567000CAF800005AF86C0C40F480204AF86C0C10
:10568000386840F080703860FCF732FB04463868B8
:1056900080013FF5D2ABFCF72BFB001B02284FF03B
:1056A0000300F4D943E000BF5AF86C0C4FF6FC71CC
:1056B000CFF6F87108404AF86C0C002002B0BDE843
:1056C000F08700BFF868216A20F4787040EA411042
:1056D0001AE000BFDAF85C0041F2883620F0800062
:1056E000CAF85C00DAF85C0000057FF5F8AEFCF75C
:1056F000FFFA401BB0424FF00300F3D917E000BFA0
:1057000022F4782040EAC130F860386840F0100098
:105710003860FCF7EDFA0546386880063FF544AB83
:10572000FCF7E6FA401B02284FF00300F4D902B060
:10573000BDE8F087B5F1805F10D10221B0F5803F60
:1057400008BF0121E4E500BFB5F1805F08D1022167
:10575000B0F5803F08BF012162E600BF0121D7E517
:1057600001215DE65AF86C0C20F010004AF86C0C30
:10577000FCF7BEFA0546FCF7BBFAA842FBD0E06D89
:10578000C0004AF85C0C5AF86C0C40F010004AF863
:105790006C0C002002B0BDE8F087000090F8892072
:1057A000012A1DD190F88820012A4FF0020218D05A
:1057B00080F889200268136823F001031360D1E99F
:1057C00000C3896803F4702343EA0C031943D161D1
:1057D0000121002280F8891080F888201046704747
:1057E000012210467047000010B582B0044690F8C0
:1057F0008800012802BF022002B010BD012084F8F9
:105800008800072084F8890040F26400C2F200009A
:10581000006841F6F111C0F27651A0FB0101480A7F
:10582000642100FB01F0019020680168890540F1C6
:105830008380016921F00801016101990139019119
:105840000199D9B1016909071ED501990139019161
:10585000019999B10169090716D501990139019199
:10586000019959B1016909070ED5019901390191D1
:10587000019919B101690907DFD405E0D4F88C104A
:1058800041F04001C4F88C10016841F4806101606E
:105890000199013901910199E1B1016889051FD58B
:1058A0000199013901910199A1B10168890517D5C3
:1058B000019901390191019961B1016889050FD5FB
:1058C000019901390191019921B101688905DFD45C
:1058D00006E000BFD4F88C1041F04001C4F88C10F1
:1058E000816941F400618161019901390191019956
:1058F000E1B1416909051FD501990139019101996A
:10590000A1B14169090517D50199013901910199A1
:1059100061B1416909050FD50199013901910199D9
:1059200021B141690905DFD406E000BFD4F88C102D
:1059300041F04001C4F88C108068000410D5D4F800
:10594000800068B10021C166FBF784FB40B1D4F848
:105950008000FBF705FC102804BF4020C4F88C0031
:1059600020688068400410D5D4F8840068B1002114
:10597000C166FBF76FFB40B1D4F88400FBF7F0FB86
:10598000102804BF4020C4F88C00206840F26F3219
:10599000016821F0010101600169914301618169A0
:1059A000012241F008018161816941F010018161AA
:1059B000816821F440418160816941F04001816149
:1059C000816941F020018161816941F480718161C7
:1059D000816941F400718161816941F400618161F3
:1059E0000021A4F86A10A4F87210D4F88C004006C4
:1059F0004FF001005CBFC4F88C10002084F88810C0
:105A000084F8892002B010BD7047000070B50168AD
:105A10000B694E698A6890F8895034050AD513F0ED
:105A2000080407D08A6942F400628A61BDE87040C8
:105A300000F072BA1E4006F06403042B08D1C16F57
:105A400004468847A16F2046BDE87040084700BF64
:105A500006F04503012B09D1816F0446884706F003
:105A600022012046022905D070BD00BF06F02603A2
:105A7000022B03D1C16FBDE870400847330711D432
:105A800016F4587FF0D0710660D4B1056BD4F105DF
:105A900077D4B10600F18380D0F88C10002940F053
:105AA0008E80E1E70268936943F00803936193698C
:105AB00043F010039361936943F4006393611369A6
:105AC00023F008031361926812F4404F19D0044682
:105AD00004F0F2FF012184F88910D4F88C1039B356
